{
	"contracts/Limit-Twitter.sol": {
		"Twitter": {
			"abi": [
				{
					"inputs": [
						{
							"internalType": "uint256",
							"name": "index",
							"type": "uint256"
						}
					],
					"name": "getSingleTweet",
					"outputs": [
						{
							"components": [
								{
									"internalType": "uint256",
									"name": "id",
									"type": "uint256"
								},
								{
									"internalType": "string",
									"name": "content",
									"type": "string"
								},
								{
									"internalType": "address",
									"name": "author",
									"type": "address"
								},
								{
									"internalType": "uint256",
									"name": "timestamp",
									"type": "uint256"
								}
							],
							"internalType": "struct Twitter.Tweet",
							"name": "",
							"type": "tuple"
						}
					],
					"stateMutability": "view",
					"type": "function"
				},
				{
					"inputs": [],
					"name": "getTweetLength",
					"outputs": [
						{
							"internalType": "uint256",
							"name": "",
							"type": "uint256"
						}
					],
					"stateMutability": "view",
					"type": "function"
				},
				{
					"inputs": [],
					"name": "getTweets",
					"outputs": [
						{
							"components": [
								{
									"internalType": "uint256",
									"name": "id",
									"type": "uint256"
								},
								{
									"internalType": "string",
									"name": "content",
									"type": "string"
								},
								{
									"internalType": "address",
									"name": "author",
									"type": "address"
								},
								{
									"internalType": "uint256",
									"name": "timestamp",
									"type": "uint256"
								}
							],
							"internalType": "struct Twitter.Tweet[]",
							"name": "",
							"type": "tuple[]"
						}
					],
					"stateMutability": "view",
					"type": "function"
				},
				{
					"inputs": [
						{
							"internalType": "uint256",
							"name": "_id",
							"type": "uint256"
						},
						{
							"internalType": "string",
							"name": "_content",
							"type": "string"
						}
					],
					"name": "postTweet",
					"outputs": [],
					"stateMutability": "nonpayable",
					"type": "function"
				},
				{
					"inputs": [
						{
							"internalType": "address",
							"name": "",
							"type": "address"
						},
						{
							"internalType": "uint256",
							"name": "",
							"type": "uint256"
						}
					],
					"name": "tweetsByUser",
					"outputs": [
						{
							"internalType": "uint256",
							"name": "id",
							"type": "uint256"
						},
						{
							"internalType": "string",
							"name": "content",
							"type": "string"
						},
						{
							"internalType": "address",
							"name": "author",
							"type": "address"
						},
						{
							"internalType": "uint256",
							"name": "timestamp",
							"type": "uint256"
						}
					],
					"stateMutability": "view",
					"type": "function"
				}
			],
			"devdoc": {
				"kind": "dev",
				"methods": {},
				"version": 1
			},
			"evm": {
				"assembly": "    /* \"contracts/Limit-Twitter.sol\":57:1144  contract Twitter {... */\n  mstore(0x40, 0x80)\n  callvalue\n  dup1\n  iszero\n  tag_1\n  jumpi\n  0x00\n  dup1\n  revert\ntag_1:\n  pop\n  dataSize(sub_0)\n  dup1\n  dataOffset(sub_0)\n  0x00\n  codecopy\n  0x00\n  return\nstop\n\nsub_0: assembly {\n        /* \"contracts/Limit-Twitter.sol\":57:1144  contract Twitter {... */\n      mstore(0x40, 0x80)\n      callvalue\n      dup1\n      iszero\n      tag_1\n      jumpi\n      0x00\n      dup1\n      revert\n    tag_1:\n      pop\n      jumpi(tag_2, lt(calldatasize, 0x04))\n      shr(0xe0, calldataload(0x00))\n      dup1\n      0x398f8a5d\n      eq\n      tag_3\n      jumpi\n      dup1\n      0x61cfc6c7\n      eq\n      tag_4\n      jumpi\n      dup1\n      0x89883310\n      eq\n      tag_5\n      jumpi\n      dup1\n      0xa2afce88\n      eq\n      tag_6\n      jumpi\n      dup1\n      0xfc86741f\n      eq\n      tag_7\n      jumpi\n    tag_2:\n      0x00\n      dup1\n      revert\n        /* \"contracts/Limit-Twitter.sol\":248:295  mapping(address => Tweet[]) public tweetsByUser */\n    tag_3:\n      tag_8\n      0x04\n      dup1\n      calldatasize\n      sub\n      dup2\n      add\n      swap1\n      tag_9\n      swap2\n      swap1\n      tag_10\n      jump\t// in\n    tag_9:\n      tag_11\n      jump\t// in\n    tag_8:\n      mload(0x40)\n      tag_12\n      swap5\n      swap4\n      swap3\n      swap2\n      swap1\n      tag_13\n      jump\t// in\n    tag_12:\n      mload(0x40)\n      dup1\n      swap2\n      sub\n      swap1\n      return\n        /* \"contracts/Limit-Twitter.sol\":823:952  function getSingleTweet(uint256 index) public view returns (Tweet memory) {... */\n    tag_4:\n      tag_14\n      0x04\n      dup1\n      calldatasize\n      sub\n      dup2\n      add\n      swap1\n      tag_15\n      swap2\n      swap1\n      tag_16\n      jump\t// in\n    tag_15:\n      tag_17\n      jump\t// in\n    tag_14:\n      mload(0x40)\n      tag_18\n      swap2\n      swap1\n      tag_19\n      jump\t// in\n    tag_18:\n      mload(0x40)\n      dup1\n      swap2\n      sub\n      swap1\n      return\n        /* \"contracts/Limit-Twitter.sol\":302:705  function postTweet(uint256 _id, string memory _content) public {... */\n    tag_5:\n      tag_20\n      0x04\n      dup1\n      calldatasize\n      sub\n      dup2\n      add\n      swap1\n      tag_21\n      swap2\n      swap1\n      tag_22\n      jump\t// in\n    tag_21:\n      tag_23\n      jump\t// in\n    tag_20:\n      stop\n        /* \"contracts/Limit-Twitter.sol\":958:1142  function getTweetLength() public view returns (uint256) {... */\n    tag_6:\n      tag_24\n      tag_25\n      jump\t// in\n    tag_24:\n      mload(0x40)\n      tag_26\n      swap2\n      swap1\n      tag_27\n      jump\t// in\n    tag_26:\n      mload(0x40)\n      dup1\n      swap2\n      sub\n      swap1\n      return\n        /* \"contracts/Limit-Twitter.sol\":711:817  function getTweets() public view returns (Tweet[] memory) {... */\n    tag_7:\n      tag_28\n      tag_29\n      jump\t// in\n    tag_28:\n      mload(0x40)\n      tag_30\n      swap2\n      swap1\n      tag_31\n      jump\t// in\n    tag_30:\n      mload(0x40)\n      dup1\n      swap2\n      sub\n      swap1\n      return\n        /* \"contracts/Limit-Twitter.sol\":248:295  mapping(address => Tweet[]) public tweetsByUser */\n    tag_11:\n      mstore(0x20, 0x00)\n      dup2\n      0x00\n      mstore\n      keccak256(0x00, 0x40)\n      dup2\n      dup2\n      sload\n      dup2\n      lt\n      tag_32\n      jumpi\n      0x00\n      dup1\n      revert\n    tag_32:\n      swap1\n      0x00\n      mstore\n      keccak256(0x00, 0x20)\n      swap1\n      0x04\n      mul\n      add\n      0x00\n      swap2\n      pop\n      swap2\n      pop\n      pop\n      dup1\n      0x00\n      add\n      sload\n      swap1\n      dup1\n      0x01\n      add\n      dup1\n      sload\n      tag_34\n      swap1\n      tag_35\n      jump\t// in\n    tag_34:\n      dup1\n      0x1f\n      add\n      0x20\n      dup1\n      swap2\n      div\n      mul\n      0x20\n      add\n      mload(0x40)\n      swap1\n      dup2\n      add\n      0x40\n      mstore\n      dup1\n      swap3\n      swap2\n      swap1\n      dup2\n      dup2\n      mstore\n      0x20\n      add\n      dup3\n      dup1\n      sload\n      tag_36\n      swap1\n      tag_35\n      jump\t// in\n    tag_36:\n      dup1\n      iszero\n      tag_37\n      jumpi\n      dup1\n      0x1f\n      lt\n      tag_38\n      jumpi\n      0x0100\n      dup1\n      dup4\n      sload\n      div\n      mul\n      dup4\n      mstore\n      swap2\n      0x20\n      add\n      swap2\n      jump(tag_37)\n    tag_38:\n      dup3\n      add\n      swap2\n      swap1\n      0x00\n      mstore\n      keccak256(0x00, 0x20)\n      swap1\n    tag_39:\n      dup2\n      sload\n      dup2\n      mstore\n      swap1\n      0x01\n      add\n      swap1\n      0x20\n      add\n      dup1\n      dup4\n      gt\n      tag_39\n      jumpi\n      dup3\n      swap1\n      sub\n      0x1f\n      and\n      dup3\n      add\n      swap2\n    tag_37:\n      pop\n      pop\n      pop\n      pop\n      pop\n      swap1\n      dup1\n      0x02\n      add\n      0x00\n      swap1\n      sload\n      swap1\n      0x0100\n      exp\n      swap1\n      div\n      0xffffffffffffffffffffffffffffffffffffffff\n      and\n      swap1\n      dup1\n      0x03\n      add\n      sload\n      swap1\n      pop\n      dup5\n      jump\t// out\n        /* \"contracts/Limit-Twitter.sol\":823:952  function getSingleTweet(uint256 index) public view returns (Tweet memory) {... */\n    tag_17:\n        /* \"contracts/Limit-Twitter.sol\":883:895  Tweet memory */\n      tag_40\n      tag_41\n      jump\t// in\n    tag_40:\n        /* \"contracts/Limit-Twitter.sol\":914:926  tweetsByUser */\n      0x00\n        /* \"contracts/Limit-Twitter.sol\":914:938  tweetsByUser[msg.sender] */\n      dup1\n        /* \"contracts/Limit-Twitter.sol\":927:937  msg.sender */\n      caller\n        /* \"contracts/Limit-Twitter.sol\":914:938  tweetsByUser[msg.sender] */\n      0xffffffffffffffffffffffffffffffffffffffff\n      and\n      0xffffffffffffffffffffffffffffffffffffffff\n      and\n      dup2\n      mstore\n      0x20\n      add\n      swap1\n      dup2\n      mstore\n      0x20\n      add\n      0x00\n      keccak256\n        /* \"contracts/Limit-Twitter.sol\":939:944  index */\n      dup3\n        /* \"contracts/Limit-Twitter.sol\":914:945  tweetsByUser[msg.sender][index] */\n      dup2\n      sload\n      dup2\n      lt\n      tag_43\n      jumpi\n      tag_44\n      tag_45\n      jump\t// in\n    tag_44:\n    tag_43:\n      swap1\n      0x00\n      mstore\n      keccak256(0x00, 0x20)\n      swap1\n      0x04\n      mul\n      add\n        /* \"contracts/Limit-Twitter.sol\":907:945  return tweetsByUser[msg.sender][index] */\n      mload(0x40)\n      dup1\n      0x80\n      add\n      0x40\n      mstore\n      swap1\n      dup2\n      0x00\n      dup3\n      add\n      sload\n      dup2\n      mstore\n      0x20\n      add\n      0x01\n      dup3\n      add\n      dup1\n      sload\n      tag_47\n      swap1\n      tag_35\n      jump\t// in\n    tag_47:\n      dup1\n      0x1f\n      add\n      0x20\n      dup1\n      swap2\n      div\n      mul\n      0x20\n      add\n      mload(0x40)\n      swap1\n      dup2\n      add\n      0x40\n      mstore\n      dup1\n      swap3\n      swap2\n      swap1\n      dup2\n      dup2\n      mstore\n      0x20\n      add\n      dup3\n      dup1\n      sload\n      tag_48\n      swap1\n      tag_35\n      jump\t// in\n    tag_48:\n      dup1\n      iszero\n      tag_49\n      jumpi\n      dup1\n      0x1f\n      lt\n      tag_50\n      jumpi\n      0x0100\n      dup1\n      dup4\n      sload\n      div\n      mul\n      dup4\n      mstore\n      swap2\n      0x20\n      add\n      swap2\n      jump(tag_49)\n    tag_50:\n      dup3\n      add\n      swap2\n      swap1\n      0x00\n      mstore\n      keccak256(0x00, 0x20)\n      swap1\n    tag_51:\n      dup2\n      sload\n      dup2\n      mstore\n      swap1\n      0x01\n      add\n      swap1\n      0x20\n      add\n      dup1\n      dup4\n      gt\n      tag_51\n      jumpi\n      dup3\n      swap1\n      sub\n      0x1f\n      and\n      dup3\n      add\n      swap2\n    tag_49:\n      pop\n      pop\n      pop\n      pop\n      pop\n      dup2\n      mstore\n      0x20\n      add\n      0x02\n      dup3\n      add\n      0x00\n      swap1\n      sload\n      swap1\n      0x0100\n      exp\n      swap1\n      div\n      0xffffffffffffffffffffffffffffffffffffffff\n      and\n      0xffffffffffffffffffffffffffffffffffffffff\n      and\n      0xffffffffffffffffffffffffffffffffffffffff\n      and\n      dup2\n      mstore\n      0x20\n      add\n      0x03\n      dup3\n      add\n      sload\n      dup2\n      mstore\n      pop\n      pop\n      swap1\n      pop\n        /* \"contracts/Limit-Twitter.sol\":823:952  function getSingleTweet(uint256 index) public view returns (Tweet memory) {... */\n      swap2\n      swap1\n      pop\n      jump\t// out\n        /* \"contracts/Limit-Twitter.sol\":302:705  function postTweet(uint256 _id, string memory _content) public {... */\n    tag_23:\n        /* \"contracts/Limit-Twitter.sol\":117:120  250 */\n      0xfa\n        /* \"contracts/Limit-Twitter.sol\":396:440  bytes(_content).length <= MAX_CONTENT_LENGTH */\n      0xffff\n      and\n        /* \"contracts/Limit-Twitter.sol\":402:410  _content */\n      dup2\n        /* \"contracts/Limit-Twitter.sol\":396:418  bytes(_content).length */\n      mload\n        /* \"contracts/Limit-Twitter.sol\":396:440  bytes(_content).length <= MAX_CONTENT_LENGTH */\n      gt\n      iszero\n        /* \"contracts/Limit-Twitter.sol\":375:507  require(... */\n      tag_53\n      jumpi\n      mload(0x40)\n      0x08c379a000000000000000000000000000000000000000000000000000000000\n      dup2\n      mstore\n      0x04\n      add\n      tag_54\n      swap1\n      tag_55\n      jump\t// in\n    tag_54:\n      mload(0x40)\n      dup1\n      swap2\n      sub\n      swap1\n      revert\n    tag_53:\n        /* \"contracts/Limit-Twitter.sol\":518:539  Tweet memory newTweet */\n      0x00\n        /* \"contracts/Limit-Twitter.sol\":542:649  Tweet(... */\n      mload(0x40)\n      dup1\n      0x80\n      add\n      0x40\n      mstore\n      dup1\n        /* \"contracts/Limit-Twitter.sol\":561:564  _id */\n      dup5\n        /* \"contracts/Limit-Twitter.sol\":542:649  Tweet(... */\n      dup2\n      mstore\n      0x20\n      add\n        /* \"contracts/Limit-Twitter.sol\":578:586  _content */\n      dup4\n        /* \"contracts/Limit-Twitter.sol\":542:649  Tweet(... */\n      dup2\n      mstore\n      0x20\n      add\n        /* \"contracts/Limit-Twitter.sol\":600:610  msg.sender */\n      caller\n        /* \"contracts/Limit-Twitter.sol\":542:649  Tweet(... */\n      0xffffffffffffffffffffffffffffffffffffffff\n      and\n      dup2\n      mstore\n      0x20\n      add\n        /* \"contracts/Limit-Twitter.sol\":624:639  block.timestamp */\n      timestamp\n        /* \"contracts/Limit-Twitter.sol\":542:649  Tweet(... */\n      dup2\n      mstore\n      pop\n        /* \"contracts/Limit-Twitter.sol\":518:649  Tweet memory newTweet = Tweet(... */\n      swap1\n      pop\n        /* \"contracts/Limit-Twitter.sol\":659:671  tweetsByUser */\n      0x00\n        /* \"contracts/Limit-Twitter.sol\":659:683  tweetsByUser[msg.sender] */\n      dup1\n        /* \"contracts/Limit-Twitter.sol\":672:682  msg.sender */\n      caller\n        /* \"contracts/Limit-Twitter.sol\":659:683  tweetsByUser[msg.sender] */\n      0xffffffffffffffffffffffffffffffffffffffff\n      and\n      0xffffffffffffffffffffffffffffffffffffffff\n      and\n      dup2\n      mstore\n      0x20\n      add\n      swap1\n      dup2\n      mstore\n      0x20\n      add\n      0x00\n      keccak256\n        /* \"contracts/Limit-Twitter.sol\":689:697  newTweet */\n      dup2\n        /* \"contracts/Limit-Twitter.sol\":659:698  tweetsByUser[msg.sender].push(newTweet) */\n      swap1\n      dup1\n      0x01\n      dup2\n      sload\n      add\n      dup1\n      dup3\n      sstore\n      dup1\n      swap2\n      pop\n      pop\n      0x01\n      swap1\n      sub\n      swap1\n      0x00\n      mstore\n      keccak256(0x00, 0x20)\n      swap1\n      0x04\n      mul\n      add\n      0x00\n      swap1\n      swap2\n      swap1\n      swap2\n      swap1\n      swap2\n      pop\n      0x00\n      dup3\n      add\n      mload\n      dup2\n      0x00\n      add\n      sstore\n      0x20\n      dup3\n      add\n      mload\n      dup2\n      0x01\n      add\n      swap1\n      dup2\n      tag_57\n      swap2\n      swap1\n      tag_58\n      jump\t// in\n    tag_57:\n      pop\n      0x40\n      dup3\n      add\n      mload\n      dup2\n      0x02\n      add\n      exp(0x0100, 0x00)\n      dup2\n      sload\n      dup2\n      0xffffffffffffffffffffffffffffffffffffffff\n      mul\n      not\n      and\n      swap1\n      dup4\n      0xffffffffffffffffffffffffffffffffffffffff\n      and\n      mul\n      or\n      swap1\n      sstore\n      pop\n      0x60\n      dup3\n      add\n      mload\n      dup2\n      0x03\n      add\n      sstore\n      pop\n      pop\n        /* \"contracts/Limit-Twitter.sol\":365:705  {... */\n      pop\n        /* \"contracts/Limit-Twitter.sol\":302:705  function postTweet(uint256 _id, string memory _content) public {... */\n      pop\n      pop\n      jump\t// out\n        /* \"contracts/Limit-Twitter.sol\":958:1142  function getTweetLength() public view returns (uint256) {... */\n    tag_25:\n        /* \"contracts/Limit-Twitter.sol\":1005:1012  uint256 */\n      0x00\n        /* \"contracts/Limit-Twitter.sol\":1024:1045  Tweet[] memory tweets */\n      dup1\n        /* \"contracts/Limit-Twitter.sol\":1048:1060  tweetsByUser */\n      0x00\n        /* \"contracts/Limit-Twitter.sol\":1048:1072  tweetsByUser[msg.sender] */\n      dup1\n        /* \"contracts/Limit-Twitter.sol\":1061:1071  msg.sender */\n      caller\n        /* \"contracts/Limit-Twitter.sol\":1048:1072  tweetsByUser[msg.sender] */\n      0xffffffffffffffffffffffffffffffffffffffff\n      and\n      0xffffffffffffffffffffffffffffffffffffffff\n      and\n      dup2\n      mstore\n      0x20\n      add\n      swap1\n      dup2\n      mstore\n      0x20\n      add\n      0x00\n      keccak256\n        /* \"contracts/Limit-Twitter.sol\":1024:1072  Tweet[] memory tweets = tweetsByUser[msg.sender] */\n      dup1\n      sload\n      dup1\n      0x20\n      mul\n      0x20\n      add\n      mload(0x40)\n      swap1\n      dup2\n      add\n      0x40\n      mstore\n      dup1\n      swap3\n      swap2\n      swap1\n      dup2\n      dup2\n      mstore\n      0x20\n      add\n      0x00\n      swap1\n    tag_60:\n      dup3\n      dup3\n      lt\n      iszero\n      tag_61\n      jumpi\n      dup4\n      dup3\n      swap1\n      0x00\n      mstore\n      keccak256(0x00, 0x20)\n      swap1\n      0x04\n      mul\n      add\n      mload(0x40)\n      dup1\n      0x80\n      add\n      0x40\n      mstore\n      swap1\n      dup2\n      0x00\n      dup3\n      add\n      sload\n      dup2\n      mstore\n      0x20\n      add\n      0x01\n      dup3\n      add\n      dup1\n      sload\n      tag_63\n      swap1\n      tag_35\n      jump\t// in\n    tag_63:\n      dup1\n      0x1f\n      add\n      0x20\n      dup1\n      swap2\n      div\n      mul\n      0x20\n      add\n      mload(0x40)\n      swap1\n      dup2\n      add\n      0x40\n      mstore\n      dup1\n      swap3\n      swap2\n      swap1\n      dup2\n      dup2\n      mstore\n      0x20\n      add\n      dup3\n      dup1\n      sload\n      tag_64\n      swap1\n      tag_35\n      jump\t// in\n    tag_64:\n      dup1\n      iszero\n      tag_65\n      jumpi\n      dup1\n      0x1f\n      lt\n      tag_66\n      jumpi\n      0x0100\n      dup1\n      dup4\n      sload\n      div\n      mul\n      dup4\n      mstore\n      swap2\n      0x20\n      add\n      swap2\n      jump(tag_65)\n    tag_66:\n      dup3\n      add\n      swap2\n      swap1\n      0x00\n      mstore\n      keccak256(0x00, 0x20)\n      swap1\n    tag_67:\n      dup2\n      sload\n      dup2\n      mstore\n      swap1\n      0x01\n      add\n      swap1\n      0x20\n      add\n      dup1\n      dup4\n      gt\n      tag_67\n      jumpi\n      dup3\n      swap1\n      sub\n      0x1f\n      and\n      dup3\n      add\n      swap2\n    tag_65:\n      pop\n      pop\n      pop\n      pop\n      pop\n      dup2\n      mstore\n      0x20\n      add\n      0x02\n      dup3\n      add\n      0x00\n      swap1\n      sload\n      swap1\n      0x0100\n      exp\n      swap1\n      div\n      0xffffffffffffffffffffffffffffffffffffffff\n      and\n      0xffffffffffffffffffffffffffffffffffffffff\n      and\n      0xffffffffffffffffffffffffffffffffffffffff\n      and\n      dup2\n      mstore\n      0x20\n      add\n      0x03\n      dup3\n      add\n      sload\n      dup2\n      mstore\n      pop\n      pop\n      dup2\n      mstore\n      0x20\n      add\n      swap1\n      0x01\n      add\n      swap1\n      jump(tag_60)\n    tag_61:\n      pop\n      pop\n      pop\n      pop\n      swap1\n      pop\n        /* \"contracts/Limit-Twitter.sol\":1082:1096  uint256 length */\n      0x00\n        /* \"contracts/Limit-Twitter.sol\":1099:1105  tweets */\n      dup2\n        /* \"contracts/Limit-Twitter.sol\":1099:1112  tweets.length */\n      mload\n        /* \"contracts/Limit-Twitter.sol\":1082:1112  uint256 length = tweets.length */\n      swap1\n      pop\n        /* \"contracts/Limit-Twitter.sol\":1129:1135  length */\n      dup1\n        /* \"contracts/Limit-Twitter.sol\":1122:1135  return length */\n      swap3\n      pop\n      pop\n      pop\n        /* \"contracts/Limit-Twitter.sol\":958:1142  function getTweetLength() public view returns (uint256) {... */\n      swap1\n      jump\t// out\n        /* \"contracts/Limit-Twitter.sol\":711:817  function getTweets() public view returns (Tweet[] memory) {... */\n    tag_29:\n        /* \"contracts/Limit-Twitter.sol\":753:767  Tweet[] memory */\n      0x60\n        /* \"contracts/Limit-Twitter.sol\":786:798  tweetsByUser */\n      0x00\n        /* \"contracts/Limit-Twitter.sol\":786:810  tweetsByUser[msg.sender] */\n      dup1\n        /* \"contracts/Limit-Twitter.sol\":799:809  msg.sender */\n      caller\n        /* \"contracts/Limit-Twitter.sol\":786:810  tweetsByUser[msg.sender] */\n      0xffffffffffffffffffffffffffffffffffffffff\n      and\n      0xffffffffffffffffffffffffffffffffffffffff\n      and\n      dup2\n      mstore\n      0x20\n      add\n      swap1\n      dup2\n      mstore\n      0x20\n      add\n      0x00\n      keccak256\n        /* \"contracts/Limit-Twitter.sol\":779:810  return tweetsByUser[msg.sender] */\n      dup1\n      sload\n      dup1\n      0x20\n      mul\n      0x20\n      add\n      mload(0x40)\n      swap1\n      dup2\n      add\n      0x40\n      mstore\n      dup1\n      swap3\n      swap2\n      swap1\n      dup2\n      dup2\n      mstore\n      0x20\n      add\n      0x00\n      swap1\n    tag_69:\n      dup3\n      dup3\n      lt\n      iszero\n      tag_70\n      jumpi\n      dup4\n      dup3\n      swap1\n      0x00\n      mstore\n      keccak256(0x00, 0x20)\n      swap1\n      0x04\n      mul\n      add\n      mload(0x40)\n      dup1\n      0x80\n      add\n      0x40\n      mstore\n      swap1\n      dup2\n      0x00\n      dup3\n      add\n      sload\n      dup2\n      mstore\n      0x20\n      add\n      0x01\n      dup3\n      add\n      dup1\n      sload\n      tag_72\n      swap1\n      tag_35\n      jump\t// in\n    tag_72:\n      dup1\n      0x1f\n      add\n      0x20\n      dup1\n      swap2\n      div\n      mul\n      0x20\n      add\n      mload(0x40)\n      swap1\n      dup2\n      add\n      0x40\n      mstore\n      dup1\n      swap3\n      swap2\n      swap1\n      dup2\n      dup2\n      mstore\n      0x20\n      add\n      dup3\n      dup1\n      sload\n      tag_73\n      swap1\n      tag_35\n      jump\t// in\n    tag_73:\n      dup1\n      iszero\n      tag_74\n      jumpi\n      dup1\n      0x1f\n      lt\n      tag_75\n      jumpi\n      0x0100\n      dup1\n      dup4\n      sload\n      div\n      mul\n      dup4\n      mstore\n      swap2\n      0x20\n      add\n      swap2\n      jump(tag_74)\n    tag_75:\n      dup3\n      add\n      swap2\n      swap1\n      0x00\n      mstore\n      keccak256(0x00, 0x20)\n      swap1\n    tag_76:\n      dup2\n      sload\n      dup2\n      mstore\n      swap1\n      0x01\n      add\n      swap1\n      0x20\n      add\n      dup1\n      dup4\n      gt\n      tag_76\n      jumpi\n      dup3\n      swap1\n      sub\n      0x1f\n      and\n      dup3\n      add\n      swap2\n    tag_74:\n      pop\n      pop\n      pop\n      pop\n      pop\n      dup2\n      mstore\n      0x20\n      add\n      0x02\n      dup3\n      add\n      0x00\n      swap1\n      sload\n      swap1\n      0x0100\n      exp\n      swap1\n      div\n      0xffffffffffffffffffffffffffffffffffffffff\n      and\n      0xffffffffffffffffffffffffffffffffffffffff\n      and\n      0xffffffffffffffffffffffffffffffffffffffff\n      and\n      dup2\n      mstore\n      0x20\n      add\n      0x03\n      dup3\n      add\n      sload\n      dup2\n      mstore\n      pop\n      pop\n      dup2\n      mstore\n      0x20\n      add\n      swap1\n      0x01\n      add\n      swap1\n      jump(tag_69)\n    tag_70:\n      pop\n      pop\n      pop\n      pop\n      swap1\n      pop\n        /* \"contracts/Limit-Twitter.sol\":711:817  function getTweets() public view returns (Tweet[] memory) {... */\n      swap1\n      jump\t// out\n    tag_41:\n      mload(0x40)\n      dup1\n      0x80\n      add\n      0x40\n      mstore\n      dup1\n      0x00\n      dup2\n      mstore\n      0x20\n      add\n      0x60\n      dup2\n      mstore\n      0x20\n      add\n      and(0xffffffffffffffffffffffffffffffffffffffff, 0x00)\n      dup2\n      mstore\n      0x20\n      add\n      0x00\n      dup2\n      mstore\n      pop\n      swap1\n      jump\t// out\n        /* \"#utility.yul\":7:82   */\n    tag_77:\n        /* \"#utility.yul\":40:46   */\n      0x00\n        /* \"#utility.yul\":73:75   */\n      0x40\n        /* \"#utility.yul\":67:76   */\n      mload\n        /* \"#utility.yul\":57:76   */\n      swap1\n      pop\n        /* \"#utility.yul\":7:82   */\n      swap1\n      jump\t// out\n        /* \"#utility.yul\":88:205   */\n    tag_78:\n        /* \"#utility.yul\":197:198   */\n      0x00\n        /* \"#utility.yul\":194:195   */\n      dup1\n        /* \"#utility.yul\":187:199   */\n      revert\n        /* \"#utility.yul\":211:328   */\n    tag_79:\n        /* \"#utility.yul\":320:321   */\n      0x00\n        /* \"#utility.yul\":317:318   */\n      dup1\n        /* \"#utility.yul\":310:322   */\n      revert\n        /* \"#utility.yul\":334:460   */\n    tag_80:\n        /* \"#utility.yul\":371:378   */\n      0x00\n        /* \"#utility.yul\":411:453   */\n      0xffffffffffffffffffffffffffffffffffffffff\n        /* \"#utility.yul\":404:409   */\n      dup3\n        /* \"#utility.yul\":400:454   */\n      and\n        /* \"#utility.yul\":389:454   */\n      swap1\n      pop\n        /* \"#utility.yul\":334:460   */\n      swap2\n      swap1\n      pop\n      jump\t// out\n        /* \"#utility.yul\":466:562   */\n    tag_81:\n        /* \"#utility.yul\":503:510   */\n      0x00\n        /* \"#utility.yul\":532:556   */\n      tag_139\n        /* \"#utility.yul\":550:555   */\n      dup3\n        /* \"#utility.yul\":532:556   */\n      tag_80\n      jump\t// in\n    tag_139:\n        /* \"#utility.yul\":521:556   */\n      swap1\n      pop\n        /* \"#utility.yul\":466:562   */\n      swap2\n      swap1\n      pop\n      jump\t// out\n        /* \"#utility.yul\":568:690   */\n    tag_82:\n        /* \"#utility.yul\":641:665   */\n      tag_141\n        /* \"#utility.yul\":659:664   */\n      dup2\n        /* \"#utility.yul\":641:665   */\n      tag_81\n      jump\t// in\n    tag_141:\n        /* \"#utility.yul\":634:639   */\n      dup2\n        /* \"#utility.yul\":631:666   */\n      eq\n        /* \"#utility.yul\":621:684   */\n      tag_142\n      jumpi\n        /* \"#utility.yul\":680:681   */\n      0x00\n        /* \"#utility.yul\":677:678   */\n      dup1\n        /* \"#utility.yul\":670:682   */\n      revert\n        /* \"#utility.yul\":621:684   */\n    tag_142:\n        /* \"#utility.yul\":568:690   */\n      pop\n      jump\t// out\n        /* \"#utility.yul\":696:835   */\n    tag_83:\n        /* \"#utility.yul\":742:747   */\n      0x00\n        /* \"#utility.yul\":780:786   */\n      dup2\n        /* \"#utility.yul\":767:787   */\n      calldataload\n        /* \"#utility.yul\":758:787   */\n      swap1\n      pop\n        /* \"#utility.yul\":796:829   */\n      tag_144\n        /* \"#utility.yul\":823:828   */\n      dup2\n        /* \"#utility.yul\":796:829   */\n      tag_82\n      jump\t// in\n    tag_144:\n        /* \"#utility.yul\":696:835   */\n      swap3\n      swap2\n      pop\n      pop\n      jump\t// out\n        /* \"#utility.yul\":841:918   */\n    tag_84:\n        /* \"#utility.yul\":878:885   */\n      0x00\n        /* \"#utility.yul\":907:912   */\n      dup2\n        /* \"#utility.yul\":896:912   */\n      swap1\n      pop\n        /* \"#utility.yul\":841:918   */\n      swap2\n      swap1\n      pop\n      jump\t// out\n        /* \"#utility.yul\":924:1046   */\n    tag_85:\n        /* \"#utility.yul\":997:1021   */\n      tag_147\n        /* \"#utility.yul\":1015:1020   */\n      dup2\n        /* \"#utility.yul\":997:1021   */\n      tag_84\n      jump\t// in\n    tag_147:\n        /* \"#utility.yul\":990:995   */\n      dup2\n        /* \"#utility.yul\":987:1022   */\n      eq\n        /* \"#utility.yul\":977:1040   */\n      tag_148\n      jumpi\n        /* \"#utility.yul\":1036:1037   */\n      0x00\n        /* \"#utility.yul\":1033:1034   */\n      dup1\n        /* \"#utility.yul\":1026:1038   */\n      revert\n        /* \"#utility.yul\":977:1040   */\n    tag_148:\n        /* \"#utility.yul\":924:1046   */\n      pop\n      jump\t// out\n        /* \"#utility.yul\":1052:1191   */\n    tag_86:\n        /* \"#utility.yul\":1098:1103   */\n      0x00\n        /* \"#utility.yul\":1136:1142   */\n      dup2\n        /* \"#utility.yul\":1123:1143   */\n      calldataload\n        /* \"#utility.yul\":1114:1143   */\n      swap1\n      pop\n        /* \"#utility.yul\":1152:1185   */\n      tag_150\n        /* \"#utility.yul\":1179:1184   */\n      dup2\n        /* \"#utility.yul\":1152:1185   */\n      tag_85\n      jump\t// in\n    tag_150:\n        /* \"#utility.yul\":1052:1191   */\n      swap3\n      swap2\n      pop\n      pop\n      jump\t// out\n        /* \"#utility.yul\":1197:1671   */\n    tag_10:\n        /* \"#utility.yul\":1265:1271   */\n      0x00\n        /* \"#utility.yul\":1273:1279   */\n      dup1\n        /* \"#utility.yul\":1322:1324   */\n      0x40\n        /* \"#utility.yul\":1310:1319   */\n      dup4\n        /* \"#utility.yul\":1301:1308   */\n      dup6\n        /* \"#utility.yul\":1297:1320   */\n      sub\n        /* \"#utility.yul\":1293:1325   */\n      slt\n        /* \"#utility.yul\":1290:1409   */\n      iszero\n      tag_152\n      jumpi\n        /* \"#utility.yul\":1328:1407   */\n      tag_153\n      tag_78\n      jump\t// in\n    tag_153:\n        /* \"#utility.yul\":1290:1409   */\n    tag_152:\n        /* \"#utility.yul\":1448:1449   */\n      0x00\n        /* \"#utility.yul\":1473:1526   */\n      tag_154\n        /* \"#utility.yul\":1518:1525   */\n      dup6\n        /* \"#utility.yul\":1509:1515   */\n      dup3\n        /* \"#utility.yul\":1498:1507   */\n      dup7\n        /* \"#utility.yul\":1494:1516   */\n      add\n        /* \"#utility.yul\":1473:1526   */\n      tag_83\n      jump\t// in\n    tag_154:\n        /* \"#utility.yul\":1463:1526   */\n      swap3\n      pop\n        /* \"#utility.yul\":1419:1536   */\n      pop\n        /* \"#utility.yul\":1575:1577   */\n      0x20\n        /* \"#utility.yul\":1601:1654   */\n      tag_155\n        /* \"#utility.yul\":1646:1653   */\n      dup6\n        /* \"#utility.yul\":1637:1643   */\n      dup3\n        /* \"#utility.yul\":1626:1635   */\n      dup7\n        /* \"#utility.yul\":1622:1644   */\n      add\n        /* \"#utility.yul\":1601:1654   */\n      tag_86\n      jump\t// in\n    tag_155:\n        /* \"#utility.yul\":1591:1654   */\n      swap2\n      pop\n        /* \"#utility.yul\":1546:1664   */\n      pop\n        /* \"#utility.yul\":1197:1671   */\n      swap3\n      pop\n      swap3\n      swap1\n      pop\n      jump\t// out\n        /* \"#utility.yul\":1677:1795   */\n    tag_87:\n        /* \"#utility.yul\":1764:1788   */\n      tag_157\n        /* \"#utility.yul\":1782:1787   */\n      dup2\n        /* \"#utility.yul\":1764:1788   */\n      tag_84\n      jump\t// in\n    tag_157:\n        /* \"#utility.yul\":1759:1762   */\n      dup3\n        /* \"#utility.yul\":1752:1789   */\n      mstore\n        /* \"#utility.yul\":1677:1795   */\n      pop\n      pop\n      jump\t// out\n        /* \"#utility.yul\":1801:1900   */\n    tag_88:\n        /* \"#utility.yul\":1853:1859   */\n      0x00\n        /* \"#utility.yul\":1887:1892   */\n      dup2\n        /* \"#utility.yul\":1881:1893   */\n      mload\n        /* \"#utility.yul\":1871:1893   */\n      swap1\n      pop\n        /* \"#utility.yul\":1801:1900   */\n      swap2\n      swap1\n      pop\n      jump\t// out\n        /* \"#utility.yul\":1906:2075   */\n    tag_89:\n        /* \"#utility.yul\":1990:2001   */\n      0x00\n        /* \"#utility.yul\":2024:2030   */\n      dup3\n        /* \"#utility.yul\":2019:2022   */\n      dup3\n        /* \"#utility.yul\":2012:2031   */\n      mstore\n        /* \"#utility.yul\":2064:2068   */\n      0x20\n        /* \"#utility.yul\":2059:2062   */\n      dup3\n        /* \"#utility.yul\":2055:2069   */\n      add\n        /* \"#utility.yul\":2040:2069   */\n      swap1\n      pop\n        /* \"#utility.yul\":1906:2075   */\n      swap3\n      swap2\n      pop\n      pop\n      jump\t// out\n        /* \"#utility.yul\":2081:2220   */\n    tag_90:\n        /* \"#utility.yul\":2170:2176   */\n      dup3\n        /* \"#utility.yul\":2165:2168   */\n      dup2\n        /* \"#utility.yul\":2160:2163   */\n      dup4\n        /* \"#utility.yul\":2154:2177   */\n      mcopy\n        /* \"#utility.yul\":2211:2212   */\n      0x00\n        /* \"#utility.yul\":2202:2208   */\n      dup4\n        /* \"#utility.yul\":2197:2200   */\n      dup4\n        /* \"#utility.yul\":2193:2209   */\n      add\n        /* \"#utility.yul\":2186:2213   */\n      mstore\n        /* \"#utility.yul\":2081:2220   */\n      pop\n      pop\n      pop\n      jump\t// out\n        /* \"#utility.yul\":2226:2328   */\n    tag_91:\n        /* \"#utility.yul\":2267:2273   */\n      0x00\n        /* \"#utility.yul\":2318:2320   */\n      0x1f\n        /* \"#utility.yul\":2314:2321   */\n      not\n        /* \"#utility.yul\":2309:2311   */\n      0x1f\n        /* \"#utility.yul\":2302:2307   */\n      dup4\n        /* \"#utility.yul\":2298:2312   */\n      add\n        /* \"#utility.yul\":2294:2322   */\n      and\n        /* \"#utility.yul\":2284:2322   */\n      swap1\n      pop\n        /* \"#utility.yul\":2226:2328   */\n      swap2\n      swap1\n      pop\n      jump\t// out\n        /* \"#utility.yul\":2334:2711   */\n    tag_92:\n        /* \"#utility.yul\":2422:2425   */\n      0x00\n        /* \"#utility.yul\":2450:2489   */\n      tag_163\n        /* \"#utility.yul\":2483:2488   */\n      dup3\n        /* \"#utility.yul\":2450:2489   */\n      tag_88\n      jump\t// in\n    tag_163:\n        /* \"#utility.yul\":2505:2576   */\n      tag_164\n        /* \"#utility.yul\":2569:2575   */\n      dup2\n        /* \"#utility.yul\":2564:2567   */\n      dup6\n        /* \"#utility.yul\":2505:2576   */\n      tag_89\n      jump\t// in\n    tag_164:\n        /* \"#utility.yul\":2498:2576   */\n      swap4\n      pop\n        /* \"#utility.yul\":2585:2650   */\n      tag_165\n        /* \"#utility.yul\":2643:2649   */\n      dup2\n        /* \"#utility.yul\":2638:2641   */\n      dup6\n        /* \"#utility.yul\":2631:2635   */\n      0x20\n        /* \"#utility.yul\":2624:2629   */\n      dup7\n        /* \"#utility.yul\":2620:2636   */\n      add\n        /* \"#utility.yul\":2585:2650   */\n      tag_90\n      jump\t// in\n    tag_165:\n        /* \"#utility.yul\":2675:2704   */\n      tag_166\n        /* \"#utility.yul\":2697:2703   */\n      dup2\n        /* \"#utility.yul\":2675:2704   */\n      tag_91\n      jump\t// in\n    tag_166:\n        /* \"#utility.yul\":2670:2673   */\n      dup5\n        /* \"#utility.yul\":2666:2705   */\n      add\n        /* \"#utility.yul\":2659:2705   */\n      swap2\n      pop\n        /* \"#utility.yul\":2426:2711   */\n      pop\n        /* \"#utility.yul\":2334:2711   */\n      swap3\n      swap2\n      pop\n      pop\n      jump\t// out\n        /* \"#utility.yul\":2717:2835   */\n    tag_93:\n        /* \"#utility.yul\":2804:2828   */\n      tag_168\n        /* \"#utility.yul\":2822:2827   */\n      dup2\n        /* \"#utility.yul\":2804:2828   */\n      tag_81\n      jump\t// in\n    tag_168:\n        /* \"#utility.yul\":2799:2802   */\n      dup3\n        /* \"#utility.yul\":2792:2829   */\n      mstore\n        /* \"#utility.yul\":2717:2835   */\n      pop\n      pop\n      jump\t// out\n        /* \"#utility.yul\":2841:3485   */\n    tag_13:\n        /* \"#utility.yul\":3038:3042   */\n      0x00\n        /* \"#utility.yul\":3076:3079   */\n      0x80\n        /* \"#utility.yul\":3065:3074   */\n      dup3\n        /* \"#utility.yul\":3061:3080   */\n      add\n        /* \"#utility.yul\":3053:3080   */\n      swap1\n      pop\n        /* \"#utility.yul\":3090:3161   */\n      tag_170\n        /* \"#utility.yul\":3158:3159   */\n      0x00\n        /* \"#utility.yul\":3147:3156   */\n      dup4\n        /* \"#utility.yul\":3143:3160   */\n      add\n        /* \"#utility.yul\":3134:3140   */\n      dup8\n        /* \"#utility.yul\":3090:3161   */\n      tag_87\n      jump\t// in\n    tag_170:\n        /* \"#utility.yul\":3208:3217   */\n      dup2\n        /* \"#utility.yul\":3202:3206   */\n      dup2\n        /* \"#utility.yul\":3198:3218   */\n      sub\n        /* \"#utility.yul\":3193:3195   */\n      0x20\n        /* \"#utility.yul\":3182:3191   */\n      dup4\n        /* \"#utility.yul\":3178:3196   */\n      add\n        /* \"#utility.yul\":3171:3219   */\n      mstore\n        /* \"#utility.yul\":3236:3314   */\n      tag_171\n        /* \"#utility.yul\":3309:3313   */\n      dup2\n        /* \"#utility.yul\":3300:3306   */\n      dup7\n        /* \"#utility.yul\":3236:3314   */\n      tag_92\n      jump\t// in\n    tag_171:\n        /* \"#utility.yul\":3228:3314   */\n      swap1\n      pop\n        /* \"#utility.yul\":3324:3396   */\n      tag_172\n        /* \"#utility.yul\":3392:3394   */\n      0x40\n        /* \"#utility.yul\":3381:3390   */\n      dup4\n        /* \"#utility.yul\":3377:3395   */\n      add\n        /* \"#utility.yul\":3368:3374   */\n      dup6\n        /* \"#utility.yul\":3324:3396   */\n      tag_93\n      jump\t// in\n    tag_172:\n        /* \"#utility.yul\":3406:3478   */\n      tag_173\n        /* \"#utility.yul\":3474:3476   */\n      0x60\n        /* \"#utility.yul\":3463:3472   */\n      dup4\n        /* \"#utility.yul\":3459:3477   */\n      add\n        /* \"#utility.yul\":3450:3456   */\n      dup5\n        /* \"#utility.yul\":3406:3478   */\n      tag_87\n      jump\t// in\n    tag_173:\n        /* \"#utility.yul\":2841:3485   */\n      swap6\n      swap5\n      pop\n      pop\n      pop\n      pop\n      pop\n      jump\t// out\n        /* \"#utility.yul\":3491:3820   */\n    tag_16:\n        /* \"#utility.yul\":3550:3556   */\n      0x00\n        /* \"#utility.yul\":3599:3601   */\n      0x20\n        /* \"#utility.yul\":3587:3596   */\n      dup3\n        /* \"#utility.yul\":3578:3585   */\n      dup5\n        /* \"#utility.yul\":3574:3597   */\n      sub\n        /* \"#utility.yul\":3570:3602   */\n      slt\n        /* \"#utility.yul\":3567:3686   */\n      iszero\n      tag_175\n      jumpi\n        /* \"#utility.yul\":3605:3684   */\n      tag_176\n      tag_78\n      jump\t// in\n    tag_176:\n        /* \"#utility.yul\":3567:3686   */\n    tag_175:\n        /* \"#utility.yul\":3725:3726   */\n      0x00\n        /* \"#utility.yul\":3750:3803   */\n      tag_177\n        /* \"#utility.yul\":3795:3802   */\n      dup5\n        /* \"#utility.yul\":3786:3792   */\n      dup3\n        /* \"#utility.yul\":3775:3784   */\n      dup6\n        /* \"#utility.yul\":3771:3793   */\n      add\n        /* \"#utility.yul\":3750:3803   */\n      tag_86\n      jump\t// in\n    tag_177:\n        /* \"#utility.yul\":3740:3803   */\n      swap2\n      pop\n        /* \"#utility.yul\":3696:3813   */\n      pop\n        /* \"#utility.yul\":3491:3820   */\n      swap3\n      swap2\n      pop\n      pop\n      jump\t// out\n        /* \"#utility.yul\":3826:3934   */\n    tag_94:\n        /* \"#utility.yul\":3903:3927   */\n      tag_179\n        /* \"#utility.yul\":3921:3926   */\n      dup2\n        /* \"#utility.yul\":3903:3927   */\n      tag_84\n      jump\t// in\n    tag_179:\n        /* \"#utility.yul\":3898:3901   */\n      dup3\n        /* \"#utility.yul\":3891:3928   */\n      mstore\n        /* \"#utility.yul\":3826:3934   */\n      pop\n      pop\n      jump\t// out\n        /* \"#utility.yul\":3940:4099   */\n    tag_95:\n        /* \"#utility.yul\":4014:4025   */\n      0x00\n        /* \"#utility.yul\":4048:4054   */\n      dup3\n        /* \"#utility.yul\":4043:4046   */\n      dup3\n        /* \"#utility.yul\":4036:4055   */\n      mstore\n        /* \"#utility.yul\":4088:4092   */\n      0x20\n        /* \"#utility.yul\":4083:4086   */\n      dup3\n        /* \"#utility.yul\":4079:4093   */\n      add\n        /* \"#utility.yul\":4064:4093   */\n      swap1\n      pop\n        /* \"#utility.yul\":3940:4099   */\n      swap3\n      swap2\n      pop\n      pop\n      jump\t// out\n        /* \"#utility.yul\":4105:4462   */\n    tag_96:\n        /* \"#utility.yul\":4183:4186   */\n      0x00\n        /* \"#utility.yul\":4211:4250   */\n      tag_182\n        /* \"#utility.yul\":4244:4249   */\n      dup3\n        /* \"#utility.yul\":4211:4250   */\n      tag_88\n      jump\t// in\n    tag_182:\n        /* \"#utility.yul\":4266:4327   */\n      tag_183\n        /* \"#utility.yul\":4320:4326   */\n      dup2\n        /* \"#utility.yul\":4315:4318   */\n      dup6\n        /* \"#utility.yul\":4266:4327   */\n      tag_95\n      jump\t// in\n    tag_183:\n        /* \"#utility.yul\":4259:4327   */\n      swap4\n      pop\n        /* \"#utility.yul\":4336:4401   */\n      tag_184\n        /* \"#utility.yul\":4394:4400   */\n      dup2\n        /* \"#utility.yul\":4389:4392   */\n      dup6\n        /* \"#utility.yul\":4382:4386   */\n      0x20\n        /* \"#utility.yul\":4375:4380   */\n      dup7\n        /* \"#utility.yul\":4371:4387   */\n      add\n        /* \"#utility.yul\":4336:4401   */\n      tag_90\n      jump\t// in\n    tag_184:\n        /* \"#utility.yul\":4426:4455   */\n      tag_185\n        /* \"#utility.yul\":4448:4454   */\n      dup2\n        /* \"#utility.yul\":4426:4455   */\n      tag_91\n      jump\t// in\n    tag_185:\n        /* \"#utility.yul\":4421:4424   */\n      dup5\n        /* \"#utility.yul\":4417:4456   */\n      add\n        /* \"#utility.yul\":4410:4456   */\n      swap2\n      pop\n        /* \"#utility.yul\":4187:4462   */\n      pop\n        /* \"#utility.yul\":4105:4462   */\n      swap3\n      swap2\n      pop\n      pop\n      jump\t// out\n        /* \"#utility.yul\":4468:4576   */\n    tag_97:\n        /* \"#utility.yul\":4545:4569   */\n      tag_187\n        /* \"#utility.yul\":4563:4568   */\n      dup2\n        /* \"#utility.yul\":4545:4569   */\n      tag_81\n      jump\t// in\n    tag_187:\n        /* \"#utility.yul\":4540:4543   */\n      dup3\n        /* \"#utility.yul\":4533:4570   */\n      mstore\n        /* \"#utility.yul\":4468:4576   */\n      pop\n      pop\n      jump\t// out\n        /* \"#utility.yul\":4634:5588   */\n    tag_98:\n        /* \"#utility.yul\":4745:4748   */\n      0x00\n        /* \"#utility.yul\":4781:4785   */\n      0x80\n        /* \"#utility.yul\":4776:4779   */\n      dup4\n        /* \"#utility.yul\":4772:4786   */\n      add\n        /* \"#utility.yul\":4866:4870   */\n      0x00\n        /* \"#utility.yul\":4859:4864   */\n      dup4\n        /* \"#utility.yul\":4855:4871   */\n      add\n        /* \"#utility.yul\":4849:4872   */\n      mload\n        /* \"#utility.yul\":4885:4948   */\n      tag_189\n        /* \"#utility.yul\":4942:4946   */\n      0x00\n        /* \"#utility.yul\":4937:4940   */\n      dup7\n        /* \"#utility.yul\":4933:4947   */\n      add\n        /* \"#utility.yul\":4919:4931   */\n      dup3\n        /* \"#utility.yul\":4885:4948   */\n      tag_94\n      jump\t// in\n    tag_189:\n        /* \"#utility.yul\":4796:4958   */\n      pop\n        /* \"#utility.yul\":5043:5047   */\n      0x20\n        /* \"#utility.yul\":5036:5041   */\n      dup4\n        /* \"#utility.yul\":5032:5048   */\n      add\n        /* \"#utility.yul\":5026:5049   */\n      mload\n        /* \"#utility.yul\":5096:5099   */\n      dup5\n        /* \"#utility.yul\":5090:5094   */\n      dup3\n        /* \"#utility.yul\":5086:5100   */\n      sub\n        /* \"#utility.yul\":5079:5083   */\n      0x20\n        /* \"#utility.yul\":5074:5077   */\n      dup7\n        /* \"#utility.yul\":5070:5084   */\n      add\n        /* \"#utility.yul\":5063:5101   */\n      mstore\n        /* \"#utility.yul\":5122:5195   */\n      tag_190\n        /* \"#utility.yul\":5190:5194   */\n      dup3\n        /* \"#utility.yul\":5176:5188   */\n      dup3\n        /* \"#utility.yul\":5122:5195   */\n      tag_96\n      jump\t// in\n    tag_190:\n        /* \"#utility.yul\":5114:5195   */\n      swap2\n      pop\n        /* \"#utility.yul\":4968:5206   */\n      pop\n        /* \"#utility.yul\":5290:5294   */\n      0x40\n        /* \"#utility.yul\":5283:5288   */\n      dup4\n        /* \"#utility.yul\":5279:5295   */\n      add\n        /* \"#utility.yul\":5273:5296   */\n      mload\n        /* \"#utility.yul\":5309:5372   */\n      tag_191\n        /* \"#utility.yul\":5366:5370   */\n      0x40\n        /* \"#utility.yul\":5361:5364   */\n      dup7\n        /* \"#utility.yul\":5357:5371   */\n      add\n        /* \"#utility.yul\":5343:5355   */\n      dup3\n        /* \"#utility.yul\":5309:5372   */\n      tag_97\n      jump\t// in\n    tag_191:\n        /* \"#utility.yul\":5216:5382   */\n      pop\n        /* \"#utility.yul\":5469:5473   */\n      0x60\n        /* \"#utility.yul\":5462:5467   */\n      dup4\n        /* \"#utility.yul\":5458:5474   */\n      add\n        /* \"#utility.yul\":5452:5475   */\n      mload\n        /* \"#utility.yul\":5488:5551   */\n      tag_192\n        /* \"#utility.yul\":5545:5549   */\n      0x60\n        /* \"#utility.yul\":5540:5543   */\n      dup7\n        /* \"#utility.yul\":5536:5550   */\n      add\n        /* \"#utility.yul\":5522:5534   */\n      dup3\n        /* \"#utility.yul\":5488:5551   */\n      tag_94\n      jump\t// in\n    tag_192:\n        /* \"#utility.yul\":5392:5561   */\n      pop\n        /* \"#utility.yul\":5578:5582   */\n      dup1\n        /* \"#utility.yul\":5571:5582   */\n      swap2\n      pop\n        /* \"#utility.yul\":4750:5588   */\n      pop\n        /* \"#utility.yul\":4634:5588   */\n      swap3\n      swap2\n      pop\n      pop\n      jump\t// out\n        /* \"#utility.yul\":5594:5951   */\n    tag_19:\n        /* \"#utility.yul\":5729:5733   */\n      0x00\n        /* \"#utility.yul\":5767:5769   */\n      0x20\n        /* \"#utility.yul\":5756:5765   */\n      dup3\n        /* \"#utility.yul\":5752:5770   */\n      add\n        /* \"#utility.yul\":5744:5770   */\n      swap1\n      pop\n        /* \"#utility.yul\":5816:5825   */\n      dup2\n        /* \"#utility.yul\":5810:5814   */\n      dup2\n        /* \"#utility.yul\":5806:5826   */\n      sub\n        /* \"#utility.yul\":5802:5803   */\n      0x00\n        /* \"#utility.yul\":5791:5800   */\n      dup4\n        /* \"#utility.yul\":5787:5804   */\n      add\n        /* \"#utility.yul\":5780:5827   */\n      mstore\n        /* \"#utility.yul\":5844:5944   */\n      tag_194\n        /* \"#utility.yul\":5939:5943   */\n      dup2\n        /* \"#utility.yul\":5930:5936   */\n      dup5\n        /* \"#utility.yul\":5844:5944   */\n      tag_98\n      jump\t// in\n    tag_194:\n        /* \"#utility.yul\":5836:5944   */\n      swap1\n      pop\n        /* \"#utility.yul\":5594:5951   */\n      swap3\n      swap2\n      pop\n      pop\n      jump\t// out\n        /* \"#utility.yul\":5957:6074   */\n    tag_99:\n        /* \"#utility.yul\":6066:6067   */\n      0x00\n        /* \"#utility.yul\":6063:6064   */\n      dup1\n        /* \"#utility.yul\":6056:6068   */\n      revert\n        /* \"#utility.yul\":6080:6197   */\n    tag_100:\n        /* \"#utility.yul\":6189:6190   */\n      0x00\n        /* \"#utility.yul\":6186:6187   */\n      dup1\n        /* \"#utility.yul\":6179:6191   */\n      revert\n        /* \"#utility.yul\":6203:6383   */\n    tag_101:\n        /* \"#utility.yul\":6251:6328   */\n      0x4e487b7100000000000000000000000000000000000000000000000000000000\n        /* \"#utility.yul\":6248:6249   */\n      0x00\n        /* \"#utility.yul\":6241:6329   */\n      mstore\n        /* \"#utility.yul\":6348:6352   */\n      0x41\n        /* \"#utility.yul\":6345:6346   */\n      0x04\n        /* \"#utility.yul\":6338:6353   */\n      mstore\n        /* \"#utility.yul\":6372:6376   */\n      0x24\n        /* \"#utility.yul\":6369:6370   */\n      0x00\n        /* \"#utility.yul\":6362:6377   */\n      revert\n        /* \"#utility.yul\":6389:6670   */\n    tag_102:\n        /* \"#utility.yul\":6472:6499   */\n      tag_199\n        /* \"#utility.yul\":6494:6498   */\n      dup3\n        /* \"#utility.yul\":6472:6499   */\n      tag_91\n      jump\t// in\n    tag_199:\n        /* \"#utility.yul\":6464:6470   */\n      dup2\n        /* \"#utility.yul\":6460:6500   */\n      add\n        /* \"#utility.yul\":6602:6608   */\n      dup2\n        /* \"#utility.yul\":6590:6600   */\n      dup2\n        /* \"#utility.yul\":6587:6609   */\n      lt\n        /* \"#utility.yul\":6566:6584   */\n      0xffffffffffffffff\n        /* \"#utility.yul\":6554:6564   */\n      dup3\n        /* \"#utility.yul\":6551:6585   */\n      gt\n        /* \"#utility.yul\":6548:6610   */\n      or\n        /* \"#utility.yul\":6545:6633   */\n      iszero\n      tag_200\n      jumpi\n        /* \"#utility.yul\":6613:6631   */\n      tag_201\n      tag_101\n      jump\t// in\n    tag_201:\n        /* \"#utility.yul\":6545:6633   */\n    tag_200:\n        /* \"#utility.yul\":6653:6663   */\n      dup1\n        /* \"#utility.yul\":6649:6651   */\n      0x40\n        /* \"#utility.yul\":6642:6664   */\n      mstore\n        /* \"#utility.yul\":6432:6670   */\n      pop\n        /* \"#utility.yul\":6389:6670   */\n      pop\n      pop\n      jump\t// out\n        /* \"#utility.yul\":6676:6805   */\n    tag_103:\n        /* \"#utility.yul\":6710:6716   */\n      0x00\n        /* \"#utility.yul\":6737:6757   */\n      tag_203\n      tag_77\n      jump\t// in\n    tag_203:\n        /* \"#utility.yul\":6727:6757   */\n      swap1\n      pop\n        /* \"#utility.yul\":6766:6799   */\n      tag_204\n        /* \"#utility.yul\":6794:6798   */\n      dup3\n        /* \"#utility.yul\":6786:6792   */\n      dup3\n        /* \"#utility.yul\":6766:6799   */\n      tag_102\n      jump\t// in\n    tag_204:\n        /* \"#utility.yul\":6676:6805   */\n      swap2\n      swap1\n      pop\n      jump\t// out\n        /* \"#utility.yul\":6811:7119   */\n    tag_104:\n        /* \"#utility.yul\":6873:6877   */\n      0x00\n        /* \"#utility.yul\":6963:6981   */\n      0xffffffffffffffff\n        /* \"#utility.yul\":6955:6961   */\n      dup3\n        /* \"#utility.yul\":6952:6982   */\n      gt\n        /* \"#utility.yul\":6949:7005   */\n      iszero\n      tag_206\n      jumpi\n        /* \"#utility.yul\":6985:7003   */\n      tag_207\n      tag_101\n      jump\t// in\n    tag_207:\n        /* \"#utility.yul\":6949:7005   */\n    tag_206:\n        /* \"#utility.yul\":7023:7052   */\n      tag_208\n        /* \"#utility.yul\":7045:7051   */\n      dup3\n        /* \"#utility.yul\":7023:7052   */\n      tag_91\n      jump\t// in\n    tag_208:\n        /* \"#utility.yul\":7015:7052   */\n      swap1\n      pop\n        /* \"#utility.yul\":7107:7111   */\n      0x20\n        /* \"#utility.yul\":7101:7105   */\n      dup2\n        /* \"#utility.yul\":7097:7112   */\n      add\n        /* \"#utility.yul\":7089:7112   */\n      swap1\n      pop\n        /* \"#utility.yul\":6811:7119   */\n      swap2\n      swap1\n      pop\n      jump\t// out\n        /* \"#utility.yul\":7125:7273   */\n    tag_105:\n        /* \"#utility.yul\":7223:7229   */\n      dup3\n        /* \"#utility.yul\":7218:7221   */\n      dup2\n        /* \"#utility.yul\":7213:7216   */\n      dup4\n        /* \"#utility.yul\":7200:7230   */\n      calldatacopy\n        /* \"#utility.yul\":7264:7265   */\n      0x00\n        /* \"#utility.yul\":7255:7261   */\n      dup4\n        /* \"#utility.yul\":7250:7253   */\n      dup4\n        /* \"#utility.yul\":7246:7262   */\n      add\n        /* \"#utility.yul\":7239:7266   */\n      mstore\n        /* \"#utility.yul\":7125:7273   */\n      pop\n      pop\n      pop\n      jump\t// out\n        /* \"#utility.yul\":7279:7704   */\n    tag_106:\n        /* \"#utility.yul\":7357:7362   */\n      0x00\n        /* \"#utility.yul\":7382:7448   */\n      tag_211\n        /* \"#utility.yul\":7398:7447   */\n      tag_212\n        /* \"#utility.yul\":7440:7446   */\n      dup5\n        /* \"#utility.yul\":7398:7447   */\n      tag_104\n      jump\t// in\n    tag_212:\n        /* \"#utility.yul\":7382:7448   */\n      tag_103\n      jump\t// in\n    tag_211:\n        /* \"#utility.yul\":7373:7448   */\n      swap1\n      pop\n        /* \"#utility.yul\":7471:7477   */\n      dup3\n        /* \"#utility.yul\":7464:7469   */\n      dup2\n        /* \"#utility.yul\":7457:7478   */\n      mstore\n        /* \"#utility.yul\":7509:7513   */\n      0x20\n        /* \"#utility.yul\":7502:7507   */\n      dup2\n        /* \"#utility.yul\":7498:7514   */\n      add\n        /* \"#utility.yul\":7547:7550   */\n      dup5\n        /* \"#utility.yul\":7538:7544   */\n      dup5\n        /* \"#utility.yul\":7533:7536   */\n      dup5\n        /* \"#utility.yul\":7529:7545   */\n      add\n        /* \"#utility.yul\":7526:7551   */\n      gt\n        /* \"#utility.yul\":7523:7635   */\n      iszero\n      tag_213\n      jumpi\n        /* \"#utility.yul\":7554:7633   */\n      tag_214\n      tag_100\n      jump\t// in\n    tag_214:\n        /* \"#utility.yul\":7523:7635   */\n    tag_213:\n        /* \"#utility.yul\":7644:7698   */\n      tag_215\n        /* \"#utility.yul\":7691:7697   */\n      dup5\n        /* \"#utility.yul\":7686:7689   */\n      dup3\n        /* \"#utility.yul\":7681:7684   */\n      dup6\n        /* \"#utility.yul\":7644:7698   */\n      tag_105\n      jump\t// in\n    tag_215:\n        /* \"#utility.yul\":7363:7704   */\n      pop\n        /* \"#utility.yul\":7279:7704   */\n      swap4\n      swap3\n      pop\n      pop\n      pop\n      jump\t// out\n        /* \"#utility.yul\":7724:8064   */\n    tag_107:\n        /* \"#utility.yul\":7780:7785   */\n      0x00\n        /* \"#utility.yul\":7829:7832   */\n      dup3\n        /* \"#utility.yul\":7822:7826   */\n      0x1f\n        /* \"#utility.yul\":7814:7820   */\n      dup4\n        /* \"#utility.yul\":7810:7827   */\n      add\n        /* \"#utility.yul\":7806:7833   */\n      slt\n        /* \"#utility.yul\":7796:7918   */\n      tag_217\n      jumpi\n        /* \"#utility.yul\":7837:7916   */\n      tag_218\n      tag_99\n      jump\t// in\n    tag_218:\n        /* \"#utility.yul\":7796:7918   */\n    tag_217:\n        /* \"#utility.yul\":7954:7960   */\n      dup2\n        /* \"#utility.yul\":7941:7961   */\n      calldataload\n        /* \"#utility.yul\":7979:8058   */\n      tag_219\n        /* \"#utility.yul\":8054:8057   */\n      dup5\n        /* \"#utility.yul\":8046:8052   */\n      dup3\n        /* \"#utility.yul\":8039:8043   */\n      0x20\n        /* \"#utility.yul\":8031:8037   */\n      dup7\n        /* \"#utility.yul\":8027:8044   */\n      add\n        /* \"#utility.yul\":7979:8058   */\n      tag_106\n      jump\t// in\n    tag_219:\n        /* \"#utility.yul\":7970:8058   */\n      swap2\n      pop\n        /* \"#utility.yul\":7786:8064   */\n      pop\n        /* \"#utility.yul\":7724:8064   */\n      swap3\n      swap2\n      pop\n      pop\n      jump\t// out\n        /* \"#utility.yul\":8070:8724   */\n    tag_22:\n        /* \"#utility.yul\":8148:8154   */\n      0x00\n        /* \"#utility.yul\":8156:8162   */\n      dup1\n        /* \"#utility.yul\":8205:8207   */\n      0x40\n        /* \"#utility.yul\":8193:8202   */\n      dup4\n        /* \"#utility.yul\":8184:8191   */\n      dup6\n        /* \"#utility.yul\":8180:8203   */\n      sub\n        /* \"#utility.yul\":8176:8208   */\n      slt\n        /* \"#utility.yul\":8173:8292   */\n      iszero\n      tag_221\n      jumpi\n        /* \"#utility.yul\":8211:8290   */\n      tag_222\n      tag_78\n      jump\t// in\n    tag_222:\n        /* \"#utility.yul\":8173:8292   */\n    tag_221:\n        /* \"#utility.yul\":8331:8332   */\n      0x00\n        /* \"#utility.yul\":8356:8409   */\n      tag_223\n        /* \"#utility.yul\":8401:8408   */\n      dup6\n        /* \"#utility.yul\":8392:8398   */\n      dup3\n        /* \"#utility.yul\":8381:8390   */\n      dup7\n        /* \"#utility.yul\":8377:8399   */\n      add\n        /* \"#utility.yul\":8356:8409   */\n      tag_86\n      jump\t// in\n    tag_223:\n        /* \"#utility.yul\":8346:8409   */\n      swap3\n      pop\n        /* \"#utility.yul\":8302:8419   */\n      pop\n        /* \"#utility.yul\":8486:8488   */\n      0x20\n        /* \"#utility.yul\":8475:8484   */\n      dup4\n        /* \"#utility.yul\":8471:8489   */\n      add\n        /* \"#utility.yul\":8458:8490   */\n      calldataload\n        /* \"#utility.yul\":8517:8535   */\n      0xffffffffffffffff\n        /* \"#utility.yul\":8509:8515   */\n      dup2\n        /* \"#utility.yul\":8506:8536   */\n      gt\n        /* \"#utility.yul\":8503:8620   */\n      iszero\n      tag_224\n      jumpi\n        /* \"#utility.yul\":8539:8618   */\n      tag_225\n      tag_79\n      jump\t// in\n    tag_225:\n        /* \"#utility.yul\":8503:8620   */\n    tag_224:\n        /* \"#utility.yul\":8644:8707   */\n      tag_226\n        /* \"#utility.yul\":8699:8706   */\n      dup6\n        /* \"#utility.yul\":8690:8696   */\n      dup3\n        /* \"#utility.yul\":8679:8688   */\n      dup7\n        /* \"#utility.yul\":8675:8697   */\n      add\n        /* \"#utility.yul\":8644:8707   */\n      tag_107\n      jump\t// in\n    tag_226:\n        /* \"#utility.yul\":8634:8707   */\n      swap2\n      pop\n        /* \"#utility.yul\":8429:8717   */\n      pop\n        /* \"#utility.yul\":8070:8724   */\n      swap3\n      pop\n      swap3\n      swap1\n      pop\n      jump\t// out\n        /* \"#utility.yul\":8730:8952   */\n    tag_27:\n        /* \"#utility.yul\":8823:8827   */\n      0x00\n        /* \"#utility.yul\":8861:8863   */\n      0x20\n        /* \"#utility.yul\":8850:8859   */\n      dup3\n        /* \"#utility.yul\":8846:8864   */\n      add\n        /* \"#utility.yul\":8838:8864   */\n      swap1\n      pop\n        /* \"#utility.yul\":8874:8945   */\n      tag_228\n        /* \"#utility.yul\":8942:8943   */\n      0x00\n        /* \"#utility.yul\":8931:8940   */\n      dup4\n        /* \"#utility.yul\":8927:8944   */\n      add\n        /* \"#utility.yul\":8918:8924   */\n      dup5\n        /* \"#utility.yul\":8874:8945   */\n      tag_87\n      jump\t// in\n    tag_228:\n        /* \"#utility.yul\":8730:8952   */\n      swap3\n      swap2\n      pop\n      pop\n      jump\t// out\n        /* \"#utility.yul\":8958:9093   */\n    tag_108:\n        /* \"#utility.yul\":9046:9052   */\n      0x00\n        /* \"#utility.yul\":9080:9085   */\n      dup2\n        /* \"#utility.yul\":9074:9086   */\n      mload\n        /* \"#utility.yul\":9064:9086   */\n      swap1\n      pop\n        /* \"#utility.yul\":8958:9093   */\n      swap2\n      swap1\n      pop\n      jump\t// out\n        /* \"#utility.yul\":9099:9304   */\n    tag_109:\n        /* \"#utility.yul\":9219:9230   */\n      0x00\n        /* \"#utility.yul\":9253:9259   */\n      dup3\n        /* \"#utility.yul\":9248:9251   */\n      dup3\n        /* \"#utility.yul\":9241:9260   */\n      mstore\n        /* \"#utility.yul\":9293:9297   */\n      0x20\n        /* \"#utility.yul\":9288:9291   */\n      dup3\n        /* \"#utility.yul\":9284:9298   */\n      add\n        /* \"#utility.yul\":9269:9298   */\n      swap1\n      pop\n        /* \"#utility.yul\":9099:9304   */\n      swap3\n      swap2\n      pop\n      pop\n      jump\t// out\n        /* \"#utility.yul\":9310:9463   */\n    tag_110:\n        /* \"#utility.yul\":9398:9402   */\n      0x00\n        /* \"#utility.yul\":9421:9424   */\n      dup2\n        /* \"#utility.yul\":9413:9424   */\n      swap1\n      pop\n        /* \"#utility.yul\":9451:9455   */\n      0x20\n        /* \"#utility.yul\":9446:9449   */\n      dup3\n        /* \"#utility.yul\":9442:9456   */\n      add\n        /* \"#utility.yul\":9434:9456   */\n      swap1\n      pop\n        /* \"#utility.yul\":9310:9463   */\n      swap2\n      swap1\n      pop\n      jump\t// out\n        /* \"#utility.yul\":9521:10465   */\n    tag_111:\n        /* \"#utility.yul\":9622:9625   */\n      0x00\n        /* \"#utility.yul\":9658:9662   */\n      0x80\n        /* \"#utility.yul\":9653:9656   */\n      dup4\n        /* \"#utility.yul\":9649:9663   */\n      add\n        /* \"#utility.yul\":9743:9747   */\n      0x00\n        /* \"#utility.yul\":9736:9741   */\n      dup4\n        /* \"#utility.yul\":9732:9748   */\n      add\n        /* \"#utility.yul\":9726:9749   */\n      mload\n        /* \"#utility.yul\":9762:9825   */\n      tag_233\n        /* \"#utility.yul\":9819:9823   */\n      0x00\n        /* \"#utility.yul\":9814:9817   */\n      dup7\n        /* \"#utility.yul\":9810:9824   */\n      add\n        /* \"#utility.yul\":9796:9808   */\n      dup3\n        /* \"#utility.yul\":9762:9825   */\n      tag_94\n      jump\t// in\n    tag_233:\n        /* \"#utility.yul\":9673:9835   */\n      pop\n        /* \"#utility.yul\":9920:9924   */\n      0x20\n        /* \"#utility.yul\":9913:9918   */\n      dup4\n        /* \"#utility.yul\":9909:9925   */\n      add\n        /* \"#utility.yul\":9903:9926   */\n      mload\n        /* \"#utility.yul\":9973:9976   */\n      dup5\n        /* \"#utility.yul\":9967:9971   */\n      dup3\n        /* \"#utility.yul\":9963:9977   */\n      sub\n        /* \"#utility.yul\":9956:9960   */\n      0x20\n        /* \"#utility.yul\":9951:9954   */\n      dup7\n        /* \"#utility.yul\":9947:9961   */\n      add\n        /* \"#utility.yul\":9940:9978   */\n      mstore\n        /* \"#utility.yul\":9999:10072   */\n      tag_234\n        /* \"#utility.yul\":10067:10071   */\n      dup3\n        /* \"#utility.yul\":10053:10065   */\n      dup3\n        /* \"#utility.yul\":9999:10072   */\n      tag_96\n      jump\t// in\n    tag_234:\n        /* \"#utility.yul\":9991:10072   */\n      swap2\n      pop\n        /* \"#utility.yul\":9845:10083   */\n      pop\n        /* \"#utility.yul\":10167:10171   */\n      0x40\n        /* \"#utility.yul\":10160:10165   */\n      dup4\n        /* \"#utility.yul\":10156:10172   */\n      add\n        /* \"#utility.yul\":10150:10173   */\n      mload\n        /* \"#utility.yul\":10186:10249   */\n      tag_235\n        /* \"#utility.yul\":10243:10247   */\n      0x40\n        /* \"#utility.yul\":10238:10241   */\n      dup7\n        /* \"#utility.yul\":10234:10248   */\n      add\n        /* \"#utility.yul\":10220:10232   */\n      dup3\n        /* \"#utility.yul\":10186:10249   */\n      tag_97\n      jump\t// in\n    tag_235:\n        /* \"#utility.yul\":10093:10259   */\n      pop\n        /* \"#utility.yul\":10346:10350   */\n      0x60\n        /* \"#utility.yul\":10339:10344   */\n      dup4\n        /* \"#utility.yul\":10335:10351   */\n      add\n        /* \"#utility.yul\":10329:10352   */\n      mload\n        /* \"#utility.yul\":10365:10428   */\n      tag_236\n        /* \"#utility.yul\":10422:10426   */\n      0x60\n        /* \"#utility.yul\":10417:10420   */\n      dup7\n        /* \"#utility.yul\":10413:10427   */\n      add\n        /* \"#utility.yul\":10399:10411   */\n      dup3\n        /* \"#utility.yul\":10365:10428   */\n      tag_94\n      jump\t// in\n    tag_236:\n        /* \"#utility.yul\":10269:10438   */\n      pop\n        /* \"#utility.yul\":10455:10459   */\n      dup1\n        /* \"#utility.yul\":10448:10459   */\n      swap2\n      pop\n        /* \"#utility.yul\":9627:10465   */\n      pop\n        /* \"#utility.yul\":9521:10465   */\n      swap3\n      swap2\n      pop\n      pop\n      jump\t// out\n        /* \"#utility.yul\":10471:10711   */\n    tag_112:\n        /* \"#utility.yul\":10582:10592   */\n      0x00\n        /* \"#utility.yul\":10617:10705   */\n      tag_238\n        /* \"#utility.yul\":10701:10704   */\n      dup4\n        /* \"#utility.yul\":10693:10699   */\n      dup4\n        /* \"#utility.yul\":10617:10705   */\n      tag_111\n      jump\t// in\n    tag_238:\n        /* \"#utility.yul\":10603:10705   */\n      swap1\n      pop\n        /* \"#utility.yul\":10471:10711   */\n      swap3\n      swap2\n      pop\n      pop\n      jump\t// out\n        /* \"#utility.yul\":10717:10851   */\n    tag_113:\n        /* \"#utility.yul\":10808:10812   */\n      0x00\n        /* \"#utility.yul\":10840:10844   */\n      0x20\n        /* \"#utility.yul\":10835:10838   */\n      dup3\n        /* \"#utility.yul\":10831:10845   */\n      add\n        /* \"#utility.yul\":10823:10845   */\n      swap1\n      pop\n        /* \"#utility.yul\":10717:10851   */\n      swap2\n      swap1\n      pop\n      jump\t// out\n        /* \"#utility.yul\":10913:11992   */\n    tag_114:\n        /* \"#utility.yul\":11074:11077   */\n      0x00\n        /* \"#utility.yul\":11103:11178   */\n      tag_241\n        /* \"#utility.yul\":11172:11177   */\n      dup3\n        /* \"#utility.yul\":11103:11178   */\n      tag_108\n      jump\t// in\n    tag_241:\n        /* \"#utility.yul\":11194:11301   */\n      tag_242\n        /* \"#utility.yul\":11294:11300   */\n      dup2\n        /* \"#utility.yul\":11289:11292   */\n      dup6\n        /* \"#utility.yul\":11194:11301   */\n      tag_109\n      jump\t// in\n    tag_242:\n        /* \"#utility.yul\":11187:11301   */\n      swap4\n      pop\n        /* \"#utility.yul\":11327:11330   */\n      dup4\n        /* \"#utility.yul\":11372:11376   */\n      0x20\n        /* \"#utility.yul\":11364:11370   */\n      dup3\n        /* \"#utility.yul\":11360:11377   */\n      mul\n        /* \"#utility.yul\":11355:11358   */\n      dup6\n        /* \"#utility.yul\":11351:11378   */\n      add\n        /* \"#utility.yul\":11402:11479   */\n      tag_243\n        /* \"#utility.yul\":11473:11478   */\n      dup6\n        /* \"#utility.yul\":11402:11479   */\n      tag_110\n      jump\t// in\n    tag_243:\n        /* \"#utility.yul\":11502:11509   */\n      dup1\n        /* \"#utility.yul\":11533:11534   */\n      0x00\n        /* \"#utility.yul\":11518:11947   */\n    tag_244:\n        /* \"#utility.yul\":11543:11549   */\n      dup6\n        /* \"#utility.yul\":11540:11541   */\n      dup2\n        /* \"#utility.yul\":11537:11550   */\n      lt\n        /* \"#utility.yul\":11518:11947   */\n      iszero\n      tag_246\n      jumpi\n        /* \"#utility.yul\":11614:11623   */\n      dup5\n        /* \"#utility.yul\":11608:11612   */\n      dup5\n        /* \"#utility.yul\":11604:11624   */\n      sub\n        /* \"#utility.yul\":11599:11602   */\n      dup10\n        /* \"#utility.yul\":11592:11625   */\n      mstore\n        /* \"#utility.yul\":11665:11671   */\n      dup2\n        /* \"#utility.yul\":11659:11672   */\n      mload\n        /* \"#utility.yul\":11693:11799   */\n      tag_247\n        /* \"#utility.yul\":11794:11798   */\n      dup6\n        /* \"#utility.yul\":11779:11792   */\n      dup3\n        /* \"#utility.yul\":11693:11799   */\n      tag_112\n      jump\t// in\n    tag_247:\n        /* \"#utility.yul\":11685:11799   */\n      swap5\n      pop\n        /* \"#utility.yul\":11822:11903   */\n      tag_248\n        /* \"#utility.yul\":11896:11902   */\n      dup4\n        /* \"#utility.yul\":11822:11903   */\n      tag_113\n      jump\t// in\n    tag_248:\n        /* \"#utility.yul\":11812:11903   */\n      swap3\n      pop\n        /* \"#utility.yul\":11932:11936   */\n      0x20\n        /* \"#utility.yul\":11927:11930   */\n      dup11\n        /* \"#utility.yul\":11923:11937   */\n      add\n        /* \"#utility.yul\":11916:11937   */\n      swap10\n      pop\n        /* \"#utility.yul\":11578:11947   */\n      pop\n        /* \"#utility.yul\":11565:11566   */\n      0x01\n        /* \"#utility.yul\":11562:11563   */\n      dup2\n        /* \"#utility.yul\":11558:11567   */\n      add\n        /* \"#utility.yul\":11553:11567   */\n      swap1\n      pop\n        /* \"#utility.yul\":11518:11947   */\n      jump(tag_244)\n    tag_246:\n        /* \"#utility.yul\":11522:11536   */\n      pop\n        /* \"#utility.yul\":11963:11967   */\n      dup3\n        /* \"#utility.yul\":11956:11967   */\n      swap8\n      pop\n        /* \"#utility.yul\":11983:11986   */\n      dup8\n        /* \"#utility.yul\":11976:11986   */\n      swap6\n      pop\n        /* \"#utility.yul\":11079:11992   */\n      pop\n      pop\n      pop\n      pop\n      pop\n        /* \"#utility.yul\":10913:11992   */\n      swap3\n      swap2\n      pop\n      pop\n      jump\t// out\n        /* \"#utility.yul\":11998:12455   */\n    tag_31:\n        /* \"#utility.yul\":12183:12187   */\n      0x00\n        /* \"#utility.yul\":12221:12223   */\n      0x20\n        /* \"#utility.yul\":12210:12219   */\n      dup3\n        /* \"#utility.yul\":12206:12224   */\n      add\n        /* \"#utility.yul\":12198:12224   */\n      swap1\n      pop\n        /* \"#utility.yul\":12270:12279   */\n      dup2\n        /* \"#utility.yul\":12264:12268   */\n      dup2\n        /* \"#utility.yul\":12260:12280   */\n      sub\n        /* \"#utility.yul\":12256:12257   */\n      0x00\n        /* \"#utility.yul\":12245:12254   */\n      dup4\n        /* \"#utility.yul\":12241:12258   */\n      add\n        /* \"#utility.yul\":12234:12281   */\n      mstore\n        /* \"#utility.yul\":12298:12448   */\n      tag_250\n        /* \"#utility.yul\":12443:12447   */\n      dup2\n        /* \"#utility.yul\":12434:12440   */\n      dup5\n        /* \"#utility.yul\":12298:12448   */\n      tag_114\n      jump\t// in\n    tag_250:\n        /* \"#utility.yul\":12290:12448   */\n      swap1\n      pop\n        /* \"#utility.yul\":11998:12455   */\n      swap3\n      swap2\n      pop\n      pop\n      jump\t// out\n        /* \"#utility.yul\":12461:12641   */\n    tag_115:\n        /* \"#utility.yul\":12509:12586   */\n      0x4e487b7100000000000000000000000000000000000000000000000000000000\n        /* \"#utility.yul\":12506:12507   */\n      0x00\n        /* \"#utility.yul\":12499:12587   */\n      mstore\n        /* \"#utility.yul\":12606:12610   */\n      0x22\n        /* \"#utility.yul\":12603:12604   */\n      0x04\n        /* \"#utility.yul\":12596:12611   */\n      mstore\n        /* \"#utility.yul\":12630:12634   */\n      0x24\n        /* \"#utility.yul\":12627:12628   */\n      0x00\n        /* \"#utility.yul\":12620:12635   */\n      revert\n        /* \"#utility.yul\":12647:12967   */\n    tag_35:\n        /* \"#utility.yul\":12691:12697   */\n      0x00\n        /* \"#utility.yul\":12728:12729   */\n      0x02\n        /* \"#utility.yul\":12722:12726   */\n      dup3\n        /* \"#utility.yul\":12718:12730   */\n      div\n        /* \"#utility.yul\":12708:12730   */\n      swap1\n      pop\n        /* \"#utility.yul\":12775:12776   */\n      0x01\n        /* \"#utility.yul\":12769:12773   */\n      dup3\n        /* \"#utility.yul\":12765:12777   */\n      and\n        /* \"#utility.yul\":12796:12814   */\n      dup1\n        /* \"#utility.yul\":12786:12867   */\n      tag_253\n      jumpi\n        /* \"#utility.yul\":12852:12856   */\n      0x7f\n        /* \"#utility.yul\":12844:12850   */\n      dup3\n        /* \"#utility.yul\":12840:12857   */\n      and\n        /* \"#utility.yul\":12830:12857   */\n      swap2\n      pop\n        /* \"#utility.yul\":12786:12867   */\n    tag_253:\n        /* \"#utility.yul\":12914:12916   */\n      0x20\n        /* \"#utility.yul\":12906:12912   */\n      dup3\n        /* \"#utility.yul\":12903:12917   */\n      lt\n        /* \"#utility.yul\":12883:12901   */\n      dup2\n        /* \"#utility.yul\":12880:12918   */\n      sub\n        /* \"#utility.yul\":12877:12961   */\n      tag_254\n      jumpi\n        /* \"#utility.yul\":12933:12951   */\n      tag_255\n      tag_115\n      jump\t// in\n    tag_255:\n        /* \"#utility.yul\":12877:12961   */\n    tag_254:\n        /* \"#utility.yul\":12698:12967   */\n      pop\n        /* \"#utility.yul\":12647:12967   */\n      swap2\n      swap1\n      pop\n      jump\t// out\n        /* \"#utility.yul\":12973:13153   */\n    tag_45:\n        /* \"#utility.yul\":13021:13098   */\n      0x4e487b7100000000000000000000000000000000000000000000000000000000\n        /* \"#utility.yul\":13018:13019   */\n      0x00\n        /* \"#utility.yul\":13011:13099   */\n      mstore\n        /* \"#utility.yul\":13118:13122   */\n      0x32\n        /* \"#utility.yul\":13115:13116   */\n      0x04\n        /* \"#utility.yul\":13108:13123   */\n      mstore\n        /* \"#utility.yul\":13142:13146   */\n      0x24\n        /* \"#utility.yul\":13139:13140   */\n      0x00\n        /* \"#utility.yul\":13132:13147   */\n      revert\n        /* \"#utility.yul\":13159:13387   */\n    tag_116:\n        /* \"#utility.yul\":13299:13333   */\n      0x547765657420636f6e74656e74206d757374206265206c657373207468616e20\n        /* \"#utility.yul\":13295:13296   */\n      0x00\n        /* \"#utility.yul\":13287:13293   */\n      dup3\n        /* \"#utility.yul\":13283:13297   */\n      add\n        /* \"#utility.yul\":13276:13334   */\n      mstore\n        /* \"#utility.yul\":13368:13379   */\n      0x3235302062797465730000000000000000000000000000000000000000000000\n        /* \"#utility.yul\":13363:13365   */\n      0x20\n        /* \"#utility.yul\":13355:13361   */\n      dup3\n        /* \"#utility.yul\":13351:13366   */\n      add\n        /* \"#utility.yul\":13344:13380   */\n      mstore\n        /* \"#utility.yul\":13159:13387   */\n      pop\n      jump\t// out\n        /* \"#utility.yul\":13393:13759   */\n    tag_117:\n        /* \"#utility.yul\":13535:13538   */\n      0x00\n        /* \"#utility.yul\":13556:13623   */\n      tag_259\n        /* \"#utility.yul\":13620:13622   */\n      0x29\n        /* \"#utility.yul\":13615:13618   */\n      dup4\n        /* \"#utility.yul\":13556:13623   */\n      tag_89\n      jump\t// in\n    tag_259:\n        /* \"#utility.yul\":13549:13623   */\n      swap2\n      pop\n        /* \"#utility.yul\":13632:13725   */\n      tag_260\n        /* \"#utility.yul\":13721:13724   */\n      dup3\n        /* \"#utility.yul\":13632:13725   */\n      tag_116\n      jump\t// in\n    tag_260:\n        /* \"#utility.yul\":13750:13752   */\n      0x40\n        /* \"#utility.yul\":13745:13748   */\n      dup3\n        /* \"#utility.yul\":13741:13753   */\n      add\n        /* \"#utility.yul\":13734:13753   */\n      swap1\n      pop\n        /* \"#utility.yul\":13393:13759   */\n      swap2\n      swap1\n      pop\n      jump\t// out\n        /* \"#utility.yul\":13765:14184   */\n    tag_55:\n        /* \"#utility.yul\":13931:13935   */\n      0x00\n        /* \"#utility.yul\":13969:13971   */\n      0x20\n        /* \"#utility.yul\":13958:13967   */\n      dup3\n        /* \"#utility.yul\":13954:13972   */\n      add\n        /* \"#utility.yul\":13946:13972   */\n      swap1\n      pop\n        /* \"#utility.yul\":14018:14027   */\n      dup2\n        /* \"#utility.yul\":14012:14016   */\n      dup2\n        /* \"#utility.yul\":14008:14028   */\n      sub\n        /* \"#utility.yul\":14004:14005   */\n      0x00\n        /* \"#utility.yul\":13993:14002   */\n      dup4\n        /* \"#utility.yul\":13989:14006   */\n      add\n        /* \"#utility.yul\":13982:14029   */\n      mstore\n        /* \"#utility.yul\":14046:14177   */\n      tag_262\n        /* \"#utility.yul\":14172:14176   */\n      dup2\n        /* \"#utility.yul\":14046:14177   */\n      tag_117\n      jump\t// in\n    tag_262:\n        /* \"#utility.yul\":14038:14177   */\n      swap1\n      pop\n        /* \"#utility.yul\":13765:14184   */\n      swap2\n      swap1\n      pop\n      jump\t// out\n        /* \"#utility.yul\":14190:14331   */\n    tag_118:\n        /* \"#utility.yul\":14239:14243   */\n      0x00\n        /* \"#utility.yul\":14262:14265   */\n      dup2\n        /* \"#utility.yul\":14254:14265   */\n      swap1\n      pop\n        /* \"#utility.yul\":14285:14288   */\n      dup2\n        /* \"#utility.yul\":14282:14283   */\n      0x00\n        /* \"#utility.yul\":14275:14289   */\n      mstore\n        /* \"#utility.yul\":14319:14323   */\n      0x20\n        /* \"#utility.yul\":14316:14317   */\n      0x00\n        /* \"#utility.yul\":14306:14324   */\n      keccak256\n        /* \"#utility.yul\":14298:14324   */\n      swap1\n      pop\n        /* \"#utility.yul\":14190:14331   */\n      swap2\n      swap1\n      pop\n      jump\t// out\n        /* \"#utility.yul\":14337:14430   */\n    tag_119:\n        /* \"#utility.yul\":14374:14380   */\n      0x00\n        /* \"#utility.yul\":14421:14423   */\n      0x20\n        /* \"#utility.yul\":14416:14418   */\n      0x1f\n        /* \"#utility.yul\":14409:14414   */\n      dup4\n        /* \"#utility.yul\":14405:14419   */\n      add\n        /* \"#utility.yul\":14401:14424   */\n      div\n        /* \"#utility.yul\":14391:14424   */\n      swap1\n      pop\n        /* \"#utility.yul\":14337:14430   */\n      swap2\n      swap1\n      pop\n      jump\t// out\n        /* \"#utility.yul\":14436:14543   */\n    tag_120:\n        /* \"#utility.yul\":14480:14488   */\n      0x00\n        /* \"#utility.yul\":14530:14535   */\n      dup3\n        /* \"#utility.yul\":14524:14528   */\n      dup3\n        /* \"#utility.yul\":14520:14536   */\n      shl\n        /* \"#utility.yul\":14499:14536   */\n      swap1\n      pop\n        /* \"#utility.yul\":14436:14543   */\n      swap3\n      swap2\n      pop\n      pop\n      jump\t// out\n        /* \"#utility.yul\":14549:14942   */\n    tag_121:\n        /* \"#utility.yul\":14618:14624   */\n      0x00\n        /* \"#utility.yul\":14668:14669   */\n      0x08\n        /* \"#utility.yul\":14656:14666   */\n      dup4\n        /* \"#utility.yul\":14652:14670   */\n      mul\n        /* \"#utility.yul\":14691:14788   */\n      tag_267\n        /* \"#utility.yul\":14721:14787   */\n      0xffffffffffffffffffffffffffffffffffffffffffffffffffffffffffffffff\n        /* \"#utility.yul\":14710:14719   */\n      dup3\n        /* \"#utility.yul\":14691:14788   */\n      tag_120\n      jump\t// in\n    tag_267:\n        /* \"#utility.yul\":14809:14848   */\n      tag_268\n        /* \"#utility.yul\":14839:14847   */\n      dup7\n        /* \"#utility.yul\":14828:14837   */\n      dup4\n        /* \"#utility.yul\":14809:14848   */\n      tag_120\n      jump\t// in\n    tag_268:\n        /* \"#utility.yul\":14797:14848   */\n      swap6\n      pop\n        /* \"#utility.yul\":14881:14885   */\n      dup1\n        /* \"#utility.yul\":14877:14886   */\n      not\n        /* \"#utility.yul\":14870:14875   */\n      dup5\n        /* \"#utility.yul\":14866:14887   */\n      and\n        /* \"#utility.yul\":14857:14887   */\n      swap4\n      pop\n        /* \"#utility.yul\":14930:14934   */\n      dup1\n        /* \"#utility.yul\":14920:14928   */\n      dup7\n        /* \"#utility.yul\":14916:14935   */\n      and\n        /* \"#utility.yul\":14909:14914   */\n      dup5\n        /* \"#utility.yul\":14906:14936   */\n      or\n        /* \"#utility.yul\":14896:14936   */\n      swap3\n      pop\n        /* \"#utility.yul\":14625:14942   */\n      pop\n      pop\n        /* \"#utility.yul\":14549:14942   */\n      swap4\n      swap3\n      pop\n      pop\n      pop\n      jump\t// out\n        /* \"#utility.yul\":14948:15008   */\n    tag_122:\n        /* \"#utility.yul\":14976:14979   */\n      0x00\n        /* \"#utility.yul\":14997:15002   */\n      dup2\n        /* \"#utility.yul\":14990:15002   */\n      swap1\n      pop\n        /* \"#utility.yul\":14948:15008   */\n      swap2\n      swap1\n      pop\n      jump\t// out\n        /* \"#utility.yul\":15014:15156   */\n    tag_123:\n        /* \"#utility.yul\":15064:15073   */\n      0x00\n        /* \"#utility.yul\":15097:15150   */\n      tag_271\n        /* \"#utility.yul\":15115:15149   */\n      tag_272\n        /* \"#utility.yul\":15124:15148   */\n      tag_273\n        /* \"#utility.yul\":15142:15147   */\n      dup5\n        /* \"#utility.yul\":15124:15148   */\n      tag_84\n      jump\t// in\n    tag_273:\n        /* \"#utility.yul\":15115:15149   */\n      tag_122\n      jump\t// in\n    tag_272:\n        /* \"#utility.yul\":15097:15150   */\n      tag_84\n      jump\t// in\n    tag_271:\n        /* \"#utility.yul\":15084:15150   */\n      swap1\n      pop\n        /* \"#utility.yul\":15014:15156   */\n      swap2\n      swap1\n      pop\n      jump\t// out\n        /* \"#utility.yul\":15162:15237   */\n    tag_124:\n        /* \"#utility.yul\":15205:15208   */\n      0x00\n        /* \"#utility.yul\":15226:15231   */\n      dup2\n        /* \"#utility.yul\":15219:15231   */\n      swap1\n      pop\n        /* \"#utility.yul\":15162:15237   */\n      swap2\n      swap1\n      pop\n      jump\t// out\n        /* \"#utility.yul\":15243:15512   */\n    tag_125:\n        /* \"#utility.yul\":15353:15392   */\n      tag_276\n        /* \"#utility.yul\":15384:15391   */\n      dup4\n        /* \"#utility.yul\":15353:15392   */\n      tag_123\n      jump\t// in\n    tag_276:\n        /* \"#utility.yul\":15414:15505   */\n      tag_277\n        /* \"#utility.yul\":15463:15504   */\n      tag_278\n        /* \"#utility.yul\":15487:15503   */\n      dup3\n        /* \"#utility.yul\":15463:15504   */\n      tag_124\n      jump\t// in\n    tag_278:\n        /* \"#utility.yul\":15455:15461   */\n      dup5\n        /* \"#utility.yul\":15448:15452   */\n      dup5\n        /* \"#utility.yul\":15442:15453   */\n      sload\n        /* \"#utility.yul\":15414:15505   */\n      tag_121\n      jump\t// in\n    tag_277:\n        /* \"#utility.yul\":15408:15412   */\n      dup3\n        /* \"#utility.yul\":15401:15506   */\n      sstore\n        /* \"#utility.yul\":15319:15512   */\n      pop\n        /* \"#utility.yul\":15243:15512   */\n      pop\n      pop\n      pop\n      jump\t// out\n        /* \"#utility.yul\":15518:15591   */\n    tag_126:\n        /* \"#utility.yul\":15563:15566   */\n      0x00\n        /* \"#utility.yul\":15518:15591   */\n      swap1\n      jump\t// out\n        /* \"#utility.yul\":15597:15786   */\n    tag_127:\n        /* \"#utility.yul\":15674:15706   */\n      tag_281\n      tag_126\n      jump\t// in\n    tag_281:\n        /* \"#utility.yul\":15715:15780   */\n      tag_282\n        /* \"#utility.yul\":15773:15779   */\n      dup2\n        /* \"#utility.yul\":15765:15771   */\n      dup5\n        /* \"#utility.yul\":15759:15763   */\n      dup5\n        /* \"#utility.yul\":15715:15780   */\n      tag_125\n      jump\t// in\n    tag_282:\n        /* \"#utility.yul\":15650:15786   */\n      pop\n        /* \"#utility.yul\":15597:15786   */\n      pop\n      pop\n      jump\t// out\n        /* \"#utility.yul\":15792:15978   */\n    tag_128:\n        /* \"#utility.yul\":15852:15972   */\n    tag_284:\n        /* \"#utility.yul\":15869:15872   */\n      dup2\n        /* \"#utility.yul\":15862:15867   */\n      dup2\n        /* \"#utility.yul\":15859:15873   */\n      lt\n        /* \"#utility.yul\":15852:15972   */\n      iszero\n      tag_286\n      jumpi\n        /* \"#utility.yul\":15923:15962   */\n      tag_287\n        /* \"#utility.yul\":15960:15961   */\n      0x00\n        /* \"#utility.yul\":15953:15958   */\n      dup3\n        /* \"#utility.yul\":15923:15962   */\n      tag_127\n      jump\t// in\n    tag_287:\n        /* \"#utility.yul\":15896:15897   */\n      0x01\n        /* \"#utility.yul\":15889:15894   */\n      dup2\n        /* \"#utility.yul\":15885:15898   */\n      add\n        /* \"#utility.yul\":15876:15898   */\n      swap1\n      pop\n        /* \"#utility.yul\":15852:15972   */\n      jump(tag_284)\n    tag_286:\n        /* \"#utility.yul\":15792:15978   */\n      pop\n      pop\n      jump\t// out\n        /* \"#utility.yul\":15984:16527   */\n    tag_129:\n        /* \"#utility.yul\":16085:16087   */\n      0x1f\n        /* \"#utility.yul\":16080:16083   */\n      dup3\n        /* \"#utility.yul\":16077:16088   */\n      gt\n        /* \"#utility.yul\":16074:16520   */\n      iszero\n      tag_289\n      jumpi\n        /* \"#utility.yul\":16119:16157   */\n      tag_290\n        /* \"#utility.yul\":16151:16156   */\n      dup2\n        /* \"#utility.yul\":16119:16157   */\n      tag_118\n      jump\t// in\n    tag_290:\n        /* \"#utility.yul\":16203:16232   */\n      tag_291\n        /* \"#utility.yul\":16221:16231   */\n      dup5\n        /* \"#utility.yul\":16203:16232   */\n      tag_119\n      jump\t// in\n    tag_291:\n        /* \"#utility.yul\":16193:16201   */\n      dup2\n        /* \"#utility.yul\":16189:16233   */\n      add\n        /* \"#utility.yul\":16386:16388   */\n      0x20\n        /* \"#utility.yul\":16374:16384   */\n      dup6\n        /* \"#utility.yul\":16371:16389   */\n      lt\n        /* \"#utility.yul\":16368:16417   */\n      iszero\n      tag_292\n      jumpi\n        /* \"#utility.yul\":16407:16415   */\n      dup2\n        /* \"#utility.yul\":16392:16415   */\n      swap1\n      pop\n        /* \"#utility.yul\":16368:16417   */\n    tag_292:\n        /* \"#utility.yul\":16430:16510   */\n      tag_293\n        /* \"#utility.yul\":16486:16508   */\n      tag_294\n        /* \"#utility.yul\":16504:16507   */\n      dup6\n        /* \"#utility.yul\":16486:16508   */\n      tag_119\n      jump\t// in\n    tag_294:\n        /* \"#utility.yul\":16476:16484   */\n      dup4\n        /* \"#utility.yul\":16472:16509   */\n      add\n        /* \"#utility.yul\":16459:16470   */\n      dup3\n        /* \"#utility.yul\":16430:16510   */\n      tag_128\n      jump\t// in\n    tag_293:\n        /* \"#utility.yul\":16089:16520   */\n      pop\n      pop\n        /* \"#utility.yul\":16074:16520   */\n    tag_289:\n        /* \"#utility.yul\":15984:16527   */\n      pop\n      pop\n      pop\n      jump\t// out\n        /* \"#utility.yul\":16533:16650   */\n    tag_130:\n        /* \"#utility.yul\":16587:16595   */\n      0x00\n        /* \"#utility.yul\":16637:16642   */\n      dup3\n        /* \"#utility.yul\":16631:16635   */\n      dup3\n        /* \"#utility.yul\":16627:16643   */\n      shr\n        /* \"#utility.yul\":16606:16643   */\n      swap1\n      pop\n        /* \"#utility.yul\":16533:16650   */\n      swap3\n      swap2\n      pop\n      pop\n      jump\t// out\n        /* \"#utility.yul\":16656:16825   */\n    tag_131:\n        /* \"#utility.yul\":16700:16706   */\n      0x00\n        /* \"#utility.yul\":16733:16784   */\n      tag_297\n        /* \"#utility.yul\":16781:16782   */\n      0x00\n        /* \"#utility.yul\":16777:16783   */\n      not\n        /* \"#utility.yul\":16769:16774   */\n      dup5\n        /* \"#utility.yul\":16766:16767   */\n      0x08\n        /* \"#utility.yul\":16762:16775   */\n      mul\n        /* \"#utility.yul\":16733:16784   */\n      tag_130\n      jump\t// in\n    tag_297:\n        /* \"#utility.yul\":16729:16785   */\n      not\n        /* \"#utility.yul\":16814:16818   */\n      dup1\n        /* \"#utility.yul\":16808:16812   */\n      dup4\n        /* \"#utility.yul\":16804:16819   */\n      and\n        /* \"#utility.yul\":16794:16819   */\n      swap2\n      pop\n        /* \"#utility.yul\":16707:16825   */\n      pop\n        /* \"#utility.yul\":16656:16825   */\n      swap3\n      swap2\n      pop\n      pop\n      jump\t// out\n        /* \"#utility.yul\":16830:17125   */\n    tag_132:\n        /* \"#utility.yul\":16906:16910   */\n      0x00\n        /* \"#utility.yul\":17052:17081   */\n      tag_299\n        /* \"#utility.yul\":17077:17080   */\n      dup4\n        /* \"#utility.yul\":17071:17075   */\n      dup4\n        /* \"#utility.yul\":17052:17081   */\n      tag_131\n      jump\t// in\n    tag_299:\n        /* \"#utility.yul\":17044:17081   */\n      swap2\n      pop\n        /* \"#utility.yul\":17114:17117   */\n      dup3\n        /* \"#utility.yul\":17111:17112   */\n      0x02\n        /* \"#utility.yul\":17107:17118   */\n      mul\n        /* \"#utility.yul\":17101:17105   */\n      dup3\n        /* \"#utility.yul\":17098:17119   */\n      or\n        /* \"#utility.yul\":17090:17119   */\n      swap1\n      pop\n        /* \"#utility.yul\":16830:17125   */\n      swap3\n      swap2\n      pop\n      pop\n      jump\t// out\n        /* \"#utility.yul\":17130:18525   */\n    tag_58:\n        /* \"#utility.yul\":17247:17284   */\n      tag_301\n        /* \"#utility.yul\":17280:17283   */\n      dup3\n        /* \"#utility.yul\":17247:17284   */\n      tag_88\n      jump\t// in\n    tag_301:\n        /* \"#utility.yul\":17349:17367   */\n      0xffffffffffffffff\n        /* \"#utility.yul\":17341:17347   */\n      dup2\n        /* \"#utility.yul\":17338:17368   */\n      gt\n        /* \"#utility.yul\":17335:17391   */\n      iszero\n      tag_302\n      jumpi\n        /* \"#utility.yul\":17371:17389   */\n      tag_303\n      tag_101\n      jump\t// in\n    tag_303:\n        /* \"#utility.yul\":17335:17391   */\n    tag_302:\n        /* \"#utility.yul\":17415:17453   */\n      tag_304\n        /* \"#utility.yul\":17447:17451   */\n      dup3\n        /* \"#utility.yul\":17441:17452   */\n      sload\n        /* \"#utility.yul\":17415:17453   */\n      tag_35\n      jump\t// in\n    tag_304:\n        /* \"#utility.yul\":17500:17567   */\n      tag_305\n        /* \"#utility.yul\":17560:17566   */\n      dup3\n        /* \"#utility.yul\":17552:17558   */\n      dup3\n        /* \"#utility.yul\":17546:17550   */\n      dup6\n        /* \"#utility.yul\":17500:17567   */\n      tag_129\n      jump\t// in\n    tag_305:\n        /* \"#utility.yul\":17594:17595   */\n      0x00\n        /* \"#utility.yul\":17618:17622   */\n      0x20\n        /* \"#utility.yul\":17605:17622   */\n      swap1\n      pop\n        /* \"#utility.yul\":17650:17652   */\n      0x1f\n        /* \"#utility.yul\":17642:17648   */\n      dup4\n        /* \"#utility.yul\":17639:17653   */\n      gt\n        /* \"#utility.yul\":17667:17668   */\n      0x01\n        /* \"#utility.yul\":17662:18280   */\n      dup2\n      eq\n      tag_307\n      jumpi\n        /* \"#utility.yul\":18324:18325   */\n      0x00\n        /* \"#utility.yul\":18341:18347   */\n      dup5\n        /* \"#utility.yul\":18338:18415   */\n      iszero\n      tag_308\n      jumpi\n        /* \"#utility.yul\":18390:18399   */\n      dup3\n        /* \"#utility.yul\":18385:18388   */\n      dup8\n        /* \"#utility.yul\":18381:18400   */\n      add\n        /* \"#utility.yul\":18375:18401   */\n      mload\n        /* \"#utility.yul\":18366:18401   */\n      swap1\n      pop\n        /* \"#utility.yul\":18338:18415   */\n    tag_308:\n        /* \"#utility.yul\":18441:18508   */\n      tag_309\n        /* \"#utility.yul\":18501:18507   */\n      dup6\n        /* \"#utility.yul\":18494:18499   */\n      dup3\n        /* \"#utility.yul\":18441:18508   */\n      tag_132\n      jump\t// in\n    tag_309:\n        /* \"#utility.yul\":18435:18439   */\n      dup7\n        /* \"#utility.yul\":18428:18509   */\n      sstore\n        /* \"#utility.yul\":18297:18519   */\n      pop\n        /* \"#utility.yul\":17632:18519   */\n      jump(tag_306)\n        /* \"#utility.yul\":17662:18280   */\n    tag_307:\n        /* \"#utility.yul\":17714:17718   */\n      0x1f\n        /* \"#utility.yul\":17710:17719   */\n      not\n        /* \"#utility.yul\":17702:17708   */\n      dup5\n        /* \"#utility.yul\":17698:17720   */\n      and\n        /* \"#utility.yul\":17748:17785   */\n      tag_310\n        /* \"#utility.yul\":17780:17784   */\n      dup7\n        /* \"#utility.yul\":17748:17785   */\n      tag_118\n      jump\t// in\n    tag_310:\n        /* \"#utility.yul\":17807:17808   */\n      0x00\n        /* \"#utility.yul\":17821:18029   */\n    tag_311:\n        /* \"#utility.yul\":17835:17842   */\n      dup3\n        /* \"#utility.yul\":17832:17833   */\n      dup2\n        /* \"#utility.yul\":17829:17843   */\n      lt\n        /* \"#utility.yul\":17821:18029   */\n      iszero\n      tag_313\n      jumpi\n        /* \"#utility.yul\":17914:17923   */\n      dup5\n        /* \"#utility.yul\":17909:17912   */\n      dup10\n        /* \"#utility.yul\":17905:17924   */\n      add\n        /* \"#utility.yul\":17899:17925   */\n      mload\n        /* \"#utility.yul\":17891:17897   */\n      dup3\n        /* \"#utility.yul\":17884:17926   */\n      sstore\n        /* \"#utility.yul\":17965:17966   */\n      0x01\n        /* \"#utility.yul\":17957:17963   */\n      dup3\n        /* \"#utility.yul\":17953:17967   */\n      add\n        /* \"#utility.yul\":17943:17967   */\n      swap2\n      pop\n        /* \"#utility.yul\":18012:18014   */\n      0x20\n        /* \"#utility.yul\":18001:18010   */\n      dup6\n        /* \"#utility.yul\":17997:18015   */\n      add\n        /* \"#utility.yul\":17984:18015   */\n      swap5\n      pop\n        /* \"#utility.yul\":17858:17862   */\n      0x20\n        /* \"#utility.yul\":17855:17856   */\n      dup2\n        /* \"#utility.yul\":17851:17863   */\n      add\n        /* \"#utility.yul\":17846:17863   */\n      swap1\n      pop\n        /* \"#utility.yul\":17821:18029   */\n      jump(tag_311)\n    tag_313:\n        /* \"#utility.yul\":18057:18063   */\n      dup7\n        /* \"#utility.yul\":18048:18055   */\n      dup4\n        /* \"#utility.yul\":18045:18064   */\n      lt\n        /* \"#utility.yul\":18042:18221   */\n      iszero\n      tag_314\n      jumpi\n        /* \"#utility.yul\":18115:18124   */\n      dup5\n        /* \"#utility.yul\":18110:18113   */\n      dup10\n        /* \"#utility.yul\":18106:18125   */\n      add\n        /* \"#utility.yul\":18100:18126   */\n      mload\n        /* \"#utility.yul\":18158:18206   */\n      tag_315\n        /* \"#utility.yul\":18200:18204   */\n      0x1f\n        /* \"#utility.yul\":18192:18198   */\n      dup10\n        /* \"#utility.yul\":18188:18205   */\n      and\n        /* \"#utility.yul\":18177:18186   */\n      dup3\n        /* \"#utility.yul\":18158:18206   */\n      tag_131\n      jump\t// in\n    tag_315:\n        /* \"#utility.yul\":18150:18156   */\n      dup4\n        /* \"#utility.yul\":18143:18207   */\n      sstore\n        /* \"#utility.yul\":18065:18221   */\n      pop\n        /* \"#utility.yul\":18042:18221   */\n    tag_314:\n        /* \"#utility.yul\":18267:18268   */\n      0x01\n        /* \"#utility.yul\":18263:18264   */\n      0x02\n        /* \"#utility.yul\":18255:18261   */\n      dup9\n        /* \"#utility.yul\":18251:18265   */\n      mul\n        /* \"#utility.yul\":18247:18269   */\n      add\n        /* \"#utility.yul\":18241:18245   */\n      dup9\n        /* \"#utility.yul\":18234:18270   */\n      sstore\n        /* \"#utility.yul\":17669:18280   */\n      pop\n      pop\n      pop\n        /* \"#utility.yul\":17632:18519   */\n    tag_306:\n      pop\n        /* \"#utility.yul\":17222:18525   */\n      pop\n      pop\n      pop\n        /* \"#utility.yul\":17130:18525   */\n      pop\n      pop\n      jump\t// out\n\n    auxdata: 0xa264697066735822122088e4dfce7757a75b3f44042f5b6436fafc23e75e7c53d6d3dde2d248cef619ee64736f6c634300081a0033\n}\n",
				"bytecode": {
					"linkReferences": {},
					"object": "6080604052348015600e575f80fd5b5061117f8061001c5f395ff3fe608060405234801561000f575f80fd5b5060043610610055575f3560e01c8063398f8a5d1461005957806361cfc6c71461008c57806389883310146100bc578063a2afce88146100d8578063fc86741f146100f6575b5f80fd5b610073600480360381019061006e91906108c4565b610114565b6040516100839493929190610990565b60405180910390f35b6100a660048036038101906100a191906109da565b6101fe565b6040516100b39190610acb565b60405180910390f35b6100d660048036038101906100d19190610c17565b61036a565b005b6100e06104c5565b6040516100ed9190610c71565b60405180910390f35b6100fe61065d565b60405161010b9190610da5565b60405180910390f35b5f602052815f5260405f20818154811061012c575f80fd5b905f5260205f2090600402015f9150915050805f01549080600101805461015290610df2565b80601f016020809104026020016040519081016040528092919081815260200182805461017e90610df2565b80156101c95780601f106101a0576101008083540402835291602001916101c9565b820191905f5260205f20905b8154815290600101906020018083116101ac57829003601f168201915b505050505090806002015f9054906101000a900473ffffffffffffffffffffffffffffffffffffffff16908060030154905084565b6102066107eb565b5f803373ffffffffffffffffffffffffffffffffffffffff1673ffffffffffffffffffffffffffffffffffffffff1681526020019081526020015f20828154811061025457610253610e22565b5b905f5260205f2090600402016040518060800160405290815f820154815260200160018201805461028490610df2565b80601f01602080910402602001604051908101604052809291908181526020018280546102b090610df2565b80156102fb5780601f106102d2576101008083540402835291602001916102fb565b820191905f5260205f20905b8154815290600101906020018083116102de57829003601f168201915b50505050508152602001600282015f9054906101000a900473ffffffffffffffffffffffffffffffffffffffff1673ffffffffffffffffffffffffffffffffffffffff1673ffffffffffffffffffffffffffffffffffffffff1681526020016003820154815250509050919050565b60fa61ffff16815111156103b3576040517f08c379a00000000000000000000000000000000000000000000000000000000081526004016103aa90610ebf565b60405180910390fd5b5f60405180608001604052808481526020018381526020013373ffffffffffffffffffffffffffffffffffffffff1681526020014281525090505f803373ffffffffffffffffffffffffffffffffffffffff1673ffffffffffffffffffffffffffffffffffffffff1681526020019081526020015f2081908060018154018082558091505060019003905f5260205f2090600402015f909190919091505f820151815f0155602082015181600101908161046d919061107a565b506040820151816002015f6101000a81548173ffffffffffffffffffffffffffffffffffffffff021916908373ffffffffffffffffffffffffffffffffffffffff160217905550606082015181600301555050505050565b5f805f803373ffffffffffffffffffffffffffffffffffffffff1673ffffffffffffffffffffffffffffffffffffffff1681526020019081526020015f20805480602002602001604051908101604052809291908181526020015f905b8282101561064a578382905f5260205f2090600402016040518060800160405290815f820154815260200160018201805461055c90610df2565b80601f016020809104026020016040519081016040528092919081815260200182805461058890610df2565b80156105d35780601f106105aa576101008083540402835291602001916105d3565b820191905f5260205f20905b8154815290600101906020018083116105b657829003601f168201915b50505050508152602001600282015f9054906101000a900473ffffffffffffffffffffffffffffffffffffffff1673ffffffffffffffffffffffffffffffffffffffff1673ffffffffffffffffffffffffffffffffffffffff16815260200160038201548152505081526020019060010190610522565b5050505090505f81519050809250505090565b60605f803373ffffffffffffffffffffffffffffffffffffffff1673ffffffffffffffffffffffffffffffffffffffff1681526020019081526020015f20805480602002602001604051908101604052809291908181526020015f905b828210156107e2578382905f5260205f2090600402016040518060800160405290815f82015481526020016001820180546106f490610df2565b80601f016020809104026020016040519081016040528092919081815260200182805461072090610df2565b801561076b5780601f106107425761010080835404028352916020019161076b565b820191905f5260205f20905b81548152906001019060200180831161074e57829003601f168201915b50505050508152602001600282015f9054906101000a900473ffffffffffffffffffffffffffffffffffffffff1673ffffffffffffffffffffffffffffffffffffffff1673ffffffffffffffffffffffffffffffffffffffff168152602001600382015481525050815260200190600101906106ba565b50505050905090565b60405180608001604052805f8152602001606081526020015f73ffffffffffffffffffffffffffffffffffffffff1681526020015f81525090565b5f604051905090565b5f80fd5b5f80fd5b5f73ffffffffffffffffffffffffffffffffffffffff82169050919050565b5f61086082610837565b9050919050565b61087081610856565b811461087a575f80fd5b50565b5f8135905061088b81610867565b92915050565b5f819050919050565b6108a381610891565b81146108ad575f80fd5b50565b5f813590506108be8161089a565b92915050565b5f80604083850312156108da576108d961082f565b5b5f6108e78582860161087d565b92505060206108f8858286016108b0565b9150509250929050565b61090b81610891565b82525050565b5f81519050919050565b5f82825260208201905092915050565b8281835e5f83830152505050565b5f601f19601f8301169050919050565b5f61095382610911565b61095d818561091b565b935061096d81856020860161092b565b61097681610939565b840191505092915050565b61098a81610856565b82525050565b5f6080820190506109a35f830187610902565b81810360208301526109b58186610949565b90506109c46040830185610981565b6109d16060830184610902565b95945050505050565b5f602082840312156109ef576109ee61082f565b5b5f6109fc848285016108b0565b91505092915050565b610a0e81610891565b82525050565b5f82825260208201905092915050565b5f610a2e82610911565b610a388185610a14565b9350610a4881856020860161092b565b610a5181610939565b840191505092915050565b610a6581610856565b82525050565b5f608083015f830151610a805f860182610a05565b5060208301518482036020860152610a988282610a24565b9150506040830151610aad6040860182610a5c565b506060830151610ac06060860182610a05565b508091505092915050565b5f6020820190508181035f830152610ae38184610a6b565b905092915050565b5f80fd5b5f80fd5b7f4e487b71000000000000000000000000000000000000000000000000000000005f52604160045260245ffd5b610b2982610939565b810181811067ffffffffffffffff82111715610b4857610b47610af3565b5b80604052505050565b5f610b5a610826565b9050610b668282610b20565b919050565b5f67ffffffffffffffff821115610b8557610b84610af3565b5b610b8e82610939565b9050602081019050919050565b828183375f83830152505050565b5f610bbb610bb684610b6b565b610b51565b905082815260208101848484011115610bd757610bd6610aef565b5b610be2848285610b9b565b509392505050565b5f82601f830112610bfe57610bfd610aeb565b5b8135610c0e848260208601610ba9565b91505092915050565b5f8060408385031215610c2d57610c2c61082f565b5b5f610c3a858286016108b0565b925050602083013567ffffffffffffffff811115610c5b57610c5a610833565b5b610c6785828601610bea565b9150509250929050565b5f602082019050610c845f830184610902565b92915050565b5f81519050919050565b5f82825260208201905092915050565b5f819050602082019050919050565b5f608083015f830151610cc85f860182610a05565b5060208301518482036020860152610ce08282610a24565b9150506040830151610cf56040860182610a5c565b506060830151610d086060860182610a05565b508091505092915050565b5f610d1e8383610cb3565b905092915050565b5f602082019050919050565b5f610d3c82610c8a565b610d468185610c94565b935083602082028501610d5885610ca4565b805f5b85811015610d935784840389528151610d748582610d13565b9450610d7f83610d26565b925060208a01995050600181019050610d5b565b50829750879550505050505092915050565b5f6020820190508181035f830152610dbd8184610d32565b905092915050565b7f4e487b71000000000000000000000000000000000000000000000000000000005f52602260045260245ffd5b5f6002820490506001821680610e0957607f821691505b602082108103610e1c57610e1b610dc5565b5b50919050565b7f4e487b71000000000000000000000000000000000000000000000000000000005f52603260045260245ffd5b7f547765657420636f6e74656e74206d757374206265206c657373207468616e205f8201527f3235302062797465730000000000000000000000000000000000000000000000602082015250565b5f610ea960298361091b565b9150610eb482610e4f565b604082019050919050565b5f6020820190508181035f830152610ed681610e9d565b9050919050565b5f819050815f5260205f209050919050565b5f6020601f8301049050919050565b5f82821b905092915050565b5f60088302610f397fffffffffffffffffffffffffffffffffffffffffffffffffffffffffffffffff82610efe565b610f438683610efe565b95508019841693508086168417925050509392505050565b5f819050919050565b5f610f7e610f79610f7484610891565b610f5b565b610891565b9050919050565b5f819050919050565b610f9783610f64565b610fab610fa382610f85565b848454610f0a565b825550505050565b5f90565b610fbf610fb3565b610fca818484610f8e565b505050565b5b81811015610fed57610fe25f82610fb7565b600181019050610fd0565b5050565b601f8211156110325761100381610edd565b61100c84610eef565b8101602085101561101b578190505b61102f61102785610eef565b830182610fcf565b50505b505050565b5f82821c905092915050565b5f6110525f1984600802611037565b1980831691505092915050565b5f61106a8383611043565b9150826002028217905092915050565b61108382610911565b67ffffffffffffffff81111561109c5761109b610af3565b5b6110a68254610df2565b6110b1828285610ff1565b5f60209050601f8311600181146110e2575f84156110d0578287015190505b6110da858261105f565b865550611141565b601f1984166110f086610edd565b5f5b82811015611117578489015182556001820191506020850194506020810190506110f2565b868310156111345784890151611130601f891682611043565b8355505b6001600288020188555050505b50505050505056fea264697066735822122088e4dfce7757a75b3f44042f5b6436fafc23e75e7c53d6d3dde2d248cef619ee64736f6c634300081a0033",
					"opcodes": "PUSH1 0x80 PUSH1 0x40 MSTORE CALLVALUE DUP1 ISZERO PUSH1 0xE JUMPI PUSH0 DUP1 REVERT JUMPDEST POP PUSH2 0x117F DUP1 PUSH2 0x1C PUSH0 CODECOPY PUSH0 RETURN INVALID PUSH1 0x80 PUSH1 0x40 MSTORE CALLVALUE DUP1 ISZERO PUSH2 0xF JUMPI PUSH0 DUP1 REVERT JUMPDEST POP PUSH1 0x4 CALLDATASIZE LT PUSH2 0x55 JUMPI PUSH0 CALLDATALOAD PUSH1 0xE0 SHR DUP1 PUSH4 0x398F8A5D EQ PUSH2 0x59 JUMPI DUP1 PUSH4 0x61CFC6C7 EQ PUSH2 0x8C JUMPI DUP1 PUSH4 0x89883310 EQ PUSH2 0xBC JUMPI DUP1 PUSH4 0xA2AFCE88 EQ PUSH2 0xD8 JUMPI DUP1 PUSH4 0xFC86741F EQ PUSH2 0xF6 JUMPI JUMPDEST PUSH0 DUP1 REVERT JUMPDEST PUSH2 0x73 PUSH1 0x4 DUP1 CALLDATASIZE SUB DUP2 ADD SWAP1 PUSH2 0x6E SWAP2 SWAP1 PUSH2 0x8C4 JUMP JUMPDEST PUSH2 0x114 JUMP JUMPDEST PUSH1 0x40 MLOAD PUSH2 0x83 SWAP5 SWAP4 SWAP3 SWAP2 SWAP1 PUSH2 0x990 JUMP JUMPDEST PUSH1 0x40 MLOAD DUP1 SWAP2 SUB SWAP1 RETURN JUMPDEST PUSH2 0xA6 PUSH1 0x4 DUP1 CALLDATASIZE SUB DUP2 ADD SWAP1 PUSH2 0xA1 SWAP2 SWAP1 PUSH2 0x9DA JUMP JUMPDEST PUSH2 0x1FE JUMP JUMPDEST PUSH1 0x40 MLOAD PUSH2 0xB3 SWAP2 SWAP1 PUSH2 0xACB JUMP JUMPDEST PUSH1 0x40 MLOAD DUP1 SWAP2 SUB SWAP1 RETURN JUMPDEST PUSH2 0xD6 PUSH1 0x4 DUP1 CALLDATASIZE SUB DUP2 ADD SWAP1 PUSH2 0xD1 SWAP2 SWAP1 PUSH2 0xC17 JUMP JUMPDEST PUSH2 0x36A JUMP JUMPDEST STOP JUMPDEST PUSH2 0xE0 PUSH2 0x4C5 JUMP JUMPDEST PUSH1 0x40 MLOAD PUSH2 0xED SWAP2 SWAP1 PUSH2 0xC71 JUMP JUMPDEST PUSH1 0x40 MLOAD DUP1 SWAP2 SUB SWAP1 RETURN JUMPDEST PUSH2 0xFE PUSH2 0x65D JUMP JUMPDEST PUSH1 0x40 MLOAD PUSH2 0x10B SWAP2 SWAP1 PUSH2 0xDA5 JUMP JUMPDEST PUSH1 0x40 MLOAD DUP1 SWAP2 SUB SWAP1 RETURN JUMPDEST PUSH0 PUSH1 0x20 MSTORE DUP2 PUSH0 MSTORE PUSH1 0x40 PUSH0 KECCAK256 DUP2 DUP2 SLOAD DUP2 LT PUSH2 0x12C JUMPI PUSH0 DUP1 REVERT JUMPDEST SWAP1 PUSH0 MSTORE PUSH1 0x20 PUSH0 KECCAK256 SWAP1 PUSH1 0x4 MUL ADD PUSH0 SWAP2 POP SWAP2 POP POP DUP1 PUSH0 ADD SLOAD SWAP1 DUP1 PUSH1 0x1 ADD DUP1 SLOAD PUSH2 0x152 SWAP1 PUSH2 0xDF2 JUMP JUMPDEST DUP1 PUSH1 0x1F ADD PUSH1 0x20 DUP1 SWAP2 DIV MUL PUSH1 0x20 ADD PUSH1 0x40 MLOAD SWAP1 DUP2 ADD PUSH1 0x40 MSTORE DUP1 SWAP3 SWAP2 SWAP1 DUP2 DUP2 MSTORE PUSH1 0x20 ADD DUP3 DUP1 SLOAD PUSH2 0x17E SWAP1 PUSH2 0xDF2 JUMP JUMPDEST DUP1 ISZERO PUSH2 0x1C9 JUMPI DUP1 PUSH1 0x1F LT PUSH2 0x1A0 JUMPI PUSH2 0x100 DUP1 DUP4 SLOAD DIV MUL DUP4 MSTORE SWAP2 PUSH1 0x20 ADD SWAP2 PUSH2 0x1C9 JUMP JUMPDEST DUP3 ADD SWAP2 SWAP1 PUSH0 MSTORE PUSH1 0x20 PUSH0 KECCAK256 SWAP1 JUMPDEST DUP2 SLOAD DUP2 MSTORE SWAP1 PUSH1 0x1 ADD SWAP1 PUSH1 0x20 ADD DUP1 DUP4 GT PUSH2 0x1AC JUMPI DUP3 SWAP1 SUB PUSH1 0x1F AND DUP3 ADD SWAP2 JUMPDEST POP POP POP POP POP SWAP1 DUP1 PUSH1 0x2 ADD PUSH0 SWAP1 SLOAD SWAP1 PUSH2 0x100 EXP SWAP1 DIV PUSH20 0xFFFFFFFFFFFFFFFFFFFFFFFFFFFFFFFFFFFFFFFF AND SWAP1 DUP1 PUSH1 0x3 ADD SLOAD SWAP1 POP DUP5 JUMP JUMPDEST PUSH2 0x206 PUSH2 0x7EB JUMP JUMPDEST PUSH0 DUP1 CALLER PUSH20 0xFFFFFFFFFFFFFFFFFFFFFFFFFFFFFFFFFFFFFFFF AND PUSH20 0xFFFFFFFFFFFFFFFFFFFFFFFFFFFFFFFFFFFFFFFF AND DUP2 MSTORE PUSH1 0x20 ADD SWAP1 DUP2 MSTORE PUSH1 0x20 ADD PUSH0 KECCAK256 DUP3 DUP2 SLOAD DUP2 LT PUSH2 0x254 JUMPI PUSH2 0x253 PUSH2 0xE22 JUMP JUMPDEST JUMPDEST SWAP1 PUSH0 MSTORE PUSH1 0x20 PUSH0 KECCAK256 SWAP1 PUSH1 0x4 MUL ADD PUSH1 0x40 MLOAD DUP1 PUSH1 0x80 ADD PUSH1 0x40 MSTORE SWAP1 DUP2 PUSH0 DUP3 ADD SLOAD DUP2 MSTORE PUSH1 0x20 ADD PUSH1 0x1 DUP3 ADD DUP1 SLOAD PUSH2 0x284 SWAP1 PUSH2 0xDF2 JUMP JUMPDEST DUP1 PUSH1 0x1F ADD PUSH1 0x20 DUP1 SWAP2 DIV MUL PUSH1 0x20 ADD PUSH1 0x40 MLOAD SWAP1 DUP2 ADD PUSH1 0x40 MSTORE DUP1 SWAP3 SWAP2 SWAP1 DUP2 DUP2 MSTORE PUSH1 0x20 ADD DUP3 DUP1 SLOAD PUSH2 0x2B0 SWAP1 PUSH2 0xDF2 JUMP JUMPDEST DUP1 ISZERO PUSH2 0x2FB JUMPI DUP1 PUSH1 0x1F LT PUSH2 0x2D2 JUMPI PUSH2 0x100 DUP1 DUP4 SLOAD DIV MUL DUP4 MSTORE SWAP2 PUSH1 0x20 ADD SWAP2 PUSH2 0x2FB JUMP JUMPDEST DUP3 ADD SWAP2 SWAP1 PUSH0 MSTORE PUSH1 0x20 PUSH0 KECCAK256 SWAP1 JUMPDEST DUP2 SLOAD DUP2 MSTORE SWAP1 PUSH1 0x1 ADD SWAP1 PUSH1 0x20 ADD DUP1 DUP4 GT PUSH2 0x2DE JUMPI DUP3 SWAP1 SUB PUSH1 0x1F AND DUP3 ADD SWAP2 JUMPDEST POP POP POP POP POP DUP2 MSTORE PUSH1 0x20 ADD PUSH1 0x2 DUP3 ADD PUSH0 SWAP1 SLOAD SWAP1 PUSH2 0x100 EXP SWAP1 DIV PUSH20 0xFFFFFFFFFFFFFFFFFFFFFFFFFFFFFFFFFFFFFFFF AND PUSH20 0xFFFFFFFFFFFFFFFFFFFFFFFFFFFFFFFFFFFFFFFF AND PUSH20 0xFFFFFFFFFFFFFFFFFFFFFFFFFFFFFFFFFFFFFFFF AND DUP2 MSTORE PUSH1 0x20 ADD PUSH1 0x3 DUP3 ADD SLOAD DUP2 MSTORE POP POP SWAP1 POP SWAP2 SWAP1 POP JUMP JUMPDEST PUSH1 0xFA PUSH2 0xFFFF AND DUP2 MLOAD GT ISZERO PUSH2 0x3B3 JUMPI PUSH1 0x40 MLOAD PUSH32 0x8C379A000000000000000000000000000000000000000000000000000000000 DUP2 MSTORE PUSH1 0x4 ADD PUSH2 0x3AA SWAP1 PUSH2 0xEBF JUMP JUMPDEST PUSH1 0x40 MLOAD DUP1 SWAP2 SUB SWAP1 REVERT JUMPDEST PUSH0 PUSH1 0x40 MLOAD DUP1 PUSH1 0x80 ADD PUSH1 0x40 MSTORE DUP1 DUP5 DUP2 MSTORE PUSH1 0x20 ADD DUP4 DUP2 MSTORE PUSH1 0x20 ADD CALLER PUSH20 0xFFFFFFFFFFFFFFFFFFFFFFFFFFFFFFFFFFFFFFFF AND DUP2 MSTORE PUSH1 0x20 ADD TIMESTAMP DUP2 MSTORE POP SWAP1 POP PUSH0 DUP1 CALLER PUSH20 0xFFFFFFFFFFFFFFFFFFFFFFFFFFFFFFFFFFFFFFFF AND PUSH20 0xFFFFFFFFFFFFFFFFFFFFFFFFFFFFFFFFFFFFFFFF AND DUP2 MSTORE PUSH1 0x20 ADD SWAP1 DUP2 MSTORE PUSH1 0x20 ADD PUSH0 KECCAK256 DUP2 SWAP1 DUP1 PUSH1 0x1 DUP2 SLOAD ADD DUP1 DUP3 SSTORE DUP1 SWAP2 POP POP PUSH1 0x1 SWAP1 SUB SWAP1 PUSH0 MSTORE PUSH1 0x20 PUSH0 KECCAK256 SWAP1 PUSH1 0x4 MUL ADD PUSH0 SWAP1 SWAP2 SWAP1 SWAP2 SWAP1 SWAP2 POP PUSH0 DUP3 ADD MLOAD DUP2 PUSH0 ADD SSTORE PUSH1 0x20 DUP3 ADD MLOAD DUP2 PUSH1 0x1 ADD SWAP1 DUP2 PUSH2 0x46D SWAP2 SWAP1 PUSH2 0x107A JUMP JUMPDEST POP PUSH1 0x40 DUP3 ADD MLOAD DUP2 PUSH1 0x2 ADD PUSH0 PUSH2 0x100 EXP DUP2 SLOAD DUP2 PUSH20 0xFFFFFFFFFFFFFFFFFFFFFFFFFFFFFFFFFFFFFFFF MUL NOT AND SWAP1 DUP4 PUSH20 0xFFFFFFFFFFFFFFFFFFFFFFFFFFFFFFFFFFFFFFFF AND MUL OR SWAP1 SSTORE POP PUSH1 0x60 DUP3 ADD MLOAD DUP2 PUSH1 0x3 ADD SSTORE POP POP POP POP POP JUMP JUMPDEST PUSH0 DUP1 PUSH0 DUP1 CALLER PUSH20 0xFFFFFFFFFFFFFFFFFFFFFFFFFFFFFFFFFFFFFFFF AND PUSH20 0xFFFFFFFFFFFFFFFFFFFFFFFFFFFFFFFFFFFFFFFF AND DUP2 MSTORE PUSH1 0x20 ADD SWAP1 DUP2 MSTORE PUSH1 0x20 ADD PUSH0 KECCAK256 DUP1 SLOAD DUP1 PUSH1 0x20 MUL PUSH1 0x20 ADD PUSH1 0x40 MLOAD SWAP1 DUP2 ADD PUSH1 0x40 MSTORE DUP1 SWAP3 SWAP2 SWAP1 DUP2 DUP2 MSTORE PUSH1 0x20 ADD PUSH0 SWAP1 JUMPDEST DUP3 DUP3 LT ISZERO PUSH2 0x64A JUMPI DUP4 DUP3 SWAP1 PUSH0 MSTORE PUSH1 0x20 PUSH0 KECCAK256 SWAP1 PUSH1 0x4 MUL ADD PUSH1 0x40 MLOAD DUP1 PUSH1 0x80 ADD PUSH1 0x40 MSTORE SWAP1 DUP2 PUSH0 DUP3 ADD SLOAD DUP2 MSTORE PUSH1 0x20 ADD PUSH1 0x1 DUP3 ADD DUP1 SLOAD PUSH2 0x55C SWAP1 PUSH2 0xDF2 JUMP JUMPDEST DUP1 PUSH1 0x1F ADD PUSH1 0x20 DUP1 SWAP2 DIV MUL PUSH1 0x20 ADD PUSH1 0x40 MLOAD SWAP1 DUP2 ADD PUSH1 0x40 MSTORE DUP1 SWAP3 SWAP2 SWAP1 DUP2 DUP2 MSTORE PUSH1 0x20 ADD DUP3 DUP1 SLOAD PUSH2 0x588 SWAP1 PUSH2 0xDF2 JUMP JUMPDEST DUP1 ISZERO PUSH2 0x5D3 JUMPI DUP1 PUSH1 0x1F LT PUSH2 0x5AA JUMPI PUSH2 0x100 DUP1 DUP4 SLOAD DIV MUL DUP4 MSTORE SWAP2 PUSH1 0x20 ADD SWAP2 PUSH2 0x5D3 JUMP JUMPDEST DUP3 ADD SWAP2 SWAP1 PUSH0 MSTORE PUSH1 0x20 PUSH0 KECCAK256 SWAP1 JUMPDEST DUP2 SLOAD DUP2 MSTORE SWAP1 PUSH1 0x1 ADD SWAP1 PUSH1 0x20 ADD DUP1 DUP4 GT PUSH2 0x5B6 JUMPI DUP3 SWAP1 SUB PUSH1 0x1F AND DUP3 ADD SWAP2 JUMPDEST POP POP POP POP POP DUP2 MSTORE PUSH1 0x20 ADD PUSH1 0x2 DUP3 ADD PUSH0 SWAP1 SLOAD SWAP1 PUSH2 0x100 EXP SWAP1 DIV PUSH20 0xFFFFFFFFFFFFFFFFFFFFFFFFFFFFFFFFFFFFFFFF AND PUSH20 0xFFFFFFFFFFFFFFFFFFFFFFFFFFFFFFFFFFFFFFFF AND PUSH20 0xFFFFFFFFFFFFFFFFFFFFFFFFFFFFFFFFFFFFFFFF AND DUP2 MSTORE PUSH1 0x20 ADD PUSH1 0x3 DUP3 ADD SLOAD DUP2 MSTORE POP POP DUP2 MSTORE PUSH1 0x20 ADD SWAP1 PUSH1 0x1 ADD SWAP1 PUSH2 0x522 JUMP JUMPDEST POP POP POP POP SWAP1 POP PUSH0 DUP2 MLOAD SWAP1 POP DUP1 SWAP3 POP POP POP SWAP1 JUMP JUMPDEST PUSH1 0x60 PUSH0 DUP1 CALLER PUSH20 0xFFFFFFFFFFFFFFFFFFFFFFFFFFFFFFFFFFFFFFFF AND PUSH20 0xFFFFFFFFFFFFFFFFFFFFFFFFFFFFFFFFFFFFFFFF AND DUP2 MSTORE PUSH1 0x20 ADD SWAP1 DUP2 MSTORE PUSH1 0x20 ADD PUSH0 KECCAK256 DUP1 SLOAD DUP1 PUSH1 0x20 MUL PUSH1 0x20 ADD PUSH1 0x40 MLOAD SWAP1 DUP2 ADD PUSH1 0x40 MSTORE DUP1 SWAP3 SWAP2 SWAP1 DUP2 DUP2 MSTORE PUSH1 0x20 ADD PUSH0 SWAP1 JUMPDEST DUP3 DUP3 LT ISZERO PUSH2 0x7E2 JUMPI DUP4 DUP3 SWAP1 PUSH0 MSTORE PUSH1 0x20 PUSH0 KECCAK256 SWAP1 PUSH1 0x4 MUL ADD PUSH1 0x40 MLOAD DUP1 PUSH1 0x80 ADD PUSH1 0x40 MSTORE SWAP1 DUP2 PUSH0 DUP3 ADD SLOAD DUP2 MSTORE PUSH1 0x20 ADD PUSH1 0x1 DUP3 ADD DUP1 SLOAD PUSH2 0x6F4 SWAP1 PUSH2 0xDF2 JUMP JUMPDEST DUP1 PUSH1 0x1F ADD PUSH1 0x20 DUP1 SWAP2 DIV MUL PUSH1 0x20 ADD PUSH1 0x40 MLOAD SWAP1 DUP2 ADD PUSH1 0x40 MSTORE DUP1 SWAP3 SWAP2 SWAP1 DUP2 DUP2 MSTORE PUSH1 0x20 ADD DUP3 DUP1 SLOAD PUSH2 0x720 SWAP1 PUSH2 0xDF2 JUMP JUMPDEST DUP1 ISZERO PUSH2 0x76B JUMPI DUP1 PUSH1 0x1F LT PUSH2 0x742 JUMPI PUSH2 0x100 DUP1 DUP4 SLOAD DIV MUL DUP4 MSTORE SWAP2 PUSH1 0x20 ADD SWAP2 PUSH2 0x76B JUMP JUMPDEST DUP3 ADD SWAP2 SWAP1 PUSH0 MSTORE PUSH1 0x20 PUSH0 KECCAK256 SWAP1 JUMPDEST DUP2 SLOAD DUP2 MSTORE SWAP1 PUSH1 0x1 ADD SWAP1 PUSH1 0x20 ADD DUP1 DUP4 GT PUSH2 0x74E JUMPI DUP3 SWAP1 SUB PUSH1 0x1F AND DUP3 ADD SWAP2 JUMPDEST POP POP POP POP POP DUP2 MSTORE PUSH1 0x20 ADD PUSH1 0x2 DUP3 ADD PUSH0 SWAP1 SLOAD SWAP1 PUSH2 0x100 EXP SWAP1 DIV PUSH20 0xFFFFFFFFFFFFFFFFFFFFFFFFFFFFFFFFFFFFFFFF AND PUSH20 0xFFFFFFFFFFFFFFFFFFFFFFFFFFFFFFFFFFFFFFFF AND PUSH20 0xFFFFFFFFFFFFFFFFFFFFFFFFFFFFFFFFFFFFFFFF AND DUP2 MSTORE PUSH1 0x20 ADD PUSH1 0x3 DUP3 ADD SLOAD DUP2 MSTORE POP POP DUP2 MSTORE PUSH1 0x20 ADD SWAP1 PUSH1 0x1 ADD SWAP1 PUSH2 0x6BA JUMP JUMPDEST POP POP POP POP SWAP1 POP SWAP1 JUMP JUMPDEST PUSH1 0x40 MLOAD DUP1 PUSH1 0x80 ADD PUSH1 0x40 MSTORE DUP1 PUSH0 DUP2 MSTORE PUSH1 0x20 ADD PUSH1 0x60 DUP2 MSTORE PUSH1 0x20 ADD PUSH0 PUSH20 0xFFFFFFFFFFFFFFFFFFFFFFFFFFFFFFFFFFFFFFFF AND DUP2 MSTORE PUSH1 0x20 ADD PUSH0 DUP2 MSTORE POP SWAP1 JUMP JUMPDEST PUSH0 PUSH1 0x40 MLOAD SWAP1 POP SWAP1 JUMP JUMPDEST PUSH0 DUP1 REVERT JUMPDEST PUSH0 DUP1 REVERT JUMPDEST PUSH0 PUSH20 0xFFFFFFFFFFFFFFFFFFFFFFFFFFFFFFFFFFFFFFFF DUP3 AND SWAP1 POP SWAP2 SWAP1 POP JUMP JUMPDEST PUSH0 PUSH2 0x860 DUP3 PUSH2 0x837 JUMP JUMPDEST SWAP1 POP SWAP2 SWAP1 POP JUMP JUMPDEST PUSH2 0x870 DUP2 PUSH2 0x856 JUMP JUMPDEST DUP2 EQ PUSH2 0x87A JUMPI PUSH0 DUP1 REVERT JUMPDEST POP JUMP JUMPDEST PUSH0 DUP2 CALLDATALOAD SWAP1 POP PUSH2 0x88B DUP2 PUSH2 0x867 JUMP JUMPDEST SWAP3 SWAP2 POP POP JUMP JUMPDEST PUSH0 DUP2 SWAP1 POP SWAP2 SWAP1 POP JUMP JUMPDEST PUSH2 0x8A3 DUP2 PUSH2 0x891 JUMP JUMPDEST DUP2 EQ PUSH2 0x8AD JUMPI PUSH0 DUP1 REVERT JUMPDEST POP JUMP JUMPDEST PUSH0 DUP2 CALLDATALOAD SWAP1 POP PUSH2 0x8BE DUP2 PUSH2 0x89A JUMP JUMPDEST SWAP3 SWAP2 POP POP JUMP JUMPDEST PUSH0 DUP1 PUSH1 0x40 DUP4 DUP6 SUB SLT ISZERO PUSH2 0x8DA JUMPI PUSH2 0x8D9 PUSH2 0x82F JUMP JUMPDEST JUMPDEST PUSH0 PUSH2 0x8E7 DUP6 DUP3 DUP7 ADD PUSH2 0x87D JUMP JUMPDEST SWAP3 POP POP PUSH1 0x20 PUSH2 0x8F8 DUP6 DUP3 DUP7 ADD PUSH2 0x8B0 JUMP JUMPDEST SWAP2 POP POP SWAP3 POP SWAP3 SWAP1 POP JUMP JUMPDEST PUSH2 0x90B DUP2 PUSH2 0x891 JUMP JUMPDEST DUP3 MSTORE POP POP JUMP JUMPDEST PUSH0 DUP2 MLOAD SWAP1 POP SWAP2 SWAP1 POP JUMP JUMPDEST PUSH0 DUP3 DUP3 MSTORE PUSH1 0x20 DUP3 ADD SWAP1 POP SWAP3 SWAP2 POP POP JUMP JUMPDEST DUP3 DUP2 DUP4 MCOPY PUSH0 DUP4 DUP4 ADD MSTORE POP POP POP JUMP JUMPDEST PUSH0 PUSH1 0x1F NOT PUSH1 0x1F DUP4 ADD AND SWAP1 POP SWAP2 SWAP1 POP JUMP JUMPDEST PUSH0 PUSH2 0x953 DUP3 PUSH2 0x911 JUMP JUMPDEST PUSH2 0x95D DUP2 DUP6 PUSH2 0x91B JUMP JUMPDEST SWAP4 POP PUSH2 0x96D DUP2 DUP6 PUSH1 0x20 DUP7 ADD PUSH2 0x92B JUMP JUMPDEST PUSH2 0x976 DUP2 PUSH2 0x939 JUMP JUMPDEST DUP5 ADD SWAP2 POP POP SWAP3 SWAP2 POP POP JUMP JUMPDEST PUSH2 0x98A DUP2 PUSH2 0x856 JUMP JUMPDEST DUP3 MSTORE POP POP JUMP JUMPDEST PUSH0 PUSH1 0x80 DUP3 ADD SWAP1 POP PUSH2 0x9A3 PUSH0 DUP4 ADD DUP8 PUSH2 0x902 JUMP JUMPDEST DUP2 DUP2 SUB PUSH1 0x20 DUP4 ADD MSTORE PUSH2 0x9B5 DUP2 DUP7 PUSH2 0x949 JUMP JUMPDEST SWAP1 POP PUSH2 0x9C4 PUSH1 0x40 DUP4 ADD DUP6 PUSH2 0x981 JUMP JUMPDEST PUSH2 0x9D1 PUSH1 0x60 DUP4 ADD DUP5 PUSH2 0x902 JUMP JUMPDEST SWAP6 SWAP5 POP POP POP POP POP JUMP JUMPDEST PUSH0 PUSH1 0x20 DUP3 DUP5 SUB SLT ISZERO PUSH2 0x9EF JUMPI PUSH2 0x9EE PUSH2 0x82F JUMP JUMPDEST JUMPDEST PUSH0 PUSH2 0x9FC DUP5 DUP3 DUP6 ADD PUSH2 0x8B0 JUMP JUMPDEST SWAP2 POP POP SWAP3 SWAP2 POP POP JUMP JUMPDEST PUSH2 0xA0E DUP2 PUSH2 0x891 JUMP JUMPDEST DUP3 MSTORE POP POP JUMP JUMPDEST PUSH0 DUP3 DUP3 MSTORE PUSH1 0x20 DUP3 ADD SWAP1 POP SWAP3 SWAP2 POP POP JUMP JUMPDEST PUSH0 PUSH2 0xA2E DUP3 PUSH2 0x911 JUMP JUMPDEST PUSH2 0xA38 DUP2 DUP6 PUSH2 0xA14 JUMP JUMPDEST SWAP4 POP PUSH2 0xA48 DUP2 DUP6 PUSH1 0x20 DUP7 ADD PUSH2 0x92B JUMP JUMPDEST PUSH2 0xA51 DUP2 PUSH2 0x939 JUMP JUMPDEST DUP5 ADD SWAP2 POP POP SWAP3 SWAP2 POP POP JUMP JUMPDEST PUSH2 0xA65 DUP2 PUSH2 0x856 JUMP JUMPDEST DUP3 MSTORE POP POP JUMP JUMPDEST PUSH0 PUSH1 0x80 DUP4 ADD PUSH0 DUP4 ADD MLOAD PUSH2 0xA80 PUSH0 DUP7 ADD DUP3 PUSH2 0xA05 JUMP JUMPDEST POP PUSH1 0x20 DUP4 ADD MLOAD DUP5 DUP3 SUB PUSH1 0x20 DUP7 ADD MSTORE PUSH2 0xA98 DUP3 DUP3 PUSH2 0xA24 JUMP JUMPDEST SWAP2 POP POP PUSH1 0x40 DUP4 ADD MLOAD PUSH2 0xAAD PUSH1 0x40 DUP7 ADD DUP3 PUSH2 0xA5C JUMP JUMPDEST POP PUSH1 0x60 DUP4 ADD MLOAD PUSH2 0xAC0 PUSH1 0x60 DUP7 ADD DUP3 PUSH2 0xA05 JUMP JUMPDEST POP DUP1 SWAP2 POP POP SWAP3 SWAP2 POP POP JUMP JUMPDEST PUSH0 PUSH1 0x20 DUP3 ADD SWAP1 POP DUP2 DUP2 SUB PUSH0 DUP4 ADD MSTORE PUSH2 0xAE3 DUP2 DUP5 PUSH2 0xA6B JUMP JUMPDEST SWAP1 POP SWAP3 SWAP2 POP POP JUMP JUMPDEST PUSH0 DUP1 REVERT JUMPDEST PUSH0 DUP1 REVERT JUMPDEST PUSH32 0x4E487B7100000000000000000000000000000000000000000000000000000000 PUSH0 MSTORE PUSH1 0x41 PUSH1 0x4 MSTORE PUSH1 0x24 PUSH0 REVERT JUMPDEST PUSH2 0xB29 DUP3 PUSH2 0x939 JUMP JUMPDEST DUP2 ADD DUP2 DUP2 LT PUSH8 0xFFFFFFFFFFFFFFFF DUP3 GT OR ISZERO PUSH2 0xB48 JUMPI PUSH2 0xB47 PUSH2 0xAF3 JUMP JUMPDEST JUMPDEST DUP1 PUSH1 0x40 MSTORE POP POP POP JUMP JUMPDEST PUSH0 PUSH2 0xB5A PUSH2 0x826 JUMP JUMPDEST SWAP1 POP PUSH2 0xB66 DUP3 DUP3 PUSH2 0xB20 JUMP JUMPDEST SWAP2 SWAP1 POP JUMP JUMPDEST PUSH0 PUSH8 0xFFFFFFFFFFFFFFFF DUP3 GT ISZERO PUSH2 0xB85 JUMPI PUSH2 0xB84 PUSH2 0xAF3 JUMP JUMPDEST JUMPDEST PUSH2 0xB8E DUP3 PUSH2 0x939 JUMP JUMPDEST SWAP1 POP PUSH1 0x20 DUP2 ADD SWAP1 POP SWAP2 SWAP1 POP JUMP JUMPDEST DUP3 DUP2 DUP4 CALLDATACOPY PUSH0 DUP4 DUP4 ADD MSTORE POP POP POP JUMP JUMPDEST PUSH0 PUSH2 0xBBB PUSH2 0xBB6 DUP5 PUSH2 0xB6B JUMP JUMPDEST PUSH2 0xB51 JUMP JUMPDEST SWAP1 POP DUP3 DUP2 MSTORE PUSH1 0x20 DUP2 ADD DUP5 DUP5 DUP5 ADD GT ISZERO PUSH2 0xBD7 JUMPI PUSH2 0xBD6 PUSH2 0xAEF JUMP JUMPDEST JUMPDEST PUSH2 0xBE2 DUP5 DUP3 DUP6 PUSH2 0xB9B JUMP JUMPDEST POP SWAP4 SWAP3 POP POP POP JUMP JUMPDEST PUSH0 DUP3 PUSH1 0x1F DUP4 ADD SLT PUSH2 0xBFE JUMPI PUSH2 0xBFD PUSH2 0xAEB JUMP JUMPDEST JUMPDEST DUP2 CALLDATALOAD PUSH2 0xC0E DUP5 DUP3 PUSH1 0x20 DUP7 ADD PUSH2 0xBA9 JUMP JUMPDEST SWAP2 POP POP SWAP3 SWAP2 POP POP JUMP JUMPDEST PUSH0 DUP1 PUSH1 0x40 DUP4 DUP6 SUB SLT ISZERO PUSH2 0xC2D JUMPI PUSH2 0xC2C PUSH2 0x82F JUMP JUMPDEST JUMPDEST PUSH0 PUSH2 0xC3A DUP6 DUP3 DUP7 ADD PUSH2 0x8B0 JUMP JUMPDEST SWAP3 POP POP PUSH1 0x20 DUP4 ADD CALLDATALOAD PUSH8 0xFFFFFFFFFFFFFFFF DUP2 GT ISZERO PUSH2 0xC5B JUMPI PUSH2 0xC5A PUSH2 0x833 JUMP JUMPDEST JUMPDEST PUSH2 0xC67 DUP6 DUP3 DUP7 ADD PUSH2 0xBEA JUMP JUMPDEST SWAP2 POP POP SWAP3 POP SWAP3 SWAP1 POP JUMP JUMPDEST PUSH0 PUSH1 0x20 DUP3 ADD SWAP1 POP PUSH2 0xC84 PUSH0 DUP4 ADD DUP5 PUSH2 0x902 JUMP JUMPDEST SWAP3 SWAP2 POP POP JUMP JUMPDEST PUSH0 DUP2 MLOAD SWAP1 POP SWAP2 SWAP1 POP JUMP JUMPDEST PUSH0 DUP3 DUP3 MSTORE PUSH1 0x20 DUP3 ADD SWAP1 POP SWAP3 SWAP2 POP POP JUMP JUMPDEST PUSH0 DUP2 SWAP1 POP PUSH1 0x20 DUP3 ADD SWAP1 POP SWAP2 SWAP1 POP JUMP JUMPDEST PUSH0 PUSH1 0x80 DUP4 ADD PUSH0 DUP4 ADD MLOAD PUSH2 0xCC8 PUSH0 DUP7 ADD DUP3 PUSH2 0xA05 JUMP JUMPDEST POP PUSH1 0x20 DUP4 ADD MLOAD DUP5 DUP3 SUB PUSH1 0x20 DUP7 ADD MSTORE PUSH2 0xCE0 DUP3 DUP3 PUSH2 0xA24 JUMP JUMPDEST SWAP2 POP POP PUSH1 0x40 DUP4 ADD MLOAD PUSH2 0xCF5 PUSH1 0x40 DUP7 ADD DUP3 PUSH2 0xA5C JUMP JUMPDEST POP PUSH1 0x60 DUP4 ADD MLOAD PUSH2 0xD08 PUSH1 0x60 DUP7 ADD DUP3 PUSH2 0xA05 JUMP JUMPDEST POP DUP1 SWAP2 POP POP SWAP3 SWAP2 POP POP JUMP JUMPDEST PUSH0 PUSH2 0xD1E DUP4 DUP4 PUSH2 0xCB3 JUMP JUMPDEST SWAP1 POP SWAP3 SWAP2 POP POP JUMP JUMPDEST PUSH0 PUSH1 0x20 DUP3 ADD SWAP1 POP SWAP2 SWAP1 POP JUMP JUMPDEST PUSH0 PUSH2 0xD3C DUP3 PUSH2 0xC8A JUMP JUMPDEST PUSH2 0xD46 DUP2 DUP6 PUSH2 0xC94 JUMP JUMPDEST SWAP4 POP DUP4 PUSH1 0x20 DUP3 MUL DUP6 ADD PUSH2 0xD58 DUP6 PUSH2 0xCA4 JUMP JUMPDEST DUP1 PUSH0 JUMPDEST DUP6 DUP2 LT ISZERO PUSH2 0xD93 JUMPI DUP5 DUP5 SUB DUP10 MSTORE DUP2 MLOAD PUSH2 0xD74 DUP6 DUP3 PUSH2 0xD13 JUMP JUMPDEST SWAP5 POP PUSH2 0xD7F DUP4 PUSH2 0xD26 JUMP JUMPDEST SWAP3 POP PUSH1 0x20 DUP11 ADD SWAP10 POP POP PUSH1 0x1 DUP2 ADD SWAP1 POP PUSH2 0xD5B JUMP JUMPDEST POP DUP3 SWAP8 POP DUP8 SWAP6 POP POP POP POP POP POP SWAP3 SWAP2 POP POP JUMP JUMPDEST PUSH0 PUSH1 0x20 DUP3 ADD SWAP1 POP DUP2 DUP2 SUB PUSH0 DUP4 ADD MSTORE PUSH2 0xDBD DUP2 DUP5 PUSH2 0xD32 JUMP JUMPDEST SWAP1 POP SWAP3 SWAP2 POP POP JUMP JUMPDEST PUSH32 0x4E487B7100000000000000000000000000000000000000000000000000000000 PUSH0 MSTORE PUSH1 0x22 PUSH1 0x4 MSTORE PUSH1 0x24 PUSH0 REVERT JUMPDEST PUSH0 PUSH1 0x2 DUP3 DIV SWAP1 POP PUSH1 0x1 DUP3 AND DUP1 PUSH2 0xE09 JUMPI PUSH1 0x7F DUP3 AND SWAP2 POP JUMPDEST PUSH1 0x20 DUP3 LT DUP2 SUB PUSH2 0xE1C JUMPI PUSH2 0xE1B PUSH2 0xDC5 JUMP JUMPDEST JUMPDEST POP SWAP2 SWAP1 POP JUMP JUMPDEST PUSH32 0x4E487B7100000000000000000000000000000000000000000000000000000000 PUSH0 MSTORE PUSH1 0x32 PUSH1 0x4 MSTORE PUSH1 0x24 PUSH0 REVERT JUMPDEST PUSH32 0x547765657420636F6E74656E74206D757374206265206C657373207468616E20 PUSH0 DUP3 ADD MSTORE PUSH32 0x3235302062797465730000000000000000000000000000000000000000000000 PUSH1 0x20 DUP3 ADD MSTORE POP JUMP JUMPDEST PUSH0 PUSH2 0xEA9 PUSH1 0x29 DUP4 PUSH2 0x91B JUMP JUMPDEST SWAP2 POP PUSH2 0xEB4 DUP3 PUSH2 0xE4F JUMP JUMPDEST PUSH1 0x40 DUP3 ADD SWAP1 POP SWAP2 SWAP1 POP JUMP JUMPDEST PUSH0 PUSH1 0x20 DUP3 ADD SWAP1 POP DUP2 DUP2 SUB PUSH0 DUP4 ADD MSTORE PUSH2 0xED6 DUP2 PUSH2 0xE9D JUMP JUMPDEST SWAP1 POP SWAP2 SWAP1 POP JUMP JUMPDEST PUSH0 DUP2 SWAP1 POP DUP2 PUSH0 MSTORE PUSH1 0x20 PUSH0 KECCAK256 SWAP1 POP SWAP2 SWAP1 POP JUMP JUMPDEST PUSH0 PUSH1 0x20 PUSH1 0x1F DUP4 ADD DIV SWAP1 POP SWAP2 SWAP1 POP JUMP JUMPDEST PUSH0 DUP3 DUP3 SHL SWAP1 POP SWAP3 SWAP2 POP POP JUMP JUMPDEST PUSH0 PUSH1 0x8 DUP4 MUL PUSH2 0xF39 PUSH32 0xFFFFFFFFFFFFFFFFFFFFFFFFFFFFFFFFFFFFFFFFFFFFFFFFFFFFFFFFFFFFFFFF DUP3 PUSH2 0xEFE JUMP JUMPDEST PUSH2 0xF43 DUP7 DUP4 PUSH2 0xEFE JUMP JUMPDEST SWAP6 POP DUP1 NOT DUP5 AND SWAP4 POP DUP1 DUP7 AND DUP5 OR SWAP3 POP POP POP SWAP4 SWAP3 POP POP POP JUMP JUMPDEST PUSH0 DUP2 SWAP1 POP SWAP2 SWAP1 POP JUMP JUMPDEST PUSH0 PUSH2 0xF7E PUSH2 0xF79 PUSH2 0xF74 DUP5 PUSH2 0x891 JUMP JUMPDEST PUSH2 0xF5B JUMP JUMPDEST PUSH2 0x891 JUMP JUMPDEST SWAP1 POP SWAP2 SWAP1 POP JUMP JUMPDEST PUSH0 DUP2 SWAP1 POP SWAP2 SWAP1 POP JUMP JUMPDEST PUSH2 0xF97 DUP4 PUSH2 0xF64 JUMP JUMPDEST PUSH2 0xFAB PUSH2 0xFA3 DUP3 PUSH2 0xF85 JUMP JUMPDEST DUP5 DUP5 SLOAD PUSH2 0xF0A JUMP JUMPDEST DUP3 SSTORE POP POP POP POP JUMP JUMPDEST PUSH0 SWAP1 JUMP JUMPDEST PUSH2 0xFBF PUSH2 0xFB3 JUMP JUMPDEST PUSH2 0xFCA DUP2 DUP5 DUP5 PUSH2 0xF8E JUMP JUMPDEST POP POP POP JUMP JUMPDEST JUMPDEST DUP2 DUP2 LT ISZERO PUSH2 0xFED JUMPI PUSH2 0xFE2 PUSH0 DUP3 PUSH2 0xFB7 JUMP JUMPDEST PUSH1 0x1 DUP2 ADD SWAP1 POP PUSH2 0xFD0 JUMP JUMPDEST POP POP JUMP JUMPDEST PUSH1 0x1F DUP3 GT ISZERO PUSH2 0x1032 JUMPI PUSH2 0x1003 DUP2 PUSH2 0xEDD JUMP JUMPDEST PUSH2 0x100C DUP5 PUSH2 0xEEF JUMP JUMPDEST DUP2 ADD PUSH1 0x20 DUP6 LT ISZERO PUSH2 0x101B JUMPI DUP2 SWAP1 POP JUMPDEST PUSH2 0x102F PUSH2 0x1027 DUP6 PUSH2 0xEEF JUMP JUMPDEST DUP4 ADD DUP3 PUSH2 0xFCF JUMP JUMPDEST POP POP JUMPDEST POP POP POP JUMP JUMPDEST PUSH0 DUP3 DUP3 SHR SWAP1 POP SWAP3 SWAP2 POP POP JUMP JUMPDEST PUSH0 PUSH2 0x1052 PUSH0 NOT DUP5 PUSH1 0x8 MUL PUSH2 0x1037 JUMP JUMPDEST NOT DUP1 DUP4 AND SWAP2 POP POP SWAP3 SWAP2 POP POP JUMP JUMPDEST PUSH0 PUSH2 0x106A DUP4 DUP4 PUSH2 0x1043 JUMP JUMPDEST SWAP2 POP DUP3 PUSH1 0x2 MUL DUP3 OR SWAP1 POP SWAP3 SWAP2 POP POP JUMP JUMPDEST PUSH2 0x1083 DUP3 PUSH2 0x911 JUMP JUMPDEST PUSH8 0xFFFFFFFFFFFFFFFF DUP2 GT ISZERO PUSH2 0x109C JUMPI PUSH2 0x109B PUSH2 0xAF3 JUMP JUMPDEST JUMPDEST PUSH2 0x10A6 DUP3 SLOAD PUSH2 0xDF2 JUMP JUMPDEST PUSH2 0x10B1 DUP3 DUP3 DUP6 PUSH2 0xFF1 JUMP JUMPDEST PUSH0 PUSH1 0x20 SWAP1 POP PUSH1 0x1F DUP4 GT PUSH1 0x1 DUP2 EQ PUSH2 0x10E2 JUMPI PUSH0 DUP5 ISZERO PUSH2 0x10D0 JUMPI DUP3 DUP8 ADD MLOAD SWAP1 POP JUMPDEST PUSH2 0x10DA DUP6 DUP3 PUSH2 0x105F JUMP JUMPDEST DUP7 SSTORE POP PUSH2 0x1141 JUMP JUMPDEST PUSH1 0x1F NOT DUP5 AND PUSH2 0x10F0 DUP7 PUSH2 0xEDD JUMP JUMPDEST PUSH0 JUMPDEST DUP3 DUP2 LT ISZERO PUSH2 0x1117 JUMPI DUP5 DUP10 ADD MLOAD DUP3 SSTORE PUSH1 0x1 DUP3 ADD SWAP2 POP PUSH1 0x20 DUP6 ADD SWAP5 POP PUSH1 0x20 DUP2 ADD SWAP1 POP PUSH2 0x10F2 JUMP JUMPDEST DUP7 DUP4 LT ISZERO PUSH2 0x1134 JUMPI DUP5 DUP10 ADD MLOAD PUSH2 0x1130 PUSH1 0x1F DUP10 AND DUP3 PUSH2 0x1043 JUMP JUMPDEST DUP4 SSTORE POP JUMPDEST PUSH1 0x1 PUSH1 0x2 DUP9 MUL ADD DUP9 SSTORE POP POP POP JUMPDEST POP POP POP POP POP POP JUMP INVALID LOG2 PUSH5 0x6970667358 0x22 SLT KECCAK256 DUP9 0xE4 0xDF 0xCE PUSH24 0x57A75B3F44042F5B6436FAFC23E75E7C53D6D3DDE2D248CE 0xF6 NOT 0xEE PUSH5 0x736F6C6343 STOP ADDMOD BYTE STOP CALLER "
				},
				"gasEstimates": {
					"creation": {
						"codeDepositCost": "895800",
						"executionCost": "927",
						"totalCost": "896727"
					},
					"external": {
						"getSingleTweet(uint256)": "infinite",
						"getTweetLength()": "infinite",
						"getTweets()": "infinite",
						"postTweet(uint256,string)": "infinite",
						"tweetsByUser(address,uint256)": "infinite"
					}
				},
				"methodIdentifiers": {
					"getSingleTweet(uint256)": "61cfc6c7",
					"getTweetLength()": "a2afce88",
					"getTweets()": "fc86741f",
					"postTweet(uint256,string)": "89883310",
					"tweetsByUser(address,uint256)": "398f8a5d"
				}
			},
			"storageLayout": {
				"storage": [
					{
						"astId": 19,
						"contract": "contracts/Limit-Twitter.sol:Twitter",
						"label": "tweetsByUser",
						"offset": 0,
						"slot": "0",
						"type": "t_mapping(t_address,t_array(t_struct(Tweet)13_storage)dyn_storage)"
					}
				],
				"types": {
					"t_address": {
						"encoding": "inplace",
						"label": "address",
						"numberOfBytes": "20"
					},
					"t_array(t_struct(Tweet)13_storage)dyn_storage": {
						"base": "t_struct(Tweet)13_storage",
						"encoding": "dynamic_array",
						"label": "struct Twitter.Tweet[]",
						"numberOfBytes": "32"
					},
					"t_mapping(t_address,t_array(t_struct(Tweet)13_storage)dyn_storage)": {
						"encoding": "mapping",
						"key": "t_address",
						"label": "mapping(address => struct Twitter.Tweet[])",
						"numberOfBytes": "32",
						"value": "t_array(t_struct(Tweet)13_storage)dyn_storage"
					},
					"t_string_storage": {
						"encoding": "bytes",
						"label": "string",
						"numberOfBytes": "32"
					},
					"t_struct(Tweet)13_storage": {
						"encoding": "inplace",
						"label": "struct Twitter.Tweet",
						"members": [
							{
								"astId": 6,
								"contract": "contracts/Limit-Twitter.sol:Twitter",
								"label": "id",
								"offset": 0,
								"slot": "0",
								"type": "t_uint256"
							},
							{
								"astId": 8,
								"contract": "contracts/Limit-Twitter.sol:Twitter",
								"label": "content",
								"offset": 0,
								"slot": "1",
								"type": "t_string_storage"
							},
							{
								"astId": 10,
								"contract": "contracts/Limit-Twitter.sol:Twitter",
								"label": "author",
								"offset": 0,
								"slot": "2",
								"type": "t_address"
							},
							{
								"astId": 12,
								"contract": "contracts/Limit-Twitter.sol:Twitter",
								"label": "timestamp",
								"offset": 0,
								"slot": "3",
								"type": "t_uint256"
							}
						],
						"numberOfBytes": "128"
					},
					"t_uint256": {
						"encoding": "inplace",
						"label": "uint256",
						"numberOfBytes": "32"
					}
				}
			},
			"userdoc": {
				"kind": "user",
				"methods": {},
				"version": 1
			}
		}
	}
}