{
	"contracts/Twitter-Likes.sol": {
		"Twitter": {
			"abi": [
				{
					"inputs": [
						{
							"internalType": "uint256",
							"name": "index",
							"type": "uint256"
						}
					],
					"name": "getSingleTweet",
					"outputs": [
						{
							"components": [
								{
									"internalType": "uint256",
									"name": "id",
									"type": "uint256"
								},
								{
									"internalType": "address",
									"name": "author",
									"type": "address"
								},
								{
									"internalType": "string",
									"name": "content",
									"type": "string"
								},
								{
									"internalType": "uint256",
									"name": "timestamp",
									"type": "uint256"
								},
								{
									"internalType": "uint256",
									"name": "likes",
									"type": "uint256"
								}
							],
							"internalType": "struct Twitter.Tweet",
							"name": "",
							"type": "tuple"
						}
					],
					"stateMutability": "view",
					"type": "function"
				},
				{
					"inputs": [],
					"name": "getTweetLength",
					"outputs": [
						{
							"internalType": "uint256",
							"name": "",
							"type": "uint256"
						}
					],
					"stateMutability": "view",
					"type": "function"
				},
				{
					"inputs": [],
					"name": "getTweets",
					"outputs": [
						{
							"components": [
								{
									"internalType": "uint256",
									"name": "id",
									"type": "uint256"
								},
								{
									"internalType": "address",
									"name": "author",
									"type": "address"
								},
								{
									"internalType": "string",
									"name": "content",
									"type": "string"
								},
								{
									"internalType": "uint256",
									"name": "timestamp",
									"type": "uint256"
								},
								{
									"internalType": "uint256",
									"name": "likes",
									"type": "uint256"
								}
							],
							"internalType": "struct Twitter.Tweet[]",
							"name": "",
							"type": "tuple[]"
						}
					],
					"stateMutability": "view",
					"type": "function"
				},
				{
					"inputs": [
						{
							"internalType": "uint256",
							"name": "id",
							"type": "uint256"
						},
						{
							"internalType": "address",
							"name": "author",
							"type": "address"
						}
					],
					"name": "likeTweet",
					"outputs": [],
					"stateMutability": "nonpayable",
					"type": "function"
				},
				{
					"inputs": [
						{
							"internalType": "string",
							"name": "_content",
							"type": "string"
						}
					],
					"name": "postTweet",
					"outputs": [],
					"stateMutability": "nonpayable",
					"type": "function"
				},
				{
					"inputs": [
						{
							"internalType": "address",
							"name": "",
							"type": "address"
						},
						{
							"internalType": "uint256",
							"name": "",
							"type": "uint256"
						}
					],
					"name": "tweetsByUser",
					"outputs": [
						{
							"internalType": "uint256",
							"name": "id",
							"type": "uint256"
						},
						{
							"internalType": "address",
							"name": "author",
							"type": "address"
						},
						{
							"internalType": "string",
							"name": "content",
							"type": "string"
						},
						{
							"internalType": "uint256",
							"name": "timestamp",
							"type": "uint256"
						},
						{
							"internalType": "uint256",
							"name": "likes",
							"type": "uint256"
						}
					],
					"stateMutability": "view",
					"type": "function"
				},
				{
					"inputs": [
						{
							"internalType": "address",
							"name": "author",
							"type": "address"
						},
						{
							"internalType": "uint256",
							"name": "id",
							"type": "uint256"
						}
					],
					"name": "unlikeTweet",
					"outputs": [],
					"stateMutability": "nonpayable",
					"type": "function"
				}
			],
			"devdoc": {
				"kind": "dev",
				"methods": {},
				"version": 1
			},
			"evm": {
				"assembly": "    /* \"contracts/Twitter-Likes.sol\":57:1697  contract Twitter {... */\n  mstore(0x40, 0x80)\n  callvalue\n  dup1\n  iszero\n  tag_1\n  jumpi\n  0x00\n  dup1\n  revert\ntag_1:\n  pop\n  dataSize(sub_0)\n  dup1\n  dataOffset(sub_0)\n  0x00\n  codecopy\n  0x00\n  return\nstop\n\nsub_0: assembly {\n        /* \"contracts/Twitter-Likes.sol\":57:1697  contract Twitter {... */\n      mstore(0x40, 0x80)\n      callvalue\n      dup1\n      iszero\n      tag_1\n      jumpi\n      0x00\n      dup1\n      revert\n    tag_1:\n      pop\n      jumpi(tag_2, lt(calldatasize, 0x04))\n      shr(0xe0, calldataload(0x00))\n      dup1\n      0x61cfc6c7\n      gt\n      tag_10\n      jumpi\n      dup1\n      0x61cfc6c7\n      eq\n      tag_6\n      jumpi\n      dup1\n      0xa2afce88\n      eq\n      tag_7\n      jumpi\n      dup1\n      0xd04ddaa0\n      eq\n      tag_8\n      jumpi\n      dup1\n      0xfc86741f\n      eq\n      tag_9\n      jumpi\n      jump(tag_2)\n    tag_10:\n      dup1\n      0x0cbc3dc4\n      eq\n      tag_3\n      jumpi\n      dup1\n      0x398f8a5d\n      eq\n      tag_4\n      jumpi\n      dup1\n      0x3d9b569f\n      eq\n      tag_5\n      jumpi\n    tag_2:\n      0x00\n      dup1\n      revert\n        /* \"contracts/Twitter-Likes.sol\":325:801  function postTweet(string memory _content) public {... */\n    tag_3:\n      tag_11\n      0x04\n      dup1\n      calldatasize\n      sub\n      dup2\n      add\n      swap1\n      tag_12\n      swap2\n      swap1\n      tag_13\n      jump\t// in\n    tag_12:\n      tag_14\n      jump\t// in\n    tag_11:\n      stop\n        /* \"contracts/Twitter-Likes.sol\":271:318  mapping(address => Tweet[]) public tweetsByUser */\n    tag_4:\n      tag_15\n      0x04\n      dup1\n      calldatasize\n      sub\n      dup2\n      add\n      swap1\n      tag_16\n      swap2\n      swap1\n      tag_17\n      jump\t// in\n    tag_16:\n      tag_18\n      jump\t// in\n    tag_15:\n      mload(0x40)\n      tag_19\n      swap6\n      swap5\n      swap4\n      swap3\n      swap2\n      swap1\n      tag_20\n      jump\t// in\n    tag_19:\n      mload(0x40)\n      dup1\n      swap2\n      sub\n      swap1\n      return\n        /* \"contracts/Twitter-Likes.sol\":994:1258  function unlikeTweet(address author, uint256 id) external{... */\n    tag_5:\n      tag_21\n      0x04\n      dup1\n      calldatasize\n      sub\n      dup2\n      add\n      swap1\n      tag_22\n      swap2\n      swap1\n      tag_17\n      jump\t// in\n    tag_22:\n      tag_23\n      jump\t// in\n    tag_21:\n      stop\n        /* \"contracts/Twitter-Likes.sol\":1376:1505  function getSingleTweet(uint256 index) public view returns (Tweet memory) {... */\n    tag_6:\n      tag_24\n      0x04\n      dup1\n      calldatasize\n      sub\n      dup2\n      add\n      swap1\n      tag_25\n      swap2\n      swap1\n      tag_26\n      jump\t// in\n    tag_25:\n      tag_27\n      jump\t// in\n    tag_24:\n      mload(0x40)\n      tag_28\n      swap2\n      swap1\n      tag_29\n      jump\t// in\n    tag_28:\n      mload(0x40)\n      dup1\n      swap2\n      sub\n      swap1\n      return\n        /* \"contracts/Twitter-Likes.sol\":1511:1695  function getTweetLength() public view returns (uint256) {... */\n    tag_7:\n      tag_30\n      tag_31\n      jump\t// in\n    tag_30:\n      mload(0x40)\n      tag_32\n      swap2\n      swap1\n      tag_33\n      jump\t// in\n    tag_32:\n      mload(0x40)\n      dup1\n      swap2\n      sub\n      swap1\n      return\n        /* \"contracts/Twitter-Likes.sol\":807:988  function likeTweet(uint256 id, address author) external {... */\n    tag_8:\n      tag_34\n      0x04\n      dup1\n      calldatasize\n      sub\n      dup2\n      add\n      swap1\n      tag_35\n      swap2\n      swap1\n      tag_36\n      jump\t// in\n    tag_35:\n      tag_37\n      jump\t// in\n    tag_34:\n      stop\n        /* \"contracts/Twitter-Likes.sol\":1264:1370  function getTweets() public view returns (Tweet[] memory) {... */\n    tag_9:\n      tag_38\n      tag_39\n      jump\t// in\n    tag_38:\n      mload(0x40)\n      tag_40\n      swap2\n      swap1\n      tag_41\n      jump\t// in\n    tag_40:\n      mload(0x40)\n      dup1\n      swap2\n      sub\n      swap1\n      return\n        /* \"contracts/Twitter-Likes.sol\":325:801  function postTweet(string memory _content) public {... */\n    tag_14:\n        /* \"contracts/Twitter-Likes.sol\":117:120  250 */\n      0xfa\n        /* \"contracts/Twitter-Likes.sol\":406:450  bytes(_content).length <= MAX_CONTENT_LENGTH */\n      0xffff\n      and\n        /* \"contracts/Twitter-Likes.sol\":412:420  _content */\n      dup2\n        /* \"contracts/Twitter-Likes.sol\":406:428  bytes(_content).length */\n      mload\n        /* \"contracts/Twitter-Likes.sol\":406:450  bytes(_content).length <= MAX_CONTENT_LENGTH */\n      gt\n      iszero\n        /* \"contracts/Twitter-Likes.sol\":385:517  require(... */\n      tag_43\n      jumpi\n      mload(0x40)\n      0x08c379a000000000000000000000000000000000000000000000000000000000\n      dup2\n      mstore\n      0x04\n      add\n      tag_44\n      swap1\n      tag_45\n      jump\t// in\n    tag_44:\n      mload(0x40)\n      dup1\n      swap2\n      sub\n      swap1\n      revert\n    tag_43:\n        /* \"contracts/Twitter-Likes.sol\":528:549  Tweet memory newTweet */\n      0x00\n        /* \"contracts/Twitter-Likes.sol\":552:745  Tweet({... */\n      mload(0x40)\n      dup1\n      0xa0\n      add\n      0x40\n      mstore\n      dup1\n        /* \"contracts/Twitter-Likes.sol\":577:589  tweetsByUser */\n      0x00\n        /* \"contracts/Twitter-Likes.sol\":577:601  tweetsByUser[msg.sender] */\n      dup1\n        /* \"contracts/Twitter-Likes.sol\":590:600  msg.sender */\n      caller\n        /* \"contracts/Twitter-Likes.sol\":577:601  tweetsByUser[msg.sender] */\n      0xffffffffffffffffffffffffffffffffffffffff\n      and\n      0xffffffffffffffffffffffffffffffffffffffff\n      and\n      dup2\n      mstore\n      0x20\n      add\n      swap1\n      dup2\n      mstore\n      0x20\n      add\n      0x00\n      keccak256\n        /* \"contracts/Twitter-Likes.sol\":577:608  tweetsByUser[msg.sender].length */\n      dup1\n      sload\n      swap1\n      pop\n        /* \"contracts/Twitter-Likes.sol\":552:745  Tweet({... */\n      dup2\n      mstore\n      0x20\n      add\n        /* \"contracts/Twitter-Likes.sol\":630:640  msg.sender */\n      caller\n        /* \"contracts/Twitter-Likes.sol\":552:745  Tweet({... */\n      0xffffffffffffffffffffffffffffffffffffffff\n      and\n      dup2\n      mstore\n      0x20\n      add\n        /* \"contracts/Twitter-Likes.sol\":663:671  _content */\n      dup4\n        /* \"contracts/Twitter-Likes.sol\":552:745  Tweet({... */\n      dup2\n      mstore\n      0x20\n      add\n        /* \"contracts/Twitter-Likes.sol\":696:711  block.timestamp */\n      timestamp\n        /* \"contracts/Twitter-Likes.sol\":552:745  Tweet({... */\n      dup2\n      mstore\n      0x20\n      add\n        /* \"contracts/Twitter-Likes.sol\":733:734  0 */\n      0x00\n        /* \"contracts/Twitter-Likes.sol\":552:745  Tweet({... */\n      dup2\n      mstore\n      pop\n        /* \"contracts/Twitter-Likes.sol\":528:745  Tweet memory newTweet = Tweet({... */\n      swap1\n      pop\n        /* \"contracts/Twitter-Likes.sol\":755:767  tweetsByUser */\n      0x00\n        /* \"contracts/Twitter-Likes.sol\":755:779  tweetsByUser[msg.sender] */\n      dup1\n        /* \"contracts/Twitter-Likes.sol\":768:778  msg.sender */\n      caller\n        /* \"contracts/Twitter-Likes.sol\":755:779  tweetsByUser[msg.sender] */\n      0xffffffffffffffffffffffffffffffffffffffff\n      and\n      0xffffffffffffffffffffffffffffffffffffffff\n      and\n      dup2\n      mstore\n      0x20\n      add\n      swap1\n      dup2\n      mstore\n      0x20\n      add\n      0x00\n      keccak256\n        /* \"contracts/Twitter-Likes.sol\":785:793  newTweet */\n      dup2\n        /* \"contracts/Twitter-Likes.sol\":755:794  tweetsByUser[msg.sender].push(newTweet) */\n      swap1\n      dup1\n      0x01\n      dup2\n      sload\n      add\n      dup1\n      dup3\n      sstore\n      dup1\n      swap2\n      pop\n      pop\n      0x01\n      swap1\n      sub\n      swap1\n      0x00\n      mstore\n      keccak256(0x00, 0x20)\n      swap1\n      0x05\n      mul\n      add\n      0x00\n      swap1\n      swap2\n      swap1\n      swap2\n      swap1\n      swap2\n      pop\n      0x00\n      dup3\n      add\n      mload\n      dup2\n      0x00\n      add\n      sstore\n      0x20\n      dup3\n      add\n      mload\n      dup2\n      0x01\n      add\n      exp(0x0100, 0x00)\n      dup2\n      sload\n      dup2\n      0xffffffffffffffffffffffffffffffffffffffff\n      mul\n      not\n      and\n      swap1\n      dup4\n      0xffffffffffffffffffffffffffffffffffffffff\n      and\n      mul\n      or\n      swap1\n      sstore\n      pop\n      0x40\n      dup3\n      add\n      mload\n      dup2\n      0x02\n      add\n      swap1\n      dup2\n      tag_47\n      swap2\n      swap1\n      tag_48\n      jump\t// in\n    tag_47:\n      pop\n      0x60\n      dup3\n      add\n      mload\n      dup2\n      0x03\n      add\n      sstore\n      0x80\n      dup3\n      add\n      mload\n      dup2\n      0x04\n      add\n      sstore\n      pop\n      pop\n        /* \"contracts/Twitter-Likes.sol\":375:801  {... */\n      pop\n        /* \"contracts/Twitter-Likes.sol\":325:801  function postTweet(string memory _content) public {... */\n      pop\n      jump\t// out\n        /* \"contracts/Twitter-Likes.sol\":271:318  mapping(address => Tweet[]) public tweetsByUser */\n    tag_18:\n      mstore(0x20, 0x00)\n      dup2\n      0x00\n      mstore\n      keccak256(0x00, 0x40)\n      dup2\n      dup2\n      sload\n      dup2\n      lt\n      tag_49\n      jumpi\n      0x00\n      dup1\n      revert\n    tag_49:\n      swap1\n      0x00\n      mstore\n      keccak256(0x00, 0x20)\n      swap1\n      0x05\n      mul\n      add\n      0x00\n      swap2\n      pop\n      swap2\n      pop\n      pop\n      dup1\n      0x00\n      add\n      sload\n      swap1\n      dup1\n      0x01\n      add\n      0x00\n      swap1\n      sload\n      swap1\n      0x0100\n      exp\n      swap1\n      div\n      0xffffffffffffffffffffffffffffffffffffffff\n      and\n      swap1\n      dup1\n      0x02\n      add\n      dup1\n      sload\n      tag_51\n      swap1\n      tag_52\n      jump\t// in\n    tag_51:\n      dup1\n      0x1f\n      add\n      0x20\n      dup1\n      swap2\n      div\n      mul\n      0x20\n      add\n      mload(0x40)\n      swap1\n      dup2\n      add\n      0x40\n      mstore\n      dup1\n      swap3\n      swap2\n      swap1\n      dup2\n      dup2\n      mstore\n      0x20\n      add\n      dup3\n      dup1\n      sload\n      tag_53\n      swap1\n      tag_52\n      jump\t// in\n    tag_53:\n      dup1\n      iszero\n      tag_54\n      jumpi\n      dup1\n      0x1f\n      lt\n      tag_55\n      jumpi\n      0x0100\n      dup1\n      dup4\n      sload\n      div\n      mul\n      dup4\n      mstore\n      swap2\n      0x20\n      add\n      swap2\n      jump(tag_54)\n    tag_55:\n      dup3\n      add\n      swap2\n      swap1\n      0x00\n      mstore\n      keccak256(0x00, 0x20)\n      swap1\n    tag_56:\n      dup2\n      sload\n      dup2\n      mstore\n      swap1\n      0x01\n      add\n      swap1\n      0x20\n      add\n      dup1\n      dup4\n      gt\n      tag_56\n      jumpi\n      dup3\n      swap1\n      sub\n      0x1f\n      and\n      dup3\n      add\n      swap2\n    tag_54:\n      pop\n      pop\n      pop\n      pop\n      pop\n      swap1\n      dup1\n      0x03\n      add\n      sload\n      swap1\n      dup1\n      0x04\n      add\n      sload\n      swap1\n      pop\n      dup6\n      jump\t// out\n        /* \"contracts/Twitter-Likes.sol\":994:1258  function unlikeTweet(address author, uint256 id) external{... */\n    tag_23:\n        /* \"contracts/Twitter-Likes.sol\":1100:1102  id */\n      dup1\n        /* \"contracts/Twitter-Likes.sol\":1069:1081  tweetsByUser */\n      0x00\n        /* \"contracts/Twitter-Likes.sol\":1069:1089  tweetsByUser[author] */\n      dup1\n        /* \"contracts/Twitter-Likes.sol\":1082:1088  author */\n      dup5\n        /* \"contracts/Twitter-Likes.sol\":1069:1089  tweetsByUser[author] */\n      0xffffffffffffffffffffffffffffffffffffffff\n      and\n      0xffffffffffffffffffffffffffffffffffffffff\n      and\n      dup2\n      mstore\n      0x20\n      add\n      swap1\n      dup2\n      mstore\n      0x20\n      add\n      0x00\n      keccak256\n        /* \"contracts/Twitter-Likes.sol\":1090:1092  id */\n      dup3\n        /* \"contracts/Twitter-Likes.sol\":1069:1093  tweetsByUser[author][id] */\n      dup2\n      sload\n      dup2\n      lt\n      tag_58\n      jumpi\n      tag_59\n      tag_60\n      jump\t// in\n    tag_59:\n    tag_58:\n      swap1\n      0x00\n      mstore\n      keccak256(0x00, 0x20)\n      swap1\n      0x05\n      mul\n      add\n        /* \"contracts/Twitter-Likes.sol\":1069:1096  tweetsByUser[author][id].id */\n      0x00\n      add\n      sload\n        /* \"contracts/Twitter-Likes.sol\":1069:1102  tweetsByUser[author][id].id == id */\n      eq\n        /* \"contracts/Twitter-Likes.sol\":1061:1127  require(tweetsByUser[author][id].id == id, \"Tweet does not exist\") */\n      tag_62\n      jumpi\n      mload(0x40)\n      0x08c379a000000000000000000000000000000000000000000000000000000000\n      dup2\n      mstore\n      0x04\n      add\n      tag_63\n      swap1\n      tag_64\n      jump\t// in\n    tag_63:\n      mload(0x40)\n      dup1\n      swap2\n      sub\n      swap1\n      revert\n    tag_62:\n        /* \"contracts/Twitter-Likes.sol\":1178:1179  0 */\n      0x00\n        /* \"contracts/Twitter-Likes.sol\":1145:1157  tweetsByUser */\n      dup1\n        /* \"contracts/Twitter-Likes.sol\":1145:1165  tweetsByUser[author] */\n      0x00\n        /* \"contracts/Twitter-Likes.sol\":1158:1164  author */\n      dup5\n        /* \"contracts/Twitter-Likes.sol\":1145:1165  tweetsByUser[author] */\n      0xffffffffffffffffffffffffffffffffffffffff\n      and\n      0xffffffffffffffffffffffffffffffffffffffff\n      and\n      dup2\n      mstore\n      0x20\n      add\n      swap1\n      dup2\n      mstore\n      0x20\n      add\n      0x00\n      keccak256\n        /* \"contracts/Twitter-Likes.sol\":1166:1168  id */\n      dup3\n        /* \"contracts/Twitter-Likes.sol\":1145:1169  tweetsByUser[author][id] */\n      dup2\n      sload\n      dup2\n      lt\n      tag_65\n      jumpi\n      tag_66\n      tag_60\n      jump\t// in\n    tag_66:\n    tag_65:\n      swap1\n      0x00\n      mstore\n      keccak256(0x00, 0x20)\n      swap1\n      0x05\n      mul\n      add\n        /* \"contracts/Twitter-Likes.sol\":1145:1175  tweetsByUser[author][id].likes */\n      0x04\n      add\n      sload\n        /* \"contracts/Twitter-Likes.sol\":1145:1179  tweetsByUser[author][id].likes > 0 */\n      gt\n        /* \"contracts/Twitter-Likes.sol\":1137:1209  require(tweetsByUser[author][id].likes > 0, \"Sorry that's not possible\") */\n      tag_68\n      jumpi\n      mload(0x40)\n      0x08c379a000000000000000000000000000000000000000000000000000000000\n      dup2\n      mstore\n      0x04\n      add\n      tag_69\n      swap1\n      tag_70\n      jump\t// in\n    tag_69:\n      mload(0x40)\n      dup1\n      swap2\n      sub\n      swap1\n      revert\n    tag_68:\n        /* \"contracts/Twitter-Likes.sol\":1219:1231  tweetsByUser */\n      0x00\n        /* \"contracts/Twitter-Likes.sol\":1219:1239  tweetsByUser[author] */\n      dup1\n        /* \"contracts/Twitter-Likes.sol\":1232:1238  author */\n      dup4\n        /* \"contracts/Twitter-Likes.sol\":1219:1239  tweetsByUser[author] */\n      0xffffffffffffffffffffffffffffffffffffffff\n      and\n      0xffffffffffffffffffffffffffffffffffffffff\n      and\n      dup2\n      mstore\n      0x20\n      add\n      swap1\n      dup2\n      mstore\n      0x20\n      add\n      0x00\n      keccak256\n        /* \"contracts/Twitter-Likes.sol\":1240:1242  id */\n      dup2\n        /* \"contracts/Twitter-Likes.sol\":1219:1243  tweetsByUser[author][id] */\n      dup2\n      sload\n      dup2\n      lt\n      tag_71\n      jumpi\n      tag_72\n      tag_60\n      jump\t// in\n    tag_72:\n    tag_71:\n      swap1\n      0x00\n      mstore\n      keccak256(0x00, 0x20)\n      swap1\n      0x05\n      mul\n      add\n        /* \"contracts/Twitter-Likes.sol\":1219:1249  tweetsByUser[author][id].likes */\n      0x04\n      add\n      0x00\n        /* \"contracts/Twitter-Likes.sol\":1219:1251  tweetsByUser[author][id].likes-- */\n      dup2\n      sload\n      dup1\n      swap3\n      swap2\n      swap1\n      tag_74\n      swap1\n      tag_75\n      jump\t// in\n    tag_74:\n      swap2\n      swap1\n      pop\n      sstore\n      pop\n        /* \"contracts/Twitter-Likes.sol\":994:1258  function unlikeTweet(address author, uint256 id) external{... */\n      pop\n      pop\n      jump\t// out\n        /* \"contracts/Twitter-Likes.sol\":1376:1505  function getSingleTweet(uint256 index) public view returns (Tweet memory) {... */\n    tag_27:\n        /* \"contracts/Twitter-Likes.sol\":1436:1448  Tweet memory */\n      tag_76\n      tag_77\n      jump\t// in\n    tag_76:\n        /* \"contracts/Twitter-Likes.sol\":1467:1479  tweetsByUser */\n      0x00\n        /* \"contracts/Twitter-Likes.sol\":1467:1491  tweetsByUser[msg.sender] */\n      dup1\n        /* \"contracts/Twitter-Likes.sol\":1480:1490  msg.sender */\n      caller\n        /* \"contracts/Twitter-Likes.sol\":1467:1491  tweetsByUser[msg.sender] */\n      0xffffffffffffffffffffffffffffffffffffffff\n      and\n      0xffffffffffffffffffffffffffffffffffffffff\n      and\n      dup2\n      mstore\n      0x20\n      add\n      swap1\n      dup2\n      mstore\n      0x20\n      add\n      0x00\n      keccak256\n        /* \"contracts/Twitter-Likes.sol\":1492:1497  index */\n      dup3\n        /* \"contracts/Twitter-Likes.sol\":1467:1498  tweetsByUser[msg.sender][index] */\n      dup2\n      sload\n      dup2\n      lt\n      tag_79\n      jumpi\n      tag_80\n      tag_60\n      jump\t// in\n    tag_80:\n    tag_79:\n      swap1\n      0x00\n      mstore\n      keccak256(0x00, 0x20)\n      swap1\n      0x05\n      mul\n      add\n        /* \"contracts/Twitter-Likes.sol\":1460:1498  return tweetsByUser[msg.sender][index] */\n      mload(0x40)\n      dup1\n      0xa0\n      add\n      0x40\n      mstore\n      swap1\n      dup2\n      0x00\n      dup3\n      add\n      sload\n      dup2\n      mstore\n      0x20\n      add\n      0x01\n      dup3\n      add\n      0x00\n      swap1\n      sload\n      swap1\n      0x0100\n      exp\n      swap1\n      div\n      0xffffffffffffffffffffffffffffffffffffffff\n      and\n      0xffffffffffffffffffffffffffffffffffffffff\n      and\n      0xffffffffffffffffffffffffffffffffffffffff\n      and\n      dup2\n      mstore\n      0x20\n      add\n      0x02\n      dup3\n      add\n      dup1\n      sload\n      tag_82\n      swap1\n      tag_52\n      jump\t// in\n    tag_82:\n      dup1\n      0x1f\n      add\n      0x20\n      dup1\n      swap2\n      div\n      mul\n      0x20\n      add\n      mload(0x40)\n      swap1\n      dup2\n      add\n      0x40\n      mstore\n      dup1\n      swap3\n      swap2\n      swap1\n      dup2\n      dup2\n      mstore\n      0x20\n      add\n      dup3\n      dup1\n      sload\n      tag_83\n      swap1\n      tag_52\n      jump\t// in\n    tag_83:\n      dup1\n      iszero\n      tag_84\n      jumpi\n      dup1\n      0x1f\n      lt\n      tag_85\n      jumpi\n      0x0100\n      dup1\n      dup4\n      sload\n      div\n      mul\n      dup4\n      mstore\n      swap2\n      0x20\n      add\n      swap2\n      jump(tag_84)\n    tag_85:\n      dup3\n      add\n      swap2\n      swap1\n      0x00\n      mstore\n      keccak256(0x00, 0x20)\n      swap1\n    tag_86:\n      dup2\n      sload\n      dup2\n      mstore\n      swap1\n      0x01\n      add\n      swap1\n      0x20\n      add\n      dup1\n      dup4\n      gt\n      tag_86\n      jumpi\n      dup3\n      swap1\n      sub\n      0x1f\n      and\n      dup3\n      add\n      swap2\n    tag_84:\n      pop\n      pop\n      pop\n      pop\n      pop\n      dup2\n      mstore\n      0x20\n      add\n      0x03\n      dup3\n      add\n      sload\n      dup2\n      mstore\n      0x20\n      add\n      0x04\n      dup3\n      add\n      sload\n      dup2\n      mstore\n      pop\n      pop\n      swap1\n      pop\n        /* \"contracts/Twitter-Likes.sol\":1376:1505  function getSingleTweet(uint256 index) public view returns (Tweet memory) {... */\n      swap2\n      swap1\n      pop\n      jump\t// out\n        /* \"contracts/Twitter-Likes.sol\":1511:1695  function getTweetLength() public view returns (uint256) {... */\n    tag_31:\n        /* \"contracts/Twitter-Likes.sol\":1558:1565  uint256 */\n      0x00\n        /* \"contracts/Twitter-Likes.sol\":1577:1598  Tweet[] memory tweets */\n      dup1\n        /* \"contracts/Twitter-Likes.sol\":1601:1613  tweetsByUser */\n      0x00\n        /* \"contracts/Twitter-Likes.sol\":1601:1625  tweetsByUser[msg.sender] */\n      dup1\n        /* \"contracts/Twitter-Likes.sol\":1614:1624  msg.sender */\n      caller\n        /* \"contracts/Twitter-Likes.sol\":1601:1625  tweetsByUser[msg.sender] */\n      0xffffffffffffffffffffffffffffffffffffffff\n      and\n      0xffffffffffffffffffffffffffffffffffffffff\n      and\n      dup2\n      mstore\n      0x20\n      add\n      swap1\n      dup2\n      mstore\n      0x20\n      add\n      0x00\n      keccak256\n        /* \"contracts/Twitter-Likes.sol\":1577:1625  Tweet[] memory tweets = tweetsByUser[msg.sender] */\n      dup1\n      sload\n      dup1\n      0x20\n      mul\n      0x20\n      add\n      mload(0x40)\n      swap1\n      dup2\n      add\n      0x40\n      mstore\n      dup1\n      swap3\n      swap2\n      swap1\n      dup2\n      dup2\n      mstore\n      0x20\n      add\n      0x00\n      swap1\n    tag_88:\n      dup3\n      dup3\n      lt\n      iszero\n      tag_89\n      jumpi\n      dup4\n      dup3\n      swap1\n      0x00\n      mstore\n      keccak256(0x00, 0x20)\n      swap1\n      0x05\n      mul\n      add\n      mload(0x40)\n      dup1\n      0xa0\n      add\n      0x40\n      mstore\n      swap1\n      dup2\n      0x00\n      dup3\n      add\n      sload\n      dup2\n      mstore\n      0x20\n      add\n      0x01\n      dup3\n      add\n      0x00\n      swap1\n      sload\n      swap1\n      0x0100\n      exp\n      swap1\n      div\n      0xffffffffffffffffffffffffffffffffffffffff\n      and\n      0xffffffffffffffffffffffffffffffffffffffff\n      and\n      0xffffffffffffffffffffffffffffffffffffffff\n      and\n      dup2\n      mstore\n      0x20\n      add\n      0x02\n      dup3\n      add\n      dup1\n      sload\n      tag_91\n      swap1\n      tag_52\n      jump\t// in\n    tag_91:\n      dup1\n      0x1f\n      add\n      0x20\n      dup1\n      swap2\n      div\n      mul\n      0x20\n      add\n      mload(0x40)\n      swap1\n      dup2\n      add\n      0x40\n      mstore\n      dup1\n      swap3\n      swap2\n      swap1\n      dup2\n      dup2\n      mstore\n      0x20\n      add\n      dup3\n      dup1\n      sload\n      tag_92\n      swap1\n      tag_52\n      jump\t// in\n    tag_92:\n      dup1\n      iszero\n      tag_93\n      jumpi\n      dup1\n      0x1f\n      lt\n      tag_94\n      jumpi\n      0x0100\n      dup1\n      dup4\n      sload\n      div\n      mul\n      dup4\n      mstore\n      swap2\n      0x20\n      add\n      swap2\n      jump(tag_93)\n    tag_94:\n      dup3\n      add\n      swap2\n      swap1\n      0x00\n      mstore\n      keccak256(0x00, 0x20)\n      swap1\n    tag_95:\n      dup2\n      sload\n      dup2\n      mstore\n      swap1\n      0x01\n      add\n      swap1\n      0x20\n      add\n      dup1\n      dup4\n      gt\n      tag_95\n      jumpi\n      dup3\n      swap1\n      sub\n      0x1f\n      and\n      dup3\n      add\n      swap2\n    tag_93:\n      pop\n      pop\n      pop\n      pop\n      pop\n      dup2\n      mstore\n      0x20\n      add\n      0x03\n      dup3\n      add\n      sload\n      dup2\n      mstore\n      0x20\n      add\n      0x04\n      dup3\n      add\n      sload\n      dup2\n      mstore\n      pop\n      pop\n      dup2\n      mstore\n      0x20\n      add\n      swap1\n      0x01\n      add\n      swap1\n      jump(tag_88)\n    tag_89:\n      pop\n      pop\n      pop\n      pop\n      swap1\n      pop\n        /* \"contracts/Twitter-Likes.sol\":1635:1649  uint256 length */\n      0x00\n        /* \"contracts/Twitter-Likes.sol\":1652:1658  tweets */\n      dup2\n        /* \"contracts/Twitter-Likes.sol\":1652:1665  tweets.length */\n      mload\n        /* \"contracts/Twitter-Likes.sol\":1635:1665  uint256 length = tweets.length */\n      swap1\n      pop\n        /* \"contracts/Twitter-Likes.sol\":1682:1688  length */\n      dup1\n        /* \"contracts/Twitter-Likes.sol\":1675:1688  return length */\n      swap3\n      pop\n      pop\n      pop\n        /* \"contracts/Twitter-Likes.sol\":1511:1695  function getTweetLength() public view returns (uint256) {... */\n      swap1\n      jump\t// out\n        /* \"contracts/Twitter-Likes.sol\":807:988  function likeTweet(uint256 id, address author) external {... */\n    tag_37:\n        /* \"contracts/Twitter-Likes.sol\":912:914  id */\n      dup2\n        /* \"contracts/Twitter-Likes.sol\":881:893  tweetsByUser */\n      0x00\n        /* \"contracts/Twitter-Likes.sol\":881:901  tweetsByUser[author] */\n      dup1\n        /* \"contracts/Twitter-Likes.sol\":894:900  author */\n      dup4\n        /* \"contracts/Twitter-Likes.sol\":881:901  tweetsByUser[author] */\n      0xffffffffffffffffffffffffffffffffffffffff\n      and\n      0xffffffffffffffffffffffffffffffffffffffff\n      and\n      dup2\n      mstore\n      0x20\n      add\n      swap1\n      dup2\n      mstore\n      0x20\n      add\n      0x00\n      keccak256\n        /* \"contracts/Twitter-Likes.sol\":902:904  id */\n      dup4\n        /* \"contracts/Twitter-Likes.sol\":881:905  tweetsByUser[author][id] */\n      dup2\n      sload\n      dup2\n      lt\n      tag_97\n      jumpi\n      tag_98\n      tag_60\n      jump\t// in\n    tag_98:\n    tag_97:\n      swap1\n      0x00\n      mstore\n      keccak256(0x00, 0x20)\n      swap1\n      0x05\n      mul\n      add\n        /* \"contracts/Twitter-Likes.sol\":881:908  tweetsByUser[author][id].id */\n      0x00\n      add\n      sload\n        /* \"contracts/Twitter-Likes.sol\":881:914  tweetsByUser[author][id].id == id */\n      eq\n        /* \"contracts/Twitter-Likes.sol\":873:939  require(tweetsByUser[author][id].id == id, \"Tweet does not exist\") */\n      tag_100\n      jumpi\n      mload(0x40)\n      0x08c379a000000000000000000000000000000000000000000000000000000000\n      dup2\n      mstore\n      0x04\n      add\n      tag_101\n      swap1\n      tag_64\n      jump\t// in\n    tag_101:\n      mload(0x40)\n      dup1\n      swap2\n      sub\n      swap1\n      revert\n    tag_100:\n        /* \"contracts/Twitter-Likes.sol\":949:961  tweetsByUser */\n      0x00\n        /* \"contracts/Twitter-Likes.sol\":949:969  tweetsByUser[author] */\n      dup1\n        /* \"contracts/Twitter-Likes.sol\":962:968  author */\n      dup3\n        /* \"contracts/Twitter-Likes.sol\":949:969  tweetsByUser[author] */\n      0xffffffffffffffffffffffffffffffffffffffff\n      and\n      0xffffffffffffffffffffffffffffffffffffffff\n      and\n      dup2\n      mstore\n      0x20\n      add\n      swap1\n      dup2\n      mstore\n      0x20\n      add\n      0x00\n      keccak256\n        /* \"contracts/Twitter-Likes.sol\":970:972  id */\n      dup3\n        /* \"contracts/Twitter-Likes.sol\":949:973  tweetsByUser[author][id] */\n      dup2\n      sload\n      dup2\n      lt\n      tag_102\n      jumpi\n      tag_103\n      tag_60\n      jump\t// in\n    tag_103:\n    tag_102:\n      swap1\n      0x00\n      mstore\n      keccak256(0x00, 0x20)\n      swap1\n      0x05\n      mul\n      add\n        /* \"contracts/Twitter-Likes.sol\":949:979  tweetsByUser[author][id].likes */\n      0x04\n      add\n      0x00\n        /* \"contracts/Twitter-Likes.sol\":949:981  tweetsByUser[author][id].likes++ */\n      dup2\n      sload\n      dup1\n      swap3\n      swap2\n      swap1\n      tag_105\n      swap1\n      tag_106\n      jump\t// in\n    tag_105:\n      swap2\n      swap1\n      pop\n      sstore\n      pop\n        /* \"contracts/Twitter-Likes.sol\":807:988  function likeTweet(uint256 id, address author) external {... */\n      pop\n      pop\n      jump\t// out\n        /* \"contracts/Twitter-Likes.sol\":1264:1370  function getTweets() public view returns (Tweet[] memory) {... */\n    tag_39:\n        /* \"contracts/Twitter-Likes.sol\":1306:1320  Tweet[] memory */\n      0x60\n        /* \"contracts/Twitter-Likes.sol\":1339:1351  tweetsByUser */\n      0x00\n        /* \"contracts/Twitter-Likes.sol\":1339:1363  tweetsByUser[msg.sender] */\n      dup1\n        /* \"contracts/Twitter-Likes.sol\":1352:1362  msg.sender */\n      caller\n        /* \"contracts/Twitter-Likes.sol\":1339:1363  tweetsByUser[msg.sender] */\n      0xffffffffffffffffffffffffffffffffffffffff\n      and\n      0xffffffffffffffffffffffffffffffffffffffff\n      and\n      dup2\n      mstore\n      0x20\n      add\n      swap1\n      dup2\n      mstore\n      0x20\n      add\n      0x00\n      keccak256\n        /* \"contracts/Twitter-Likes.sol\":1332:1363  return tweetsByUser[msg.sender] */\n      dup1\n      sload\n      dup1\n      0x20\n      mul\n      0x20\n      add\n      mload(0x40)\n      swap1\n      dup2\n      add\n      0x40\n      mstore\n      dup1\n      swap3\n      swap2\n      swap1\n      dup2\n      dup2\n      mstore\n      0x20\n      add\n      0x00\n      swap1\n    tag_108:\n      dup3\n      dup3\n      lt\n      iszero\n      tag_109\n      jumpi\n      dup4\n      dup3\n      swap1\n      0x00\n      mstore\n      keccak256(0x00, 0x20)\n      swap1\n      0x05\n      mul\n      add\n      mload(0x40)\n      dup1\n      0xa0\n      add\n      0x40\n      mstore\n      swap1\n      dup2\n      0x00\n      dup3\n      add\n      sload\n      dup2\n      mstore\n      0x20\n      add\n      0x01\n      dup3\n      add\n      0x00\n      swap1\n      sload\n      swap1\n      0x0100\n      exp\n      swap1\n      div\n      0xffffffffffffffffffffffffffffffffffffffff\n      and\n      0xffffffffffffffffffffffffffffffffffffffff\n      and\n      0xffffffffffffffffffffffffffffffffffffffff\n      and\n      dup2\n      mstore\n      0x20\n      add\n      0x02\n      dup3\n      add\n      dup1\n      sload\n      tag_111\n      swap1\n      tag_52\n      jump\t// in\n    tag_111:\n      dup1\n      0x1f\n      add\n      0x20\n      dup1\n      swap2\n      div\n      mul\n      0x20\n      add\n      mload(0x40)\n      swap1\n      dup2\n      add\n      0x40\n      mstore\n      dup1\n      swap3\n      swap2\n      swap1\n      dup2\n      dup2\n      mstore\n      0x20\n      add\n      dup3\n      dup1\n      sload\n      tag_112\n      swap1\n      tag_52\n      jump\t// in\n    tag_112:\n      dup1\n      iszero\n      tag_113\n      jumpi\n      dup1\n      0x1f\n      lt\n      tag_114\n      jumpi\n      0x0100\n      dup1\n      dup4\n      sload\n      div\n      mul\n      dup4\n      mstore\n      swap2\n      0x20\n      add\n      swap2\n      jump(tag_113)\n    tag_114:\n      dup3\n      add\n      swap2\n      swap1\n      0x00\n      mstore\n      keccak256(0x00, 0x20)\n      swap1\n    tag_115:\n      dup2\n      sload\n      dup2\n      mstore\n      swap1\n      0x01\n      add\n      swap1\n      0x20\n      add\n      dup1\n      dup4\n      gt\n      tag_115\n      jumpi\n      dup3\n      swap1\n      sub\n      0x1f\n      and\n      dup3\n      add\n      swap2\n    tag_113:\n      pop\n      pop\n      pop\n      pop\n      pop\n      dup2\n      mstore\n      0x20\n      add\n      0x03\n      dup3\n      add\n      sload\n      dup2\n      mstore\n      0x20\n      add\n      0x04\n      dup3\n      add\n      sload\n      dup2\n      mstore\n      pop\n      pop\n      dup2\n      mstore\n      0x20\n      add\n      swap1\n      0x01\n      add\n      swap1\n      jump(tag_108)\n    tag_109:\n      pop\n      pop\n      pop\n      pop\n      swap1\n      pop\n        /* \"contracts/Twitter-Likes.sol\":1264:1370  function getTweets() public view returns (Tweet[] memory) {... */\n      swap1\n      jump\t// out\n    tag_77:\n      mload(0x40)\n      dup1\n      0xa0\n      add\n      0x40\n      mstore\n      dup1\n      0x00\n      dup2\n      mstore\n      0x20\n      add\n      and(0xffffffffffffffffffffffffffffffffffffffff, 0x00)\n      dup2\n      mstore\n      0x20\n      add\n      0x60\n      dup2\n      mstore\n      0x20\n      add\n      0x00\n      dup2\n      mstore\n      0x20\n      add\n      0x00\n      dup2\n      mstore\n      pop\n      swap1\n      jump\t// out\n        /* \"#utility.yul\":7:82   */\n    tag_116:\n        /* \"#utility.yul\":40:46   */\n      0x00\n        /* \"#utility.yul\":73:75   */\n      0x40\n        /* \"#utility.yul\":67:76   */\n      mload\n        /* \"#utility.yul\":57:76   */\n      swap1\n      pop\n        /* \"#utility.yul\":7:82   */\n      swap1\n      jump\t// out\n        /* \"#utility.yul\":88:205   */\n    tag_117:\n        /* \"#utility.yul\":197:198   */\n      0x00\n        /* \"#utility.yul\":194:195   */\n      dup1\n        /* \"#utility.yul\":187:199   */\n      revert\n        /* \"#utility.yul\":211:328   */\n    tag_118:\n        /* \"#utility.yul\":320:321   */\n      0x00\n        /* \"#utility.yul\":317:318   */\n      dup1\n        /* \"#utility.yul\":310:322   */\n      revert\n        /* \"#utility.yul\":334:451   */\n    tag_119:\n        /* \"#utility.yul\":443:444   */\n      0x00\n        /* \"#utility.yul\":440:441   */\n      dup1\n        /* \"#utility.yul\":433:445   */\n      revert\n        /* \"#utility.yul\":457:574   */\n    tag_120:\n        /* \"#utility.yul\":566:567   */\n      0x00\n        /* \"#utility.yul\":563:564   */\n      dup1\n        /* \"#utility.yul\":556:568   */\n      revert\n        /* \"#utility.yul\":580:682   */\n    tag_121:\n        /* \"#utility.yul\":621:627   */\n      0x00\n        /* \"#utility.yul\":672:674   */\n      0x1f\n        /* \"#utility.yul\":668:675   */\n      not\n        /* \"#utility.yul\":663:665   */\n      0x1f\n        /* \"#utility.yul\":656:661   */\n      dup4\n        /* \"#utility.yul\":652:666   */\n      add\n        /* \"#utility.yul\":648:676   */\n      and\n        /* \"#utility.yul\":638:676   */\n      swap1\n      pop\n        /* \"#utility.yul\":580:682   */\n      swap2\n      swap1\n      pop\n      jump\t// out\n        /* \"#utility.yul\":688:868   */\n    tag_122:\n        /* \"#utility.yul\":736:813   */\n      0x4e487b7100000000000000000000000000000000000000000000000000000000\n        /* \"#utility.yul\":733:734   */\n      0x00\n        /* \"#utility.yul\":726:814   */\n      mstore\n        /* \"#utility.yul\":833:837   */\n      0x41\n        /* \"#utility.yul\":830:831   */\n      0x04\n        /* \"#utility.yul\":823:838   */\n      mstore\n        /* \"#utility.yul\":857:861   */\n      0x24\n        /* \"#utility.yul\":854:855   */\n      0x00\n        /* \"#utility.yul\":847:862   */\n      revert\n        /* \"#utility.yul\":874:1155   */\n    tag_123:\n        /* \"#utility.yul\":957:984   */\n      tag_186\n        /* \"#utility.yul\":979:983   */\n      dup3\n        /* \"#utility.yul\":957:984   */\n      tag_121\n      jump\t// in\n    tag_186:\n        /* \"#utility.yul\":949:955   */\n      dup2\n        /* \"#utility.yul\":945:985   */\n      add\n        /* \"#utility.yul\":1087:1093   */\n      dup2\n        /* \"#utility.yul\":1075:1085   */\n      dup2\n        /* \"#utility.yul\":1072:1094   */\n      lt\n        /* \"#utility.yul\":1051:1069   */\n      0xffffffffffffffff\n        /* \"#utility.yul\":1039:1049   */\n      dup3\n        /* \"#utility.yul\":1036:1070   */\n      gt\n        /* \"#utility.yul\":1033:1095   */\n      or\n        /* \"#utility.yul\":1030:1118   */\n      iszero\n      tag_187\n      jumpi\n        /* \"#utility.yul\":1098:1116   */\n      tag_188\n      tag_122\n      jump\t// in\n    tag_188:\n        /* \"#utility.yul\":1030:1118   */\n    tag_187:\n        /* \"#utility.yul\":1138:1148   */\n      dup1\n        /* \"#utility.yul\":1134:1136   */\n      0x40\n        /* \"#utility.yul\":1127:1149   */\n      mstore\n        /* \"#utility.yul\":917:1155   */\n      pop\n        /* \"#utility.yul\":874:1155   */\n      pop\n      pop\n      jump\t// out\n        /* \"#utility.yul\":1161:1290   */\n    tag_124:\n        /* \"#utility.yul\":1195:1201   */\n      0x00\n        /* \"#utility.yul\":1222:1242   */\n      tag_190\n      tag_116\n      jump\t// in\n    tag_190:\n        /* \"#utility.yul\":1212:1242   */\n      swap1\n      pop\n        /* \"#utility.yul\":1251:1284   */\n      tag_191\n        /* \"#utility.yul\":1279:1283   */\n      dup3\n        /* \"#utility.yul\":1271:1277   */\n      dup3\n        /* \"#utility.yul\":1251:1284   */\n      tag_123\n      jump\t// in\n    tag_191:\n        /* \"#utility.yul\":1161:1290   */\n      swap2\n      swap1\n      pop\n      jump\t// out\n        /* \"#utility.yul\":1296:1604   */\n    tag_125:\n        /* \"#utility.yul\":1358:1362   */\n      0x00\n        /* \"#utility.yul\":1448:1466   */\n      0xffffffffffffffff\n        /* \"#utility.yul\":1440:1446   */\n      dup3\n        /* \"#utility.yul\":1437:1467   */\n      gt\n        /* \"#utility.yul\":1434:1490   */\n      iszero\n      tag_193\n      jumpi\n        /* \"#utility.yul\":1470:1488   */\n      tag_194\n      tag_122\n      jump\t// in\n    tag_194:\n        /* \"#utility.yul\":1434:1490   */\n    tag_193:\n        /* \"#utility.yul\":1508:1537   */\n      tag_195\n        /* \"#utility.yul\":1530:1536   */\n      dup3\n        /* \"#utility.yul\":1508:1537   */\n      tag_121\n      jump\t// in\n    tag_195:\n        /* \"#utility.yul\":1500:1537   */\n      swap1\n      pop\n        /* \"#utility.yul\":1592:1596   */\n      0x20\n        /* \"#utility.yul\":1586:1590   */\n      dup2\n        /* \"#utility.yul\":1582:1597   */\n      add\n        /* \"#utility.yul\":1574:1597   */\n      swap1\n      pop\n        /* \"#utility.yul\":1296:1604   */\n      swap2\n      swap1\n      pop\n      jump\t// out\n        /* \"#utility.yul\":1610:1758   */\n    tag_126:\n        /* \"#utility.yul\":1708:1714   */\n      dup3\n        /* \"#utility.yul\":1703:1706   */\n      dup2\n        /* \"#utility.yul\":1698:1701   */\n      dup4\n        /* \"#utility.yul\":1685:1715   */\n      calldatacopy\n        /* \"#utility.yul\":1749:1750   */\n      0x00\n        /* \"#utility.yul\":1740:1746   */\n      dup4\n        /* \"#utility.yul\":1735:1738   */\n      dup4\n        /* \"#utility.yul\":1731:1747   */\n      add\n        /* \"#utility.yul\":1724:1751   */\n      mstore\n        /* \"#utility.yul\":1610:1758   */\n      pop\n      pop\n      pop\n      jump\t// out\n        /* \"#utility.yul\":1764:2189   */\n    tag_127:\n        /* \"#utility.yul\":1842:1847   */\n      0x00\n        /* \"#utility.yul\":1867:1933   */\n      tag_198\n        /* \"#utility.yul\":1883:1932   */\n      tag_199\n        /* \"#utility.yul\":1925:1931   */\n      dup5\n        /* \"#utility.yul\":1883:1932   */\n      tag_125\n      jump\t// in\n    tag_199:\n        /* \"#utility.yul\":1867:1933   */\n      tag_124\n      jump\t// in\n    tag_198:\n        /* \"#utility.yul\":1858:1933   */\n      swap1\n      pop\n        /* \"#utility.yul\":1956:1962   */\n      dup3\n        /* \"#utility.yul\":1949:1954   */\n      dup2\n        /* \"#utility.yul\":1942:1963   */\n      mstore\n        /* \"#utility.yul\":1994:1998   */\n      0x20\n        /* \"#utility.yul\":1987:1992   */\n      dup2\n        /* \"#utility.yul\":1983:1999   */\n      add\n        /* \"#utility.yul\":2032:2035   */\n      dup5\n        /* \"#utility.yul\":2023:2029   */\n      dup5\n        /* \"#utility.yul\":2018:2021   */\n      dup5\n        /* \"#utility.yul\":2014:2030   */\n      add\n        /* \"#utility.yul\":2011:2036   */\n      gt\n        /* \"#utility.yul\":2008:2120   */\n      iszero\n      tag_200\n      jumpi\n        /* \"#utility.yul\":2039:2118   */\n      tag_201\n      tag_120\n      jump\t// in\n    tag_201:\n        /* \"#utility.yul\":2008:2120   */\n    tag_200:\n        /* \"#utility.yul\":2129:2183   */\n      tag_202\n        /* \"#utility.yul\":2176:2182   */\n      dup5\n        /* \"#utility.yul\":2171:2174   */\n      dup3\n        /* \"#utility.yul\":2166:2169   */\n      dup6\n        /* \"#utility.yul\":2129:2183   */\n      tag_126\n      jump\t// in\n    tag_202:\n        /* \"#utility.yul\":1848:2189   */\n      pop\n        /* \"#utility.yul\":1764:2189   */\n      swap4\n      swap3\n      pop\n      pop\n      pop\n      jump\t// out\n        /* \"#utility.yul\":2209:2549   */\n    tag_128:\n        /* \"#utility.yul\":2265:2270   */\n      0x00\n        /* \"#utility.yul\":2314:2317   */\n      dup3\n        /* \"#utility.yul\":2307:2311   */\n      0x1f\n        /* \"#utility.yul\":2299:2305   */\n      dup4\n        /* \"#utility.yul\":2295:2312   */\n      add\n        /* \"#utility.yul\":2291:2318   */\n      slt\n        /* \"#utility.yul\":2281:2403   */\n      tag_204\n      jumpi\n        /* \"#utility.yul\":2322:2401   */\n      tag_205\n      tag_119\n      jump\t// in\n    tag_205:\n        /* \"#utility.yul\":2281:2403   */\n    tag_204:\n        /* \"#utility.yul\":2439:2445   */\n      dup2\n        /* \"#utility.yul\":2426:2446   */\n      calldataload\n        /* \"#utility.yul\":2464:2543   */\n      tag_206\n        /* \"#utility.yul\":2539:2542   */\n      dup5\n        /* \"#utility.yul\":2531:2537   */\n      dup3\n        /* \"#utility.yul\":2524:2528   */\n      0x20\n        /* \"#utility.yul\":2516:2522   */\n      dup7\n        /* \"#utility.yul\":2512:2529   */\n      add\n        /* \"#utility.yul\":2464:2543   */\n      tag_127\n      jump\t// in\n    tag_206:\n        /* \"#utility.yul\":2455:2543   */\n      swap2\n      pop\n        /* \"#utility.yul\":2271:2549   */\n      pop\n        /* \"#utility.yul\":2209:2549   */\n      swap3\n      swap2\n      pop\n      pop\n      jump\t// out\n        /* \"#utility.yul\":2555:3064   */\n    tag_13:\n        /* \"#utility.yul\":2624:2630   */\n      0x00\n        /* \"#utility.yul\":2673:2675   */\n      0x20\n        /* \"#utility.yul\":2661:2670   */\n      dup3\n        /* \"#utility.yul\":2652:2659   */\n      dup5\n        /* \"#utility.yul\":2648:2671   */\n      sub\n        /* \"#utility.yul\":2644:2676   */\n      slt\n        /* \"#utility.yul\":2641:2760   */\n      iszero\n      tag_208\n      jumpi\n        /* \"#utility.yul\":2679:2758   */\n      tag_209\n      tag_117\n      jump\t// in\n    tag_209:\n        /* \"#utility.yul\":2641:2760   */\n    tag_208:\n        /* \"#utility.yul\":2827:2828   */\n      0x00\n        /* \"#utility.yul\":2816:2825   */\n      dup3\n        /* \"#utility.yul\":2812:2829   */\n      add\n        /* \"#utility.yul\":2799:2830   */\n      calldataload\n        /* \"#utility.yul\":2857:2875   */\n      0xffffffffffffffff\n        /* \"#utility.yul\":2849:2855   */\n      dup2\n        /* \"#utility.yul\":2846:2876   */\n      gt\n        /* \"#utility.yul\":2843:2960   */\n      iszero\n      tag_210\n      jumpi\n        /* \"#utility.yul\":2879:2958   */\n      tag_211\n      tag_118\n      jump\t// in\n    tag_211:\n        /* \"#utility.yul\":2843:2960   */\n    tag_210:\n        /* \"#utility.yul\":2984:3047   */\n      tag_212\n        /* \"#utility.yul\":3039:3046   */\n      dup5\n        /* \"#utility.yul\":3030:3036   */\n      dup3\n        /* \"#utility.yul\":3019:3028   */\n      dup6\n        /* \"#utility.yul\":3015:3037   */\n      add\n        /* \"#utility.yul\":2984:3047   */\n      tag_128\n      jump\t// in\n    tag_212:\n        /* \"#utility.yul\":2974:3047   */\n      swap2\n      pop\n        /* \"#utility.yul\":2770:3057   */\n      pop\n        /* \"#utility.yul\":2555:3064   */\n      swap3\n      swap2\n      pop\n      pop\n      jump\t// out\n        /* \"#utility.yul\":3070:3196   */\n    tag_129:\n        /* \"#utility.yul\":3107:3114   */\n      0x00\n        /* \"#utility.yul\":3147:3189   */\n      0xffffffffffffffffffffffffffffffffffffffff\n        /* \"#utility.yul\":3140:3145   */\n      dup3\n        /* \"#utility.yul\":3136:3190   */\n      and\n        /* \"#utility.yul\":3125:3190   */\n      swap1\n      pop\n        /* \"#utility.yul\":3070:3196   */\n      swap2\n      swap1\n      pop\n      jump\t// out\n        /* \"#utility.yul\":3202:3298   */\n    tag_130:\n        /* \"#utility.yul\":3239:3246   */\n      0x00\n        /* \"#utility.yul\":3268:3292   */\n      tag_215\n        /* \"#utility.yul\":3286:3291   */\n      dup3\n        /* \"#utility.yul\":3268:3292   */\n      tag_129\n      jump\t// in\n    tag_215:\n        /* \"#utility.yul\":3257:3292   */\n      swap1\n      pop\n        /* \"#utility.yul\":3202:3298   */\n      swap2\n      swap1\n      pop\n      jump\t// out\n        /* \"#utility.yul\":3304:3426   */\n    tag_131:\n        /* \"#utility.yul\":3377:3401   */\n      tag_217\n        /* \"#utility.yul\":3395:3400   */\n      dup2\n        /* \"#utility.yul\":3377:3401   */\n      tag_130\n      jump\t// in\n    tag_217:\n        /* \"#utility.yul\":3370:3375   */\n      dup2\n        /* \"#utility.yul\":3367:3402   */\n      eq\n        /* \"#utility.yul\":3357:3420   */\n      tag_218\n      jumpi\n        /* \"#utility.yul\":3416:3417   */\n      0x00\n        /* \"#utility.yul\":3413:3414   */\n      dup1\n        /* \"#utility.yul\":3406:3418   */\n      revert\n        /* \"#utility.yul\":3357:3420   */\n    tag_218:\n        /* \"#utility.yul\":3304:3426   */\n      pop\n      jump\t// out\n        /* \"#utility.yul\":3432:3571   */\n    tag_132:\n        /* \"#utility.yul\":3478:3483   */\n      0x00\n        /* \"#utility.yul\":3516:3522   */\n      dup2\n        /* \"#utility.yul\":3503:3523   */\n      calldataload\n        /* \"#utility.yul\":3494:3523   */\n      swap1\n      pop\n        /* \"#utility.yul\":3532:3565   */\n      tag_220\n        /* \"#utility.yul\":3559:3564   */\n      dup2\n        /* \"#utility.yul\":3532:3565   */\n      tag_131\n      jump\t// in\n    tag_220:\n        /* \"#utility.yul\":3432:3571   */\n      swap3\n      swap2\n      pop\n      pop\n      jump\t// out\n        /* \"#utility.yul\":3577:3654   */\n    tag_133:\n        /* \"#utility.yul\":3614:3621   */\n      0x00\n        /* \"#utility.yul\":3643:3648   */\n      dup2\n        /* \"#utility.yul\":3632:3648   */\n      swap1\n      pop\n        /* \"#utility.yul\":3577:3654   */\n      swap2\n      swap1\n      pop\n      jump\t// out\n        /* \"#utility.yul\":3660:3782   */\n    tag_134:\n        /* \"#utility.yul\":3733:3757   */\n      tag_223\n        /* \"#utility.yul\":3751:3756   */\n      dup2\n        /* \"#utility.yul\":3733:3757   */\n      tag_133\n      jump\t// in\n    tag_223:\n        /* \"#utility.yul\":3726:3731   */\n      dup2\n        /* \"#utility.yul\":3723:3758   */\n      eq\n        /* \"#utility.yul\":3713:3776   */\n      tag_224\n      jumpi\n        /* \"#utility.yul\":3772:3773   */\n      0x00\n        /* \"#utility.yul\":3769:3770   */\n      dup1\n        /* \"#utility.yul\":3762:3774   */\n      revert\n        /* \"#utility.yul\":3713:3776   */\n    tag_224:\n        /* \"#utility.yul\":3660:3782   */\n      pop\n      jump\t// out\n        /* \"#utility.yul\":3788:3927   */\n    tag_135:\n        /* \"#utility.yul\":3834:3839   */\n      0x00\n        /* \"#utility.yul\":3872:3878   */\n      dup2\n        /* \"#utility.yul\":3859:3879   */\n      calldataload\n        /* \"#utility.yul\":3850:3879   */\n      swap1\n      pop\n        /* \"#utility.yul\":3888:3921   */\n      tag_226\n        /* \"#utility.yul\":3915:3920   */\n      dup2\n        /* \"#utility.yul\":3888:3921   */\n      tag_134\n      jump\t// in\n    tag_226:\n        /* \"#utility.yul\":3788:3927   */\n      swap3\n      swap2\n      pop\n      pop\n      jump\t// out\n        /* \"#utility.yul\":3933:4407   */\n    tag_17:\n        /* \"#utility.yul\":4001:4007   */\n      0x00\n        /* \"#utility.yul\":4009:4015   */\n      dup1\n        /* \"#utility.yul\":4058:4060   */\n      0x40\n        /* \"#utility.yul\":4046:4055   */\n      dup4\n        /* \"#utility.yul\":4037:4044   */\n      dup6\n        /* \"#utility.yul\":4033:4056   */\n      sub\n        /* \"#utility.yul\":4029:4061   */\n      slt\n        /* \"#utility.yul\":4026:4145   */\n      iszero\n      tag_228\n      jumpi\n        /* \"#utility.yul\":4064:4143   */\n      tag_229\n      tag_117\n      jump\t// in\n    tag_229:\n        /* \"#utility.yul\":4026:4145   */\n    tag_228:\n        /* \"#utility.yul\":4184:4185   */\n      0x00\n        /* \"#utility.yul\":4209:4262   */\n      tag_230\n        /* \"#utility.yul\":4254:4261   */\n      dup6\n        /* \"#utility.yul\":4245:4251   */\n      dup3\n        /* \"#utility.yul\":4234:4243   */\n      dup7\n        /* \"#utility.yul\":4230:4252   */\n      add\n        /* \"#utility.yul\":4209:4262   */\n      tag_132\n      jump\t// in\n    tag_230:\n        /* \"#utility.yul\":4199:4262   */\n      swap3\n      pop\n        /* \"#utility.yul\":4155:4272   */\n      pop\n        /* \"#utility.yul\":4311:4313   */\n      0x20\n        /* \"#utility.yul\":4337:4390   */\n      tag_231\n        /* \"#utility.yul\":4382:4389   */\n      dup6\n        /* \"#utility.yul\":4373:4379   */\n      dup3\n        /* \"#utility.yul\":4362:4371   */\n      dup7\n        /* \"#utility.yul\":4358:4380   */\n      add\n        /* \"#utility.yul\":4337:4390   */\n      tag_135\n      jump\t// in\n    tag_231:\n        /* \"#utility.yul\":4327:4390   */\n      swap2\n      pop\n        /* \"#utility.yul\":4282:4400   */\n      pop\n        /* \"#utility.yul\":3933:4407   */\n      swap3\n      pop\n      swap3\n      swap1\n      pop\n      jump\t// out\n        /* \"#utility.yul\":4413:4531   */\n    tag_136:\n        /* \"#utility.yul\":4500:4524   */\n      tag_233\n        /* \"#utility.yul\":4518:4523   */\n      dup2\n        /* \"#utility.yul\":4500:4524   */\n      tag_133\n      jump\t// in\n    tag_233:\n        /* \"#utility.yul\":4495:4498   */\n      dup3\n        /* \"#utility.yul\":4488:4525   */\n      mstore\n        /* \"#utility.yul\":4413:4531   */\n      pop\n      pop\n      jump\t// out\n        /* \"#utility.yul\":4537:4655   */\n    tag_137:\n        /* \"#utility.yul\":4624:4648   */\n      tag_235\n        /* \"#utility.yul\":4642:4647   */\n      dup2\n        /* \"#utility.yul\":4624:4648   */\n      tag_130\n      jump\t// in\n    tag_235:\n        /* \"#utility.yul\":4619:4622   */\n      dup3\n        /* \"#utility.yul\":4612:4649   */\n      mstore\n        /* \"#utility.yul\":4537:4655   */\n      pop\n      pop\n      jump\t// out\n        /* \"#utility.yul\":4661:4760   */\n    tag_138:\n        /* \"#utility.yul\":4713:4719   */\n      0x00\n        /* \"#utility.yul\":4747:4752   */\n      dup2\n        /* \"#utility.yul\":4741:4753   */\n      mload\n        /* \"#utility.yul\":4731:4753   */\n      swap1\n      pop\n        /* \"#utility.yul\":4661:4760   */\n      swap2\n      swap1\n      pop\n      jump\t// out\n        /* \"#utility.yul\":4766:4935   */\n    tag_139:\n        /* \"#utility.yul\":4850:4861   */\n      0x00\n        /* \"#utility.yul\":4884:4890   */\n      dup3\n        /* \"#utility.yul\":4879:4882   */\n      dup3\n        /* \"#utility.yul\":4872:4891   */\n      mstore\n        /* \"#utility.yul\":4924:4928   */\n      0x20\n        /* \"#utility.yul\":4919:4922   */\n      dup3\n        /* \"#utility.yul\":4915:4929   */\n      add\n        /* \"#utility.yul\":4900:4929   */\n      swap1\n      pop\n        /* \"#utility.yul\":4766:4935   */\n      swap3\n      swap2\n      pop\n      pop\n      jump\t// out\n        /* \"#utility.yul\":4941:5080   */\n    tag_140:\n        /* \"#utility.yul\":5030:5036   */\n      dup3\n        /* \"#utility.yul\":5025:5028   */\n      dup2\n        /* \"#utility.yul\":5020:5023   */\n      dup4\n        /* \"#utility.yul\":5014:5037   */\n      mcopy\n        /* \"#utility.yul\":5071:5072   */\n      0x00\n        /* \"#utility.yul\":5062:5068   */\n      dup4\n        /* \"#utility.yul\":5057:5060   */\n      dup4\n        /* \"#utility.yul\":5053:5069   */\n      add\n        /* \"#utility.yul\":5046:5073   */\n      mstore\n        /* \"#utility.yul\":4941:5080   */\n      pop\n      pop\n      pop\n      jump\t// out\n        /* \"#utility.yul\":5086:5463   */\n    tag_141:\n        /* \"#utility.yul\":5174:5177   */\n      0x00\n        /* \"#utility.yul\":5202:5241   */\n      tag_240\n        /* \"#utility.yul\":5235:5240   */\n      dup3\n        /* \"#utility.yul\":5202:5241   */\n      tag_138\n      jump\t// in\n    tag_240:\n        /* \"#utility.yul\":5257:5328   */\n      tag_241\n        /* \"#utility.yul\":5321:5327   */\n      dup2\n        /* \"#utility.yul\":5316:5319   */\n      dup6\n        /* \"#utility.yul\":5257:5328   */\n      tag_139\n      jump\t// in\n    tag_241:\n        /* \"#utility.yul\":5250:5328   */\n      swap4\n      pop\n        /* \"#utility.yul\":5337:5402   */\n      tag_242\n        /* \"#utility.yul\":5395:5401   */\n      dup2\n        /* \"#utility.yul\":5390:5393   */\n      dup6\n        /* \"#utility.yul\":5383:5387   */\n      0x20\n        /* \"#utility.yul\":5376:5381   */\n      dup7\n        /* \"#utility.yul\":5372:5388   */\n      add\n        /* \"#utility.yul\":5337:5402   */\n      tag_140\n      jump\t// in\n    tag_242:\n        /* \"#utility.yul\":5427:5456   */\n      tag_243\n        /* \"#utility.yul\":5449:5455   */\n      dup2\n        /* \"#utility.yul\":5427:5456   */\n      tag_121\n      jump\t// in\n    tag_243:\n        /* \"#utility.yul\":5422:5425   */\n      dup5\n        /* \"#utility.yul\":5418:5457   */\n      add\n        /* \"#utility.yul\":5411:5457   */\n      swap2\n      pop\n        /* \"#utility.yul\":5178:5463   */\n      pop\n        /* \"#utility.yul\":5086:5463   */\n      swap3\n      swap2\n      pop\n      pop\n      jump\t// out\n        /* \"#utility.yul\":5469:6224   */\n    tag_20:\n        /* \"#utility.yul\":5694:5698   */\n      0x00\n        /* \"#utility.yul\":5732:5735   */\n      0xa0\n        /* \"#utility.yul\":5721:5730   */\n      dup3\n        /* \"#utility.yul\":5717:5736   */\n      add\n        /* \"#utility.yul\":5709:5736   */\n      swap1\n      pop\n        /* \"#utility.yul\":5746:5817   */\n      tag_245\n        /* \"#utility.yul\":5814:5815   */\n      0x00\n        /* \"#utility.yul\":5803:5812   */\n      dup4\n        /* \"#utility.yul\":5799:5816   */\n      add\n        /* \"#utility.yul\":5790:5796   */\n      dup9\n        /* \"#utility.yul\":5746:5817   */\n      tag_136\n      jump\t// in\n    tag_245:\n        /* \"#utility.yul\":5827:5899   */\n      tag_246\n        /* \"#utility.yul\":5895:5897   */\n      0x20\n        /* \"#utility.yul\":5884:5893   */\n      dup4\n        /* \"#utility.yul\":5880:5898   */\n      add\n        /* \"#utility.yul\":5871:5877   */\n      dup8\n        /* \"#utility.yul\":5827:5899   */\n      tag_137\n      jump\t// in\n    tag_246:\n        /* \"#utility.yul\":5946:5955   */\n      dup2\n        /* \"#utility.yul\":5940:5944   */\n      dup2\n        /* \"#utility.yul\":5936:5956   */\n      sub\n        /* \"#utility.yul\":5931:5933   */\n      0x40\n        /* \"#utility.yul\":5920:5929   */\n      dup4\n        /* \"#utility.yul\":5916:5934   */\n      add\n        /* \"#utility.yul\":5909:5957   */\n      mstore\n        /* \"#utility.yul\":5974:6052   */\n      tag_247\n        /* \"#utility.yul\":6047:6051   */\n      dup2\n        /* \"#utility.yul\":6038:6044   */\n      dup7\n        /* \"#utility.yul\":5974:6052   */\n      tag_141\n      jump\t// in\n    tag_247:\n        /* \"#utility.yul\":5966:6052   */\n      swap1\n      pop\n        /* \"#utility.yul\":6062:6134   */\n      tag_248\n        /* \"#utility.yul\":6130:6132   */\n      0x60\n        /* \"#utility.yul\":6119:6128   */\n      dup4\n        /* \"#utility.yul\":6115:6133   */\n      add\n        /* \"#utility.yul\":6106:6112   */\n      dup6\n        /* \"#utility.yul\":6062:6134   */\n      tag_136\n      jump\t// in\n    tag_248:\n        /* \"#utility.yul\":6144:6217   */\n      tag_249\n        /* \"#utility.yul\":6212:6215   */\n      0x80\n        /* \"#utility.yul\":6201:6210   */\n      dup4\n        /* \"#utility.yul\":6197:6216   */\n      add\n        /* \"#utility.yul\":6188:6194   */\n      dup5\n        /* \"#utility.yul\":6144:6217   */\n      tag_136\n      jump\t// in\n    tag_249:\n        /* \"#utility.yul\":5469:6224   */\n      swap7\n      swap6\n      pop\n      pop\n      pop\n      pop\n      pop\n      pop\n      jump\t// out\n        /* \"#utility.yul\":6230:6559   */\n    tag_26:\n        /* \"#utility.yul\":6289:6295   */\n      0x00\n        /* \"#utility.yul\":6338:6340   */\n      0x20\n        /* \"#utility.yul\":6326:6335   */\n      dup3\n        /* \"#utility.yul\":6317:6324   */\n      dup5\n        /* \"#utility.yul\":6313:6336   */\n      sub\n        /* \"#utility.yul\":6309:6341   */\n      slt\n        /* \"#utility.yul\":6306:6425   */\n      iszero\n      tag_251\n      jumpi\n        /* \"#utility.yul\":6344:6423   */\n      tag_252\n      tag_117\n      jump\t// in\n    tag_252:\n        /* \"#utility.yul\":6306:6425   */\n    tag_251:\n        /* \"#utility.yul\":6464:6465   */\n      0x00\n        /* \"#utility.yul\":6489:6542   */\n      tag_253\n        /* \"#utility.yul\":6534:6541   */\n      dup5\n        /* \"#utility.yul\":6525:6531   */\n      dup3\n        /* \"#utility.yul\":6514:6523   */\n      dup6\n        /* \"#utility.yul\":6510:6532   */\n      add\n        /* \"#utility.yul\":6489:6542   */\n      tag_135\n      jump\t// in\n    tag_253:\n        /* \"#utility.yul\":6479:6542   */\n      swap2\n      pop\n        /* \"#utility.yul\":6435:6552   */\n      pop\n        /* \"#utility.yul\":6230:6559   */\n      swap3\n      swap2\n      pop\n      pop\n      jump\t// out\n        /* \"#utility.yul\":6565:6673   */\n    tag_142:\n        /* \"#utility.yul\":6642:6666   */\n      tag_255\n        /* \"#utility.yul\":6660:6665   */\n      dup2\n        /* \"#utility.yul\":6642:6666   */\n      tag_133\n      jump\t// in\n    tag_255:\n        /* \"#utility.yul\":6637:6640   */\n      dup3\n        /* \"#utility.yul\":6630:6667   */\n      mstore\n        /* \"#utility.yul\":6565:6673   */\n      pop\n      pop\n      jump\t// out\n        /* \"#utility.yul\":6679:6787   */\n    tag_143:\n        /* \"#utility.yul\":6756:6780   */\n      tag_257\n        /* \"#utility.yul\":6774:6779   */\n      dup2\n        /* \"#utility.yul\":6756:6780   */\n      tag_130\n      jump\t// in\n    tag_257:\n        /* \"#utility.yul\":6751:6754   */\n      dup3\n        /* \"#utility.yul\":6744:6781   */\n      mstore\n        /* \"#utility.yul\":6679:6787   */\n      pop\n      pop\n      jump\t// out\n        /* \"#utility.yul\":6793:6952   */\n    tag_144:\n        /* \"#utility.yul\":6867:6878   */\n      0x00\n        /* \"#utility.yul\":6901:6907   */\n      dup3\n        /* \"#utility.yul\":6896:6899   */\n      dup3\n        /* \"#utility.yul\":6889:6908   */\n      mstore\n        /* \"#utility.yul\":6941:6945   */\n      0x20\n        /* \"#utility.yul\":6936:6939   */\n      dup3\n        /* \"#utility.yul\":6932:6946   */\n      add\n        /* \"#utility.yul\":6917:6946   */\n      swap1\n      pop\n        /* \"#utility.yul\":6793:6952   */\n      swap3\n      swap2\n      pop\n      pop\n      jump\t// out\n        /* \"#utility.yul\":6958:7315   */\n    tag_145:\n        /* \"#utility.yul\":7036:7039   */\n      0x00\n        /* \"#utility.yul\":7064:7103   */\n      tag_260\n        /* \"#utility.yul\":7097:7102   */\n      dup3\n        /* \"#utility.yul\":7064:7103   */\n      tag_138\n      jump\t// in\n    tag_260:\n        /* \"#utility.yul\":7119:7180   */\n      tag_261\n        /* \"#utility.yul\":7173:7179   */\n      dup2\n        /* \"#utility.yul\":7168:7171   */\n      dup6\n        /* \"#utility.yul\":7119:7180   */\n      tag_144\n      jump\t// in\n    tag_261:\n        /* \"#utility.yul\":7112:7180   */\n      swap4\n      pop\n        /* \"#utility.yul\":7189:7254   */\n      tag_262\n        /* \"#utility.yul\":7247:7253   */\n      dup2\n        /* \"#utility.yul\":7242:7245   */\n      dup6\n        /* \"#utility.yul\":7235:7239   */\n      0x20\n        /* \"#utility.yul\":7228:7233   */\n      dup7\n        /* \"#utility.yul\":7224:7240   */\n      add\n        /* \"#utility.yul\":7189:7254   */\n      tag_140\n      jump\t// in\n    tag_262:\n        /* \"#utility.yul\":7279:7308   */\n      tag_263\n        /* \"#utility.yul\":7301:7307   */\n      dup2\n        /* \"#utility.yul\":7279:7308   */\n      tag_121\n      jump\t// in\n    tag_263:\n        /* \"#utility.yul\":7274:7277   */\n      dup5\n        /* \"#utility.yul\":7270:7309   */\n      add\n        /* \"#utility.yul\":7263:7309   */\n      swap2\n      pop\n        /* \"#utility.yul\":7040:7315   */\n      pop\n        /* \"#utility.yul\":6958:7315   */\n      swap3\n      swap2\n      pop\n      pop\n      jump\t// out\n        /* \"#utility.yul\":7373:8502   */\n    tag_146:\n        /* \"#utility.yul\":7484:7487   */\n      0x00\n        /* \"#utility.yul\":7520:7524   */\n      0xa0\n        /* \"#utility.yul\":7515:7518   */\n      dup4\n        /* \"#utility.yul\":7511:7525   */\n      add\n        /* \"#utility.yul\":7605:7609   */\n      0x00\n        /* \"#utility.yul\":7598:7603   */\n      dup4\n        /* \"#utility.yul\":7594:7610   */\n      add\n        /* \"#utility.yul\":7588:7611   */\n      mload\n        /* \"#utility.yul\":7624:7687   */\n      tag_265\n        /* \"#utility.yul\":7681:7685   */\n      0x00\n        /* \"#utility.yul\":7676:7679   */\n      dup7\n        /* \"#utility.yul\":7672:7686   */\n      add\n        /* \"#utility.yul\":7658:7670   */\n      dup3\n        /* \"#utility.yul\":7624:7687   */\n      tag_142\n      jump\t// in\n    tag_265:\n        /* \"#utility.yul\":7535:7697   */\n      pop\n        /* \"#utility.yul\":7781:7785   */\n      0x20\n        /* \"#utility.yul\":7774:7779   */\n      dup4\n        /* \"#utility.yul\":7770:7786   */\n      add\n        /* \"#utility.yul\":7764:7787   */\n      mload\n        /* \"#utility.yul\":7800:7863   */\n      tag_266\n        /* \"#utility.yul\":7857:7861   */\n      0x20\n        /* \"#utility.yul\":7852:7855   */\n      dup7\n        /* \"#utility.yul\":7848:7862   */\n      add\n        /* \"#utility.yul\":7834:7846   */\n      dup3\n        /* \"#utility.yul\":7800:7863   */\n      tag_143\n      jump\t// in\n    tag_266:\n        /* \"#utility.yul\":7707:7873   */\n      pop\n        /* \"#utility.yul\":7958:7962   */\n      0x40\n        /* \"#utility.yul\":7951:7956   */\n      dup4\n        /* \"#utility.yul\":7947:7963   */\n      add\n        /* \"#utility.yul\":7941:7964   */\n      mload\n        /* \"#utility.yul\":8011:8014   */\n      dup5\n        /* \"#utility.yul\":8005:8009   */\n      dup3\n        /* \"#utility.yul\":8001:8015   */\n      sub\n        /* \"#utility.yul\":7994:7998   */\n      0x40\n        /* \"#utility.yul\":7989:7992   */\n      dup7\n        /* \"#utility.yul\":7985:7999   */\n      add\n        /* \"#utility.yul\":7978:8016   */\n      mstore\n        /* \"#utility.yul\":8037:8110   */\n      tag_267\n        /* \"#utility.yul\":8105:8109   */\n      dup3\n        /* \"#utility.yul\":8091:8103   */\n      dup3\n        /* \"#utility.yul\":8037:8110   */\n      tag_145\n      jump\t// in\n    tag_267:\n        /* \"#utility.yul\":8029:8110   */\n      swap2\n      pop\n        /* \"#utility.yul\":7883:8121   */\n      pop\n        /* \"#utility.yul\":8208:8212   */\n      0x60\n        /* \"#utility.yul\":8201:8206   */\n      dup4\n        /* \"#utility.yul\":8197:8213   */\n      add\n        /* \"#utility.yul\":8191:8214   */\n      mload\n        /* \"#utility.yul\":8227:8290   */\n      tag_268\n        /* \"#utility.yul\":8284:8288   */\n      0x60\n        /* \"#utility.yul\":8279:8282   */\n      dup7\n        /* \"#utility.yul\":8275:8289   */\n      add\n        /* \"#utility.yul\":8261:8273   */\n      dup3\n        /* \"#utility.yul\":8227:8290   */\n      tag_142\n      jump\t// in\n    tag_268:\n        /* \"#utility.yul\":8131:8300   */\n      pop\n        /* \"#utility.yul\":8383:8387   */\n      0x80\n        /* \"#utility.yul\":8376:8381   */\n      dup4\n        /* \"#utility.yul\":8372:8388   */\n      add\n        /* \"#utility.yul\":8366:8389   */\n      mload\n        /* \"#utility.yul\":8402:8465   */\n      tag_269\n        /* \"#utility.yul\":8459:8463   */\n      0x80\n        /* \"#utility.yul\":8454:8457   */\n      dup7\n        /* \"#utility.yul\":8450:8464   */\n      add\n        /* \"#utility.yul\":8436:8448   */\n      dup3\n        /* \"#utility.yul\":8402:8465   */\n      tag_142\n      jump\t// in\n    tag_269:\n        /* \"#utility.yul\":8310:8475   */\n      pop\n        /* \"#utility.yul\":8492:8496   */\n      dup1\n        /* \"#utility.yul\":8485:8496   */\n      swap2\n      pop\n        /* \"#utility.yul\":7489:8502   */\n      pop\n        /* \"#utility.yul\":7373:8502   */\n      swap3\n      swap2\n      pop\n      pop\n      jump\t// out\n        /* \"#utility.yul\":8508:8865   */\n    tag_29:\n        /* \"#utility.yul\":8643:8647   */\n      0x00\n        /* \"#utility.yul\":8681:8683   */\n      0x20\n        /* \"#utility.yul\":8670:8679   */\n      dup3\n        /* \"#utility.yul\":8666:8684   */\n      add\n        /* \"#utility.yul\":8658:8684   */\n      swap1\n      pop\n        /* \"#utility.yul\":8730:8739   */\n      dup2\n        /* \"#utility.yul\":8724:8728   */\n      dup2\n        /* \"#utility.yul\":8720:8740   */\n      sub\n        /* \"#utility.yul\":8716:8717   */\n      0x00\n        /* \"#utility.yul\":8705:8714   */\n      dup4\n        /* \"#utility.yul\":8701:8718   */\n      add\n        /* \"#utility.yul\":8694:8741   */\n      mstore\n        /* \"#utility.yul\":8758:8858   */\n      tag_271\n        /* \"#utility.yul\":8853:8857   */\n      dup2\n        /* \"#utility.yul\":8844:8850   */\n      dup5\n        /* \"#utility.yul\":8758:8858   */\n      tag_146\n      jump\t// in\n    tag_271:\n        /* \"#utility.yul\":8750:8858   */\n      swap1\n      pop\n        /* \"#utility.yul\":8508:8865   */\n      swap3\n      swap2\n      pop\n      pop\n      jump\t// out\n        /* \"#utility.yul\":8871:9093   */\n    tag_33:\n        /* \"#utility.yul\":8964:8968   */\n      0x00\n        /* \"#utility.yul\":9002:9004   */\n      0x20\n        /* \"#utility.yul\":8991:9000   */\n      dup3\n        /* \"#utility.yul\":8987:9005   */\n      add\n        /* \"#utility.yul\":8979:9005   */\n      swap1\n      pop\n        /* \"#utility.yul\":9015:9086   */\n      tag_273\n        /* \"#utility.yul\":9083:9084   */\n      0x00\n        /* \"#utility.yul\":9072:9081   */\n      dup4\n        /* \"#utility.yul\":9068:9085   */\n      add\n        /* \"#utility.yul\":9059:9065   */\n      dup5\n        /* \"#utility.yul\":9015:9086   */\n      tag_136\n      jump\t// in\n    tag_273:\n        /* \"#utility.yul\":8871:9093   */\n      swap3\n      swap2\n      pop\n      pop\n      jump\t// out\n        /* \"#utility.yul\":9099:9573   */\n    tag_36:\n        /* \"#utility.yul\":9167:9173   */\n      0x00\n        /* \"#utility.yul\":9175:9181   */\n      dup1\n        /* \"#utility.yul\":9224:9226   */\n      0x40\n        /* \"#utility.yul\":9212:9221   */\n      dup4\n        /* \"#utility.yul\":9203:9210   */\n      dup6\n        /* \"#utility.yul\":9199:9222   */\n      sub\n        /* \"#utility.yul\":9195:9227   */\n      slt\n        /* \"#utility.yul\":9192:9311   */\n      iszero\n      tag_275\n      jumpi\n        /* \"#utility.yul\":9230:9309   */\n      tag_276\n      tag_117\n      jump\t// in\n    tag_276:\n        /* \"#utility.yul\":9192:9311   */\n    tag_275:\n        /* \"#utility.yul\":9350:9351   */\n      0x00\n        /* \"#utility.yul\":9375:9428   */\n      tag_277\n        /* \"#utility.yul\":9420:9427   */\n      dup6\n        /* \"#utility.yul\":9411:9417   */\n      dup3\n        /* \"#utility.yul\":9400:9409   */\n      dup7\n        /* \"#utility.yul\":9396:9418   */\n      add\n        /* \"#utility.yul\":9375:9428   */\n      tag_135\n      jump\t// in\n    tag_277:\n        /* \"#utility.yul\":9365:9428   */\n      swap3\n      pop\n        /* \"#utility.yul\":9321:9438   */\n      pop\n        /* \"#utility.yul\":9477:9479   */\n      0x20\n        /* \"#utility.yul\":9503:9556   */\n      tag_278\n        /* \"#utility.yul\":9548:9555   */\n      dup6\n        /* \"#utility.yul\":9539:9545   */\n      dup3\n        /* \"#utility.yul\":9528:9537   */\n      dup7\n        /* \"#utility.yul\":9524:9546   */\n      add\n        /* \"#utility.yul\":9503:9556   */\n      tag_132\n      jump\t// in\n    tag_278:\n        /* \"#utility.yul\":9493:9556   */\n      swap2\n      pop\n        /* \"#utility.yul\":9448:9566   */\n      pop\n        /* \"#utility.yul\":9099:9573   */\n      swap3\n      pop\n      swap3\n      swap1\n      pop\n      jump\t// out\n        /* \"#utility.yul\":9579:9714   */\n    tag_147:\n        /* \"#utility.yul\":9667:9673   */\n      0x00\n        /* \"#utility.yul\":9701:9706   */\n      dup2\n        /* \"#utility.yul\":9695:9707   */\n      mload\n        /* \"#utility.yul\":9685:9707   */\n      swap1\n      pop\n        /* \"#utility.yul\":9579:9714   */\n      swap2\n      swap1\n      pop\n      jump\t// out\n        /* \"#utility.yul\":9720:9925   */\n    tag_148:\n        /* \"#utility.yul\":9840:9851   */\n      0x00\n        /* \"#utility.yul\":9874:9880   */\n      dup3\n        /* \"#utility.yul\":9869:9872   */\n      dup3\n        /* \"#utility.yul\":9862:9881   */\n      mstore\n        /* \"#utility.yul\":9914:9918   */\n      0x20\n        /* \"#utility.yul\":9909:9912   */\n      dup3\n        /* \"#utility.yul\":9905:9919   */\n      add\n        /* \"#utility.yul\":9890:9919   */\n      swap1\n      pop\n        /* \"#utility.yul\":9720:9925   */\n      swap3\n      swap2\n      pop\n      pop\n      jump\t// out\n        /* \"#utility.yul\":9931:10084   */\n    tag_149:\n        /* \"#utility.yul\":10019:10023   */\n      0x00\n        /* \"#utility.yul\":10042:10045   */\n      dup2\n        /* \"#utility.yul\":10034:10045   */\n      swap1\n      pop\n        /* \"#utility.yul\":10072:10076   */\n      0x20\n        /* \"#utility.yul\":10067:10070   */\n      dup3\n        /* \"#utility.yul\":10063:10077   */\n      add\n        /* \"#utility.yul\":10055:10077   */\n      swap1\n      pop\n        /* \"#utility.yul\":9931:10084   */\n      swap2\n      swap1\n      pop\n      jump\t// out\n        /* \"#utility.yul\":10142:11261   */\n    tag_150:\n        /* \"#utility.yul\":10243:10246   */\n      0x00\n        /* \"#utility.yul\":10279:10283   */\n      0xa0\n        /* \"#utility.yul\":10274:10277   */\n      dup4\n        /* \"#utility.yul\":10270:10284   */\n      add\n        /* \"#utility.yul\":10364:10368   */\n      0x00\n        /* \"#utility.yul\":10357:10362   */\n      dup4\n        /* \"#utility.yul\":10353:10369   */\n      add\n        /* \"#utility.yul\":10347:10370   */\n      mload\n        /* \"#utility.yul\":10383:10446   */\n      tag_283\n        /* \"#utility.yul\":10440:10444   */\n      0x00\n        /* \"#utility.yul\":10435:10438   */\n      dup7\n        /* \"#utility.yul\":10431:10445   */\n      add\n        /* \"#utility.yul\":10417:10429   */\n      dup3\n        /* \"#utility.yul\":10383:10446   */\n      tag_142\n      jump\t// in\n    tag_283:\n        /* \"#utility.yul\":10294:10456   */\n      pop\n        /* \"#utility.yul\":10540:10544   */\n      0x20\n        /* \"#utility.yul\":10533:10538   */\n      dup4\n        /* \"#utility.yul\":10529:10545   */\n      add\n        /* \"#utility.yul\":10523:10546   */\n      mload\n        /* \"#utility.yul\":10559:10622   */\n      tag_284\n        /* \"#utility.yul\":10616:10620   */\n      0x20\n        /* \"#utility.yul\":10611:10614   */\n      dup7\n        /* \"#utility.yul\":10607:10621   */\n      add\n        /* \"#utility.yul\":10593:10605   */\n      dup3\n        /* \"#utility.yul\":10559:10622   */\n      tag_143\n      jump\t// in\n    tag_284:\n        /* \"#utility.yul\":10466:10632   */\n      pop\n        /* \"#utility.yul\":10717:10721   */\n      0x40\n        /* \"#utility.yul\":10710:10715   */\n      dup4\n        /* \"#utility.yul\":10706:10722   */\n      add\n        /* \"#utility.yul\":10700:10723   */\n      mload\n        /* \"#utility.yul\":10770:10773   */\n      dup5\n        /* \"#utility.yul\":10764:10768   */\n      dup3\n        /* \"#utility.yul\":10760:10774   */\n      sub\n        /* \"#utility.yul\":10753:10757   */\n      0x40\n        /* \"#utility.yul\":10748:10751   */\n      dup7\n        /* \"#utility.yul\":10744:10758   */\n      add\n        /* \"#utility.yul\":10737:10775   */\n      mstore\n        /* \"#utility.yul\":10796:10869   */\n      tag_285\n        /* \"#utility.yul\":10864:10868   */\n      dup3\n        /* \"#utility.yul\":10850:10862   */\n      dup3\n        /* \"#utility.yul\":10796:10869   */\n      tag_145\n      jump\t// in\n    tag_285:\n        /* \"#utility.yul\":10788:10869   */\n      swap2\n      pop\n        /* \"#utility.yul\":10642:10880   */\n      pop\n        /* \"#utility.yul\":10967:10971   */\n      0x60\n        /* \"#utility.yul\":10960:10965   */\n      dup4\n        /* \"#utility.yul\":10956:10972   */\n      add\n        /* \"#utility.yul\":10950:10973   */\n      mload\n        /* \"#utility.yul\":10986:11049   */\n      tag_286\n        /* \"#utility.yul\":11043:11047   */\n      0x60\n        /* \"#utility.yul\":11038:11041   */\n      dup7\n        /* \"#utility.yul\":11034:11048   */\n      add\n        /* \"#utility.yul\":11020:11032   */\n      dup3\n        /* \"#utility.yul\":10986:11049   */\n      tag_142\n      jump\t// in\n    tag_286:\n        /* \"#utility.yul\":10890:11059   */\n      pop\n        /* \"#utility.yul\":11142:11146   */\n      0x80\n        /* \"#utility.yul\":11135:11140   */\n      dup4\n        /* \"#utility.yul\":11131:11147   */\n      add\n        /* \"#utility.yul\":11125:11148   */\n      mload\n        /* \"#utility.yul\":11161:11224   */\n      tag_287\n        /* \"#utility.yul\":11218:11222   */\n      0x80\n        /* \"#utility.yul\":11213:11216   */\n      dup7\n        /* \"#utility.yul\":11209:11223   */\n      add\n        /* \"#utility.yul\":11195:11207   */\n      dup3\n        /* \"#utility.yul\":11161:11224   */\n      tag_142\n      jump\t// in\n    tag_287:\n        /* \"#utility.yul\":11069:11234   */\n      pop\n        /* \"#utility.yul\":11251:11255   */\n      dup1\n        /* \"#utility.yul\":11244:11255   */\n      swap2\n      pop\n        /* \"#utility.yul\":10248:11261   */\n      pop\n        /* \"#utility.yul\":10142:11261   */\n      swap3\n      swap2\n      pop\n      pop\n      jump\t// out\n        /* \"#utility.yul\":11267:11507   */\n    tag_151:\n        /* \"#utility.yul\":11378:11388   */\n      0x00\n        /* \"#utility.yul\":11413:11501   */\n      tag_289\n        /* \"#utility.yul\":11497:11500   */\n      dup4\n        /* \"#utility.yul\":11489:11495   */\n      dup4\n        /* \"#utility.yul\":11413:11501   */\n      tag_150\n      jump\t// in\n    tag_289:\n        /* \"#utility.yul\":11399:11501   */\n      swap1\n      pop\n        /* \"#utility.yul\":11267:11507   */\n      swap3\n      swap2\n      pop\n      pop\n      jump\t// out\n        /* \"#utility.yul\":11513:11647   */\n    tag_152:\n        /* \"#utility.yul\":11604:11608   */\n      0x00\n        /* \"#utility.yul\":11636:11640   */\n      0x20\n        /* \"#utility.yul\":11631:11634   */\n      dup3\n        /* \"#utility.yul\":11627:11641   */\n      add\n        /* \"#utility.yul\":11619:11641   */\n      swap1\n      pop\n        /* \"#utility.yul\":11513:11647   */\n      swap2\n      swap1\n      pop\n      jump\t// out\n        /* \"#utility.yul\":11709:12788   */\n    tag_153:\n        /* \"#utility.yul\":11870:11873   */\n      0x00\n        /* \"#utility.yul\":11899:11974   */\n      tag_292\n        /* \"#utility.yul\":11968:11973   */\n      dup3\n        /* \"#utility.yul\":11899:11974   */\n      tag_147\n      jump\t// in\n    tag_292:\n        /* \"#utility.yul\":11990:12097   */\n      tag_293\n        /* \"#utility.yul\":12090:12096   */\n      dup2\n        /* \"#utility.yul\":12085:12088   */\n      dup6\n        /* \"#utility.yul\":11990:12097   */\n      tag_148\n      jump\t// in\n    tag_293:\n        /* \"#utility.yul\":11983:12097   */\n      swap4\n      pop\n        /* \"#utility.yul\":12123:12126   */\n      dup4\n        /* \"#utility.yul\":12168:12172   */\n      0x20\n        /* \"#utility.yul\":12160:12166   */\n      dup3\n        /* \"#utility.yul\":12156:12173   */\n      mul\n        /* \"#utility.yul\":12151:12154   */\n      dup6\n        /* \"#utility.yul\":12147:12174   */\n      add\n        /* \"#utility.yul\":12198:12275   */\n      tag_294\n        /* \"#utility.yul\":12269:12274   */\n      dup6\n        /* \"#utility.yul\":12198:12275   */\n      tag_149\n      jump\t// in\n    tag_294:\n        /* \"#utility.yul\":12298:12305   */\n      dup1\n        /* \"#utility.yul\":12329:12330   */\n      0x00\n        /* \"#utility.yul\":12314:12743   */\n    tag_295:\n        /* \"#utility.yul\":12339:12345   */\n      dup6\n        /* \"#utility.yul\":12336:12337   */\n      dup2\n        /* \"#utility.yul\":12333:12346   */\n      lt\n        /* \"#utility.yul\":12314:12743   */\n      iszero\n      tag_297\n      jumpi\n        /* \"#utility.yul\":12410:12419   */\n      dup5\n        /* \"#utility.yul\":12404:12408   */\n      dup5\n        /* \"#utility.yul\":12400:12420   */\n      sub\n        /* \"#utility.yul\":12395:12398   */\n      dup10\n        /* \"#utility.yul\":12388:12421   */\n      mstore\n        /* \"#utility.yul\":12461:12467   */\n      dup2\n        /* \"#utility.yul\":12455:12468   */\n      mload\n        /* \"#utility.yul\":12489:12595   */\n      tag_298\n        /* \"#utility.yul\":12590:12594   */\n      dup6\n        /* \"#utility.yul\":12575:12588   */\n      dup3\n        /* \"#utility.yul\":12489:12595   */\n      tag_151\n      jump\t// in\n    tag_298:\n        /* \"#utility.yul\":12481:12595   */\n      swap5\n      pop\n        /* \"#utility.yul\":12618:12699   */\n      tag_299\n        /* \"#utility.yul\":12692:12698   */\n      dup4\n        /* \"#utility.yul\":12618:12699   */\n      tag_152\n      jump\t// in\n    tag_299:\n        /* \"#utility.yul\":12608:12699   */\n      swap3\n      pop\n        /* \"#utility.yul\":12728:12732   */\n      0x20\n        /* \"#utility.yul\":12723:12726   */\n      dup11\n        /* \"#utility.yul\":12719:12733   */\n      add\n        /* \"#utility.yul\":12712:12733   */\n      swap10\n      pop\n        /* \"#utility.yul\":12374:12743   */\n      pop\n        /* \"#utility.yul\":12361:12362   */\n      0x01\n        /* \"#utility.yul\":12358:12359   */\n      dup2\n        /* \"#utility.yul\":12354:12363   */\n      add\n        /* \"#utility.yul\":12349:12363   */\n      swap1\n      pop\n        /* \"#utility.yul\":12314:12743   */\n      jump(tag_295)\n    tag_297:\n        /* \"#utility.yul\":12318:12332   */\n      pop\n        /* \"#utility.yul\":12759:12763   */\n      dup3\n        /* \"#utility.yul\":12752:12763   */\n      swap8\n      pop\n        /* \"#utility.yul\":12779:12782   */\n      dup8\n        /* \"#utility.yul\":12772:12782   */\n      swap6\n      pop\n        /* \"#utility.yul\":11875:12788   */\n      pop\n      pop\n      pop\n      pop\n      pop\n        /* \"#utility.yul\":11709:12788   */\n      swap3\n      swap2\n      pop\n      pop\n      jump\t// out\n        /* \"#utility.yul\":12794:13251   */\n    tag_41:\n        /* \"#utility.yul\":12979:12983   */\n      0x00\n        /* \"#utility.yul\":13017:13019   */\n      0x20\n        /* \"#utility.yul\":13006:13015   */\n      dup3\n        /* \"#utility.yul\":13002:13020   */\n      add\n        /* \"#utility.yul\":12994:13020   */\n      swap1\n      pop\n        /* \"#utility.yul\":13066:13075   */\n      dup2\n        /* \"#utility.yul\":13060:13064   */\n      dup2\n        /* \"#utility.yul\":13056:13076   */\n      sub\n        /* \"#utility.yul\":13052:13053   */\n      0x00\n        /* \"#utility.yul\":13041:13050   */\n      dup4\n        /* \"#utility.yul\":13037:13054   */\n      add\n        /* \"#utility.yul\":13030:13077   */\n      mstore\n        /* \"#utility.yul\":13094:13244   */\n      tag_301\n        /* \"#utility.yul\":13239:13243   */\n      dup2\n        /* \"#utility.yul\":13230:13236   */\n      dup5\n        /* \"#utility.yul\":13094:13244   */\n      tag_153\n      jump\t// in\n    tag_301:\n        /* \"#utility.yul\":13086:13244   */\n      swap1\n      pop\n        /* \"#utility.yul\":12794:13251   */\n      swap3\n      swap2\n      pop\n      pop\n      jump\t// out\n        /* \"#utility.yul\":13257:13485   */\n    tag_154:\n        /* \"#utility.yul\":13397:13431   */\n      0x547765657420636f6e74656e74206d757374206265206c657373207468616e20\n        /* \"#utility.yul\":13393:13394   */\n      0x00\n        /* \"#utility.yul\":13385:13391   */\n      dup3\n        /* \"#utility.yul\":13381:13395   */\n      add\n        /* \"#utility.yul\":13374:13432   */\n      mstore\n        /* \"#utility.yul\":13466:13477   */\n      0x3235302062797465730000000000000000000000000000000000000000000000\n        /* \"#utility.yul\":13461:13463   */\n      0x20\n        /* \"#utility.yul\":13453:13459   */\n      dup3\n        /* \"#utility.yul\":13449:13464   */\n      add\n        /* \"#utility.yul\":13442:13478   */\n      mstore\n        /* \"#utility.yul\":13257:13485   */\n      pop\n      jump\t// out\n        /* \"#utility.yul\":13491:13857   */\n    tag_155:\n        /* \"#utility.yul\":13633:13636   */\n      0x00\n        /* \"#utility.yul\":13654:13721   */\n      tag_304\n        /* \"#utility.yul\":13718:13720   */\n      0x29\n        /* \"#utility.yul\":13713:13716   */\n      dup4\n        /* \"#utility.yul\":13654:13721   */\n      tag_139\n      jump\t// in\n    tag_304:\n        /* \"#utility.yul\":13647:13721   */\n      swap2\n      pop\n        /* \"#utility.yul\":13730:13823   */\n      tag_305\n        /* \"#utility.yul\":13819:13822   */\n      dup3\n        /* \"#utility.yul\":13730:13823   */\n      tag_154\n      jump\t// in\n    tag_305:\n        /* \"#utility.yul\":13848:13850   */\n      0x40\n        /* \"#utility.yul\":13843:13846   */\n      dup3\n        /* \"#utility.yul\":13839:13851   */\n      add\n        /* \"#utility.yul\":13832:13851   */\n      swap1\n      pop\n        /* \"#utility.yul\":13491:13857   */\n      swap2\n      swap1\n      pop\n      jump\t// out\n        /* \"#utility.yul\":13863:14282   */\n    tag_45:\n        /* \"#utility.yul\":14029:14033   */\n      0x00\n        /* \"#utility.yul\":14067:14069   */\n      0x20\n        /* \"#utility.yul\":14056:14065   */\n      dup3\n        /* \"#utility.yul\":14052:14070   */\n      add\n        /* \"#utility.yul\":14044:14070   */\n      swap1\n      pop\n        /* \"#utility.yul\":14116:14125   */\n      dup2\n        /* \"#utility.yul\":14110:14114   */\n      dup2\n        /* \"#utility.yul\":14106:14126   */\n      sub\n        /* \"#utility.yul\":14102:14103   */\n      0x00\n        /* \"#utility.yul\":14091:14100   */\n      dup4\n        /* \"#utility.yul\":14087:14104   */\n      add\n        /* \"#utility.yul\":14080:14127   */\n      mstore\n        /* \"#utility.yul\":14144:14275   */\n      tag_307\n        /* \"#utility.yul\":14270:14274   */\n      dup2\n        /* \"#utility.yul\":14144:14275   */\n      tag_155\n      jump\t// in\n    tag_307:\n        /* \"#utility.yul\":14136:14275   */\n      swap1\n      pop\n        /* \"#utility.yul\":13863:14282   */\n      swap2\n      swap1\n      pop\n      jump\t// out\n        /* \"#utility.yul\":14288:14468   */\n    tag_156:\n        /* \"#utility.yul\":14336:14413   */\n      0x4e487b7100000000000000000000000000000000000000000000000000000000\n        /* \"#utility.yul\":14333:14334   */\n      0x00\n        /* \"#utility.yul\":14326:14414   */\n      mstore\n        /* \"#utility.yul\":14433:14437   */\n      0x22\n        /* \"#utility.yul\":14430:14431   */\n      0x04\n        /* \"#utility.yul\":14423:14438   */\n      mstore\n        /* \"#utility.yul\":14457:14461   */\n      0x24\n        /* \"#utility.yul\":14454:14455   */\n      0x00\n        /* \"#utility.yul\":14447:14462   */\n      revert\n        /* \"#utility.yul\":14474:14794   */\n    tag_52:\n        /* \"#utility.yul\":14518:14524   */\n      0x00\n        /* \"#utility.yul\":14555:14556   */\n      0x02\n        /* \"#utility.yul\":14549:14553   */\n      dup3\n        /* \"#utility.yul\":14545:14557   */\n      div\n        /* \"#utility.yul\":14535:14557   */\n      swap1\n      pop\n        /* \"#utility.yul\":14602:14603   */\n      0x01\n        /* \"#utility.yul\":14596:14600   */\n      dup3\n        /* \"#utility.yul\":14592:14604   */\n      and\n        /* \"#utility.yul\":14623:14641   */\n      dup1\n        /* \"#utility.yul\":14613:14694   */\n      tag_310\n      jumpi\n        /* \"#utility.yul\":14679:14683   */\n      0x7f\n        /* \"#utility.yul\":14671:14677   */\n      dup3\n        /* \"#utility.yul\":14667:14684   */\n      and\n        /* \"#utility.yul\":14657:14684   */\n      swap2\n      pop\n        /* \"#utility.yul\":14613:14694   */\n    tag_310:\n        /* \"#utility.yul\":14741:14743   */\n      0x20\n        /* \"#utility.yul\":14733:14739   */\n      dup3\n        /* \"#utility.yul\":14730:14744   */\n      lt\n        /* \"#utility.yul\":14710:14728   */\n      dup2\n        /* \"#utility.yul\":14707:14745   */\n      sub\n        /* \"#utility.yul\":14704:14788   */\n      tag_311\n      jumpi\n        /* \"#utility.yul\":14760:14778   */\n      tag_312\n      tag_156\n      jump\t// in\n    tag_312:\n        /* \"#utility.yul\":14704:14788   */\n    tag_311:\n        /* \"#utility.yul\":14525:14794   */\n      pop\n        /* \"#utility.yul\":14474:14794   */\n      swap2\n      swap1\n      pop\n      jump\t// out\n        /* \"#utility.yul\":14800:14941   */\n    tag_157:\n        /* \"#utility.yul\":14849:14853   */\n      0x00\n        /* \"#utility.yul\":14872:14875   */\n      dup2\n        /* \"#utility.yul\":14864:14875   */\n      swap1\n      pop\n        /* \"#utility.yul\":14895:14898   */\n      dup2\n        /* \"#utility.yul\":14892:14893   */\n      0x00\n        /* \"#utility.yul\":14885:14899   */\n      mstore\n        /* \"#utility.yul\":14929:14933   */\n      0x20\n        /* \"#utility.yul\":14926:14927   */\n      0x00\n        /* \"#utility.yul\":14916:14934   */\n      keccak256\n        /* \"#utility.yul\":14908:14934   */\n      swap1\n      pop\n        /* \"#utility.yul\":14800:14941   */\n      swap2\n      swap1\n      pop\n      jump\t// out\n        /* \"#utility.yul\":14947:15040   */\n    tag_158:\n        /* \"#utility.yul\":14984:14990   */\n      0x00\n        /* \"#utility.yul\":15031:15033   */\n      0x20\n        /* \"#utility.yul\":15026:15028   */\n      0x1f\n        /* \"#utility.yul\":15019:15024   */\n      dup4\n        /* \"#utility.yul\":15015:15029   */\n      add\n        /* \"#utility.yul\":15011:15034   */\n      div\n        /* \"#utility.yul\":15001:15034   */\n      swap1\n      pop\n        /* \"#utility.yul\":14947:15040   */\n      swap2\n      swap1\n      pop\n      jump\t// out\n        /* \"#utility.yul\":15046:15153   */\n    tag_159:\n        /* \"#utility.yul\":15090:15098   */\n      0x00\n        /* \"#utility.yul\":15140:15145   */\n      dup3\n        /* \"#utility.yul\":15134:15138   */\n      dup3\n        /* \"#utility.yul\":15130:15146   */\n      shl\n        /* \"#utility.yul\":15109:15146   */\n      swap1\n      pop\n        /* \"#utility.yul\":15046:15153   */\n      swap3\n      swap2\n      pop\n      pop\n      jump\t// out\n        /* \"#utility.yul\":15159:15552   */\n    tag_160:\n        /* \"#utility.yul\":15228:15234   */\n      0x00\n        /* \"#utility.yul\":15278:15279   */\n      0x08\n        /* \"#utility.yul\":15266:15276   */\n      dup4\n        /* \"#utility.yul\":15262:15280   */\n      mul\n        /* \"#utility.yul\":15301:15398   */\n      tag_317\n        /* \"#utility.yul\":15331:15397   */\n      0xffffffffffffffffffffffffffffffffffffffffffffffffffffffffffffffff\n        /* \"#utility.yul\":15320:15329   */\n      dup3\n        /* \"#utility.yul\":15301:15398   */\n      tag_159\n      jump\t// in\n    tag_317:\n        /* \"#utility.yul\":15419:15458   */\n      tag_318\n        /* \"#utility.yul\":15449:15457   */\n      dup7\n        /* \"#utility.yul\":15438:15447   */\n      dup4\n        /* \"#utility.yul\":15419:15458   */\n      tag_159\n      jump\t// in\n    tag_318:\n        /* \"#utility.yul\":15407:15458   */\n      swap6\n      pop\n        /* \"#utility.yul\":15491:15495   */\n      dup1\n        /* \"#utility.yul\":15487:15496   */\n      not\n        /* \"#utility.yul\":15480:15485   */\n      dup5\n        /* \"#utility.yul\":15476:15497   */\n      and\n        /* \"#utility.yul\":15467:15497   */\n      swap4\n      pop\n        /* \"#utility.yul\":15540:15544   */\n      dup1\n        /* \"#utility.yul\":15530:15538   */\n      dup7\n        /* \"#utility.yul\":15526:15545   */\n      and\n        /* \"#utility.yul\":15519:15524   */\n      dup5\n        /* \"#utility.yul\":15516:15546   */\n      or\n        /* \"#utility.yul\":15506:15546   */\n      swap3\n      pop\n        /* \"#utility.yul\":15235:15552   */\n      pop\n      pop\n        /* \"#utility.yul\":15159:15552   */\n      swap4\n      swap3\n      pop\n      pop\n      pop\n      jump\t// out\n        /* \"#utility.yul\":15558:15618   */\n    tag_161:\n        /* \"#utility.yul\":15586:15589   */\n      0x00\n        /* \"#utility.yul\":15607:15612   */\n      dup2\n        /* \"#utility.yul\":15600:15612   */\n      swap1\n      pop\n        /* \"#utility.yul\":15558:15618   */\n      swap2\n      swap1\n      pop\n      jump\t// out\n        /* \"#utility.yul\":15624:15766   */\n    tag_162:\n        /* \"#utility.yul\":15674:15683   */\n      0x00\n        /* \"#utility.yul\":15707:15760   */\n      tag_321\n        /* \"#utility.yul\":15725:15759   */\n      tag_322\n        /* \"#utility.yul\":15734:15758   */\n      tag_323\n        /* \"#utility.yul\":15752:15757   */\n      dup5\n        /* \"#utility.yul\":15734:15758   */\n      tag_133\n      jump\t// in\n    tag_323:\n        /* \"#utility.yul\":15725:15759   */\n      tag_161\n      jump\t// in\n    tag_322:\n        /* \"#utility.yul\":15707:15760   */\n      tag_133\n      jump\t// in\n    tag_321:\n        /* \"#utility.yul\":15694:15760   */\n      swap1\n      pop\n        /* \"#utility.yul\":15624:15766   */\n      swap2\n      swap1\n      pop\n      jump\t// out\n        /* \"#utility.yul\":15772:15847   */\n    tag_163:\n        /* \"#utility.yul\":15815:15818   */\n      0x00\n        /* \"#utility.yul\":15836:15841   */\n      dup2\n        /* \"#utility.yul\":15829:15841   */\n      swap1\n      pop\n        /* \"#utility.yul\":15772:15847   */\n      swap2\n      swap1\n      pop\n      jump\t// out\n        /* \"#utility.yul\":15853:16122   */\n    tag_164:\n        /* \"#utility.yul\":15963:16002   */\n      tag_326\n        /* \"#utility.yul\":15994:16001   */\n      dup4\n        /* \"#utility.yul\":15963:16002   */\n      tag_162\n      jump\t// in\n    tag_326:\n        /* \"#utility.yul\":16024:16115   */\n      tag_327\n        /* \"#utility.yul\":16073:16114   */\n      tag_328\n        /* \"#utility.yul\":16097:16113   */\n      dup3\n        /* \"#utility.yul\":16073:16114   */\n      tag_163\n      jump\t// in\n    tag_328:\n        /* \"#utility.yul\":16065:16071   */\n      dup5\n        /* \"#utility.yul\":16058:16062   */\n      dup5\n        /* \"#utility.yul\":16052:16063   */\n      sload\n        /* \"#utility.yul\":16024:16115   */\n      tag_160\n      jump\t// in\n    tag_327:\n        /* \"#utility.yul\":16018:16022   */\n      dup3\n        /* \"#utility.yul\":16011:16116   */\n      sstore\n        /* \"#utility.yul\":15929:16122   */\n      pop\n        /* \"#utility.yul\":15853:16122   */\n      pop\n      pop\n      pop\n      jump\t// out\n        /* \"#utility.yul\":16128:16201   */\n    tag_165:\n        /* \"#utility.yul\":16173:16176   */\n      0x00\n        /* \"#utility.yul\":16128:16201   */\n      swap1\n      jump\t// out\n        /* \"#utility.yul\":16207:16396   */\n    tag_166:\n        /* \"#utility.yul\":16284:16316   */\n      tag_331\n      tag_165\n      jump\t// in\n    tag_331:\n        /* \"#utility.yul\":16325:16390   */\n      tag_332\n        /* \"#utility.yul\":16383:16389   */\n      dup2\n        /* \"#utility.yul\":16375:16381   */\n      dup5\n        /* \"#utility.yul\":16369:16373   */\n      dup5\n        /* \"#utility.yul\":16325:16390   */\n      tag_164\n      jump\t// in\n    tag_332:\n        /* \"#utility.yul\":16260:16396   */\n      pop\n        /* \"#utility.yul\":16207:16396   */\n      pop\n      pop\n      jump\t// out\n        /* \"#utility.yul\":16402:16588   */\n    tag_167:\n        /* \"#utility.yul\":16462:16582   */\n    tag_334:\n        /* \"#utility.yul\":16479:16482   */\n      dup2\n        /* \"#utility.yul\":16472:16477   */\n      dup2\n        /* \"#utility.yul\":16469:16483   */\n      lt\n        /* \"#utility.yul\":16462:16582   */\n      iszero\n      tag_336\n      jumpi\n        /* \"#utility.yul\":16533:16572   */\n      tag_337\n        /* \"#utility.yul\":16570:16571   */\n      0x00\n        /* \"#utility.yul\":16563:16568   */\n      dup3\n        /* \"#utility.yul\":16533:16572   */\n      tag_166\n      jump\t// in\n    tag_337:\n        /* \"#utility.yul\":16506:16507   */\n      0x01\n        /* \"#utility.yul\":16499:16504   */\n      dup2\n        /* \"#utility.yul\":16495:16508   */\n      add\n        /* \"#utility.yul\":16486:16508   */\n      swap1\n      pop\n        /* \"#utility.yul\":16462:16582   */\n      jump(tag_334)\n    tag_336:\n        /* \"#utility.yul\":16402:16588   */\n      pop\n      pop\n      jump\t// out\n        /* \"#utility.yul\":16594:17137   */\n    tag_168:\n        /* \"#utility.yul\":16695:16697   */\n      0x1f\n        /* \"#utility.yul\":16690:16693   */\n      dup3\n        /* \"#utility.yul\":16687:16698   */\n      gt\n        /* \"#utility.yul\":16684:17130   */\n      iszero\n      tag_339\n      jumpi\n        /* \"#utility.yul\":16729:16767   */\n      tag_340\n        /* \"#utility.yul\":16761:16766   */\n      dup2\n        /* \"#utility.yul\":16729:16767   */\n      tag_157\n      jump\t// in\n    tag_340:\n        /* \"#utility.yul\":16813:16842   */\n      tag_341\n        /* \"#utility.yul\":16831:16841   */\n      dup5\n        /* \"#utility.yul\":16813:16842   */\n      tag_158\n      jump\t// in\n    tag_341:\n        /* \"#utility.yul\":16803:16811   */\n      dup2\n        /* \"#utility.yul\":16799:16843   */\n      add\n        /* \"#utility.yul\":16996:16998   */\n      0x20\n        /* \"#utility.yul\":16984:16994   */\n      dup6\n        /* \"#utility.yul\":16981:16999   */\n      lt\n        /* \"#utility.yul\":16978:17027   */\n      iszero\n      tag_342\n      jumpi\n        /* \"#utility.yul\":17017:17025   */\n      dup2\n        /* \"#utility.yul\":17002:17025   */\n      swap1\n      pop\n        /* \"#utility.yul\":16978:17027   */\n    tag_342:\n        /* \"#utility.yul\":17040:17120   */\n      tag_343\n        /* \"#utility.yul\":17096:17118   */\n      tag_344\n        /* \"#utility.yul\":17114:17117   */\n      dup6\n        /* \"#utility.yul\":17096:17118   */\n      tag_158\n      jump\t// in\n    tag_344:\n        /* \"#utility.yul\":17086:17094   */\n      dup4\n        /* \"#utility.yul\":17082:17119   */\n      add\n        /* \"#utility.yul\":17069:17080   */\n      dup3\n        /* \"#utility.yul\":17040:17120   */\n      tag_167\n      jump\t// in\n    tag_343:\n        /* \"#utility.yul\":16699:17130   */\n      pop\n      pop\n        /* \"#utility.yul\":16684:17130   */\n    tag_339:\n        /* \"#utility.yul\":16594:17137   */\n      pop\n      pop\n      pop\n      jump\t// out\n        /* \"#utility.yul\":17143:17260   */\n    tag_169:\n        /* \"#utility.yul\":17197:17205   */\n      0x00\n        /* \"#utility.yul\":17247:17252   */\n      dup3\n        /* \"#utility.yul\":17241:17245   */\n      dup3\n        /* \"#utility.yul\":17237:17253   */\n      shr\n        /* \"#utility.yul\":17216:17253   */\n      swap1\n      pop\n        /* \"#utility.yul\":17143:17260   */\n      swap3\n      swap2\n      pop\n      pop\n      jump\t// out\n        /* \"#utility.yul\":17266:17435   */\n    tag_170:\n        /* \"#utility.yul\":17310:17316   */\n      0x00\n        /* \"#utility.yul\":17343:17394   */\n      tag_347\n        /* \"#utility.yul\":17391:17392   */\n      0x00\n        /* \"#utility.yul\":17387:17393   */\n      not\n        /* \"#utility.yul\":17379:17384   */\n      dup5\n        /* \"#utility.yul\":17376:17377   */\n      0x08\n        /* \"#utility.yul\":17372:17385   */\n      mul\n        /* \"#utility.yul\":17343:17394   */\n      tag_169\n      jump\t// in\n    tag_347:\n        /* \"#utility.yul\":17339:17395   */\n      not\n        /* \"#utility.yul\":17424:17428   */\n      dup1\n        /* \"#utility.yul\":17418:17422   */\n      dup4\n        /* \"#utility.yul\":17414:17429   */\n      and\n        /* \"#utility.yul\":17404:17429   */\n      swap2\n      pop\n        /* \"#utility.yul\":17317:17435   */\n      pop\n        /* \"#utility.yul\":17266:17435   */\n      swap3\n      swap2\n      pop\n      pop\n      jump\t// out\n        /* \"#utility.yul\":17440:17735   */\n    tag_171:\n        /* \"#utility.yul\":17516:17520   */\n      0x00\n        /* \"#utility.yul\":17662:17691   */\n      tag_349\n        /* \"#utility.yul\":17687:17690   */\n      dup4\n        /* \"#utility.yul\":17681:17685   */\n      dup4\n        /* \"#utility.yul\":17662:17691   */\n      tag_170\n      jump\t// in\n    tag_349:\n        /* \"#utility.yul\":17654:17691   */\n      swap2\n      pop\n        /* \"#utility.yul\":17724:17727   */\n      dup3\n        /* \"#utility.yul\":17721:17722   */\n      0x02\n        /* \"#utility.yul\":17717:17728   */\n      mul\n        /* \"#utility.yul\":17711:17715   */\n      dup3\n        /* \"#utility.yul\":17708:17729   */\n      or\n        /* \"#utility.yul\":17700:17729   */\n      swap1\n      pop\n        /* \"#utility.yul\":17440:17735   */\n      swap3\n      swap2\n      pop\n      pop\n      jump\t// out\n        /* \"#utility.yul\":17740:19135   */\n    tag_48:\n        /* \"#utility.yul\":17857:17894   */\n      tag_351\n        /* \"#utility.yul\":17890:17893   */\n      dup3\n        /* \"#utility.yul\":17857:17894   */\n      tag_138\n      jump\t// in\n    tag_351:\n        /* \"#utility.yul\":17959:17977   */\n      0xffffffffffffffff\n        /* \"#utility.yul\":17951:17957   */\n      dup2\n        /* \"#utility.yul\":17948:17978   */\n      gt\n        /* \"#utility.yul\":17945:18001   */\n      iszero\n      tag_352\n      jumpi\n        /* \"#utility.yul\":17981:17999   */\n      tag_353\n      tag_122\n      jump\t// in\n    tag_353:\n        /* \"#utility.yul\":17945:18001   */\n    tag_352:\n        /* \"#utility.yul\":18025:18063   */\n      tag_354\n        /* \"#utility.yul\":18057:18061   */\n      dup3\n        /* \"#utility.yul\":18051:18062   */\n      sload\n        /* \"#utility.yul\":18025:18063   */\n      tag_52\n      jump\t// in\n    tag_354:\n        /* \"#utility.yul\":18110:18177   */\n      tag_355\n        /* \"#utility.yul\":18170:18176   */\n      dup3\n        /* \"#utility.yul\":18162:18168   */\n      dup3\n        /* \"#utility.yul\":18156:18160   */\n      dup6\n        /* \"#utility.yul\":18110:18177   */\n      tag_168\n      jump\t// in\n    tag_355:\n        /* \"#utility.yul\":18204:18205   */\n      0x00\n        /* \"#utility.yul\":18228:18232   */\n      0x20\n        /* \"#utility.yul\":18215:18232   */\n      swap1\n      pop\n        /* \"#utility.yul\":18260:18262   */\n      0x1f\n        /* \"#utility.yul\":18252:18258   */\n      dup4\n        /* \"#utility.yul\":18249:18263   */\n      gt\n        /* \"#utility.yul\":18277:18278   */\n      0x01\n        /* \"#utility.yul\":18272:18890   */\n      dup2\n      eq\n      tag_357\n      jumpi\n        /* \"#utility.yul\":18934:18935   */\n      0x00\n        /* \"#utility.yul\":18951:18957   */\n      dup5\n        /* \"#utility.yul\":18948:19025   */\n      iszero\n      tag_358\n      jumpi\n        /* \"#utility.yul\":19000:19009   */\n      dup3\n        /* \"#utility.yul\":18995:18998   */\n      dup8\n        /* \"#utility.yul\":18991:19010   */\n      add\n        /* \"#utility.yul\":18985:19011   */\n      mload\n        /* \"#utility.yul\":18976:19011   */\n      swap1\n      pop\n        /* \"#utility.yul\":18948:19025   */\n    tag_358:\n        /* \"#utility.yul\":19051:19118   */\n      tag_359\n        /* \"#utility.yul\":19111:19117   */\n      dup6\n        /* \"#utility.yul\":19104:19109   */\n      dup3\n        /* \"#utility.yul\":19051:19118   */\n      tag_171\n      jump\t// in\n    tag_359:\n        /* \"#utility.yul\":19045:19049   */\n      dup7\n        /* \"#utility.yul\":19038:19119   */\n      sstore\n        /* \"#utility.yul\":18907:19129   */\n      pop\n        /* \"#utility.yul\":18242:19129   */\n      jump(tag_356)\n        /* \"#utility.yul\":18272:18890   */\n    tag_357:\n        /* \"#utility.yul\":18324:18328   */\n      0x1f\n        /* \"#utility.yul\":18320:18329   */\n      not\n        /* \"#utility.yul\":18312:18318   */\n      dup5\n        /* \"#utility.yul\":18308:18330   */\n      and\n        /* \"#utility.yul\":18358:18395   */\n      tag_360\n        /* \"#utility.yul\":18390:18394   */\n      dup7\n        /* \"#utility.yul\":18358:18395   */\n      tag_157\n      jump\t// in\n    tag_360:\n        /* \"#utility.yul\":18417:18418   */\n      0x00\n        /* \"#utility.yul\":18431:18639   */\n    tag_361:\n        /* \"#utility.yul\":18445:18452   */\n      dup3\n        /* \"#utility.yul\":18442:18443   */\n      dup2\n        /* \"#utility.yul\":18439:18453   */\n      lt\n        /* \"#utility.yul\":18431:18639   */\n      iszero\n      tag_363\n      jumpi\n        /* \"#utility.yul\":18524:18533   */\n      dup5\n        /* \"#utility.yul\":18519:18522   */\n      dup10\n        /* \"#utility.yul\":18515:18534   */\n      add\n        /* \"#utility.yul\":18509:18535   */\n      mload\n        /* \"#utility.yul\":18501:18507   */\n      dup3\n        /* \"#utility.yul\":18494:18536   */\n      sstore\n        /* \"#utility.yul\":18575:18576   */\n      0x01\n        /* \"#utility.yul\":18567:18573   */\n      dup3\n        /* \"#utility.yul\":18563:18577   */\n      add\n        /* \"#utility.yul\":18553:18577   */\n      swap2\n      pop\n        /* \"#utility.yul\":18622:18624   */\n      0x20\n        /* \"#utility.yul\":18611:18620   */\n      dup6\n        /* \"#utility.yul\":18607:18625   */\n      add\n        /* \"#utility.yul\":18594:18625   */\n      swap5\n      pop\n        /* \"#utility.yul\":18468:18472   */\n      0x20\n        /* \"#utility.yul\":18465:18466   */\n      dup2\n        /* \"#utility.yul\":18461:18473   */\n      add\n        /* \"#utility.yul\":18456:18473   */\n      swap1\n      pop\n        /* \"#utility.yul\":18431:18639   */\n      jump(tag_361)\n    tag_363:\n        /* \"#utility.yul\":18667:18673   */\n      dup7\n        /* \"#utility.yul\":18658:18665   */\n      dup4\n        /* \"#utility.yul\":18655:18674   */\n      lt\n        /* \"#utility.yul\":18652:18831   */\n      iszero\n      tag_364\n      jumpi\n        /* \"#utility.yul\":18725:18734   */\n      dup5\n        /* \"#utility.yul\":18720:18723   */\n      dup10\n        /* \"#utility.yul\":18716:18735   */\n      add\n        /* \"#utility.yul\":18710:18736   */\n      mload\n        /* \"#utility.yul\":18768:18816   */\n      tag_365\n        /* \"#utility.yul\":18810:18814   */\n      0x1f\n        /* \"#utility.yul\":18802:18808   */\n      dup10\n        /* \"#utility.yul\":18798:18815   */\n      and\n        /* \"#utility.yul\":18787:18796   */\n      dup3\n        /* \"#utility.yul\":18768:18816   */\n      tag_170\n      jump\t// in\n    tag_365:\n        /* \"#utility.yul\":18760:18766   */\n      dup4\n        /* \"#utility.yul\":18753:18817   */\n      sstore\n        /* \"#utility.yul\":18675:18831   */\n      pop\n        /* \"#utility.yul\":18652:18831   */\n    tag_364:\n        /* \"#utility.yul\":18877:18878   */\n      0x01\n        /* \"#utility.yul\":18873:18874   */\n      0x02\n        /* \"#utility.yul\":18865:18871   */\n      dup9\n        /* \"#utility.yul\":18861:18875   */\n      mul\n        /* \"#utility.yul\":18857:18879   */\n      add\n        /* \"#utility.yul\":18851:18855   */\n      dup9\n        /* \"#utility.yul\":18844:18880   */\n      sstore\n        /* \"#utility.yul\":18279:18890   */\n      pop\n      pop\n      pop\n        /* \"#utility.yul\":18242:19129   */\n    tag_356:\n      pop\n        /* \"#utility.yul\":17832:19135   */\n      pop\n      pop\n      pop\n        /* \"#utility.yul\":17740:19135   */\n      pop\n      pop\n      jump\t// out\n        /* \"#utility.yul\":19141:19321   */\n    tag_60:\n        /* \"#utility.yul\":19189:19266   */\n      0x4e487b7100000000000000000000000000000000000000000000000000000000\n        /* \"#utility.yul\":19186:19187   */\n      0x00\n        /* \"#utility.yul\":19179:19267   */\n      mstore\n        /* \"#utility.yul\":19286:19290   */\n      0x32\n        /* \"#utility.yul\":19283:19284   */\n      0x04\n        /* \"#utility.yul\":19276:19291   */\n      mstore\n        /* \"#utility.yul\":19310:19314   */\n      0x24\n        /* \"#utility.yul\":19307:19308   */\n      0x00\n        /* \"#utility.yul\":19300:19315   */\n      revert\n        /* \"#utility.yul\":19327:19497   */\n    tag_172:\n        /* \"#utility.yul\":19467:19489   */\n      0x547765657420646f6573206e6f74206578697374000000000000000000000000\n        /* \"#utility.yul\":19463:19464   */\n      0x00\n        /* \"#utility.yul\":19455:19461   */\n      dup3\n        /* \"#utility.yul\":19451:19465   */\n      add\n        /* \"#utility.yul\":19444:19490   */\n      mstore\n        /* \"#utility.yul\":19327:19497   */\n      pop\n      jump\t// out\n        /* \"#utility.yul\":19503:19869   */\n    tag_173:\n        /* \"#utility.yul\":19645:19648   */\n      0x00\n        /* \"#utility.yul\":19666:19733   */\n      tag_369\n        /* \"#utility.yul\":19730:19732   */\n      0x14\n        /* \"#utility.yul\":19725:19728   */\n      dup4\n        /* \"#utility.yul\":19666:19733   */\n      tag_139\n      jump\t// in\n    tag_369:\n        /* \"#utility.yul\":19659:19733   */\n      swap2\n      pop\n        /* \"#utility.yul\":19742:19835   */\n      tag_370\n        /* \"#utility.yul\":19831:19834   */\n      dup3\n        /* \"#utility.yul\":19742:19835   */\n      tag_172\n      jump\t// in\n    tag_370:\n        /* \"#utility.yul\":19860:19862   */\n      0x20\n        /* \"#utility.yul\":19855:19858   */\n      dup3\n        /* \"#utility.yul\":19851:19863   */\n      add\n        /* \"#utility.yul\":19844:19863   */\n      swap1\n      pop\n        /* \"#utility.yul\":19503:19869   */\n      swap2\n      swap1\n      pop\n      jump\t// out\n        /* \"#utility.yul\":19875:20294   */\n    tag_64:\n        /* \"#utility.yul\":20041:20045   */\n      0x00\n        /* \"#utility.yul\":20079:20081   */\n      0x20\n        /* \"#utility.yul\":20068:20077   */\n      dup3\n        /* \"#utility.yul\":20064:20082   */\n      add\n        /* \"#utility.yul\":20056:20082   */\n      swap1\n      pop\n        /* \"#utility.yul\":20128:20137   */\n      dup2\n        /* \"#utility.yul\":20122:20126   */\n      dup2\n        /* \"#utility.yul\":20118:20138   */\n      sub\n        /* \"#utility.yul\":20114:20115   */\n      0x00\n        /* \"#utility.yul\":20103:20112   */\n      dup4\n        /* \"#utility.yul\":20099:20116   */\n      add\n        /* \"#utility.yul\":20092:20139   */\n      mstore\n        /* \"#utility.yul\":20156:20287   */\n      tag_372\n        /* \"#utility.yul\":20282:20286   */\n      dup2\n        /* \"#utility.yul\":20156:20287   */\n      tag_173\n      jump\t// in\n    tag_372:\n        /* \"#utility.yul\":20148:20287   */\n      swap1\n      pop\n        /* \"#utility.yul\":19875:20294   */\n      swap2\n      swap1\n      pop\n      jump\t// out\n        /* \"#utility.yul\":20300:20475   */\n    tag_174:\n        /* \"#utility.yul\":20440:20467   */\n      0x536f72727920746861742773206e6f7420706f737369626c6500000000000000\n        /* \"#utility.yul\":20436:20437   */\n      0x00\n        /* \"#utility.yul\":20428:20434   */\n      dup3\n        /* \"#utility.yul\":20424:20438   */\n      add\n        /* \"#utility.yul\":20417:20468   */\n      mstore\n        /* \"#utility.yul\":20300:20475   */\n      pop\n      jump\t// out\n        /* \"#utility.yul\":20481:20847   */\n    tag_175:\n        /* \"#utility.yul\":20623:20626   */\n      0x00\n        /* \"#utility.yul\":20644:20711   */\n      tag_375\n        /* \"#utility.yul\":20708:20710   */\n      0x19\n        /* \"#utility.yul\":20703:20706   */\n      dup4\n        /* \"#utility.yul\":20644:20711   */\n      tag_139\n      jump\t// in\n    tag_375:\n        /* \"#utility.yul\":20637:20711   */\n      swap2\n      pop\n        /* \"#utility.yul\":20720:20813   */\n      tag_376\n        /* \"#utility.yul\":20809:20812   */\n      dup3\n        /* \"#utility.yul\":20720:20813   */\n      tag_174\n      jump\t// in\n    tag_376:\n        /* \"#utility.yul\":20838:20840   */\n      0x20\n        /* \"#utility.yul\":20833:20836   */\n      dup3\n        /* \"#utility.yul\":20829:20841   */\n      add\n        /* \"#utility.yul\":20822:20841   */\n      swap1\n      pop\n        /* \"#utility.yul\":20481:20847   */\n      swap2\n      swap1\n      pop\n      jump\t// out\n        /* \"#utility.yul\":20853:21272   */\n    tag_70:\n        /* \"#utility.yul\":21019:21023   */\n      0x00\n        /* \"#utility.yul\":21057:21059   */\n      0x20\n        /* \"#utility.yul\":21046:21055   */\n      dup3\n        /* \"#utility.yul\":21042:21060   */\n      add\n        /* \"#utility.yul\":21034:21060   */\n      swap1\n      pop\n        /* \"#utility.yul\":21106:21115   */\n      dup2\n        /* \"#utility.yul\":21100:21104   */\n      dup2\n        /* \"#utility.yul\":21096:21116   */\n      sub\n        /* \"#utility.yul\":21092:21093   */\n      0x00\n        /* \"#utility.yul\":21081:21090   */\n      dup4\n        /* \"#utility.yul\":21077:21094   */\n      add\n        /* \"#utility.yul\":21070:21117   */\n      mstore\n        /* \"#utility.yul\":21134:21265   */\n      tag_378\n        /* \"#utility.yul\":21260:21264   */\n      dup2\n        /* \"#utility.yul\":21134:21265   */\n      tag_175\n      jump\t// in\n    tag_378:\n        /* \"#utility.yul\":21126:21265   */\n      swap1\n      pop\n        /* \"#utility.yul\":20853:21272   */\n      swap2\n      swap1\n      pop\n      jump\t// out\n        /* \"#utility.yul\":21278:21458   */\n    tag_176:\n        /* \"#utility.yul\":21326:21403   */\n      0x4e487b7100000000000000000000000000000000000000000000000000000000\n        /* \"#utility.yul\":21323:21324   */\n      0x00\n        /* \"#utility.yul\":21316:21404   */\n      mstore\n        /* \"#utility.yul\":21423:21427   */\n      0x11\n        /* \"#utility.yul\":21420:21421   */\n      0x04\n        /* \"#utility.yul\":21413:21428   */\n      mstore\n        /* \"#utility.yul\":21447:21451   */\n      0x24\n        /* \"#utility.yul\":21444:21445   */\n      0x00\n        /* \"#utility.yul\":21437:21452   */\n      revert\n        /* \"#utility.yul\":21464:21635   */\n    tag_75:\n        /* \"#utility.yul\":21503:21506   */\n      0x00\n        /* \"#utility.yul\":21526:21550   */\n      tag_381\n        /* \"#utility.yul\":21544:21549   */\n      dup3\n        /* \"#utility.yul\":21526:21550   */\n      tag_133\n      jump\t// in\n    tag_381:\n        /* \"#utility.yul\":21517:21550   */\n      swap2\n      pop\n        /* \"#utility.yul\":21572:21576   */\n      0x00\n        /* \"#utility.yul\":21565:21570   */\n      dup3\n        /* \"#utility.yul\":21562:21577   */\n      sub\n        /* \"#utility.yul\":21559:21600   */\n      tag_382\n      jumpi\n        /* \"#utility.yul\":21580:21598   */\n      tag_383\n      tag_176\n      jump\t// in\n    tag_383:\n        /* \"#utility.yul\":21559:21600   */\n    tag_382:\n        /* \"#utility.yul\":21627:21628   */\n      0x01\n        /* \"#utility.yul\":21620:21625   */\n      dup3\n        /* \"#utility.yul\":21616:21629   */\n      sub\n        /* \"#utility.yul\":21609:21629   */\n      swap1\n      pop\n        /* \"#utility.yul\":21464:21635   */\n      swap2\n      swap1\n      pop\n      jump\t// out\n        /* \"#utility.yul\":21641:21874   */\n    tag_106:\n        /* \"#utility.yul\":21680:21683   */\n      0x00\n        /* \"#utility.yul\":21703:21727   */\n      tag_385\n        /* \"#utility.yul\":21721:21726   */\n      dup3\n        /* \"#utility.yul\":21703:21727   */\n      tag_133\n      jump\t// in\n    tag_385:\n        /* \"#utility.yul\":21694:21727   */\n      swap2\n      pop\n        /* \"#utility.yul\":21749:21815   */\n      0xffffffffffffffffffffffffffffffffffffffffffffffffffffffffffffffff\n        /* \"#utility.yul\":21742:21747   */\n      dup3\n        /* \"#utility.yul\":21739:21816   */\n      sub\n        /* \"#utility.yul\":21736:21839   */\n      tag_386\n      jumpi\n        /* \"#utility.yul\":21819:21837   */\n      tag_387\n      tag_176\n      jump\t// in\n    tag_387:\n        /* \"#utility.yul\":21736:21839   */\n    tag_386:\n        /* \"#utility.yul\":21866:21867   */\n      0x01\n        /* \"#utility.yul\":21859:21864   */\n      dup3\n        /* \"#utility.yul\":21855:21868   */\n      add\n        /* \"#utility.yul\":21848:21868   */\n      swap1\n      pop\n        /* \"#utility.yul\":21641:21874   */\n      swap2\n      swap1\n      pop\n      jump\t// out\n\n    auxdata: 0xa2646970667358221220a6307a1870050fd7f7f9f02add69d3a4f4036867e106ec83d661507721ac5a6d64736f6c634300081a0033\n}\n",
				"bytecode": {
					"linkReferences": {},
					"object": "6080604052348015600e575f80fd5b506116e78061001c5f395ff3fe608060405234801561000f575f80fd5b506004361061007b575f3560e01c806361cfc6c71161005957806361cfc6c7146100eb578063a2afce881461011b578063d04ddaa014610139578063fc86741f146101555761007b565b80630cbc3dc41461007f578063398f8a5d1461009b5780633d9b569f146100cf575b5f80fd5b61009960048036038101906100949190610d11565b610173565b005b6100b560048036038101906100b09190610de5565b61031c565b6040516100c6959493929190610ea1565b60405180910390f35b6100e960048036038101906100e49190610de5565b61040c565b005b61010560048036038101906101009190610ef9565b6105bf565b6040516101129190610ffd565b60405180910390f35b610123610735565b604051610130919061101d565b60405180910390f35b610153600480360381019061014e9190611036565b6108d7565b005b61015d6109eb565b60405161016a91906111a2565b60405180910390f35b60fa61ffff16815111156101bc576040517f08c379a00000000000000000000000000000000000000000000000000000000081526004016101b390611232565b60405180910390fd5b5f6040518060a001604052805f803373ffffffffffffffffffffffffffffffffffffffff1673ffffffffffffffffffffffffffffffffffffffff1681526020019081526020015f208054905081526020013373ffffffffffffffffffffffffffffffffffffffff1681526020018381526020014281526020015f81525090505f803373ffffffffffffffffffffffffffffffffffffffff1673ffffffffffffffffffffffffffffffffffffffff1681526020019081526020015f2081908060018154018082558091505060019003905f5260205f2090600502015f909190919091505f820151815f01556020820151816001015f6101000a81548173ffffffffffffffffffffffffffffffffffffffff021916908373ffffffffffffffffffffffffffffffffffffffff1602179055506040820151816002019081610301919061144a565b50606082015181600301556080820151816004015550505050565b5f602052815f5260405f208181548110610334575f80fd5b905f5260205f2090600502015f9150915050805f015490806001015f9054906101000a900473ffffffffffffffffffffffffffffffffffffffff169080600201805461037f9061127d565b80601f01602080910402602001604051908101604052809291908181526020018280546103ab9061127d565b80156103f65780601f106103cd576101008083540402835291602001916103f6565b820191905f5260205f20905b8154815290600101906020018083116103d957829003601f168201915b5050505050908060030154908060040154905085565b805f808473ffffffffffffffffffffffffffffffffffffffff1673ffffffffffffffffffffffffffffffffffffffff1681526020019081526020015f20828154811061045b5761045a611519565b5b905f5260205f2090600502015f0154146104aa576040517f08c379a00000000000000000000000000000000000000000000000000000000081526004016104a190611590565b60405180910390fd5b5f805f8473ffffffffffffffffffffffffffffffffffffffff1673ffffffffffffffffffffffffffffffffffffffff1681526020019081526020015f2082815481106104f9576104f8611519565b5b905f5260205f2090600502016004015411610549576040517f08c379a0000000000000000000000000000000000000000000000000000000008152600401610540906115f8565b60405180910390fd5b5f808373ffffffffffffffffffffffffffffffffffffffff1673ffffffffffffffffffffffffffffffffffffffff1681526020019081526020015f20818154811061059757610596611519565b5b905f5260205f2090600502016004015f8154809291906105b690611643565b91905055505050565b6105c7610b83565b5f803373ffffffffffffffffffffffffffffffffffffffff1673ffffffffffffffffffffffffffffffffffffffff1681526020019081526020015f20828154811061061557610614611519565b5b905f5260205f2090600502016040518060a00160405290815f8201548152602001600182015f9054906101000a900473ffffffffffffffffffffffffffffffffffffffff1673ffffffffffffffffffffffffffffffffffffffff1673ffffffffffffffffffffffffffffffffffffffff16815260200160028201805461069a9061127d565b80601f01602080910402602001604051908101604052809291908181526020018280546106c69061127d565b80156107115780601f106106e857610100808354040283529160200191610711565b820191905f5260205f20905b8154815290600101906020018083116106f457829003601f168201915b50505050508152602001600382015481526020016004820154815250509050919050565b5f805f803373ffffffffffffffffffffffffffffffffffffffff1673ffffffffffffffffffffffffffffffffffffffff1681526020019081526020015f20805480602002602001604051908101604052809291908181526020015f905b828210156108c4578382905f5260205f2090600502016040518060a00160405290815f8201548152602001600182015f9054906101000a900473ffffffffffffffffffffffffffffffffffffffff1673ffffffffffffffffffffffffffffffffffffffff1673ffffffffffffffffffffffffffffffffffffffff1681526020016002820180546108219061127d565b80601f016020809104026020016040519081016040528092919081815260200182805461084d9061127d565b80156108985780601f1061086f57610100808354040283529160200191610898565b820191905f5260205f20905b81548152906001019060200180831161087b57829003601f168201915b505050505081526020016003820154815260200160048201548152505081526020019060010190610792565b5050505090505f81519050809250505090565b815f808373ffffffffffffffffffffffffffffffffffffffff1673ffffffffffffffffffffffffffffffffffffffff1681526020019081526020015f20838154811061092657610925611519565b5b905f5260205f2090600502015f015414610975576040517f08c379a000000000000000000000000000000000000000000000000000000000815260040161096c90611590565b60405180910390fd5b5f808273ffffffffffffffffffffffffffffffffffffffff1673ffffffffffffffffffffffffffffffffffffffff1681526020019081526020015f2082815481106109c3576109c2611519565b5b905f5260205f2090600502016004015f8154809291906109e29061166a565b91905055505050565b60605f803373ffffffffffffffffffffffffffffffffffffffff1673ffffffffffffffffffffffffffffffffffffffff1681526020019081526020015f20805480602002602001604051908101604052809291908181526020015f905b82821015610b7a578382905f5260205f2090600502016040518060a00160405290815f8201548152602001600182015f9054906101000a900473ffffffffffffffffffffffffffffffffffffffff1673ffffffffffffffffffffffffffffffffffffffff1673ffffffffffffffffffffffffffffffffffffffff168152602001600282018054610ad79061127d565b80601f0160208091040260200160405190810160405280929190818152602001828054610b039061127d565b8015610b4e5780601f10610b2557610100808354040283529160200191610b4e565b820191905f5260205f20905b815481529060010190602001808311610b3157829003601f168201915b505050505081526020016003820154815260200160048201548152505081526020019060010190610a48565b50505050905090565b6040518060a001604052805f81526020015f73ffffffffffffffffffffffffffffffffffffffff168152602001606081526020015f81526020015f81525090565b5f604051905090565b5f80fd5b5f80fd5b5f80fd5b5f80fd5b5f601f19601f8301169050919050565b7f4e487b71000000000000000000000000000000000000000000000000000000005f52604160045260245ffd5b610c2382610bdd565b810181811067ffffffffffffffff82111715610c4257610c41610bed565b5b80604052505050565b5f610c54610bc4565b9050610c608282610c1a565b919050565b5f67ffffffffffffffff821115610c7f57610c7e610bed565b5b610c8882610bdd565b9050602081019050919050565b828183375f83830152505050565b5f610cb5610cb084610c65565b610c4b565b905082815260208101848484011115610cd157610cd0610bd9565b5b610cdc848285610c95565b509392505050565b5f82601f830112610cf857610cf7610bd5565b5b8135610d08848260208601610ca3565b91505092915050565b5f60208284031215610d2657610d25610bcd565b5b5f82013567ffffffffffffffff811115610d4357610d42610bd1565b5b610d4f84828501610ce4565b91505092915050565b5f73ffffffffffffffffffffffffffffffffffffffff82169050919050565b5f610d8182610d58565b9050919050565b610d9181610d77565b8114610d9b575f80fd5b50565b5f81359050610dac81610d88565b92915050565b5f819050919050565b610dc481610db2565b8114610dce575f80fd5b50565b5f81359050610ddf81610dbb565b92915050565b5f8060408385031215610dfb57610dfa610bcd565b5b5f610e0885828601610d9e565b9250506020610e1985828601610dd1565b9150509250929050565b610e2c81610db2565b82525050565b610e3b81610d77565b82525050565b5f81519050919050565b5f82825260208201905092915050565b8281835e5f83830152505050565b5f610e7382610e41565b610e7d8185610e4b565b9350610e8d818560208601610e5b565b610e9681610bdd565b840191505092915050565b5f60a082019050610eb45f830188610e23565b610ec16020830187610e32565b8181036040830152610ed38186610e69565b9050610ee26060830185610e23565b610eef6080830184610e23565b9695505050505050565b5f60208284031215610f0e57610f0d610bcd565b5b5f610f1b84828501610dd1565b91505092915050565b610f2d81610db2565b82525050565b610f3c81610d77565b82525050565b5f82825260208201905092915050565b5f610f5c82610e41565b610f668185610f42565b9350610f76818560208601610e5b565b610f7f81610bdd565b840191505092915050565b5f60a083015f830151610f9f5f860182610f24565b506020830151610fb26020860182610f33565b5060408301518482036040860152610fca8282610f52565b9150506060830151610fdf6060860182610f24565b506080830151610ff26080860182610f24565b508091505092915050565b5f6020820190508181035f8301526110158184610f8a565b905092915050565b5f6020820190506110305f830184610e23565b92915050565b5f806040838503121561104c5761104b610bcd565b5b5f61105985828601610dd1565b925050602061106a85828601610d9e565b9150509250929050565b5f81519050919050565b5f82825260208201905092915050565b5f819050602082019050919050565b5f60a083015f8301516110b25f860182610f24565b5060208301516110c56020860182610f33565b50604083015184820360408601526110dd8282610f52565b91505060608301516110f26060860182610f24565b5060808301516111056080860182610f24565b508091505092915050565b5f61111b838361109d565b905092915050565b5f602082019050919050565b5f61113982611074565b611143818561107e565b9350836020820285016111558561108e565b805f5b8581101561119057848403895281516111718582611110565b945061117c83611123565b925060208a01995050600181019050611158565b50829750879550505050505092915050565b5f6020820190508181035f8301526111ba818461112f565b905092915050565b7f547765657420636f6e74656e74206d757374206265206c657373207468616e205f8201527f3235302062797465730000000000000000000000000000000000000000000000602082015250565b5f61121c602983610e4b565b9150611227826111c2565b604082019050919050565b5f6020820190508181035f83015261124981611210565b9050919050565b7f4e487b71000000000000000000000000000000000000000000000000000000005f52602260045260245ffd5b5f600282049050600182168061129457607f821691505b6020821081036112a7576112a6611250565b5b50919050565b5f819050815f5260205f209050919050565b5f6020601f8301049050919050565b5f82821b905092915050565b5f600883026113097fffffffffffffffffffffffffffffffffffffffffffffffffffffffffffffffff826112ce565b61131386836112ce565b95508019841693508086168417925050509392505050565b5f819050919050565b5f61134e61134961134484610db2565b61132b565b610db2565b9050919050565b5f819050919050565b61136783611334565b61137b61137382611355565b8484546112da565b825550505050565b5f90565b61138f611383565b61139a81848461135e565b505050565b5b818110156113bd576113b25f82611387565b6001810190506113a0565b5050565b601f821115611402576113d3816112ad565b6113dc846112bf565b810160208510156113eb578190505b6113ff6113f7856112bf565b83018261139f565b50505b505050565b5f82821c905092915050565b5f6114225f1984600802611407565b1980831691505092915050565b5f61143a8383611413565b9150826002028217905092915050565b61145382610e41565b67ffffffffffffffff81111561146c5761146b610bed565b5b611476825461127d565b6114818282856113c1565b5f60209050601f8311600181146114b2575f84156114a0578287015190505b6114aa858261142f565b865550611511565b601f1984166114c0866112ad565b5f5b828110156114e7578489015182556001820191506020850194506020810190506114c2565b868310156115045784890151611500601f891682611413565b8355505b6001600288020188555050505b505050505050565b7f4e487b71000000000000000000000000000000000000000000000000000000005f52603260045260245ffd5b7f547765657420646f6573206e6f742065786973740000000000000000000000005f82015250565b5f61157a601483610e4b565b915061158582611546565b602082019050919050565b5f6020820190508181035f8301526115a78161156e565b9050919050565b7f536f72727920746861742773206e6f7420706f737369626c65000000000000005f82015250565b5f6115e2601983610e4b565b91506115ed826115ae565b602082019050919050565b5f6020820190508181035f83015261160f816115d6565b9050919050565b7f4e487b71000000000000000000000000000000000000000000000000000000005f52601160045260245ffd5b5f61164d82610db2565b91505f820361165f5761165e611616565b5b600182039050919050565b5f61167482610db2565b91507fffffffffffffffffffffffffffffffffffffffffffffffffffffffffffffffff82036116a6576116a5611616565b5b60018201905091905056fea2646970667358221220a6307a1870050fd7f7f9f02add69d3a4f4036867e106ec83d661507721ac5a6d64736f6c634300081a0033",
					"opcodes": "PUSH1 0x80 PUSH1 0x40 MSTORE CALLVALUE DUP1 ISZERO PUSH1 0xE JUMPI PUSH0 DUP1 REVERT JUMPDEST POP PUSH2 0x16E7 DUP1 PUSH2 0x1C PUSH0 CODECOPY PUSH0 RETURN INVALID PUSH1 0x80 PUSH1 0x40 MSTORE CALLVALUE DUP1 ISZERO PUSH2 0xF JUMPI PUSH0 DUP1 REVERT JUMPDEST POP PUSH1 0x4 CALLDATASIZE LT PUSH2 0x7B JUMPI PUSH0 CALLDATALOAD PUSH1 0xE0 SHR DUP1 PUSH4 0x61CFC6C7 GT PUSH2 0x59 JUMPI DUP1 PUSH4 0x61CFC6C7 EQ PUSH2 0xEB JUMPI DUP1 PUSH4 0xA2AFCE88 EQ PUSH2 0x11B JUMPI DUP1 PUSH4 0xD04DDAA0 EQ PUSH2 0x139 JUMPI DUP1 PUSH4 0xFC86741F EQ PUSH2 0x155 JUMPI PUSH2 0x7B JUMP JUMPDEST DUP1 PUSH4 0xCBC3DC4 EQ PUSH2 0x7F JUMPI DUP1 PUSH4 0x398F8A5D EQ PUSH2 0x9B JUMPI DUP1 PUSH4 0x3D9B569F EQ PUSH2 0xCF JUMPI JUMPDEST PUSH0 DUP1 REVERT JUMPDEST PUSH2 0x99 PUSH1 0x4 DUP1 CALLDATASIZE SUB DUP2 ADD SWAP1 PUSH2 0x94 SWAP2 SWAP1 PUSH2 0xD11 JUMP JUMPDEST PUSH2 0x173 JUMP JUMPDEST STOP JUMPDEST PUSH2 0xB5 PUSH1 0x4 DUP1 CALLDATASIZE SUB DUP2 ADD SWAP1 PUSH2 0xB0 SWAP2 SWAP1 PUSH2 0xDE5 JUMP JUMPDEST PUSH2 0x31C JUMP JUMPDEST PUSH1 0x40 MLOAD PUSH2 0xC6 SWAP6 SWAP5 SWAP4 SWAP3 SWAP2 SWAP1 PUSH2 0xEA1 JUMP JUMPDEST PUSH1 0x40 MLOAD DUP1 SWAP2 SUB SWAP1 RETURN JUMPDEST PUSH2 0xE9 PUSH1 0x4 DUP1 CALLDATASIZE SUB DUP2 ADD SWAP1 PUSH2 0xE4 SWAP2 SWAP1 PUSH2 0xDE5 JUMP JUMPDEST PUSH2 0x40C JUMP JUMPDEST STOP JUMPDEST PUSH2 0x105 PUSH1 0x4 DUP1 CALLDATASIZE SUB DUP2 ADD SWAP1 PUSH2 0x100 SWAP2 SWAP1 PUSH2 0xEF9 JUMP JUMPDEST PUSH2 0x5BF JUMP JUMPDEST PUSH1 0x40 MLOAD PUSH2 0x112 SWAP2 SWAP1 PUSH2 0xFFD JUMP JUMPDEST PUSH1 0x40 MLOAD DUP1 SWAP2 SUB SWAP1 RETURN JUMPDEST PUSH2 0x123 PUSH2 0x735 JUMP JUMPDEST PUSH1 0x40 MLOAD PUSH2 0x130 SWAP2 SWAP1 PUSH2 0x101D JUMP JUMPDEST PUSH1 0x40 MLOAD DUP1 SWAP2 SUB SWAP1 RETURN JUMPDEST PUSH2 0x153 PUSH1 0x4 DUP1 CALLDATASIZE SUB DUP2 ADD SWAP1 PUSH2 0x14E SWAP2 SWAP1 PUSH2 0x1036 JUMP JUMPDEST PUSH2 0x8D7 JUMP JUMPDEST STOP JUMPDEST PUSH2 0x15D PUSH2 0x9EB JUMP JUMPDEST PUSH1 0x40 MLOAD PUSH2 0x16A SWAP2 SWAP1 PUSH2 0x11A2 JUMP JUMPDEST PUSH1 0x40 MLOAD DUP1 SWAP2 SUB SWAP1 RETURN JUMPDEST PUSH1 0xFA PUSH2 0xFFFF AND DUP2 MLOAD GT ISZERO PUSH2 0x1BC JUMPI PUSH1 0x40 MLOAD PUSH32 0x8C379A000000000000000000000000000000000000000000000000000000000 DUP2 MSTORE PUSH1 0x4 ADD PUSH2 0x1B3 SWAP1 PUSH2 0x1232 JUMP JUMPDEST PUSH1 0x40 MLOAD DUP1 SWAP2 SUB SWAP1 REVERT JUMPDEST PUSH0 PUSH1 0x40 MLOAD DUP1 PUSH1 0xA0 ADD PUSH1 0x40 MSTORE DUP1 PUSH0 DUP1 CALLER PUSH20 0xFFFFFFFFFFFFFFFFFFFFFFFFFFFFFFFFFFFFFFFF AND PUSH20 0xFFFFFFFFFFFFFFFFFFFFFFFFFFFFFFFFFFFFFFFF AND DUP2 MSTORE PUSH1 0x20 ADD SWAP1 DUP2 MSTORE PUSH1 0x20 ADD PUSH0 KECCAK256 DUP1 SLOAD SWAP1 POP DUP2 MSTORE PUSH1 0x20 ADD CALLER PUSH20 0xFFFFFFFFFFFFFFFFFFFFFFFFFFFFFFFFFFFFFFFF AND DUP2 MSTORE PUSH1 0x20 ADD DUP4 DUP2 MSTORE PUSH1 0x20 ADD TIMESTAMP DUP2 MSTORE PUSH1 0x20 ADD PUSH0 DUP2 MSTORE POP SWAP1 POP PUSH0 DUP1 CALLER PUSH20 0xFFFFFFFFFFFFFFFFFFFFFFFFFFFFFFFFFFFFFFFF AND PUSH20 0xFFFFFFFFFFFFFFFFFFFFFFFFFFFFFFFFFFFFFFFF AND DUP2 MSTORE PUSH1 0x20 ADD SWAP1 DUP2 MSTORE PUSH1 0x20 ADD PUSH0 KECCAK256 DUP2 SWAP1 DUP1 PUSH1 0x1 DUP2 SLOAD ADD DUP1 DUP3 SSTORE DUP1 SWAP2 POP POP PUSH1 0x1 SWAP1 SUB SWAP1 PUSH0 MSTORE PUSH1 0x20 PUSH0 KECCAK256 SWAP1 PUSH1 0x5 MUL ADD PUSH0 SWAP1 SWAP2 SWAP1 SWAP2 SWAP1 SWAP2 POP PUSH0 DUP3 ADD MLOAD DUP2 PUSH0 ADD SSTORE PUSH1 0x20 DUP3 ADD MLOAD DUP2 PUSH1 0x1 ADD PUSH0 PUSH2 0x100 EXP DUP2 SLOAD DUP2 PUSH20 0xFFFFFFFFFFFFFFFFFFFFFFFFFFFFFFFFFFFFFFFF MUL NOT AND SWAP1 DUP4 PUSH20 0xFFFFFFFFFFFFFFFFFFFFFFFFFFFFFFFFFFFFFFFF AND MUL OR SWAP1 SSTORE POP PUSH1 0x40 DUP3 ADD MLOAD DUP2 PUSH1 0x2 ADD SWAP1 DUP2 PUSH2 0x301 SWAP2 SWAP1 PUSH2 0x144A JUMP JUMPDEST POP PUSH1 0x60 DUP3 ADD MLOAD DUP2 PUSH1 0x3 ADD SSTORE PUSH1 0x80 DUP3 ADD MLOAD DUP2 PUSH1 0x4 ADD SSTORE POP POP POP POP JUMP JUMPDEST PUSH0 PUSH1 0x20 MSTORE DUP2 PUSH0 MSTORE PUSH1 0x40 PUSH0 KECCAK256 DUP2 DUP2 SLOAD DUP2 LT PUSH2 0x334 JUMPI PUSH0 DUP1 REVERT JUMPDEST SWAP1 PUSH0 MSTORE PUSH1 0x20 PUSH0 KECCAK256 SWAP1 PUSH1 0x5 MUL ADD PUSH0 SWAP2 POP SWAP2 POP POP DUP1 PUSH0 ADD SLOAD SWAP1 DUP1 PUSH1 0x1 ADD PUSH0 SWAP1 SLOAD SWAP1 PUSH2 0x100 EXP SWAP1 DIV PUSH20 0xFFFFFFFFFFFFFFFFFFFFFFFFFFFFFFFFFFFFFFFF AND SWAP1 DUP1 PUSH1 0x2 ADD DUP1 SLOAD PUSH2 0x37F SWAP1 PUSH2 0x127D JUMP JUMPDEST DUP1 PUSH1 0x1F ADD PUSH1 0x20 DUP1 SWAP2 DIV MUL PUSH1 0x20 ADD PUSH1 0x40 MLOAD SWAP1 DUP2 ADD PUSH1 0x40 MSTORE DUP1 SWAP3 SWAP2 SWAP1 DUP2 DUP2 MSTORE PUSH1 0x20 ADD DUP3 DUP1 SLOAD PUSH2 0x3AB SWAP1 PUSH2 0x127D JUMP JUMPDEST DUP1 ISZERO PUSH2 0x3F6 JUMPI DUP1 PUSH1 0x1F LT PUSH2 0x3CD JUMPI PUSH2 0x100 DUP1 DUP4 SLOAD DIV MUL DUP4 MSTORE SWAP2 PUSH1 0x20 ADD SWAP2 PUSH2 0x3F6 JUMP JUMPDEST DUP3 ADD SWAP2 SWAP1 PUSH0 MSTORE PUSH1 0x20 PUSH0 KECCAK256 SWAP1 JUMPDEST DUP2 SLOAD DUP2 MSTORE SWAP1 PUSH1 0x1 ADD SWAP1 PUSH1 0x20 ADD DUP1 DUP4 GT PUSH2 0x3D9 JUMPI DUP3 SWAP1 SUB PUSH1 0x1F AND DUP3 ADD SWAP2 JUMPDEST POP POP POP POP POP SWAP1 DUP1 PUSH1 0x3 ADD SLOAD SWAP1 DUP1 PUSH1 0x4 ADD SLOAD SWAP1 POP DUP6 JUMP JUMPDEST DUP1 PUSH0 DUP1 DUP5 PUSH20 0xFFFFFFFFFFFFFFFFFFFFFFFFFFFFFFFFFFFFFFFF AND PUSH20 0xFFFFFFFFFFFFFFFFFFFFFFFFFFFFFFFFFFFFFFFF AND DUP2 MSTORE PUSH1 0x20 ADD SWAP1 DUP2 MSTORE PUSH1 0x20 ADD PUSH0 KECCAK256 DUP3 DUP2 SLOAD DUP2 LT PUSH2 0x45B JUMPI PUSH2 0x45A PUSH2 0x1519 JUMP JUMPDEST JUMPDEST SWAP1 PUSH0 MSTORE PUSH1 0x20 PUSH0 KECCAK256 SWAP1 PUSH1 0x5 MUL ADD PUSH0 ADD SLOAD EQ PUSH2 0x4AA JUMPI PUSH1 0x40 MLOAD PUSH32 0x8C379A000000000000000000000000000000000000000000000000000000000 DUP2 MSTORE PUSH1 0x4 ADD PUSH2 0x4A1 SWAP1 PUSH2 0x1590 JUMP JUMPDEST PUSH1 0x40 MLOAD DUP1 SWAP2 SUB SWAP1 REVERT JUMPDEST PUSH0 DUP1 PUSH0 DUP5 PUSH20 0xFFFFFFFFFFFFFFFFFFFFFFFFFFFFFFFFFFFFFFFF AND PUSH20 0xFFFFFFFFFFFFFFFFFFFFFFFFFFFFFFFFFFFFFFFF AND DUP2 MSTORE PUSH1 0x20 ADD SWAP1 DUP2 MSTORE PUSH1 0x20 ADD PUSH0 KECCAK256 DUP3 DUP2 SLOAD DUP2 LT PUSH2 0x4F9 JUMPI PUSH2 0x4F8 PUSH2 0x1519 JUMP JUMPDEST JUMPDEST SWAP1 PUSH0 MSTORE PUSH1 0x20 PUSH0 KECCAK256 SWAP1 PUSH1 0x5 MUL ADD PUSH1 0x4 ADD SLOAD GT PUSH2 0x549 JUMPI PUSH1 0x40 MLOAD PUSH32 0x8C379A000000000000000000000000000000000000000000000000000000000 DUP2 MSTORE PUSH1 0x4 ADD PUSH2 0x540 SWAP1 PUSH2 0x15F8 JUMP JUMPDEST PUSH1 0x40 MLOAD DUP1 SWAP2 SUB SWAP1 REVERT JUMPDEST PUSH0 DUP1 DUP4 PUSH20 0xFFFFFFFFFFFFFFFFFFFFFFFFFFFFFFFFFFFFFFFF AND PUSH20 0xFFFFFFFFFFFFFFFFFFFFFFFFFFFFFFFFFFFFFFFF AND DUP2 MSTORE PUSH1 0x20 ADD SWAP1 DUP2 MSTORE PUSH1 0x20 ADD PUSH0 KECCAK256 DUP2 DUP2 SLOAD DUP2 LT PUSH2 0x597 JUMPI PUSH2 0x596 PUSH2 0x1519 JUMP JUMPDEST JUMPDEST SWAP1 PUSH0 MSTORE PUSH1 0x20 PUSH0 KECCAK256 SWAP1 PUSH1 0x5 MUL ADD PUSH1 0x4 ADD PUSH0 DUP2 SLOAD DUP1 SWAP3 SWAP2 SWAP1 PUSH2 0x5B6 SWAP1 PUSH2 0x1643 JUMP JUMPDEST SWAP2 SWAP1 POP SSTORE POP POP POP JUMP JUMPDEST PUSH2 0x5C7 PUSH2 0xB83 JUMP JUMPDEST PUSH0 DUP1 CALLER PUSH20 0xFFFFFFFFFFFFFFFFFFFFFFFFFFFFFFFFFFFFFFFF AND PUSH20 0xFFFFFFFFFFFFFFFFFFFFFFFFFFFFFFFFFFFFFFFF AND DUP2 MSTORE PUSH1 0x20 ADD SWAP1 DUP2 MSTORE PUSH1 0x20 ADD PUSH0 KECCAK256 DUP3 DUP2 SLOAD DUP2 LT PUSH2 0x615 JUMPI PUSH2 0x614 PUSH2 0x1519 JUMP JUMPDEST JUMPDEST SWAP1 PUSH0 MSTORE PUSH1 0x20 PUSH0 KECCAK256 SWAP1 PUSH1 0x5 MUL ADD PUSH1 0x40 MLOAD DUP1 PUSH1 0xA0 ADD PUSH1 0x40 MSTORE SWAP1 DUP2 PUSH0 DUP3 ADD SLOAD DUP2 MSTORE PUSH1 0x20 ADD PUSH1 0x1 DUP3 ADD PUSH0 SWAP1 SLOAD SWAP1 PUSH2 0x100 EXP SWAP1 DIV PUSH20 0xFFFFFFFFFFFFFFFFFFFFFFFFFFFFFFFFFFFFFFFF AND PUSH20 0xFFFFFFFFFFFFFFFFFFFFFFFFFFFFFFFFFFFFFFFF AND PUSH20 0xFFFFFFFFFFFFFFFFFFFFFFFFFFFFFFFFFFFFFFFF AND DUP2 MSTORE PUSH1 0x20 ADD PUSH1 0x2 DUP3 ADD DUP1 SLOAD PUSH2 0x69A SWAP1 PUSH2 0x127D JUMP JUMPDEST DUP1 PUSH1 0x1F ADD PUSH1 0x20 DUP1 SWAP2 DIV MUL PUSH1 0x20 ADD PUSH1 0x40 MLOAD SWAP1 DUP2 ADD PUSH1 0x40 MSTORE DUP1 SWAP3 SWAP2 SWAP1 DUP2 DUP2 MSTORE PUSH1 0x20 ADD DUP3 DUP1 SLOAD PUSH2 0x6C6 SWAP1 PUSH2 0x127D JUMP JUMPDEST DUP1 ISZERO PUSH2 0x711 JUMPI DUP1 PUSH1 0x1F LT PUSH2 0x6E8 JUMPI PUSH2 0x100 DUP1 DUP4 SLOAD DIV MUL DUP4 MSTORE SWAP2 PUSH1 0x20 ADD SWAP2 PUSH2 0x711 JUMP JUMPDEST DUP3 ADD SWAP2 SWAP1 PUSH0 MSTORE PUSH1 0x20 PUSH0 KECCAK256 SWAP1 JUMPDEST DUP2 SLOAD DUP2 MSTORE SWAP1 PUSH1 0x1 ADD SWAP1 PUSH1 0x20 ADD DUP1 DUP4 GT PUSH2 0x6F4 JUMPI DUP3 SWAP1 SUB PUSH1 0x1F AND DUP3 ADD SWAP2 JUMPDEST POP POP POP POP POP DUP2 MSTORE PUSH1 0x20 ADD PUSH1 0x3 DUP3 ADD SLOAD DUP2 MSTORE PUSH1 0x20 ADD PUSH1 0x4 DUP3 ADD SLOAD DUP2 MSTORE POP POP SWAP1 POP SWAP2 SWAP1 POP JUMP JUMPDEST PUSH0 DUP1 PUSH0 DUP1 CALLER PUSH20 0xFFFFFFFFFFFFFFFFFFFFFFFFFFFFFFFFFFFFFFFF AND PUSH20 0xFFFFFFFFFFFFFFFFFFFFFFFFFFFFFFFFFFFFFFFF AND DUP2 MSTORE PUSH1 0x20 ADD SWAP1 DUP2 MSTORE PUSH1 0x20 ADD PUSH0 KECCAK256 DUP1 SLOAD DUP1 PUSH1 0x20 MUL PUSH1 0x20 ADD PUSH1 0x40 MLOAD SWAP1 DUP2 ADD PUSH1 0x40 MSTORE DUP1 SWAP3 SWAP2 SWAP1 DUP2 DUP2 MSTORE PUSH1 0x20 ADD PUSH0 SWAP1 JUMPDEST DUP3 DUP3 LT ISZERO PUSH2 0x8C4 JUMPI DUP4 DUP3 SWAP1 PUSH0 MSTORE PUSH1 0x20 PUSH0 KECCAK256 SWAP1 PUSH1 0x5 MUL ADD PUSH1 0x40 MLOAD DUP1 PUSH1 0xA0 ADD PUSH1 0x40 MSTORE SWAP1 DUP2 PUSH0 DUP3 ADD SLOAD DUP2 MSTORE PUSH1 0x20 ADD PUSH1 0x1 DUP3 ADD PUSH0 SWAP1 SLOAD SWAP1 PUSH2 0x100 EXP SWAP1 DIV PUSH20 0xFFFFFFFFFFFFFFFFFFFFFFFFFFFFFFFFFFFFFFFF AND PUSH20 0xFFFFFFFFFFFFFFFFFFFFFFFFFFFFFFFFFFFFFFFF AND PUSH20 0xFFFFFFFFFFFFFFFFFFFFFFFFFFFFFFFFFFFFFFFF AND DUP2 MSTORE PUSH1 0x20 ADD PUSH1 0x2 DUP3 ADD DUP1 SLOAD PUSH2 0x821 SWAP1 PUSH2 0x127D JUMP JUMPDEST DUP1 PUSH1 0x1F ADD PUSH1 0x20 DUP1 SWAP2 DIV MUL PUSH1 0x20 ADD PUSH1 0x40 MLOAD SWAP1 DUP2 ADD PUSH1 0x40 MSTORE DUP1 SWAP3 SWAP2 SWAP1 DUP2 DUP2 MSTORE PUSH1 0x20 ADD DUP3 DUP1 SLOAD PUSH2 0x84D SWAP1 PUSH2 0x127D JUMP JUMPDEST DUP1 ISZERO PUSH2 0x898 JUMPI DUP1 PUSH1 0x1F LT PUSH2 0x86F JUMPI PUSH2 0x100 DUP1 DUP4 SLOAD DIV MUL DUP4 MSTORE SWAP2 PUSH1 0x20 ADD SWAP2 PUSH2 0x898 JUMP JUMPDEST DUP3 ADD SWAP2 SWAP1 PUSH0 MSTORE PUSH1 0x20 PUSH0 KECCAK256 SWAP1 JUMPDEST DUP2 SLOAD DUP2 MSTORE SWAP1 PUSH1 0x1 ADD SWAP1 PUSH1 0x20 ADD DUP1 DUP4 GT PUSH2 0x87B JUMPI DUP3 SWAP1 SUB PUSH1 0x1F AND DUP3 ADD SWAP2 JUMPDEST POP POP POP POP POP DUP2 MSTORE PUSH1 0x20 ADD PUSH1 0x3 DUP3 ADD SLOAD DUP2 MSTORE PUSH1 0x20 ADD PUSH1 0x4 DUP3 ADD SLOAD DUP2 MSTORE POP POP DUP2 MSTORE PUSH1 0x20 ADD SWAP1 PUSH1 0x1 ADD SWAP1 PUSH2 0x792 JUMP JUMPDEST POP POP POP POP SWAP1 POP PUSH0 DUP2 MLOAD SWAP1 POP DUP1 SWAP3 POP POP POP SWAP1 JUMP JUMPDEST DUP2 PUSH0 DUP1 DUP4 PUSH20 0xFFFFFFFFFFFFFFFFFFFFFFFFFFFFFFFFFFFFFFFF AND PUSH20 0xFFFFFFFFFFFFFFFFFFFFFFFFFFFFFFFFFFFFFFFF AND DUP2 MSTORE PUSH1 0x20 ADD SWAP1 DUP2 MSTORE PUSH1 0x20 ADD PUSH0 KECCAK256 DUP4 DUP2 SLOAD DUP2 LT PUSH2 0x926 JUMPI PUSH2 0x925 PUSH2 0x1519 JUMP JUMPDEST JUMPDEST SWAP1 PUSH0 MSTORE PUSH1 0x20 PUSH0 KECCAK256 SWAP1 PUSH1 0x5 MUL ADD PUSH0 ADD SLOAD EQ PUSH2 0x975 JUMPI PUSH1 0x40 MLOAD PUSH32 0x8C379A000000000000000000000000000000000000000000000000000000000 DUP2 MSTORE PUSH1 0x4 ADD PUSH2 0x96C SWAP1 PUSH2 0x1590 JUMP JUMPDEST PUSH1 0x40 MLOAD DUP1 SWAP2 SUB SWAP1 REVERT JUMPDEST PUSH0 DUP1 DUP3 PUSH20 0xFFFFFFFFFFFFFFFFFFFFFFFFFFFFFFFFFFFFFFFF AND PUSH20 0xFFFFFFFFFFFFFFFFFFFFFFFFFFFFFFFFFFFFFFFF AND DUP2 MSTORE PUSH1 0x20 ADD SWAP1 DUP2 MSTORE PUSH1 0x20 ADD PUSH0 KECCAK256 DUP3 DUP2 SLOAD DUP2 LT PUSH2 0x9C3 JUMPI PUSH2 0x9C2 PUSH2 0x1519 JUMP JUMPDEST JUMPDEST SWAP1 PUSH0 MSTORE PUSH1 0x20 PUSH0 KECCAK256 SWAP1 PUSH1 0x5 MUL ADD PUSH1 0x4 ADD PUSH0 DUP2 SLOAD DUP1 SWAP3 SWAP2 SWAP1 PUSH2 0x9E2 SWAP1 PUSH2 0x166A JUMP JUMPDEST SWAP2 SWAP1 POP SSTORE POP POP POP JUMP JUMPDEST PUSH1 0x60 PUSH0 DUP1 CALLER PUSH20 0xFFFFFFFFFFFFFFFFFFFFFFFFFFFFFFFFFFFFFFFF AND PUSH20 0xFFFFFFFFFFFFFFFFFFFFFFFFFFFFFFFFFFFFFFFF AND DUP2 MSTORE PUSH1 0x20 ADD SWAP1 DUP2 MSTORE PUSH1 0x20 ADD PUSH0 KECCAK256 DUP1 SLOAD DUP1 PUSH1 0x20 MUL PUSH1 0x20 ADD PUSH1 0x40 MLOAD SWAP1 DUP2 ADD PUSH1 0x40 MSTORE DUP1 SWAP3 SWAP2 SWAP1 DUP2 DUP2 MSTORE PUSH1 0x20 ADD PUSH0 SWAP1 JUMPDEST DUP3 DUP3 LT ISZERO PUSH2 0xB7A JUMPI DUP4 DUP3 SWAP1 PUSH0 MSTORE PUSH1 0x20 PUSH0 KECCAK256 SWAP1 PUSH1 0x5 MUL ADD PUSH1 0x40 MLOAD DUP1 PUSH1 0xA0 ADD PUSH1 0x40 MSTORE SWAP1 DUP2 PUSH0 DUP3 ADD SLOAD DUP2 MSTORE PUSH1 0x20 ADD PUSH1 0x1 DUP3 ADD PUSH0 SWAP1 SLOAD SWAP1 PUSH2 0x100 EXP SWAP1 DIV PUSH20 0xFFFFFFFFFFFFFFFFFFFFFFFFFFFFFFFFFFFFFFFF AND PUSH20 0xFFFFFFFFFFFFFFFFFFFFFFFFFFFFFFFFFFFFFFFF AND PUSH20 0xFFFFFFFFFFFFFFFFFFFFFFFFFFFFFFFFFFFFFFFF AND DUP2 MSTORE PUSH1 0x20 ADD PUSH1 0x2 DUP3 ADD DUP1 SLOAD PUSH2 0xAD7 SWAP1 PUSH2 0x127D JUMP JUMPDEST DUP1 PUSH1 0x1F ADD PUSH1 0x20 DUP1 SWAP2 DIV MUL PUSH1 0x20 ADD PUSH1 0x40 MLOAD SWAP1 DUP2 ADD PUSH1 0x40 MSTORE DUP1 SWAP3 SWAP2 SWAP1 DUP2 DUP2 MSTORE PUSH1 0x20 ADD DUP3 DUP1 SLOAD PUSH2 0xB03 SWAP1 PUSH2 0x127D JUMP JUMPDEST DUP1 ISZERO PUSH2 0xB4E JUMPI DUP1 PUSH1 0x1F LT PUSH2 0xB25 JUMPI PUSH2 0x100 DUP1 DUP4 SLOAD DIV MUL DUP4 MSTORE SWAP2 PUSH1 0x20 ADD SWAP2 PUSH2 0xB4E JUMP JUMPDEST DUP3 ADD SWAP2 SWAP1 PUSH0 MSTORE PUSH1 0x20 PUSH0 KECCAK256 SWAP1 JUMPDEST DUP2 SLOAD DUP2 MSTORE SWAP1 PUSH1 0x1 ADD SWAP1 PUSH1 0x20 ADD DUP1 DUP4 GT PUSH2 0xB31 JUMPI DUP3 SWAP1 SUB PUSH1 0x1F AND DUP3 ADD SWAP2 JUMPDEST POP POP POP POP POP DUP2 MSTORE PUSH1 0x20 ADD PUSH1 0x3 DUP3 ADD SLOAD DUP2 MSTORE PUSH1 0x20 ADD PUSH1 0x4 DUP3 ADD SLOAD DUP2 MSTORE POP POP DUP2 MSTORE PUSH1 0x20 ADD SWAP1 PUSH1 0x1 ADD SWAP1 PUSH2 0xA48 JUMP JUMPDEST POP POP POP POP SWAP1 POP SWAP1 JUMP JUMPDEST PUSH1 0x40 MLOAD DUP1 PUSH1 0xA0 ADD PUSH1 0x40 MSTORE DUP1 PUSH0 DUP2 MSTORE PUSH1 0x20 ADD PUSH0 PUSH20 0xFFFFFFFFFFFFFFFFFFFFFFFFFFFFFFFFFFFFFFFF AND DUP2 MSTORE PUSH1 0x20 ADD PUSH1 0x60 DUP2 MSTORE PUSH1 0x20 ADD PUSH0 DUP2 MSTORE PUSH1 0x20 ADD PUSH0 DUP2 MSTORE POP SWAP1 JUMP JUMPDEST PUSH0 PUSH1 0x40 MLOAD SWAP1 POP SWAP1 JUMP JUMPDEST PUSH0 DUP1 REVERT JUMPDEST PUSH0 DUP1 REVERT JUMPDEST PUSH0 DUP1 REVERT JUMPDEST PUSH0 DUP1 REVERT JUMPDEST PUSH0 PUSH1 0x1F NOT PUSH1 0x1F DUP4 ADD AND SWAP1 POP SWAP2 SWAP1 POP JUMP JUMPDEST PUSH32 0x4E487B7100000000000000000000000000000000000000000000000000000000 PUSH0 MSTORE PUSH1 0x41 PUSH1 0x4 MSTORE PUSH1 0x24 PUSH0 REVERT JUMPDEST PUSH2 0xC23 DUP3 PUSH2 0xBDD JUMP JUMPDEST DUP2 ADD DUP2 DUP2 LT PUSH8 0xFFFFFFFFFFFFFFFF DUP3 GT OR ISZERO PUSH2 0xC42 JUMPI PUSH2 0xC41 PUSH2 0xBED JUMP JUMPDEST JUMPDEST DUP1 PUSH1 0x40 MSTORE POP POP POP JUMP JUMPDEST PUSH0 PUSH2 0xC54 PUSH2 0xBC4 JUMP JUMPDEST SWAP1 POP PUSH2 0xC60 DUP3 DUP3 PUSH2 0xC1A JUMP JUMPDEST SWAP2 SWAP1 POP JUMP JUMPDEST PUSH0 PUSH8 0xFFFFFFFFFFFFFFFF DUP3 GT ISZERO PUSH2 0xC7F JUMPI PUSH2 0xC7E PUSH2 0xBED JUMP JUMPDEST JUMPDEST PUSH2 0xC88 DUP3 PUSH2 0xBDD JUMP JUMPDEST SWAP1 POP PUSH1 0x20 DUP2 ADD SWAP1 POP SWAP2 SWAP1 POP JUMP JUMPDEST DUP3 DUP2 DUP4 CALLDATACOPY PUSH0 DUP4 DUP4 ADD MSTORE POP POP POP JUMP JUMPDEST PUSH0 PUSH2 0xCB5 PUSH2 0xCB0 DUP5 PUSH2 0xC65 JUMP JUMPDEST PUSH2 0xC4B JUMP JUMPDEST SWAP1 POP DUP3 DUP2 MSTORE PUSH1 0x20 DUP2 ADD DUP5 DUP5 DUP5 ADD GT ISZERO PUSH2 0xCD1 JUMPI PUSH2 0xCD0 PUSH2 0xBD9 JUMP JUMPDEST JUMPDEST PUSH2 0xCDC DUP5 DUP3 DUP6 PUSH2 0xC95 JUMP JUMPDEST POP SWAP4 SWAP3 POP POP POP JUMP JUMPDEST PUSH0 DUP3 PUSH1 0x1F DUP4 ADD SLT PUSH2 0xCF8 JUMPI PUSH2 0xCF7 PUSH2 0xBD5 JUMP JUMPDEST JUMPDEST DUP2 CALLDATALOAD PUSH2 0xD08 DUP5 DUP3 PUSH1 0x20 DUP7 ADD PUSH2 0xCA3 JUMP JUMPDEST SWAP2 POP POP SWAP3 SWAP2 POP POP JUMP JUMPDEST PUSH0 PUSH1 0x20 DUP3 DUP5 SUB SLT ISZERO PUSH2 0xD26 JUMPI PUSH2 0xD25 PUSH2 0xBCD JUMP JUMPDEST JUMPDEST PUSH0 DUP3 ADD CALLDATALOAD PUSH8 0xFFFFFFFFFFFFFFFF DUP2 GT ISZERO PUSH2 0xD43 JUMPI PUSH2 0xD42 PUSH2 0xBD1 JUMP JUMPDEST JUMPDEST PUSH2 0xD4F DUP5 DUP3 DUP6 ADD PUSH2 0xCE4 JUMP JUMPDEST SWAP2 POP POP SWAP3 SWAP2 POP POP JUMP JUMPDEST PUSH0 PUSH20 0xFFFFFFFFFFFFFFFFFFFFFFFFFFFFFFFFFFFFFFFF DUP3 AND SWAP1 POP SWAP2 SWAP1 POP JUMP JUMPDEST PUSH0 PUSH2 0xD81 DUP3 PUSH2 0xD58 JUMP JUMPDEST SWAP1 POP SWAP2 SWAP1 POP JUMP JUMPDEST PUSH2 0xD91 DUP2 PUSH2 0xD77 JUMP JUMPDEST DUP2 EQ PUSH2 0xD9B JUMPI PUSH0 DUP1 REVERT JUMPDEST POP JUMP JUMPDEST PUSH0 DUP2 CALLDATALOAD SWAP1 POP PUSH2 0xDAC DUP2 PUSH2 0xD88 JUMP JUMPDEST SWAP3 SWAP2 POP POP JUMP JUMPDEST PUSH0 DUP2 SWAP1 POP SWAP2 SWAP1 POP JUMP JUMPDEST PUSH2 0xDC4 DUP2 PUSH2 0xDB2 JUMP JUMPDEST DUP2 EQ PUSH2 0xDCE JUMPI PUSH0 DUP1 REVERT JUMPDEST POP JUMP JUMPDEST PUSH0 DUP2 CALLDATALOAD SWAP1 POP PUSH2 0xDDF DUP2 PUSH2 0xDBB JUMP JUMPDEST SWAP3 SWAP2 POP POP JUMP JUMPDEST PUSH0 DUP1 PUSH1 0x40 DUP4 DUP6 SUB SLT ISZERO PUSH2 0xDFB JUMPI PUSH2 0xDFA PUSH2 0xBCD JUMP JUMPDEST JUMPDEST PUSH0 PUSH2 0xE08 DUP6 DUP3 DUP7 ADD PUSH2 0xD9E JUMP JUMPDEST SWAP3 POP POP PUSH1 0x20 PUSH2 0xE19 DUP6 DUP3 DUP7 ADD PUSH2 0xDD1 JUMP JUMPDEST SWAP2 POP POP SWAP3 POP SWAP3 SWAP1 POP JUMP JUMPDEST PUSH2 0xE2C DUP2 PUSH2 0xDB2 JUMP JUMPDEST DUP3 MSTORE POP POP JUMP JUMPDEST PUSH2 0xE3B DUP2 PUSH2 0xD77 JUMP JUMPDEST DUP3 MSTORE POP POP JUMP JUMPDEST PUSH0 DUP2 MLOAD SWAP1 POP SWAP2 SWAP1 POP JUMP JUMPDEST PUSH0 DUP3 DUP3 MSTORE PUSH1 0x20 DUP3 ADD SWAP1 POP SWAP3 SWAP2 POP POP JUMP JUMPDEST DUP3 DUP2 DUP4 MCOPY PUSH0 DUP4 DUP4 ADD MSTORE POP POP POP JUMP JUMPDEST PUSH0 PUSH2 0xE73 DUP3 PUSH2 0xE41 JUMP JUMPDEST PUSH2 0xE7D DUP2 DUP6 PUSH2 0xE4B JUMP JUMPDEST SWAP4 POP PUSH2 0xE8D DUP2 DUP6 PUSH1 0x20 DUP7 ADD PUSH2 0xE5B JUMP JUMPDEST PUSH2 0xE96 DUP2 PUSH2 0xBDD JUMP JUMPDEST DUP5 ADD SWAP2 POP POP SWAP3 SWAP2 POP POP JUMP JUMPDEST PUSH0 PUSH1 0xA0 DUP3 ADD SWAP1 POP PUSH2 0xEB4 PUSH0 DUP4 ADD DUP9 PUSH2 0xE23 JUMP JUMPDEST PUSH2 0xEC1 PUSH1 0x20 DUP4 ADD DUP8 PUSH2 0xE32 JUMP JUMPDEST DUP2 DUP2 SUB PUSH1 0x40 DUP4 ADD MSTORE PUSH2 0xED3 DUP2 DUP7 PUSH2 0xE69 JUMP JUMPDEST SWAP1 POP PUSH2 0xEE2 PUSH1 0x60 DUP4 ADD DUP6 PUSH2 0xE23 JUMP JUMPDEST PUSH2 0xEEF PUSH1 0x80 DUP4 ADD DUP5 PUSH2 0xE23 JUMP JUMPDEST SWAP7 SWAP6 POP POP POP POP POP POP JUMP JUMPDEST PUSH0 PUSH1 0x20 DUP3 DUP5 SUB SLT ISZERO PUSH2 0xF0E JUMPI PUSH2 0xF0D PUSH2 0xBCD JUMP JUMPDEST JUMPDEST PUSH0 PUSH2 0xF1B DUP5 DUP3 DUP6 ADD PUSH2 0xDD1 JUMP JUMPDEST SWAP2 POP POP SWAP3 SWAP2 POP POP JUMP JUMPDEST PUSH2 0xF2D DUP2 PUSH2 0xDB2 JUMP JUMPDEST DUP3 MSTORE POP POP JUMP JUMPDEST PUSH2 0xF3C DUP2 PUSH2 0xD77 JUMP JUMPDEST DUP3 MSTORE POP POP JUMP JUMPDEST PUSH0 DUP3 DUP3 MSTORE PUSH1 0x20 DUP3 ADD SWAP1 POP SWAP3 SWAP2 POP POP JUMP JUMPDEST PUSH0 PUSH2 0xF5C DUP3 PUSH2 0xE41 JUMP JUMPDEST PUSH2 0xF66 DUP2 DUP6 PUSH2 0xF42 JUMP JUMPDEST SWAP4 POP PUSH2 0xF76 DUP2 DUP6 PUSH1 0x20 DUP7 ADD PUSH2 0xE5B JUMP JUMPDEST PUSH2 0xF7F DUP2 PUSH2 0xBDD JUMP JUMPDEST DUP5 ADD SWAP2 POP POP SWAP3 SWAP2 POP POP JUMP JUMPDEST PUSH0 PUSH1 0xA0 DUP4 ADD PUSH0 DUP4 ADD MLOAD PUSH2 0xF9F PUSH0 DUP7 ADD DUP3 PUSH2 0xF24 JUMP JUMPDEST POP PUSH1 0x20 DUP4 ADD MLOAD PUSH2 0xFB2 PUSH1 0x20 DUP7 ADD DUP3 PUSH2 0xF33 JUMP JUMPDEST POP PUSH1 0x40 DUP4 ADD MLOAD DUP5 DUP3 SUB PUSH1 0x40 DUP7 ADD MSTORE PUSH2 0xFCA DUP3 DUP3 PUSH2 0xF52 JUMP JUMPDEST SWAP2 POP POP PUSH1 0x60 DUP4 ADD MLOAD PUSH2 0xFDF PUSH1 0x60 DUP7 ADD DUP3 PUSH2 0xF24 JUMP JUMPDEST POP PUSH1 0x80 DUP4 ADD MLOAD PUSH2 0xFF2 PUSH1 0x80 DUP7 ADD DUP3 PUSH2 0xF24 JUMP JUMPDEST POP DUP1 SWAP2 POP POP SWAP3 SWAP2 POP POP JUMP JUMPDEST PUSH0 PUSH1 0x20 DUP3 ADD SWAP1 POP DUP2 DUP2 SUB PUSH0 DUP4 ADD MSTORE PUSH2 0x1015 DUP2 DUP5 PUSH2 0xF8A JUMP JUMPDEST SWAP1 POP SWAP3 SWAP2 POP POP JUMP JUMPDEST PUSH0 PUSH1 0x20 DUP3 ADD SWAP1 POP PUSH2 0x1030 PUSH0 DUP4 ADD DUP5 PUSH2 0xE23 JUMP JUMPDEST SWAP3 SWAP2 POP POP JUMP JUMPDEST PUSH0 DUP1 PUSH1 0x40 DUP4 DUP6 SUB SLT ISZERO PUSH2 0x104C JUMPI PUSH2 0x104B PUSH2 0xBCD JUMP JUMPDEST JUMPDEST PUSH0 PUSH2 0x1059 DUP6 DUP3 DUP7 ADD PUSH2 0xDD1 JUMP JUMPDEST SWAP3 POP POP PUSH1 0x20 PUSH2 0x106A DUP6 DUP3 DUP7 ADD PUSH2 0xD9E JUMP JUMPDEST SWAP2 POP POP SWAP3 POP SWAP3 SWAP1 POP JUMP JUMPDEST PUSH0 DUP2 MLOAD SWAP1 POP SWAP2 SWAP1 POP JUMP JUMPDEST PUSH0 DUP3 DUP3 MSTORE PUSH1 0x20 DUP3 ADD SWAP1 POP SWAP3 SWAP2 POP POP JUMP JUMPDEST PUSH0 DUP2 SWAP1 POP PUSH1 0x20 DUP3 ADD SWAP1 POP SWAP2 SWAP1 POP JUMP JUMPDEST PUSH0 PUSH1 0xA0 DUP4 ADD PUSH0 DUP4 ADD MLOAD PUSH2 0x10B2 PUSH0 DUP7 ADD DUP3 PUSH2 0xF24 JUMP JUMPDEST POP PUSH1 0x20 DUP4 ADD MLOAD PUSH2 0x10C5 PUSH1 0x20 DUP7 ADD DUP3 PUSH2 0xF33 JUMP JUMPDEST POP PUSH1 0x40 DUP4 ADD MLOAD DUP5 DUP3 SUB PUSH1 0x40 DUP7 ADD MSTORE PUSH2 0x10DD DUP3 DUP3 PUSH2 0xF52 JUMP JUMPDEST SWAP2 POP POP PUSH1 0x60 DUP4 ADD MLOAD PUSH2 0x10F2 PUSH1 0x60 DUP7 ADD DUP3 PUSH2 0xF24 JUMP JUMPDEST POP PUSH1 0x80 DUP4 ADD MLOAD PUSH2 0x1105 PUSH1 0x80 DUP7 ADD DUP3 PUSH2 0xF24 JUMP JUMPDEST POP DUP1 SWAP2 POP POP SWAP3 SWAP2 POP POP JUMP JUMPDEST PUSH0 PUSH2 0x111B DUP4 DUP4 PUSH2 0x109D JUMP JUMPDEST SWAP1 POP SWAP3 SWAP2 POP POP JUMP JUMPDEST PUSH0 PUSH1 0x20 DUP3 ADD SWAP1 POP SWAP2 SWAP1 POP JUMP JUMPDEST PUSH0 PUSH2 0x1139 DUP3 PUSH2 0x1074 JUMP JUMPDEST PUSH2 0x1143 DUP2 DUP6 PUSH2 0x107E JUMP JUMPDEST SWAP4 POP DUP4 PUSH1 0x20 DUP3 MUL DUP6 ADD PUSH2 0x1155 DUP6 PUSH2 0x108E JUMP JUMPDEST DUP1 PUSH0 JUMPDEST DUP6 DUP2 LT ISZERO PUSH2 0x1190 JUMPI DUP5 DUP5 SUB DUP10 MSTORE DUP2 MLOAD PUSH2 0x1171 DUP6 DUP3 PUSH2 0x1110 JUMP JUMPDEST SWAP5 POP PUSH2 0x117C DUP4 PUSH2 0x1123 JUMP JUMPDEST SWAP3 POP PUSH1 0x20 DUP11 ADD SWAP10 POP POP PUSH1 0x1 DUP2 ADD SWAP1 POP PUSH2 0x1158 JUMP JUMPDEST POP DUP3 SWAP8 POP DUP8 SWAP6 POP POP POP POP POP POP SWAP3 SWAP2 POP POP JUMP JUMPDEST PUSH0 PUSH1 0x20 DUP3 ADD SWAP1 POP DUP2 DUP2 SUB PUSH0 DUP4 ADD MSTORE PUSH2 0x11BA DUP2 DUP5 PUSH2 0x112F JUMP JUMPDEST SWAP1 POP SWAP3 SWAP2 POP POP JUMP JUMPDEST PUSH32 0x547765657420636F6E74656E74206D757374206265206C657373207468616E20 PUSH0 DUP3 ADD MSTORE PUSH32 0x3235302062797465730000000000000000000000000000000000000000000000 PUSH1 0x20 DUP3 ADD MSTORE POP JUMP JUMPDEST PUSH0 PUSH2 0x121C PUSH1 0x29 DUP4 PUSH2 0xE4B JUMP JUMPDEST SWAP2 POP PUSH2 0x1227 DUP3 PUSH2 0x11C2 JUMP JUMPDEST PUSH1 0x40 DUP3 ADD SWAP1 POP SWAP2 SWAP1 POP JUMP JUMPDEST PUSH0 PUSH1 0x20 DUP3 ADD SWAP1 POP DUP2 DUP2 SUB PUSH0 DUP4 ADD MSTORE PUSH2 0x1249 DUP2 PUSH2 0x1210 JUMP JUMPDEST SWAP1 POP SWAP2 SWAP1 POP JUMP JUMPDEST PUSH32 0x4E487B7100000000000000000000000000000000000000000000000000000000 PUSH0 MSTORE PUSH1 0x22 PUSH1 0x4 MSTORE PUSH1 0x24 PUSH0 REVERT JUMPDEST PUSH0 PUSH1 0x2 DUP3 DIV SWAP1 POP PUSH1 0x1 DUP3 AND DUP1 PUSH2 0x1294 JUMPI PUSH1 0x7F DUP3 AND SWAP2 POP JUMPDEST PUSH1 0x20 DUP3 LT DUP2 SUB PUSH2 0x12A7 JUMPI PUSH2 0x12A6 PUSH2 0x1250 JUMP JUMPDEST JUMPDEST POP SWAP2 SWAP1 POP JUMP JUMPDEST PUSH0 DUP2 SWAP1 POP DUP2 PUSH0 MSTORE PUSH1 0x20 PUSH0 KECCAK256 SWAP1 POP SWAP2 SWAP1 POP JUMP JUMPDEST PUSH0 PUSH1 0x20 PUSH1 0x1F DUP4 ADD DIV SWAP1 POP SWAP2 SWAP1 POP JUMP JUMPDEST PUSH0 DUP3 DUP3 SHL SWAP1 POP SWAP3 SWAP2 POP POP JUMP JUMPDEST PUSH0 PUSH1 0x8 DUP4 MUL PUSH2 0x1309 PUSH32 0xFFFFFFFFFFFFFFFFFFFFFFFFFFFFFFFFFFFFFFFFFFFFFFFFFFFFFFFFFFFFFFFF DUP3 PUSH2 0x12CE JUMP JUMPDEST PUSH2 0x1313 DUP7 DUP4 PUSH2 0x12CE JUMP JUMPDEST SWAP6 POP DUP1 NOT DUP5 AND SWAP4 POP DUP1 DUP7 AND DUP5 OR SWAP3 POP POP POP SWAP4 SWAP3 POP POP POP JUMP JUMPDEST PUSH0 DUP2 SWAP1 POP SWAP2 SWAP1 POP JUMP JUMPDEST PUSH0 PUSH2 0x134E PUSH2 0x1349 PUSH2 0x1344 DUP5 PUSH2 0xDB2 JUMP JUMPDEST PUSH2 0x132B JUMP JUMPDEST PUSH2 0xDB2 JUMP JUMPDEST SWAP1 POP SWAP2 SWAP1 POP JUMP JUMPDEST PUSH0 DUP2 SWAP1 POP SWAP2 SWAP1 POP JUMP JUMPDEST PUSH2 0x1367 DUP4 PUSH2 0x1334 JUMP JUMPDEST PUSH2 0x137B PUSH2 0x1373 DUP3 PUSH2 0x1355 JUMP JUMPDEST DUP5 DUP5 SLOAD PUSH2 0x12DA JUMP JUMPDEST DUP3 SSTORE POP POP POP POP JUMP JUMPDEST PUSH0 SWAP1 JUMP JUMPDEST PUSH2 0x138F PUSH2 0x1383 JUMP JUMPDEST PUSH2 0x139A DUP2 DUP5 DUP5 PUSH2 0x135E JUMP JUMPDEST POP POP POP JUMP JUMPDEST JUMPDEST DUP2 DUP2 LT ISZERO PUSH2 0x13BD JUMPI PUSH2 0x13B2 PUSH0 DUP3 PUSH2 0x1387 JUMP JUMPDEST PUSH1 0x1 DUP2 ADD SWAP1 POP PUSH2 0x13A0 JUMP JUMPDEST POP POP JUMP JUMPDEST PUSH1 0x1F DUP3 GT ISZERO PUSH2 0x1402 JUMPI PUSH2 0x13D3 DUP2 PUSH2 0x12AD JUMP JUMPDEST PUSH2 0x13DC DUP5 PUSH2 0x12BF JUMP JUMPDEST DUP2 ADD PUSH1 0x20 DUP6 LT ISZERO PUSH2 0x13EB JUMPI DUP2 SWAP1 POP JUMPDEST PUSH2 0x13FF PUSH2 0x13F7 DUP6 PUSH2 0x12BF JUMP JUMPDEST DUP4 ADD DUP3 PUSH2 0x139F JUMP JUMPDEST POP POP JUMPDEST POP POP POP JUMP JUMPDEST PUSH0 DUP3 DUP3 SHR SWAP1 POP SWAP3 SWAP2 POP POP JUMP JUMPDEST PUSH0 PUSH2 0x1422 PUSH0 NOT DUP5 PUSH1 0x8 MUL PUSH2 0x1407 JUMP JUMPDEST NOT DUP1 DUP4 AND SWAP2 POP POP SWAP3 SWAP2 POP POP JUMP JUMPDEST PUSH0 PUSH2 0x143A DUP4 DUP4 PUSH2 0x1413 JUMP JUMPDEST SWAP2 POP DUP3 PUSH1 0x2 MUL DUP3 OR SWAP1 POP SWAP3 SWAP2 POP POP JUMP JUMPDEST PUSH2 0x1453 DUP3 PUSH2 0xE41 JUMP JUMPDEST PUSH8 0xFFFFFFFFFFFFFFFF DUP2 GT ISZERO PUSH2 0x146C JUMPI PUSH2 0x146B PUSH2 0xBED JUMP JUMPDEST JUMPDEST PUSH2 0x1476 DUP3 SLOAD PUSH2 0x127D JUMP JUMPDEST PUSH2 0x1481 DUP3 DUP3 DUP6 PUSH2 0x13C1 JUMP JUMPDEST PUSH0 PUSH1 0x20 SWAP1 POP PUSH1 0x1F DUP4 GT PUSH1 0x1 DUP2 EQ PUSH2 0x14B2 JUMPI PUSH0 DUP5 ISZERO PUSH2 0x14A0 JUMPI DUP3 DUP8 ADD MLOAD SWAP1 POP JUMPDEST PUSH2 0x14AA DUP6 DUP3 PUSH2 0x142F JUMP JUMPDEST DUP7 SSTORE POP PUSH2 0x1511 JUMP JUMPDEST PUSH1 0x1F NOT DUP5 AND PUSH2 0x14C0 DUP7 PUSH2 0x12AD JUMP JUMPDEST PUSH0 JUMPDEST DUP3 DUP2 LT ISZERO PUSH2 0x14E7 JUMPI DUP5 DUP10 ADD MLOAD DUP3 SSTORE PUSH1 0x1 DUP3 ADD SWAP2 POP PUSH1 0x20 DUP6 ADD SWAP5 POP PUSH1 0x20 DUP2 ADD SWAP1 POP PUSH2 0x14C2 JUMP JUMPDEST DUP7 DUP4 LT ISZERO PUSH2 0x1504 JUMPI DUP5 DUP10 ADD MLOAD PUSH2 0x1500 PUSH1 0x1F DUP10 AND DUP3 PUSH2 0x1413 JUMP JUMPDEST DUP4 SSTORE POP JUMPDEST PUSH1 0x1 PUSH1 0x2 DUP9 MUL ADD DUP9 SSTORE POP POP POP JUMPDEST POP POP POP POP POP POP JUMP JUMPDEST PUSH32 0x4E487B7100000000000000000000000000000000000000000000000000000000 PUSH0 MSTORE PUSH1 0x32 PUSH1 0x4 MSTORE PUSH1 0x24 PUSH0 REVERT JUMPDEST PUSH32 0x547765657420646F6573206E6F74206578697374000000000000000000000000 PUSH0 DUP3 ADD MSTORE POP JUMP JUMPDEST PUSH0 PUSH2 0x157A PUSH1 0x14 DUP4 PUSH2 0xE4B JUMP JUMPDEST SWAP2 POP PUSH2 0x1585 DUP3 PUSH2 0x1546 JUMP JUMPDEST PUSH1 0x20 DUP3 ADD SWAP1 POP SWAP2 SWAP1 POP JUMP JUMPDEST PUSH0 PUSH1 0x20 DUP3 ADD SWAP1 POP DUP2 DUP2 SUB PUSH0 DUP4 ADD MSTORE PUSH2 0x15A7 DUP2 PUSH2 0x156E JUMP JUMPDEST SWAP1 POP SWAP2 SWAP1 POP JUMP JUMPDEST PUSH32 0x536F72727920746861742773206E6F7420706F737369626C6500000000000000 PUSH0 DUP3 ADD MSTORE POP JUMP JUMPDEST PUSH0 PUSH2 0x15E2 PUSH1 0x19 DUP4 PUSH2 0xE4B JUMP JUMPDEST SWAP2 POP PUSH2 0x15ED DUP3 PUSH2 0x15AE JUMP JUMPDEST PUSH1 0x20 DUP3 ADD SWAP1 POP SWAP2 SWAP1 POP JUMP JUMPDEST PUSH0 PUSH1 0x20 DUP3 ADD SWAP1 POP DUP2 DUP2 SUB PUSH0 DUP4 ADD MSTORE PUSH2 0x160F DUP2 PUSH2 0x15D6 JUMP JUMPDEST SWAP1 POP SWAP2 SWAP1 POP JUMP JUMPDEST PUSH32 0x4E487B7100000000000000000000000000000000000000000000000000000000 PUSH0 MSTORE PUSH1 0x11 PUSH1 0x4 MSTORE PUSH1 0x24 PUSH0 REVERT JUMPDEST PUSH0 PUSH2 0x164D DUP3 PUSH2 0xDB2 JUMP JUMPDEST SWAP2 POP PUSH0 DUP3 SUB PUSH2 0x165F JUMPI PUSH2 0x165E PUSH2 0x1616 JUMP JUMPDEST JUMPDEST PUSH1 0x1 DUP3 SUB SWAP1 POP SWAP2 SWAP1 POP JUMP JUMPDEST PUSH0 PUSH2 0x1674 DUP3 PUSH2 0xDB2 JUMP JUMPDEST SWAP2 POP PUSH32 0xFFFFFFFFFFFFFFFFFFFFFFFFFFFFFFFFFFFFFFFFFFFFFFFFFFFFFFFFFFFFFFFF DUP3 SUB PUSH2 0x16A6 JUMPI PUSH2 0x16A5 PUSH2 0x1616 JUMP JUMPDEST JUMPDEST PUSH1 0x1 DUP3 ADD SWAP1 POP SWAP2 SWAP1 POP JUMP INVALID LOG2 PUSH5 0x6970667358 0x22 SLT KECCAK256 0xA6 ADDRESS PUSH27 0x1870050FD7F7F9F02ADD69D3A4F4036867E106EC83D661507721AC GAS PUSH14 0x64736F6C634300081A0033000000 "
				},
				"gasEstimates": {
					"creation": {
						"codeDepositCost": "1172600",
						"executionCost": "1219",
						"totalCost": "1173819"
					},
					"external": {
						"getSingleTweet(uint256)": "infinite",
						"getTweetLength()": "infinite",
						"getTweets()": "infinite",
						"likeTweet(uint256,address)": "infinite",
						"postTweet(string)": "infinite",
						"tweetsByUser(address,uint256)": "infinite",
						"unlikeTweet(address,uint256)": "infinite"
					}
				},
				"methodIdentifiers": {
					"getSingleTweet(uint256)": "61cfc6c7",
					"getTweetLength()": "a2afce88",
					"getTweets()": "fc86741f",
					"likeTweet(uint256,address)": "d04ddaa0",
					"postTweet(string)": "0cbc3dc4",
					"tweetsByUser(address,uint256)": "398f8a5d",
					"unlikeTweet(address,uint256)": "3d9b569f"
				}
			},
			"storageLayout": {
				"storage": [
					{
						"astId": 21,
						"contract": "contracts/Twitter-Likes.sol:Twitter",
						"label": "tweetsByUser",
						"offset": 0,
						"slot": "0",
						"type": "t_mapping(t_address,t_array(t_struct(Tweet)15_storage)dyn_storage)"
					}
				],
				"types": {
					"t_address": {
						"encoding": "inplace",
						"label": "address",
						"numberOfBytes": "20"
					},
					"t_array(t_struct(Tweet)15_storage)dyn_storage": {
						"base": "t_struct(Tweet)15_storage",
						"encoding": "dynamic_array",
						"label": "struct Twitter.Tweet[]",
						"numberOfBytes": "32"
					},
					"t_mapping(t_address,t_array(t_struct(Tweet)15_storage)dyn_storage)": {
						"encoding": "mapping",
						"key": "t_address",
						"label": "mapping(address => struct Twitter.Tweet[])",
						"numberOfBytes": "32",
						"value": "t_array(t_struct(Tweet)15_storage)dyn_storage"
					},
					"t_string_storage": {
						"encoding": "bytes",
						"label": "string",
						"numberOfBytes": "32"
					},
					"t_struct(Tweet)15_storage": {
						"encoding": "inplace",
						"label": "struct Twitter.Tweet",
						"members": [
							{
								"astId": 6,
								"contract": "contracts/Twitter-Likes.sol:Twitter",
								"label": "id",
								"offset": 0,
								"slot": "0",
								"type": "t_uint256"
							},
							{
								"astId": 8,
								"contract": "contracts/Twitter-Likes.sol:Twitter",
								"label": "author",
								"offset": 0,
								"slot": "1",
								"type": "t_address"
							},
							{
								"astId": 10,
								"contract": "contracts/Twitter-Likes.sol:Twitter",
								"label": "content",
								"offset": 0,
								"slot": "2",
								"type": "t_string_storage"
							},
							{
								"astId": 12,
								"contract": "contracts/Twitter-Likes.sol:Twitter",
								"label": "timestamp",
								"offset": 0,
								"slot": "3",
								"type": "t_uint256"
							},
							{
								"astId": 14,
								"contract": "contracts/Twitter-Likes.sol:Twitter",
								"label": "likes",
								"offset": 0,
								"slot": "4",
								"type": "t_uint256"
							}
						],
						"numberOfBytes": "160"
					},
					"t_uint256": {
						"encoding": "inplace",
						"label": "uint256",
						"numberOfBytes": "32"
					}
				}
			},
			"userdoc": {
				"kind": "user",
				"methods": {},
				"version": 1
			}
		}
	}
}