{
	"contracts/Struct-Twitter.sol": {
		"Twitter": {
			"abi": [
				{
					"inputs": [
						{
							"internalType": "address",
							"name": "user",
							"type": "address"
						},
						{
							"internalType": "uint256",
							"name": "index",
							"type": "uint256"
						}
					],
					"name": "getSingleTweet",
					"outputs": [
						{
							"components": [
								{
									"internalType": "uint256",
									"name": "id",
									"type": "uint256"
								},
								{
									"internalType": "string",
									"name": "content",
									"type": "string"
								},
								{
									"internalType": "address",
									"name": "author",
									"type": "address"
								},
								{
									"internalType": "uint256",
									"name": "timestamp",
									"type": "uint256"
								}
							],
							"internalType": "struct Twitter.Tweet",
							"name": "",
							"type": "tuple"
						}
					],
					"stateMutability": "view",
					"type": "function"
				},
				{
					"inputs": [
						{
							"internalType": "address",
							"name": "user",
							"type": "address"
						}
					],
					"name": "getTweetLength",
					"outputs": [
						{
							"internalType": "uint256",
							"name": "",
							"type": "uint256"
						}
					],
					"stateMutability": "view",
					"type": "function"
				},
				{
					"inputs": [
						{
							"internalType": "address",
							"name": "user",
							"type": "address"
						}
					],
					"name": "getTweets",
					"outputs": [
						{
							"components": [
								{
									"internalType": "uint256",
									"name": "id",
									"type": "uint256"
								},
								{
									"internalType": "string",
									"name": "content",
									"type": "string"
								},
								{
									"internalType": "address",
									"name": "author",
									"type": "address"
								},
								{
									"internalType": "uint256",
									"name": "timestamp",
									"type": "uint256"
								}
							],
							"internalType": "struct Twitter.Tweet[]",
							"name": "",
							"type": "tuple[]"
						}
					],
					"stateMutability": "view",
					"type": "function"
				},
				{
					"inputs": [
						{
							"internalType": "uint256",
							"name": "_id",
							"type": "uint256"
						},
						{
							"internalType": "string",
							"name": "_content",
							"type": "string"
						}
					],
					"name": "postTweet",
					"outputs": [],
					"stateMutability": "nonpayable",
					"type": "function"
				},
				{
					"inputs": [
						{
							"internalType": "address",
							"name": "",
							"type": "address"
						},
						{
							"internalType": "uint256",
							"name": "",
							"type": "uint256"
						}
					],
					"name": "tweetsByUser",
					"outputs": [
						{
							"internalType": "uint256",
							"name": "id",
							"type": "uint256"
						},
						{
							"internalType": "string",
							"name": "content",
							"type": "string"
						},
						{
							"internalType": "address",
							"name": "author",
							"type": "address"
						},
						{
							"internalType": "uint256",
							"name": "timestamp",
							"type": "uint256"
						}
					],
					"stateMutability": "view",
					"type": "function"
				}
			],
			"devdoc": {
				"kind": "dev",
				"methods": {},
				"version": 1
			},
			"evm": {
				"assembly": "    /* \"contracts/Struct-Twitter.sol\":57:996  contract Twitter {... */\n  mstore(0x40, 0x80)\n  callvalue\n  dup1\n  iszero\n  tag_1\n  jumpi\n  0x00\n  dup1\n  revert\ntag_1:\n  pop\n  dataSize(sub_0)\n  dup1\n  dataOffset(sub_0)\n  0x00\n  codecopy\n  0x00\n  return\nstop\n\nsub_0: assembly {\n        /* \"contracts/Struct-Twitter.sol\":57:996  contract Twitter {... */\n      mstore(0x40, 0x80)\n      callvalue\n      dup1\n      iszero\n      tag_1\n      jumpi\n      0x00\n      dup1\n      revert\n    tag_1:\n      pop\n      jumpi(tag_2, lt(calldatasize, 0x04))\n      shr(0xe0, calldataload(0x00))\n      dup1\n      0x398f8a5d\n      eq\n      tag_3\n      jumpi\n      dup1\n      0x56df6339\n      eq\n      tag_4\n      jumpi\n      dup1\n      0x89883310\n      eq\n      tag_5\n      jumpi\n      dup1\n      0x959052a7\n      eq\n      tag_6\n      jumpi\n      dup1\n      0x9e92b093\n      eq\n      tag_7\n      jumpi\n    tag_2:\n      0x00\n      dup1\n      revert\n        /* \"contracts/Struct-Twitter.sol\":201:248  mapping(address => Tweet[]) public tweetsByUser */\n    tag_3:\n      tag_8\n      0x04\n      dup1\n      calldatasize\n      sub\n      dup2\n      add\n      swap1\n      tag_9\n      swap2\n      swap1\n      tag_10\n      jump\t// in\n    tag_9:\n      tag_11\n      jump\t// in\n    tag_8:\n      mload(0x40)\n      tag_12\n      swap5\n      swap4\n      swap3\n      swap2\n      swap1\n      tag_13\n      jump\t// in\n    tag_12:\n      mload(0x40)\n      dup1\n      swap2\n      sub\n      swap1\n      return\n        /* \"contracts/Struct-Twitter.sol\":639:798  function getSingleTweet(... */\n    tag_4:\n      tag_14\n      0x04\n      dup1\n      calldatasize\n      sub\n      dup2\n      add\n      swap1\n      tag_15\n      swap2\n      swap1\n      tag_10\n      jump\t// in\n    tag_15:\n      tag_16\n      jump\t// in\n    tag_14:\n      mload(0x40)\n      tag_17\n      swap2\n      swap1\n      tag_18\n      jump\t// in\n    tag_17:\n      mload(0x40)\n      dup1\n      swap2\n      sub\n      swap1\n      return\n        /* \"contracts/Struct-Twitter.sol\":255:515  function postTweet(uint256 _id, string memory _content) public {... */\n    tag_5:\n      tag_19\n      0x04\n      dup1\n      calldatasize\n      sub\n      dup2\n      add\n      swap1\n      tag_20\n      swap2\n      swap1\n      tag_21\n      jump\t// in\n    tag_20:\n      tag_22\n      jump\t// in\n    tag_19:\n      stop\n        /* \"contracts/Struct-Twitter.sol\":804:994  function getTweetLength(address user) public view returns (uint256) {... */\n    tag_6:\n      tag_23\n      0x04\n      dup1\n      calldatasize\n      sub\n      dup2\n      add\n      swap1\n      tag_24\n      swap2\n      swap1\n      tag_25\n      jump\t// in\n    tag_24:\n      tag_26\n      jump\t// in\n    tag_23:\n      mload(0x40)\n      tag_27\n      swap2\n      swap1\n      tag_28\n      jump\t// in\n    tag_27:\n      mload(0x40)\n      dup1\n      swap2\n      sub\n      swap1\n      return\n        /* \"contracts/Struct-Twitter.sol\":521:633  function getTweets(address user) public view returns (Tweet[] memory) {... */\n    tag_7:\n      tag_29\n      0x04\n      dup1\n      calldatasize\n      sub\n      dup2\n      add\n      swap1\n      tag_30\n      swap2\n      swap1\n      tag_25\n      jump\t// in\n    tag_30:\n      tag_31\n      jump\t// in\n    tag_29:\n      mload(0x40)\n      tag_32\n      swap2\n      swap1\n      tag_33\n      jump\t// in\n    tag_32:\n      mload(0x40)\n      dup1\n      swap2\n      sub\n      swap1\n      return\n        /* \"contracts/Struct-Twitter.sol\":201:248  mapping(address => Tweet[]) public tweetsByUser */\n    tag_11:\n      mstore(0x20, 0x00)\n      dup2\n      0x00\n      mstore\n      keccak256(0x00, 0x40)\n      dup2\n      dup2\n      sload\n      dup2\n      lt\n      tag_34\n      jumpi\n      0x00\n      dup1\n      revert\n    tag_34:\n      swap1\n      0x00\n      mstore\n      keccak256(0x00, 0x20)\n      swap1\n      0x04\n      mul\n      add\n      0x00\n      swap2\n      pop\n      swap2\n      pop\n      pop\n      dup1\n      0x00\n      add\n      sload\n      swap1\n      dup1\n      0x01\n      add\n      dup1\n      sload\n      tag_36\n      swap1\n      tag_37\n      jump\t// in\n    tag_36:\n      dup1\n      0x1f\n      add\n      0x20\n      dup1\n      swap2\n      div\n      mul\n      0x20\n      add\n      mload(0x40)\n      swap1\n      dup2\n      add\n      0x40\n      mstore\n      dup1\n      swap3\n      swap2\n      swap1\n      dup2\n      dup2\n      mstore\n      0x20\n      add\n      dup3\n      dup1\n      sload\n      tag_38\n      swap1\n      tag_37\n      jump\t// in\n    tag_38:\n      dup1\n      iszero\n      tag_39\n      jumpi\n      dup1\n      0x1f\n      lt\n      tag_40\n      jumpi\n      0x0100\n      dup1\n      dup4\n      sload\n      div\n      mul\n      dup4\n      mstore\n      swap2\n      0x20\n      add\n      swap2\n      jump(tag_39)\n    tag_40:\n      dup3\n      add\n      swap2\n      swap1\n      0x00\n      mstore\n      keccak256(0x00, 0x20)\n      swap1\n    tag_41:\n      dup2\n      sload\n      dup2\n      mstore\n      swap1\n      0x01\n      add\n      swap1\n      0x20\n      add\n      dup1\n      dup4\n      gt\n      tag_41\n      jumpi\n      dup3\n      swap1\n      sub\n      0x1f\n      and\n      dup3\n      add\n      swap2\n    tag_39:\n      pop\n      pop\n      pop\n      pop\n      pop\n      swap1\n      dup1\n      0x02\n      add\n      0x00\n      swap1\n      sload\n      swap1\n      0x0100\n      exp\n      swap1\n      div\n      0xffffffffffffffffffffffffffffffffffffffff\n      and\n      swap1\n      dup1\n      0x03\n      add\n      sload\n      swap1\n      pop\n      dup5\n      jump\t// out\n        /* \"contracts/Struct-Twitter.sol\":639:798  function getSingleTweet(... */\n    tag_16:\n        /* \"contracts/Struct-Twitter.sol\":735:747  Tweet memory */\n      tag_42\n      tag_43\n      jump\t// in\n    tag_42:\n        /* \"contracts/Struct-Twitter.sol\":766:778  tweetsByUser */\n      0x00\n        /* \"contracts/Struct-Twitter.sol\":766:784  tweetsByUser[user] */\n      dup1\n        /* \"contracts/Struct-Twitter.sol\":779:783  user */\n      dup5\n        /* \"contracts/Struct-Twitter.sol\":766:784  tweetsByUser[user] */\n      0xffffffffffffffffffffffffffffffffffffffff\n      and\n      0xffffffffffffffffffffffffffffffffffffffff\n      and\n      dup2\n      mstore\n      0x20\n      add\n      swap1\n      dup2\n      mstore\n      0x20\n      add\n      0x00\n      keccak256\n        /* \"contracts/Struct-Twitter.sol\":785:790  index */\n      dup3\n        /* \"contracts/Struct-Twitter.sol\":766:791  tweetsByUser[user][index] */\n      dup2\n      sload\n      dup2\n      lt\n      tag_45\n      jumpi\n      tag_46\n      tag_47\n      jump\t// in\n    tag_46:\n    tag_45:\n      swap1\n      0x00\n      mstore\n      keccak256(0x00, 0x20)\n      swap1\n      0x04\n      mul\n      add\n        /* \"contracts/Struct-Twitter.sol\":759:791  return tweetsByUser[user][index] */\n      mload(0x40)\n      dup1\n      0x80\n      add\n      0x40\n      mstore\n      swap1\n      dup2\n      0x00\n      dup3\n      add\n      sload\n      dup2\n      mstore\n      0x20\n      add\n      0x01\n      dup3\n      add\n      dup1\n      sload\n      tag_49\n      swap1\n      tag_37\n      jump\t// in\n    tag_49:\n      dup1\n      0x1f\n      add\n      0x20\n      dup1\n      swap2\n      div\n      mul\n      0x20\n      add\n      mload(0x40)\n      swap1\n      dup2\n      add\n      0x40\n      mstore\n      dup1\n      swap3\n      swap2\n      swap1\n      dup2\n      dup2\n      mstore\n      0x20\n      add\n      dup3\n      dup1\n      sload\n      tag_50\n      swap1\n      tag_37\n      jump\t// in\n    tag_50:\n      dup1\n      iszero\n      tag_51\n      jumpi\n      dup1\n      0x1f\n      lt\n      tag_52\n      jumpi\n      0x0100\n      dup1\n      dup4\n      sload\n      div\n      mul\n      dup4\n      mstore\n      swap2\n      0x20\n      add\n      swap2\n      jump(tag_51)\n    tag_52:\n      dup3\n      add\n      swap2\n      swap1\n      0x00\n      mstore\n      keccak256(0x00, 0x20)\n      swap1\n    tag_53:\n      dup2\n      sload\n      dup2\n      mstore\n      swap1\n      0x01\n      add\n      swap1\n      0x20\n      add\n      dup1\n      dup4\n      gt\n      tag_53\n      jumpi\n      dup3\n      swap1\n      sub\n      0x1f\n      and\n      dup3\n      add\n      swap2\n    tag_51:\n      pop\n      pop\n      pop\n      pop\n      pop\n      dup2\n      mstore\n      0x20\n      add\n      0x02\n      dup3\n      add\n      0x00\n      swap1\n      sload\n      swap1\n      0x0100\n      exp\n      swap1\n      div\n      0xffffffffffffffffffffffffffffffffffffffff\n      and\n      0xffffffffffffffffffffffffffffffffffffffff\n      and\n      0xffffffffffffffffffffffffffffffffffffffff\n      and\n      dup2\n      mstore\n      0x20\n      add\n      0x03\n      dup3\n      add\n      sload\n      dup2\n      mstore\n      pop\n      pop\n      swap1\n      pop\n        /* \"contracts/Struct-Twitter.sol\":639:798  function getSingleTweet(... */\n      swap3\n      swap2\n      pop\n      pop\n      jump\t// out\n        /* \"contracts/Struct-Twitter.sol\":255:515  function postTweet(uint256 _id, string memory _content) public {... */\n    tag_22:\n        /* \"contracts/Struct-Twitter.sol\":328:349  Tweet memory newTweet */\n      0x00\n        /* \"contracts/Struct-Twitter.sol\":352:459  Tweet(... */\n      mload(0x40)\n      dup1\n      0x80\n      add\n      0x40\n      mstore\n      dup1\n        /* \"contracts/Struct-Twitter.sol\":371:374  _id */\n      dup5\n        /* \"contracts/Struct-Twitter.sol\":352:459  Tweet(... */\n      dup2\n      mstore\n      0x20\n      add\n        /* \"contracts/Struct-Twitter.sol\":388:396  _content */\n      dup4\n        /* \"contracts/Struct-Twitter.sol\":352:459  Tweet(... */\n      dup2\n      mstore\n      0x20\n      add\n        /* \"contracts/Struct-Twitter.sol\":410:420  msg.sender */\n      caller\n        /* \"contracts/Struct-Twitter.sol\":352:459  Tweet(... */\n      0xffffffffffffffffffffffffffffffffffffffff\n      and\n      dup2\n      mstore\n      0x20\n      add\n        /* \"contracts/Struct-Twitter.sol\":434:449  block.timestamp */\n      timestamp\n        /* \"contracts/Struct-Twitter.sol\":352:459  Tweet(... */\n      dup2\n      mstore\n      pop\n        /* \"contracts/Struct-Twitter.sol\":328:459  Tweet memory newTweet = Tweet(... */\n      swap1\n      pop\n        /* \"contracts/Struct-Twitter.sol\":469:481  tweetsByUser */\n      0x00\n        /* \"contracts/Struct-Twitter.sol\":469:493  tweetsByUser[msg.sender] */\n      dup1\n        /* \"contracts/Struct-Twitter.sol\":482:492  msg.sender */\n      caller\n        /* \"contracts/Struct-Twitter.sol\":469:493  tweetsByUser[msg.sender] */\n      0xffffffffffffffffffffffffffffffffffffffff\n      and\n      0xffffffffffffffffffffffffffffffffffffffff\n      and\n      dup2\n      mstore\n      0x20\n      add\n      swap1\n      dup2\n      mstore\n      0x20\n      add\n      0x00\n      keccak256\n        /* \"contracts/Struct-Twitter.sol\":499:507  newTweet */\n      dup2\n        /* \"contracts/Struct-Twitter.sol\":469:508  tweetsByUser[msg.sender].push(newTweet) */\n      swap1\n      dup1\n      0x01\n      dup2\n      sload\n      add\n      dup1\n      dup3\n      sstore\n      dup1\n      swap2\n      pop\n      pop\n      0x01\n      swap1\n      sub\n      swap1\n      0x00\n      mstore\n      keccak256(0x00, 0x20)\n      swap1\n      0x04\n      mul\n      add\n      0x00\n      swap1\n      swap2\n      swap1\n      swap2\n      swap1\n      swap2\n      pop\n      0x00\n      dup3\n      add\n      mload\n      dup2\n      0x00\n      add\n      sstore\n      0x20\n      dup3\n      add\n      mload\n      dup2\n      0x01\n      add\n      swap1\n      dup2\n      tag_56\n      swap2\n      swap1\n      tag_57\n      jump\t// in\n    tag_56:\n      pop\n      0x40\n      dup3\n      add\n      mload\n      dup2\n      0x02\n      add\n      exp(0x0100, 0x00)\n      dup2\n      sload\n      dup2\n      0xffffffffffffffffffffffffffffffffffffffff\n      mul\n      not\n      and\n      swap1\n      dup4\n      0xffffffffffffffffffffffffffffffffffffffff\n      and\n      mul\n      or\n      swap1\n      sstore\n      pop\n      0x60\n      dup3\n      add\n      mload\n      dup2\n      0x03\n      add\n      sstore\n      pop\n      pop\n        /* \"contracts/Struct-Twitter.sol\":318:515  {... */\n      pop\n        /* \"contracts/Struct-Twitter.sol\":255:515  function postTweet(uint256 _id, string memory _content) public {... */\n      pop\n      pop\n      jump\t// out\n        /* \"contracts/Struct-Twitter.sol\":804:994  function getTweetLength(address user) public view returns (uint256) {... */\n    tag_26:\n        /* \"contracts/Struct-Twitter.sol\":863:870  uint256 */\n      0x00\n        /* \"contracts/Struct-Twitter.sol\":882:903  Tweet[] memory tweets */\n      dup1\n        /* \"contracts/Struct-Twitter.sol\":906:918  tweetsByUser */\n      0x00\n        /* \"contracts/Struct-Twitter.sol\":906:924  tweetsByUser[user] */\n      dup1\n        /* \"contracts/Struct-Twitter.sol\":919:923  user */\n      dup5\n        /* \"contracts/Struct-Twitter.sol\":906:924  tweetsByUser[user] */\n      0xffffffffffffffffffffffffffffffffffffffff\n      and\n      0xffffffffffffffffffffffffffffffffffffffff\n      and\n      dup2\n      mstore\n      0x20\n      add\n      swap1\n      dup2\n      mstore\n      0x20\n      add\n      0x00\n      keccak256\n        /* \"contracts/Struct-Twitter.sol\":882:924  Tweet[] memory tweets = tweetsByUser[user] */\n      dup1\n      sload\n      dup1\n      0x20\n      mul\n      0x20\n      add\n      mload(0x40)\n      swap1\n      dup2\n      add\n      0x40\n      mstore\n      dup1\n      swap3\n      swap2\n      swap1\n      dup2\n      dup2\n      mstore\n      0x20\n      add\n      0x00\n      swap1\n    tag_59:\n      dup3\n      dup3\n      lt\n      iszero\n      tag_60\n      jumpi\n      dup4\n      dup3\n      swap1\n      0x00\n      mstore\n      keccak256(0x00, 0x20)\n      swap1\n      0x04\n      mul\n      add\n      mload(0x40)\n      dup1\n      0x80\n      add\n      0x40\n      mstore\n      swap1\n      dup2\n      0x00\n      dup3\n      add\n      sload\n      dup2\n      mstore\n      0x20\n      add\n      0x01\n      dup3\n      add\n      dup1\n      sload\n      tag_62\n      swap1\n      tag_37\n      jump\t// in\n    tag_62:\n      dup1\n      0x1f\n      add\n      0x20\n      dup1\n      swap2\n      div\n      mul\n      0x20\n      add\n      mload(0x40)\n      swap1\n      dup2\n      add\n      0x40\n      mstore\n      dup1\n      swap3\n      swap2\n      swap1\n      dup2\n      dup2\n      mstore\n      0x20\n      add\n      dup3\n      dup1\n      sload\n      tag_63\n      swap1\n      tag_37\n      jump\t// in\n    tag_63:\n      dup1\n      iszero\n      tag_64\n      jumpi\n      dup1\n      0x1f\n      lt\n      tag_65\n      jumpi\n      0x0100\n      dup1\n      dup4\n      sload\n      div\n      mul\n      dup4\n      mstore\n      swap2\n      0x20\n      add\n      swap2\n      jump(tag_64)\n    tag_65:\n      dup3\n      add\n      swap2\n      swap1\n      0x00\n      mstore\n      keccak256(0x00, 0x20)\n      swap1\n    tag_66:\n      dup2\n      sload\n      dup2\n      mstore\n      swap1\n      0x01\n      add\n      swap1\n      0x20\n      add\n      dup1\n      dup4\n      gt\n      tag_66\n      jumpi\n      dup3\n      swap1\n      sub\n      0x1f\n      and\n      dup3\n      add\n      swap2\n    tag_64:\n      pop\n      pop\n      pop\n      pop\n      pop\n      dup2\n      mstore\n      0x20\n      add\n      0x02\n      dup3\n      add\n      0x00\n      swap1\n      sload\n      swap1\n      0x0100\n      exp\n      swap1\n      div\n      0xffffffffffffffffffffffffffffffffffffffff\n      and\n      0xffffffffffffffffffffffffffffffffffffffff\n      and\n      0xffffffffffffffffffffffffffffffffffffffff\n      and\n      dup2\n      mstore\n      0x20\n      add\n      0x03\n      dup3\n      add\n      sload\n      dup2\n      mstore\n      pop\n      pop\n      dup2\n      mstore\n      0x20\n      add\n      swap1\n      0x01\n      add\n      swap1\n      jump(tag_59)\n    tag_60:\n      pop\n      pop\n      pop\n      pop\n      swap1\n      pop\n        /* \"contracts/Struct-Twitter.sol\":934:948  uint256 length */\n      0x00\n        /* \"contracts/Struct-Twitter.sol\":951:957  tweets */\n      dup2\n        /* \"contracts/Struct-Twitter.sol\":951:964  tweets.length */\n      mload\n        /* \"contracts/Struct-Twitter.sol\":934:964  uint256 length = tweets.length */\n      swap1\n      pop\n        /* \"contracts/Struct-Twitter.sol\":981:987  length */\n      dup1\n        /* \"contracts/Struct-Twitter.sol\":974:987  return length */\n      swap3\n      pop\n      pop\n      pop\n        /* \"contracts/Struct-Twitter.sol\":804:994  function getTweetLength(address user) public view returns (uint256) {... */\n      swap2\n      swap1\n      pop\n      jump\t// out\n        /* \"contracts/Struct-Twitter.sol\":521:633  function getTweets(address user) public view returns (Tweet[] memory) {... */\n    tag_31:\n        /* \"contracts/Struct-Twitter.sol\":575:589  Tweet[] memory */\n      0x60\n        /* \"contracts/Struct-Twitter.sol\":608:620  tweetsByUser */\n      0x00\n        /* \"contracts/Struct-Twitter.sol\":608:626  tweetsByUser[user] */\n      dup1\n        /* \"contracts/Struct-Twitter.sol\":621:625  user */\n      dup4\n        /* \"contracts/Struct-Twitter.sol\":608:626  tweetsByUser[user] */\n      0xffffffffffffffffffffffffffffffffffffffff\n      and\n      0xffffffffffffffffffffffffffffffffffffffff\n      and\n      dup2\n      mstore\n      0x20\n      add\n      swap1\n      dup2\n      mstore\n      0x20\n      add\n      0x00\n      keccak256\n        /* \"contracts/Struct-Twitter.sol\":601:626  return tweetsByUser[user] */\n      dup1\n      sload\n      dup1\n      0x20\n      mul\n      0x20\n      add\n      mload(0x40)\n      swap1\n      dup2\n      add\n      0x40\n      mstore\n      dup1\n      swap3\n      swap2\n      swap1\n      dup2\n      dup2\n      mstore\n      0x20\n      add\n      0x00\n      swap1\n    tag_68:\n      dup3\n      dup3\n      lt\n      iszero\n      tag_69\n      jumpi\n      dup4\n      dup3\n      swap1\n      0x00\n      mstore\n      keccak256(0x00, 0x20)\n      swap1\n      0x04\n      mul\n      add\n      mload(0x40)\n      dup1\n      0x80\n      add\n      0x40\n      mstore\n      swap1\n      dup2\n      0x00\n      dup3\n      add\n      sload\n      dup2\n      mstore\n      0x20\n      add\n      0x01\n      dup3\n      add\n      dup1\n      sload\n      tag_71\n      swap1\n      tag_37\n      jump\t// in\n    tag_71:\n      dup1\n      0x1f\n      add\n      0x20\n      dup1\n      swap2\n      div\n      mul\n      0x20\n      add\n      mload(0x40)\n      swap1\n      dup2\n      add\n      0x40\n      mstore\n      dup1\n      swap3\n      swap2\n      swap1\n      dup2\n      dup2\n      mstore\n      0x20\n      add\n      dup3\n      dup1\n      sload\n      tag_72\n      swap1\n      tag_37\n      jump\t// in\n    tag_72:\n      dup1\n      iszero\n      tag_73\n      jumpi\n      dup1\n      0x1f\n      lt\n      tag_74\n      jumpi\n      0x0100\n      dup1\n      dup4\n      sload\n      div\n      mul\n      dup4\n      mstore\n      swap2\n      0x20\n      add\n      swap2\n      jump(tag_73)\n    tag_74:\n      dup3\n      add\n      swap2\n      swap1\n      0x00\n      mstore\n      keccak256(0x00, 0x20)\n      swap1\n    tag_75:\n      dup2\n      sload\n      dup2\n      mstore\n      swap1\n      0x01\n      add\n      swap1\n      0x20\n      add\n      dup1\n      dup4\n      gt\n      tag_75\n      jumpi\n      dup3\n      swap1\n      sub\n      0x1f\n      and\n      dup3\n      add\n      swap2\n    tag_73:\n      pop\n      pop\n      pop\n      pop\n      pop\n      dup2\n      mstore\n      0x20\n      add\n      0x02\n      dup3\n      add\n      0x00\n      swap1\n      sload\n      swap1\n      0x0100\n      exp\n      swap1\n      div\n      0xffffffffffffffffffffffffffffffffffffffff\n      and\n      0xffffffffffffffffffffffffffffffffffffffff\n      and\n      0xffffffffffffffffffffffffffffffffffffffff\n      and\n      dup2\n      mstore\n      0x20\n      add\n      0x03\n      dup3\n      add\n      sload\n      dup2\n      mstore\n      pop\n      pop\n      dup2\n      mstore\n      0x20\n      add\n      swap1\n      0x01\n      add\n      swap1\n      jump(tag_68)\n    tag_69:\n      pop\n      pop\n      pop\n      pop\n      swap1\n      pop\n        /* \"contracts/Struct-Twitter.sol\":521:633  function getTweets(address user) public view returns (Tweet[] memory) {... */\n      swap2\n      swap1\n      pop\n      jump\t// out\n    tag_43:\n      mload(0x40)\n      dup1\n      0x80\n      add\n      0x40\n      mstore\n      dup1\n      0x00\n      dup2\n      mstore\n      0x20\n      add\n      0x60\n      dup2\n      mstore\n      0x20\n      add\n      and(0xffffffffffffffffffffffffffffffffffffffff, 0x00)\n      dup2\n      mstore\n      0x20\n      add\n      0x00\n      dup2\n      mstore\n      pop\n      swap1\n      jump\t// out\n        /* \"#utility.yul\":7:82   */\n    tag_76:\n        /* \"#utility.yul\":40:46   */\n      0x00\n        /* \"#utility.yul\":73:75   */\n      0x40\n        /* \"#utility.yul\":67:76   */\n      mload\n        /* \"#utility.yul\":57:76   */\n      swap1\n      pop\n        /* \"#utility.yul\":7:82   */\n      swap1\n      jump\t// out\n        /* \"#utility.yul\":88:205   */\n    tag_77:\n        /* \"#utility.yul\":197:198   */\n      0x00\n        /* \"#utility.yul\":194:195   */\n      dup1\n        /* \"#utility.yul\":187:199   */\n      revert\n        /* \"#utility.yul\":211:328   */\n    tag_78:\n        /* \"#utility.yul\":320:321   */\n      0x00\n        /* \"#utility.yul\":317:318   */\n      dup1\n        /* \"#utility.yul\":310:322   */\n      revert\n        /* \"#utility.yul\":334:460   */\n    tag_79:\n        /* \"#utility.yul\":371:378   */\n      0x00\n        /* \"#utility.yul\":411:453   */\n      0xffffffffffffffffffffffffffffffffffffffff\n        /* \"#utility.yul\":404:409   */\n      dup3\n        /* \"#utility.yul\":400:454   */\n      and\n        /* \"#utility.yul\":389:454   */\n      swap1\n      pop\n        /* \"#utility.yul\":334:460   */\n      swap2\n      swap1\n      pop\n      jump\t// out\n        /* \"#utility.yul\":466:562   */\n    tag_80:\n        /* \"#utility.yul\":503:510   */\n      0x00\n        /* \"#utility.yul\":532:556   */\n      tag_136\n        /* \"#utility.yul\":550:555   */\n      dup3\n        /* \"#utility.yul\":532:556   */\n      tag_79\n      jump\t// in\n    tag_136:\n        /* \"#utility.yul\":521:556   */\n      swap1\n      pop\n        /* \"#utility.yul\":466:562   */\n      swap2\n      swap1\n      pop\n      jump\t// out\n        /* \"#utility.yul\":568:690   */\n    tag_81:\n        /* \"#utility.yul\":641:665   */\n      tag_138\n        /* \"#utility.yul\":659:664   */\n      dup2\n        /* \"#utility.yul\":641:665   */\n      tag_80\n      jump\t// in\n    tag_138:\n        /* \"#utility.yul\":634:639   */\n      dup2\n        /* \"#utility.yul\":631:666   */\n      eq\n        /* \"#utility.yul\":621:684   */\n      tag_139\n      jumpi\n        /* \"#utility.yul\":680:681   */\n      0x00\n        /* \"#utility.yul\":677:678   */\n      dup1\n        /* \"#utility.yul\":670:682   */\n      revert\n        /* \"#utility.yul\":621:684   */\n    tag_139:\n        /* \"#utility.yul\":568:690   */\n      pop\n      jump\t// out\n        /* \"#utility.yul\":696:835   */\n    tag_82:\n        /* \"#utility.yul\":742:747   */\n      0x00\n        /* \"#utility.yul\":780:786   */\n      dup2\n        /* \"#utility.yul\":767:787   */\n      calldataload\n        /* \"#utility.yul\":758:787   */\n      swap1\n      pop\n        /* \"#utility.yul\":796:829   */\n      tag_141\n        /* \"#utility.yul\":823:828   */\n      dup2\n        /* \"#utility.yul\":796:829   */\n      tag_81\n      jump\t// in\n    tag_141:\n        /* \"#utility.yul\":696:835   */\n      swap3\n      swap2\n      pop\n      pop\n      jump\t// out\n        /* \"#utility.yul\":841:918   */\n    tag_83:\n        /* \"#utility.yul\":878:885   */\n      0x00\n        /* \"#utility.yul\":907:912   */\n      dup2\n        /* \"#utility.yul\":896:912   */\n      swap1\n      pop\n        /* \"#utility.yul\":841:918   */\n      swap2\n      swap1\n      pop\n      jump\t// out\n        /* \"#utility.yul\":924:1046   */\n    tag_84:\n        /* \"#utility.yul\":997:1021   */\n      tag_144\n        /* \"#utility.yul\":1015:1020   */\n      dup2\n        /* \"#utility.yul\":997:1021   */\n      tag_83\n      jump\t// in\n    tag_144:\n        /* \"#utility.yul\":990:995   */\n      dup2\n        /* \"#utility.yul\":987:1022   */\n      eq\n        /* \"#utility.yul\":977:1040   */\n      tag_145\n      jumpi\n        /* \"#utility.yul\":1036:1037   */\n      0x00\n        /* \"#utility.yul\":1033:1034   */\n      dup1\n        /* \"#utility.yul\":1026:1038   */\n      revert\n        /* \"#utility.yul\":977:1040   */\n    tag_145:\n        /* \"#utility.yul\":924:1046   */\n      pop\n      jump\t// out\n        /* \"#utility.yul\":1052:1191   */\n    tag_85:\n        /* \"#utility.yul\":1098:1103   */\n      0x00\n        /* \"#utility.yul\":1136:1142   */\n      dup2\n        /* \"#utility.yul\":1123:1143   */\n      calldataload\n        /* \"#utility.yul\":1114:1143   */\n      swap1\n      pop\n        /* \"#utility.yul\":1152:1185   */\n      tag_147\n        /* \"#utility.yul\":1179:1184   */\n      dup2\n        /* \"#utility.yul\":1152:1185   */\n      tag_84\n      jump\t// in\n    tag_147:\n        /* \"#utility.yul\":1052:1191   */\n      swap3\n      swap2\n      pop\n      pop\n      jump\t// out\n        /* \"#utility.yul\":1197:1671   */\n    tag_10:\n        /* \"#utility.yul\":1265:1271   */\n      0x00\n        /* \"#utility.yul\":1273:1279   */\n      dup1\n        /* \"#utility.yul\":1322:1324   */\n      0x40\n        /* \"#utility.yul\":1310:1319   */\n      dup4\n        /* \"#utility.yul\":1301:1308   */\n      dup6\n        /* \"#utility.yul\":1297:1320   */\n      sub\n        /* \"#utility.yul\":1293:1325   */\n      slt\n        /* \"#utility.yul\":1290:1409   */\n      iszero\n      tag_149\n      jumpi\n        /* \"#utility.yul\":1328:1407   */\n      tag_150\n      tag_77\n      jump\t// in\n    tag_150:\n        /* \"#utility.yul\":1290:1409   */\n    tag_149:\n        /* \"#utility.yul\":1448:1449   */\n      0x00\n        /* \"#utility.yul\":1473:1526   */\n      tag_151\n        /* \"#utility.yul\":1518:1525   */\n      dup6\n        /* \"#utility.yul\":1509:1515   */\n      dup3\n        /* \"#utility.yul\":1498:1507   */\n      dup7\n        /* \"#utility.yul\":1494:1516   */\n      add\n        /* \"#utility.yul\":1473:1526   */\n      tag_82\n      jump\t// in\n    tag_151:\n        /* \"#utility.yul\":1463:1526   */\n      swap3\n      pop\n        /* \"#utility.yul\":1419:1536   */\n      pop\n        /* \"#utility.yul\":1575:1577   */\n      0x20\n        /* \"#utility.yul\":1601:1654   */\n      tag_152\n        /* \"#utility.yul\":1646:1653   */\n      dup6\n        /* \"#utility.yul\":1637:1643   */\n      dup3\n        /* \"#utility.yul\":1626:1635   */\n      dup7\n        /* \"#utility.yul\":1622:1644   */\n      add\n        /* \"#utility.yul\":1601:1654   */\n      tag_85\n      jump\t// in\n    tag_152:\n        /* \"#utility.yul\":1591:1654   */\n      swap2\n      pop\n        /* \"#utility.yul\":1546:1664   */\n      pop\n        /* \"#utility.yul\":1197:1671   */\n      swap3\n      pop\n      swap3\n      swap1\n      pop\n      jump\t// out\n        /* \"#utility.yul\":1677:1795   */\n    tag_86:\n        /* \"#utility.yul\":1764:1788   */\n      tag_154\n        /* \"#utility.yul\":1782:1787   */\n      dup2\n        /* \"#utility.yul\":1764:1788   */\n      tag_83\n      jump\t// in\n    tag_154:\n        /* \"#utility.yul\":1759:1762   */\n      dup3\n        /* \"#utility.yul\":1752:1789   */\n      mstore\n        /* \"#utility.yul\":1677:1795   */\n      pop\n      pop\n      jump\t// out\n        /* \"#utility.yul\":1801:1900   */\n    tag_87:\n        /* \"#utility.yul\":1853:1859   */\n      0x00\n        /* \"#utility.yul\":1887:1892   */\n      dup2\n        /* \"#utility.yul\":1881:1893   */\n      mload\n        /* \"#utility.yul\":1871:1893   */\n      swap1\n      pop\n        /* \"#utility.yul\":1801:1900   */\n      swap2\n      swap1\n      pop\n      jump\t// out\n        /* \"#utility.yul\":1906:2075   */\n    tag_88:\n        /* \"#utility.yul\":1990:2001   */\n      0x00\n        /* \"#utility.yul\":2024:2030   */\n      dup3\n        /* \"#utility.yul\":2019:2022   */\n      dup3\n        /* \"#utility.yul\":2012:2031   */\n      mstore\n        /* \"#utility.yul\":2064:2068   */\n      0x20\n        /* \"#utility.yul\":2059:2062   */\n      dup3\n        /* \"#utility.yul\":2055:2069   */\n      add\n        /* \"#utility.yul\":2040:2069   */\n      swap1\n      pop\n        /* \"#utility.yul\":1906:2075   */\n      swap3\n      swap2\n      pop\n      pop\n      jump\t// out\n        /* \"#utility.yul\":2081:2220   */\n    tag_89:\n        /* \"#utility.yul\":2170:2176   */\n      dup3\n        /* \"#utility.yul\":2165:2168   */\n      dup2\n        /* \"#utility.yul\":2160:2163   */\n      dup4\n        /* \"#utility.yul\":2154:2177   */\n      mcopy\n        /* \"#utility.yul\":2211:2212   */\n      0x00\n        /* \"#utility.yul\":2202:2208   */\n      dup4\n        /* \"#utility.yul\":2197:2200   */\n      dup4\n        /* \"#utility.yul\":2193:2209   */\n      add\n        /* \"#utility.yul\":2186:2213   */\n      mstore\n        /* \"#utility.yul\":2081:2220   */\n      pop\n      pop\n      pop\n      jump\t// out\n        /* \"#utility.yul\":2226:2328   */\n    tag_90:\n        /* \"#utility.yul\":2267:2273   */\n      0x00\n        /* \"#utility.yul\":2318:2320   */\n      0x1f\n        /* \"#utility.yul\":2314:2321   */\n      not\n        /* \"#utility.yul\":2309:2311   */\n      0x1f\n        /* \"#utility.yul\":2302:2307   */\n      dup4\n        /* \"#utility.yul\":2298:2312   */\n      add\n        /* \"#utility.yul\":2294:2322   */\n      and\n        /* \"#utility.yul\":2284:2322   */\n      swap1\n      pop\n        /* \"#utility.yul\":2226:2328   */\n      swap2\n      swap1\n      pop\n      jump\t// out\n        /* \"#utility.yul\":2334:2711   */\n    tag_91:\n        /* \"#utility.yul\":2422:2425   */\n      0x00\n        /* \"#utility.yul\":2450:2489   */\n      tag_160\n        /* \"#utility.yul\":2483:2488   */\n      dup3\n        /* \"#utility.yul\":2450:2489   */\n      tag_87\n      jump\t// in\n    tag_160:\n        /* \"#utility.yul\":2505:2576   */\n      tag_161\n        /* \"#utility.yul\":2569:2575   */\n      dup2\n        /* \"#utility.yul\":2564:2567   */\n      dup6\n        /* \"#utility.yul\":2505:2576   */\n      tag_88\n      jump\t// in\n    tag_161:\n        /* \"#utility.yul\":2498:2576   */\n      swap4\n      pop\n        /* \"#utility.yul\":2585:2650   */\n      tag_162\n        /* \"#utility.yul\":2643:2649   */\n      dup2\n        /* \"#utility.yul\":2638:2641   */\n      dup6\n        /* \"#utility.yul\":2631:2635   */\n      0x20\n        /* \"#utility.yul\":2624:2629   */\n      dup7\n        /* \"#utility.yul\":2620:2636   */\n      add\n        /* \"#utility.yul\":2585:2650   */\n      tag_89\n      jump\t// in\n    tag_162:\n        /* \"#utility.yul\":2675:2704   */\n      tag_163\n        /* \"#utility.yul\":2697:2703   */\n      dup2\n        /* \"#utility.yul\":2675:2704   */\n      tag_90\n      jump\t// in\n    tag_163:\n        /* \"#utility.yul\":2670:2673   */\n      dup5\n        /* \"#utility.yul\":2666:2705   */\n      add\n        /* \"#utility.yul\":2659:2705   */\n      swap2\n      pop\n        /* \"#utility.yul\":2426:2711   */\n      pop\n        /* \"#utility.yul\":2334:2711   */\n      swap3\n      swap2\n      pop\n      pop\n      jump\t// out\n        /* \"#utility.yul\":2717:2835   */\n    tag_92:\n        /* \"#utility.yul\":2804:2828   */\n      tag_165\n        /* \"#utility.yul\":2822:2827   */\n      dup2\n        /* \"#utility.yul\":2804:2828   */\n      tag_80\n      jump\t// in\n    tag_165:\n        /* \"#utility.yul\":2799:2802   */\n      dup3\n        /* \"#utility.yul\":2792:2829   */\n      mstore\n        /* \"#utility.yul\":2717:2835   */\n      pop\n      pop\n      jump\t// out\n        /* \"#utility.yul\":2841:3485   */\n    tag_13:\n        /* \"#utility.yul\":3038:3042   */\n      0x00\n        /* \"#utility.yul\":3076:3079   */\n      0x80\n        /* \"#utility.yul\":3065:3074   */\n      dup3\n        /* \"#utility.yul\":3061:3080   */\n      add\n        /* \"#utility.yul\":3053:3080   */\n      swap1\n      pop\n        /* \"#utility.yul\":3090:3161   */\n      tag_167\n        /* \"#utility.yul\":3158:3159   */\n      0x00\n        /* \"#utility.yul\":3147:3156   */\n      dup4\n        /* \"#utility.yul\":3143:3160   */\n      add\n        /* \"#utility.yul\":3134:3140   */\n      dup8\n        /* \"#utility.yul\":3090:3161   */\n      tag_86\n      jump\t// in\n    tag_167:\n        /* \"#utility.yul\":3208:3217   */\n      dup2\n        /* \"#utility.yul\":3202:3206   */\n      dup2\n        /* \"#utility.yul\":3198:3218   */\n      sub\n        /* \"#utility.yul\":3193:3195   */\n      0x20\n        /* \"#utility.yul\":3182:3191   */\n      dup4\n        /* \"#utility.yul\":3178:3196   */\n      add\n        /* \"#utility.yul\":3171:3219   */\n      mstore\n        /* \"#utility.yul\":3236:3314   */\n      tag_168\n        /* \"#utility.yul\":3309:3313   */\n      dup2\n        /* \"#utility.yul\":3300:3306   */\n      dup7\n        /* \"#utility.yul\":3236:3314   */\n      tag_91\n      jump\t// in\n    tag_168:\n        /* \"#utility.yul\":3228:3314   */\n      swap1\n      pop\n        /* \"#utility.yul\":3324:3396   */\n      tag_169\n        /* \"#utility.yul\":3392:3394   */\n      0x40\n        /* \"#utility.yul\":3381:3390   */\n      dup4\n        /* \"#utility.yul\":3377:3395   */\n      add\n        /* \"#utility.yul\":3368:3374   */\n      dup6\n        /* \"#utility.yul\":3324:3396   */\n      tag_92\n      jump\t// in\n    tag_169:\n        /* \"#utility.yul\":3406:3478   */\n      tag_170\n        /* \"#utility.yul\":3474:3476   */\n      0x60\n        /* \"#utility.yul\":3463:3472   */\n      dup4\n        /* \"#utility.yul\":3459:3477   */\n      add\n        /* \"#utility.yul\":3450:3456   */\n      dup5\n        /* \"#utility.yul\":3406:3478   */\n      tag_86\n      jump\t// in\n    tag_170:\n        /* \"#utility.yul\":2841:3485   */\n      swap6\n      swap5\n      pop\n      pop\n      pop\n      pop\n      pop\n      jump\t// out\n        /* \"#utility.yul\":3491:3599   */\n    tag_93:\n        /* \"#utility.yul\":3568:3592   */\n      tag_172\n        /* \"#utility.yul\":3586:3591   */\n      dup2\n        /* \"#utility.yul\":3568:3592   */\n      tag_83\n      jump\t// in\n    tag_172:\n        /* \"#utility.yul\":3563:3566   */\n      dup3\n        /* \"#utility.yul\":3556:3593   */\n      mstore\n        /* \"#utility.yul\":3491:3599   */\n      pop\n      pop\n      jump\t// out\n        /* \"#utility.yul\":3605:3764   */\n    tag_94:\n        /* \"#utility.yul\":3679:3690   */\n      0x00\n        /* \"#utility.yul\":3713:3719   */\n      dup3\n        /* \"#utility.yul\":3708:3711   */\n      dup3\n        /* \"#utility.yul\":3701:3720   */\n      mstore\n        /* \"#utility.yul\":3753:3757   */\n      0x20\n        /* \"#utility.yul\":3748:3751   */\n      dup3\n        /* \"#utility.yul\":3744:3758   */\n      add\n        /* \"#utility.yul\":3729:3758   */\n      swap1\n      pop\n        /* \"#utility.yul\":3605:3764   */\n      swap3\n      swap2\n      pop\n      pop\n      jump\t// out\n        /* \"#utility.yul\":3770:4127   */\n    tag_95:\n        /* \"#utility.yul\":3848:3851   */\n      0x00\n        /* \"#utility.yul\":3876:3915   */\n      tag_175\n        /* \"#utility.yul\":3909:3914   */\n      dup3\n        /* \"#utility.yul\":3876:3915   */\n      tag_87\n      jump\t// in\n    tag_175:\n        /* \"#utility.yul\":3931:3992   */\n      tag_176\n        /* \"#utility.yul\":3985:3991   */\n      dup2\n        /* \"#utility.yul\":3980:3983   */\n      dup6\n        /* \"#utility.yul\":3931:3992   */\n      tag_94\n      jump\t// in\n    tag_176:\n        /* \"#utility.yul\":3924:3992   */\n      swap4\n      pop\n        /* \"#utility.yul\":4001:4066   */\n      tag_177\n        /* \"#utility.yul\":4059:4065   */\n      dup2\n        /* \"#utility.yul\":4054:4057   */\n      dup6\n        /* \"#utility.yul\":4047:4051   */\n      0x20\n        /* \"#utility.yul\":4040:4045   */\n      dup7\n        /* \"#utility.yul\":4036:4052   */\n      add\n        /* \"#utility.yul\":4001:4066   */\n      tag_89\n      jump\t// in\n    tag_177:\n        /* \"#utility.yul\":4091:4120   */\n      tag_178\n        /* \"#utility.yul\":4113:4119   */\n      dup2\n        /* \"#utility.yul\":4091:4120   */\n      tag_90\n      jump\t// in\n    tag_178:\n        /* \"#utility.yul\":4086:4089   */\n      dup5\n        /* \"#utility.yul\":4082:4121   */\n      add\n        /* \"#utility.yul\":4075:4121   */\n      swap2\n      pop\n        /* \"#utility.yul\":3852:4127   */\n      pop\n        /* \"#utility.yul\":3770:4127   */\n      swap3\n      swap2\n      pop\n      pop\n      jump\t// out\n        /* \"#utility.yul\":4133:4241   */\n    tag_96:\n        /* \"#utility.yul\":4210:4234   */\n      tag_180\n        /* \"#utility.yul\":4228:4233   */\n      dup2\n        /* \"#utility.yul\":4210:4234   */\n      tag_80\n      jump\t// in\n    tag_180:\n        /* \"#utility.yul\":4205:4208   */\n      dup3\n        /* \"#utility.yul\":4198:4235   */\n      mstore\n        /* \"#utility.yul\":4133:4241   */\n      pop\n      pop\n      jump\t// out\n        /* \"#utility.yul\":4299:5253   */\n    tag_97:\n        /* \"#utility.yul\":4410:4413   */\n      0x00\n        /* \"#utility.yul\":4446:4450   */\n      0x80\n        /* \"#utility.yul\":4441:4444   */\n      dup4\n        /* \"#utility.yul\":4437:4451   */\n      add\n        /* \"#utility.yul\":4531:4535   */\n      0x00\n        /* \"#utility.yul\":4524:4529   */\n      dup4\n        /* \"#utility.yul\":4520:4536   */\n      add\n        /* \"#utility.yul\":4514:4537   */\n      mload\n        /* \"#utility.yul\":4550:4613   */\n      tag_182\n        /* \"#utility.yul\":4607:4611   */\n      0x00\n        /* \"#utility.yul\":4602:4605   */\n      dup7\n        /* \"#utility.yul\":4598:4612   */\n      add\n        /* \"#utility.yul\":4584:4596   */\n      dup3\n        /* \"#utility.yul\":4550:4613   */\n      tag_93\n      jump\t// in\n    tag_182:\n        /* \"#utility.yul\":4461:4623   */\n      pop\n        /* \"#utility.yul\":4708:4712   */\n      0x20\n        /* \"#utility.yul\":4701:4706   */\n      dup4\n        /* \"#utility.yul\":4697:4713   */\n      add\n        /* \"#utility.yul\":4691:4714   */\n      mload\n        /* \"#utility.yul\":4761:4764   */\n      dup5\n        /* \"#utility.yul\":4755:4759   */\n      dup3\n        /* \"#utility.yul\":4751:4765   */\n      sub\n        /* \"#utility.yul\":4744:4748   */\n      0x20\n        /* \"#utility.yul\":4739:4742   */\n      dup7\n        /* \"#utility.yul\":4735:4749   */\n      add\n        /* \"#utility.yul\":4728:4766   */\n      mstore\n        /* \"#utility.yul\":4787:4860   */\n      tag_183\n        /* \"#utility.yul\":4855:4859   */\n      dup3\n        /* \"#utility.yul\":4841:4853   */\n      dup3\n        /* \"#utility.yul\":4787:4860   */\n      tag_95\n      jump\t// in\n    tag_183:\n        /* \"#utility.yul\":4779:4860   */\n      swap2\n      pop\n        /* \"#utility.yul\":4633:4871   */\n      pop\n        /* \"#utility.yul\":4955:4959   */\n      0x40\n        /* \"#utility.yul\":4948:4953   */\n      dup4\n        /* \"#utility.yul\":4944:4960   */\n      add\n        /* \"#utility.yul\":4938:4961   */\n      mload\n        /* \"#utility.yul\":4974:5037   */\n      tag_184\n        /* \"#utility.yul\":5031:5035   */\n      0x40\n        /* \"#utility.yul\":5026:5029   */\n      dup7\n        /* \"#utility.yul\":5022:5036   */\n      add\n        /* \"#utility.yul\":5008:5020   */\n      dup3\n        /* \"#utility.yul\":4974:5037   */\n      tag_96\n      jump\t// in\n    tag_184:\n        /* \"#utility.yul\":4881:5047   */\n      pop\n        /* \"#utility.yul\":5134:5138   */\n      0x60\n        /* \"#utility.yul\":5127:5132   */\n      dup4\n        /* \"#utility.yul\":5123:5139   */\n      add\n        /* \"#utility.yul\":5117:5140   */\n      mload\n        /* \"#utility.yul\":5153:5216   */\n      tag_185\n        /* \"#utility.yul\":5210:5214   */\n      0x60\n        /* \"#utility.yul\":5205:5208   */\n      dup7\n        /* \"#utility.yul\":5201:5215   */\n      add\n        /* \"#utility.yul\":5187:5199   */\n      dup3\n        /* \"#utility.yul\":5153:5216   */\n      tag_93\n      jump\t// in\n    tag_185:\n        /* \"#utility.yul\":5057:5226   */\n      pop\n        /* \"#utility.yul\":5243:5247   */\n      dup1\n        /* \"#utility.yul\":5236:5247   */\n      swap2\n      pop\n        /* \"#utility.yul\":4415:5253   */\n      pop\n        /* \"#utility.yul\":4299:5253   */\n      swap3\n      swap2\n      pop\n      pop\n      jump\t// out\n        /* \"#utility.yul\":5259:5616   */\n    tag_18:\n        /* \"#utility.yul\":5394:5398   */\n      0x00\n        /* \"#utility.yul\":5432:5434   */\n      0x20\n        /* \"#utility.yul\":5421:5430   */\n      dup3\n        /* \"#utility.yul\":5417:5435   */\n      add\n        /* \"#utility.yul\":5409:5435   */\n      swap1\n      pop\n        /* \"#utility.yul\":5481:5490   */\n      dup2\n        /* \"#utility.yul\":5475:5479   */\n      dup2\n        /* \"#utility.yul\":5471:5491   */\n      sub\n        /* \"#utility.yul\":5467:5468   */\n      0x00\n        /* \"#utility.yul\":5456:5465   */\n      dup4\n        /* \"#utility.yul\":5452:5469   */\n      add\n        /* \"#utility.yul\":5445:5492   */\n      mstore\n        /* \"#utility.yul\":5509:5609   */\n      tag_187\n        /* \"#utility.yul\":5604:5608   */\n      dup2\n        /* \"#utility.yul\":5595:5601   */\n      dup5\n        /* \"#utility.yul\":5509:5609   */\n      tag_97\n      jump\t// in\n    tag_187:\n        /* \"#utility.yul\":5501:5609   */\n      swap1\n      pop\n        /* \"#utility.yul\":5259:5616   */\n      swap3\n      swap2\n      pop\n      pop\n      jump\t// out\n        /* \"#utility.yul\":5622:5739   */\n    tag_98:\n        /* \"#utility.yul\":5731:5732   */\n      0x00\n        /* \"#utility.yul\":5728:5729   */\n      dup1\n        /* \"#utility.yul\":5721:5733   */\n      revert\n        /* \"#utility.yul\":5745:5862   */\n    tag_99:\n        /* \"#utility.yul\":5854:5855   */\n      0x00\n        /* \"#utility.yul\":5851:5852   */\n      dup1\n        /* \"#utility.yul\":5844:5856   */\n      revert\n        /* \"#utility.yul\":5868:6048   */\n    tag_100:\n        /* \"#utility.yul\":5916:5993   */\n      0x4e487b7100000000000000000000000000000000000000000000000000000000\n        /* \"#utility.yul\":5913:5914   */\n      0x00\n        /* \"#utility.yul\":5906:5994   */\n      mstore\n        /* \"#utility.yul\":6013:6017   */\n      0x41\n        /* \"#utility.yul\":6010:6011   */\n      0x04\n        /* \"#utility.yul\":6003:6018   */\n      mstore\n        /* \"#utility.yul\":6037:6041   */\n      0x24\n        /* \"#utility.yul\":6034:6035   */\n      0x00\n        /* \"#utility.yul\":6027:6042   */\n      revert\n        /* \"#utility.yul\":6054:6335   */\n    tag_101:\n        /* \"#utility.yul\":6137:6164   */\n      tag_192\n        /* \"#utility.yul\":6159:6163   */\n      dup3\n        /* \"#utility.yul\":6137:6164   */\n      tag_90\n      jump\t// in\n    tag_192:\n        /* \"#utility.yul\":6129:6135   */\n      dup2\n        /* \"#utility.yul\":6125:6165   */\n      add\n        /* \"#utility.yul\":6267:6273   */\n      dup2\n        /* \"#utility.yul\":6255:6265   */\n      dup2\n        /* \"#utility.yul\":6252:6274   */\n      lt\n        /* \"#utility.yul\":6231:6249   */\n      0xffffffffffffffff\n        /* \"#utility.yul\":6219:6229   */\n      dup3\n        /* \"#utility.yul\":6216:6250   */\n      gt\n        /* \"#utility.yul\":6213:6275   */\n      or\n        /* \"#utility.yul\":6210:6298   */\n      iszero\n      tag_193\n      jumpi\n        /* \"#utility.yul\":6278:6296   */\n      tag_194\n      tag_100\n      jump\t// in\n    tag_194:\n        /* \"#utility.yul\":6210:6298   */\n    tag_193:\n        /* \"#utility.yul\":6318:6328   */\n      dup1\n        /* \"#utility.yul\":6314:6316   */\n      0x40\n        /* \"#utility.yul\":6307:6329   */\n      mstore\n        /* \"#utility.yul\":6097:6335   */\n      pop\n        /* \"#utility.yul\":6054:6335   */\n      pop\n      pop\n      jump\t// out\n        /* \"#utility.yul\":6341:6470   */\n    tag_102:\n        /* \"#utility.yul\":6375:6381   */\n      0x00\n        /* \"#utility.yul\":6402:6422   */\n      tag_196\n      tag_76\n      jump\t// in\n    tag_196:\n        /* \"#utility.yul\":6392:6422   */\n      swap1\n      pop\n        /* \"#utility.yul\":6431:6464   */\n      tag_197\n        /* \"#utility.yul\":6459:6463   */\n      dup3\n        /* \"#utility.yul\":6451:6457   */\n      dup3\n        /* \"#utility.yul\":6431:6464   */\n      tag_101\n      jump\t// in\n    tag_197:\n        /* \"#utility.yul\":6341:6470   */\n      swap2\n      swap1\n      pop\n      jump\t// out\n        /* \"#utility.yul\":6476:6784   */\n    tag_103:\n        /* \"#utility.yul\":6538:6542   */\n      0x00\n        /* \"#utility.yul\":6628:6646   */\n      0xffffffffffffffff\n        /* \"#utility.yul\":6620:6626   */\n      dup3\n        /* \"#utility.yul\":6617:6647   */\n      gt\n        /* \"#utility.yul\":6614:6670   */\n      iszero\n      tag_199\n      jumpi\n        /* \"#utility.yul\":6650:6668   */\n      tag_200\n      tag_100\n      jump\t// in\n    tag_200:\n        /* \"#utility.yul\":6614:6670   */\n    tag_199:\n        /* \"#utility.yul\":6688:6717   */\n      tag_201\n        /* \"#utility.yul\":6710:6716   */\n      dup3\n        /* \"#utility.yul\":6688:6717   */\n      tag_90\n      jump\t// in\n    tag_201:\n        /* \"#utility.yul\":6680:6717   */\n      swap1\n      pop\n        /* \"#utility.yul\":6772:6776   */\n      0x20\n        /* \"#utility.yul\":6766:6770   */\n      dup2\n        /* \"#utility.yul\":6762:6777   */\n      add\n        /* \"#utility.yul\":6754:6777   */\n      swap1\n      pop\n        /* \"#utility.yul\":6476:6784   */\n      swap2\n      swap1\n      pop\n      jump\t// out\n        /* \"#utility.yul\":6790:6938   */\n    tag_104:\n        /* \"#utility.yul\":6888:6894   */\n      dup3\n        /* \"#utility.yul\":6883:6886   */\n      dup2\n        /* \"#utility.yul\":6878:6881   */\n      dup4\n        /* \"#utility.yul\":6865:6895   */\n      calldatacopy\n        /* \"#utility.yul\":6929:6930   */\n      0x00\n        /* \"#utility.yul\":6920:6926   */\n      dup4\n        /* \"#utility.yul\":6915:6918   */\n      dup4\n        /* \"#utility.yul\":6911:6927   */\n      add\n        /* \"#utility.yul\":6904:6931   */\n      mstore\n        /* \"#utility.yul\":6790:6938   */\n      pop\n      pop\n      pop\n      jump\t// out\n        /* \"#utility.yul\":6944:7369   */\n    tag_105:\n        /* \"#utility.yul\":7022:7027   */\n      0x00\n        /* \"#utility.yul\":7047:7113   */\n      tag_204\n        /* \"#utility.yul\":7063:7112   */\n      tag_205\n        /* \"#utility.yul\":7105:7111   */\n      dup5\n        /* \"#utility.yul\":7063:7112   */\n      tag_103\n      jump\t// in\n    tag_205:\n        /* \"#utility.yul\":7047:7113   */\n      tag_102\n      jump\t// in\n    tag_204:\n        /* \"#utility.yul\":7038:7113   */\n      swap1\n      pop\n        /* \"#utility.yul\":7136:7142   */\n      dup3\n        /* \"#utility.yul\":7129:7134   */\n      dup2\n        /* \"#utility.yul\":7122:7143   */\n      mstore\n        /* \"#utility.yul\":7174:7178   */\n      0x20\n        /* \"#utility.yul\":7167:7172   */\n      dup2\n        /* \"#utility.yul\":7163:7179   */\n      add\n        /* \"#utility.yul\":7212:7215   */\n      dup5\n        /* \"#utility.yul\":7203:7209   */\n      dup5\n        /* \"#utility.yul\":7198:7201   */\n      dup5\n        /* \"#utility.yul\":7194:7210   */\n      add\n        /* \"#utility.yul\":7191:7216   */\n      gt\n        /* \"#utility.yul\":7188:7300   */\n      iszero\n      tag_206\n      jumpi\n        /* \"#utility.yul\":7219:7298   */\n      tag_207\n      tag_99\n      jump\t// in\n    tag_207:\n        /* \"#utility.yul\":7188:7300   */\n    tag_206:\n        /* \"#utility.yul\":7309:7363   */\n      tag_208\n        /* \"#utility.yul\":7356:7362   */\n      dup5\n        /* \"#utility.yul\":7351:7354   */\n      dup3\n        /* \"#utility.yul\":7346:7349   */\n      dup6\n        /* \"#utility.yul\":7309:7363   */\n      tag_104\n      jump\t// in\n    tag_208:\n        /* \"#utility.yul\":7028:7369   */\n      pop\n        /* \"#utility.yul\":6944:7369   */\n      swap4\n      swap3\n      pop\n      pop\n      pop\n      jump\t// out\n        /* \"#utility.yul\":7389:7729   */\n    tag_106:\n        /* \"#utility.yul\":7445:7450   */\n      0x00\n        /* \"#utility.yul\":7494:7497   */\n      dup3\n        /* \"#utility.yul\":7487:7491   */\n      0x1f\n        /* \"#utility.yul\":7479:7485   */\n      dup4\n        /* \"#utility.yul\":7475:7492   */\n      add\n        /* \"#utility.yul\":7471:7498   */\n      slt\n        /* \"#utility.yul\":7461:7583   */\n      tag_210\n      jumpi\n        /* \"#utility.yul\":7502:7581   */\n      tag_211\n      tag_98\n      jump\t// in\n    tag_211:\n        /* \"#utility.yul\":7461:7583   */\n    tag_210:\n        /* \"#utility.yul\":7619:7625   */\n      dup2\n        /* \"#utility.yul\":7606:7626   */\n      calldataload\n        /* \"#utility.yul\":7644:7723   */\n      tag_212\n        /* \"#utility.yul\":7719:7722   */\n      dup5\n        /* \"#utility.yul\":7711:7717   */\n      dup3\n        /* \"#utility.yul\":7704:7708   */\n      0x20\n        /* \"#utility.yul\":7696:7702   */\n      dup7\n        /* \"#utility.yul\":7692:7709   */\n      add\n        /* \"#utility.yul\":7644:7723   */\n      tag_105\n      jump\t// in\n    tag_212:\n        /* \"#utility.yul\":7635:7723   */\n      swap2\n      pop\n        /* \"#utility.yul\":7451:7729   */\n      pop\n        /* \"#utility.yul\":7389:7729   */\n      swap3\n      swap2\n      pop\n      pop\n      jump\t// out\n        /* \"#utility.yul\":7735:8389   */\n    tag_21:\n        /* \"#utility.yul\":7813:7819   */\n      0x00\n        /* \"#utility.yul\":7821:7827   */\n      dup1\n        /* \"#utility.yul\":7870:7872   */\n      0x40\n        /* \"#utility.yul\":7858:7867   */\n      dup4\n        /* \"#utility.yul\":7849:7856   */\n      dup6\n        /* \"#utility.yul\":7845:7868   */\n      sub\n        /* \"#utility.yul\":7841:7873   */\n      slt\n        /* \"#utility.yul\":7838:7957   */\n      iszero\n      tag_214\n      jumpi\n        /* \"#utility.yul\":7876:7955   */\n      tag_215\n      tag_77\n      jump\t// in\n    tag_215:\n        /* \"#utility.yul\":7838:7957   */\n    tag_214:\n        /* \"#utility.yul\":7996:7997   */\n      0x00\n        /* \"#utility.yul\":8021:8074   */\n      tag_216\n        /* \"#utility.yul\":8066:8073   */\n      dup6\n        /* \"#utility.yul\":8057:8063   */\n      dup3\n        /* \"#utility.yul\":8046:8055   */\n      dup7\n        /* \"#utility.yul\":8042:8064   */\n      add\n        /* \"#utility.yul\":8021:8074   */\n      tag_85\n      jump\t// in\n    tag_216:\n        /* \"#utility.yul\":8011:8074   */\n      swap3\n      pop\n        /* \"#utility.yul\":7967:8084   */\n      pop\n        /* \"#utility.yul\":8151:8153   */\n      0x20\n        /* \"#utility.yul\":8140:8149   */\n      dup4\n        /* \"#utility.yul\":8136:8154   */\n      add\n        /* \"#utility.yul\":8123:8155   */\n      calldataload\n        /* \"#utility.yul\":8182:8200   */\n      0xffffffffffffffff\n        /* \"#utility.yul\":8174:8180   */\n      dup2\n        /* \"#utility.yul\":8171:8201   */\n      gt\n        /* \"#utility.yul\":8168:8285   */\n      iszero\n      tag_217\n      jumpi\n        /* \"#utility.yul\":8204:8283   */\n      tag_218\n      tag_78\n      jump\t// in\n    tag_218:\n        /* \"#utility.yul\":8168:8285   */\n    tag_217:\n        /* \"#utility.yul\":8309:8372   */\n      tag_219\n        /* \"#utility.yul\":8364:8371   */\n      dup6\n        /* \"#utility.yul\":8355:8361   */\n      dup3\n        /* \"#utility.yul\":8344:8353   */\n      dup7\n        /* \"#utility.yul\":8340:8362   */\n      add\n        /* \"#utility.yul\":8309:8372   */\n      tag_106\n      jump\t// in\n    tag_219:\n        /* \"#utility.yul\":8299:8372   */\n      swap2\n      pop\n        /* \"#utility.yul\":8094:8382   */\n      pop\n        /* \"#utility.yul\":7735:8389   */\n      swap3\n      pop\n      swap3\n      swap1\n      pop\n      jump\t// out\n        /* \"#utility.yul\":8395:8724   */\n    tag_25:\n        /* \"#utility.yul\":8454:8460   */\n      0x00\n        /* \"#utility.yul\":8503:8505   */\n      0x20\n        /* \"#utility.yul\":8491:8500   */\n      dup3\n        /* \"#utility.yul\":8482:8489   */\n      dup5\n        /* \"#utility.yul\":8478:8501   */\n      sub\n        /* \"#utility.yul\":8474:8506   */\n      slt\n        /* \"#utility.yul\":8471:8590   */\n      iszero\n      tag_221\n      jumpi\n        /* \"#utility.yul\":8509:8588   */\n      tag_222\n      tag_77\n      jump\t// in\n    tag_222:\n        /* \"#utility.yul\":8471:8590   */\n    tag_221:\n        /* \"#utility.yul\":8629:8630   */\n      0x00\n        /* \"#utility.yul\":8654:8707   */\n      tag_223\n        /* \"#utility.yul\":8699:8706   */\n      dup5\n        /* \"#utility.yul\":8690:8696   */\n      dup3\n        /* \"#utility.yul\":8679:8688   */\n      dup6\n        /* \"#utility.yul\":8675:8697   */\n      add\n        /* \"#utility.yul\":8654:8707   */\n      tag_82\n      jump\t// in\n    tag_223:\n        /* \"#utility.yul\":8644:8707   */\n      swap2\n      pop\n        /* \"#utility.yul\":8600:8717   */\n      pop\n        /* \"#utility.yul\":8395:8724   */\n      swap3\n      swap2\n      pop\n      pop\n      jump\t// out\n        /* \"#utility.yul\":8730:8952   */\n    tag_28:\n        /* \"#utility.yul\":8823:8827   */\n      0x00\n        /* \"#utility.yul\":8861:8863   */\n      0x20\n        /* \"#utility.yul\":8850:8859   */\n      dup3\n        /* \"#utility.yul\":8846:8864   */\n      add\n        /* \"#utility.yul\":8838:8864   */\n      swap1\n      pop\n        /* \"#utility.yul\":8874:8945   */\n      tag_225\n        /* \"#utility.yul\":8942:8943   */\n      0x00\n        /* \"#utility.yul\":8931:8940   */\n      dup4\n        /* \"#utility.yul\":8927:8944   */\n      add\n        /* \"#utility.yul\":8918:8924   */\n      dup5\n        /* \"#utility.yul\":8874:8945   */\n      tag_86\n      jump\t// in\n    tag_225:\n        /* \"#utility.yul\":8730:8952   */\n      swap3\n      swap2\n      pop\n      pop\n      jump\t// out\n        /* \"#utility.yul\":8958:9093   */\n    tag_107:\n        /* \"#utility.yul\":9046:9052   */\n      0x00\n        /* \"#utility.yul\":9080:9085   */\n      dup2\n        /* \"#utility.yul\":9074:9086   */\n      mload\n        /* \"#utility.yul\":9064:9086   */\n      swap1\n      pop\n        /* \"#utility.yul\":8958:9093   */\n      swap2\n      swap1\n      pop\n      jump\t// out\n        /* \"#utility.yul\":9099:9304   */\n    tag_108:\n        /* \"#utility.yul\":9219:9230   */\n      0x00\n        /* \"#utility.yul\":9253:9259   */\n      dup3\n        /* \"#utility.yul\":9248:9251   */\n      dup3\n        /* \"#utility.yul\":9241:9260   */\n      mstore\n        /* \"#utility.yul\":9293:9297   */\n      0x20\n        /* \"#utility.yul\":9288:9291   */\n      dup3\n        /* \"#utility.yul\":9284:9298   */\n      add\n        /* \"#utility.yul\":9269:9298   */\n      swap1\n      pop\n        /* \"#utility.yul\":9099:9304   */\n      swap3\n      swap2\n      pop\n      pop\n      jump\t// out\n        /* \"#utility.yul\":9310:9463   */\n    tag_109:\n        /* \"#utility.yul\":9398:9402   */\n      0x00\n        /* \"#utility.yul\":9421:9424   */\n      dup2\n        /* \"#utility.yul\":9413:9424   */\n      swap1\n      pop\n        /* \"#utility.yul\":9451:9455   */\n      0x20\n        /* \"#utility.yul\":9446:9449   */\n      dup3\n        /* \"#utility.yul\":9442:9456   */\n      add\n        /* \"#utility.yul\":9434:9456   */\n      swap1\n      pop\n        /* \"#utility.yul\":9310:9463   */\n      swap2\n      swap1\n      pop\n      jump\t// out\n        /* \"#utility.yul\":9521:10465   */\n    tag_110:\n        /* \"#utility.yul\":9622:9625   */\n      0x00\n        /* \"#utility.yul\":9658:9662   */\n      0x80\n        /* \"#utility.yul\":9653:9656   */\n      dup4\n        /* \"#utility.yul\":9649:9663   */\n      add\n        /* \"#utility.yul\":9743:9747   */\n      0x00\n        /* \"#utility.yul\":9736:9741   */\n      dup4\n        /* \"#utility.yul\":9732:9748   */\n      add\n        /* \"#utility.yul\":9726:9749   */\n      mload\n        /* \"#utility.yul\":9762:9825   */\n      tag_230\n        /* \"#utility.yul\":9819:9823   */\n      0x00\n        /* \"#utility.yul\":9814:9817   */\n      dup7\n        /* \"#utility.yul\":9810:9824   */\n      add\n        /* \"#utility.yul\":9796:9808   */\n      dup3\n        /* \"#utility.yul\":9762:9825   */\n      tag_93\n      jump\t// in\n    tag_230:\n        /* \"#utility.yul\":9673:9835   */\n      pop\n        /* \"#utility.yul\":9920:9924   */\n      0x20\n        /* \"#utility.yul\":9913:9918   */\n      dup4\n        /* \"#utility.yul\":9909:9925   */\n      add\n        /* \"#utility.yul\":9903:9926   */\n      mload\n        /* \"#utility.yul\":9973:9976   */\n      dup5\n        /* \"#utility.yul\":9967:9971   */\n      dup3\n        /* \"#utility.yul\":9963:9977   */\n      sub\n        /* \"#utility.yul\":9956:9960   */\n      0x20\n        /* \"#utility.yul\":9951:9954   */\n      dup7\n        /* \"#utility.yul\":9947:9961   */\n      add\n        /* \"#utility.yul\":9940:9978   */\n      mstore\n        /* \"#utility.yul\":9999:10072   */\n      tag_231\n        /* \"#utility.yul\":10067:10071   */\n      dup3\n        /* \"#utility.yul\":10053:10065   */\n      dup3\n        /* \"#utility.yul\":9999:10072   */\n      tag_95\n      jump\t// in\n    tag_231:\n        /* \"#utility.yul\":9991:10072   */\n      swap2\n      pop\n        /* \"#utility.yul\":9845:10083   */\n      pop\n        /* \"#utility.yul\":10167:10171   */\n      0x40\n        /* \"#utility.yul\":10160:10165   */\n      dup4\n        /* \"#utility.yul\":10156:10172   */\n      add\n        /* \"#utility.yul\":10150:10173   */\n      mload\n        /* \"#utility.yul\":10186:10249   */\n      tag_232\n        /* \"#utility.yul\":10243:10247   */\n      0x40\n        /* \"#utility.yul\":10238:10241   */\n      dup7\n        /* \"#utility.yul\":10234:10248   */\n      add\n        /* \"#utility.yul\":10220:10232   */\n      dup3\n        /* \"#utility.yul\":10186:10249   */\n      tag_96\n      jump\t// in\n    tag_232:\n        /* \"#utility.yul\":10093:10259   */\n      pop\n        /* \"#utility.yul\":10346:10350   */\n      0x60\n        /* \"#utility.yul\":10339:10344   */\n      dup4\n        /* \"#utility.yul\":10335:10351   */\n      add\n        /* \"#utility.yul\":10329:10352   */\n      mload\n        /* \"#utility.yul\":10365:10428   */\n      tag_233\n        /* \"#utility.yul\":10422:10426   */\n      0x60\n        /* \"#utility.yul\":10417:10420   */\n      dup7\n        /* \"#utility.yul\":10413:10427   */\n      add\n        /* \"#utility.yul\":10399:10411   */\n      dup3\n        /* \"#utility.yul\":10365:10428   */\n      tag_93\n      jump\t// in\n    tag_233:\n        /* \"#utility.yul\":10269:10438   */\n      pop\n        /* \"#utility.yul\":10455:10459   */\n      dup1\n        /* \"#utility.yul\":10448:10459   */\n      swap2\n      pop\n        /* \"#utility.yul\":9627:10465   */\n      pop\n        /* \"#utility.yul\":9521:10465   */\n      swap3\n      swap2\n      pop\n      pop\n      jump\t// out\n        /* \"#utility.yul\":10471:10711   */\n    tag_111:\n        /* \"#utility.yul\":10582:10592   */\n      0x00\n        /* \"#utility.yul\":10617:10705   */\n      tag_235\n        /* \"#utility.yul\":10701:10704   */\n      dup4\n        /* \"#utility.yul\":10693:10699   */\n      dup4\n        /* \"#utility.yul\":10617:10705   */\n      tag_110\n      jump\t// in\n    tag_235:\n        /* \"#utility.yul\":10603:10705   */\n      swap1\n      pop\n        /* \"#utility.yul\":10471:10711   */\n      swap3\n      swap2\n      pop\n      pop\n      jump\t// out\n        /* \"#utility.yul\":10717:10851   */\n    tag_112:\n        /* \"#utility.yul\":10808:10812   */\n      0x00\n        /* \"#utility.yul\":10840:10844   */\n      0x20\n        /* \"#utility.yul\":10835:10838   */\n      dup3\n        /* \"#utility.yul\":10831:10845   */\n      add\n        /* \"#utility.yul\":10823:10845   */\n      swap1\n      pop\n        /* \"#utility.yul\":10717:10851   */\n      swap2\n      swap1\n      pop\n      jump\t// out\n        /* \"#utility.yul\":10913:11992   */\n    tag_113:\n        /* \"#utility.yul\":11074:11077   */\n      0x00\n        /* \"#utility.yul\":11103:11178   */\n      tag_238\n        /* \"#utility.yul\":11172:11177   */\n      dup3\n        /* \"#utility.yul\":11103:11178   */\n      tag_107\n      jump\t// in\n    tag_238:\n        /* \"#utility.yul\":11194:11301   */\n      tag_239\n        /* \"#utility.yul\":11294:11300   */\n      dup2\n        /* \"#utility.yul\":11289:11292   */\n      dup6\n        /* \"#utility.yul\":11194:11301   */\n      tag_108\n      jump\t// in\n    tag_239:\n        /* \"#utility.yul\":11187:11301   */\n      swap4\n      pop\n        /* \"#utility.yul\":11327:11330   */\n      dup4\n        /* \"#utility.yul\":11372:11376   */\n      0x20\n        /* \"#utility.yul\":11364:11370   */\n      dup3\n        /* \"#utility.yul\":11360:11377   */\n      mul\n        /* \"#utility.yul\":11355:11358   */\n      dup6\n        /* \"#utility.yul\":11351:11378   */\n      add\n        /* \"#utility.yul\":11402:11479   */\n      tag_240\n        /* \"#utility.yul\":11473:11478   */\n      dup6\n        /* \"#utility.yul\":11402:11479   */\n      tag_109\n      jump\t// in\n    tag_240:\n        /* \"#utility.yul\":11502:11509   */\n      dup1\n        /* \"#utility.yul\":11533:11534   */\n      0x00\n        /* \"#utility.yul\":11518:11947   */\n    tag_241:\n        /* \"#utility.yul\":11543:11549   */\n      dup6\n        /* \"#utility.yul\":11540:11541   */\n      dup2\n        /* \"#utility.yul\":11537:11550   */\n      lt\n        /* \"#utility.yul\":11518:11947   */\n      iszero\n      tag_243\n      jumpi\n        /* \"#utility.yul\":11614:11623   */\n      dup5\n        /* \"#utility.yul\":11608:11612   */\n      dup5\n        /* \"#utility.yul\":11604:11624   */\n      sub\n        /* \"#utility.yul\":11599:11602   */\n      dup10\n        /* \"#utility.yul\":11592:11625   */\n      mstore\n        /* \"#utility.yul\":11665:11671   */\n      dup2\n        /* \"#utility.yul\":11659:11672   */\n      mload\n        /* \"#utility.yul\":11693:11799   */\n      tag_244\n        /* \"#utility.yul\":11794:11798   */\n      dup6\n        /* \"#utility.yul\":11779:11792   */\n      dup3\n        /* \"#utility.yul\":11693:11799   */\n      tag_111\n      jump\t// in\n    tag_244:\n        /* \"#utility.yul\":11685:11799   */\n      swap5\n      pop\n        /* \"#utility.yul\":11822:11903   */\n      tag_245\n        /* \"#utility.yul\":11896:11902   */\n      dup4\n        /* \"#utility.yul\":11822:11903   */\n      tag_112\n      jump\t// in\n    tag_245:\n        /* \"#utility.yul\":11812:11903   */\n      swap3\n      pop\n        /* \"#utility.yul\":11932:11936   */\n      0x20\n        /* \"#utility.yul\":11927:11930   */\n      dup11\n        /* \"#utility.yul\":11923:11937   */\n      add\n        /* \"#utility.yul\":11916:11937   */\n      swap10\n      pop\n        /* \"#utility.yul\":11578:11947   */\n      pop\n        /* \"#utility.yul\":11565:11566   */\n      0x01\n        /* \"#utility.yul\":11562:11563   */\n      dup2\n        /* \"#utility.yul\":11558:11567   */\n      add\n        /* \"#utility.yul\":11553:11567   */\n      swap1\n      pop\n        /* \"#utility.yul\":11518:11947   */\n      jump(tag_241)\n    tag_243:\n        /* \"#utility.yul\":11522:11536   */\n      pop\n        /* \"#utility.yul\":11963:11967   */\n      dup3\n        /* \"#utility.yul\":11956:11967   */\n      swap8\n      pop\n        /* \"#utility.yul\":11983:11986   */\n      dup8\n        /* \"#utility.yul\":11976:11986   */\n      swap6\n      pop\n        /* \"#utility.yul\":11079:11992   */\n      pop\n      pop\n      pop\n      pop\n      pop\n        /* \"#utility.yul\":10913:11992   */\n      swap3\n      swap2\n      pop\n      pop\n      jump\t// out\n        /* \"#utility.yul\":11998:12455   */\n    tag_33:\n        /* \"#utility.yul\":12183:12187   */\n      0x00\n        /* \"#utility.yul\":12221:12223   */\n      0x20\n        /* \"#utility.yul\":12210:12219   */\n      dup3\n        /* \"#utility.yul\":12206:12224   */\n      add\n        /* \"#utility.yul\":12198:12224   */\n      swap1\n      pop\n        /* \"#utility.yul\":12270:12279   */\n      dup2\n        /* \"#utility.yul\":12264:12268   */\n      dup2\n        /* \"#utility.yul\":12260:12280   */\n      sub\n        /* \"#utility.yul\":12256:12257   */\n      0x00\n        /* \"#utility.yul\":12245:12254   */\n      dup4\n        /* \"#utility.yul\":12241:12258   */\n      add\n        /* \"#utility.yul\":12234:12281   */\n      mstore\n        /* \"#utility.yul\":12298:12448   */\n      tag_247\n        /* \"#utility.yul\":12443:12447   */\n      dup2\n        /* \"#utility.yul\":12434:12440   */\n      dup5\n        /* \"#utility.yul\":12298:12448   */\n      tag_113\n      jump\t// in\n    tag_247:\n        /* \"#utility.yul\":12290:12448   */\n      swap1\n      pop\n        /* \"#utility.yul\":11998:12455   */\n      swap3\n      swap2\n      pop\n      pop\n      jump\t// out\n        /* \"#utility.yul\":12461:12641   */\n    tag_114:\n        /* \"#utility.yul\":12509:12586   */\n      0x4e487b7100000000000000000000000000000000000000000000000000000000\n        /* \"#utility.yul\":12506:12507   */\n      0x00\n        /* \"#utility.yul\":12499:12587   */\n      mstore\n        /* \"#utility.yul\":12606:12610   */\n      0x22\n        /* \"#utility.yul\":12603:12604   */\n      0x04\n        /* \"#utility.yul\":12596:12611   */\n      mstore\n        /* \"#utility.yul\":12630:12634   */\n      0x24\n        /* \"#utility.yul\":12627:12628   */\n      0x00\n        /* \"#utility.yul\":12620:12635   */\n      revert\n        /* \"#utility.yul\":12647:12967   */\n    tag_37:\n        /* \"#utility.yul\":12691:12697   */\n      0x00\n        /* \"#utility.yul\":12728:12729   */\n      0x02\n        /* \"#utility.yul\":12722:12726   */\n      dup3\n        /* \"#utility.yul\":12718:12730   */\n      div\n        /* \"#utility.yul\":12708:12730   */\n      swap1\n      pop\n        /* \"#utility.yul\":12775:12776   */\n      0x01\n        /* \"#utility.yul\":12769:12773   */\n      dup3\n        /* \"#utility.yul\":12765:12777   */\n      and\n        /* \"#utility.yul\":12796:12814   */\n      dup1\n        /* \"#utility.yul\":12786:12867   */\n      tag_250\n      jumpi\n        /* \"#utility.yul\":12852:12856   */\n      0x7f\n        /* \"#utility.yul\":12844:12850   */\n      dup3\n        /* \"#utility.yul\":12840:12857   */\n      and\n        /* \"#utility.yul\":12830:12857   */\n      swap2\n      pop\n        /* \"#utility.yul\":12786:12867   */\n    tag_250:\n        /* \"#utility.yul\":12914:12916   */\n      0x20\n        /* \"#utility.yul\":12906:12912   */\n      dup3\n        /* \"#utility.yul\":12903:12917   */\n      lt\n        /* \"#utility.yul\":12883:12901   */\n      dup2\n        /* \"#utility.yul\":12880:12918   */\n      sub\n        /* \"#utility.yul\":12877:12961   */\n      tag_251\n      jumpi\n        /* \"#utility.yul\":12933:12951   */\n      tag_252\n      tag_114\n      jump\t// in\n    tag_252:\n        /* \"#utility.yul\":12877:12961   */\n    tag_251:\n        /* \"#utility.yul\":12698:12967   */\n      pop\n        /* \"#utility.yul\":12647:12967   */\n      swap2\n      swap1\n      pop\n      jump\t// out\n        /* \"#utility.yul\":12973:13153   */\n    tag_47:\n        /* \"#utility.yul\":13021:13098   */\n      0x4e487b7100000000000000000000000000000000000000000000000000000000\n        /* \"#utility.yul\":13018:13019   */\n      0x00\n        /* \"#utility.yul\":13011:13099   */\n      mstore\n        /* \"#utility.yul\":13118:13122   */\n      0x32\n        /* \"#utility.yul\":13115:13116   */\n      0x04\n        /* \"#utility.yul\":13108:13123   */\n      mstore\n        /* \"#utility.yul\":13142:13146   */\n      0x24\n        /* \"#utility.yul\":13139:13140   */\n      0x00\n        /* \"#utility.yul\":13132:13147   */\n      revert\n        /* \"#utility.yul\":13159:13300   */\n    tag_115:\n        /* \"#utility.yul\":13208:13212   */\n      0x00\n        /* \"#utility.yul\":13231:13234   */\n      dup2\n        /* \"#utility.yul\":13223:13234   */\n      swap1\n      pop\n        /* \"#utility.yul\":13254:13257   */\n      dup2\n        /* \"#utility.yul\":13251:13252   */\n      0x00\n        /* \"#utility.yul\":13244:13258   */\n      mstore\n        /* \"#utility.yul\":13288:13292   */\n      0x20\n        /* \"#utility.yul\":13285:13286   */\n      0x00\n        /* \"#utility.yul\":13275:13293   */\n      keccak256\n        /* \"#utility.yul\":13267:13293   */\n      swap1\n      pop\n        /* \"#utility.yul\":13159:13300   */\n      swap2\n      swap1\n      pop\n      jump\t// out\n        /* \"#utility.yul\":13306:13399   */\n    tag_116:\n        /* \"#utility.yul\":13343:13349   */\n      0x00\n        /* \"#utility.yul\":13390:13392   */\n      0x20\n        /* \"#utility.yul\":13385:13387   */\n      0x1f\n        /* \"#utility.yul\":13378:13383   */\n      dup4\n        /* \"#utility.yul\":13374:13388   */\n      add\n        /* \"#utility.yul\":13370:13393   */\n      div\n        /* \"#utility.yul\":13360:13393   */\n      swap1\n      pop\n        /* \"#utility.yul\":13306:13399   */\n      swap2\n      swap1\n      pop\n      jump\t// out\n        /* \"#utility.yul\":13405:13512   */\n    tag_117:\n        /* \"#utility.yul\":13449:13457   */\n      0x00\n        /* \"#utility.yul\":13499:13504   */\n      dup3\n        /* \"#utility.yul\":13493:13497   */\n      dup3\n        /* \"#utility.yul\":13489:13505   */\n      shl\n        /* \"#utility.yul\":13468:13505   */\n      swap1\n      pop\n        /* \"#utility.yul\":13405:13512   */\n      swap3\n      swap2\n      pop\n      pop\n      jump\t// out\n        /* \"#utility.yul\":13518:13911   */\n    tag_118:\n        /* \"#utility.yul\":13587:13593   */\n      0x00\n        /* \"#utility.yul\":13637:13638   */\n      0x08\n        /* \"#utility.yul\":13625:13635   */\n      dup4\n        /* \"#utility.yul\":13621:13639   */\n      mul\n        /* \"#utility.yul\":13660:13757   */\n      tag_258\n        /* \"#utility.yul\":13690:13756   */\n      0xffffffffffffffffffffffffffffffffffffffffffffffffffffffffffffffff\n        /* \"#utility.yul\":13679:13688   */\n      dup3\n        /* \"#utility.yul\":13660:13757   */\n      tag_117\n      jump\t// in\n    tag_258:\n        /* \"#utility.yul\":13778:13817   */\n      tag_259\n        /* \"#utility.yul\":13808:13816   */\n      dup7\n        /* \"#utility.yul\":13797:13806   */\n      dup4\n        /* \"#utility.yul\":13778:13817   */\n      tag_117\n      jump\t// in\n    tag_259:\n        /* \"#utility.yul\":13766:13817   */\n      swap6\n      pop\n        /* \"#utility.yul\":13850:13854   */\n      dup1\n        /* \"#utility.yul\":13846:13855   */\n      not\n        /* \"#utility.yul\":13839:13844   */\n      dup5\n        /* \"#utility.yul\":13835:13856   */\n      and\n        /* \"#utility.yul\":13826:13856   */\n      swap4\n      pop\n        /* \"#utility.yul\":13899:13903   */\n      dup1\n        /* \"#utility.yul\":13889:13897   */\n      dup7\n        /* \"#utility.yul\":13885:13904   */\n      and\n        /* \"#utility.yul\":13878:13883   */\n      dup5\n        /* \"#utility.yul\":13875:13905   */\n      or\n        /* \"#utility.yul\":13865:13905   */\n      swap3\n      pop\n        /* \"#utility.yul\":13594:13911   */\n      pop\n      pop\n        /* \"#utility.yul\":13518:13911   */\n      swap4\n      swap3\n      pop\n      pop\n      pop\n      jump\t// out\n        /* \"#utility.yul\":13917:13977   */\n    tag_119:\n        /* \"#utility.yul\":13945:13948   */\n      0x00\n        /* \"#utility.yul\":13966:13971   */\n      dup2\n        /* \"#utility.yul\":13959:13971   */\n      swap1\n      pop\n        /* \"#utility.yul\":13917:13977   */\n      swap2\n      swap1\n      pop\n      jump\t// out\n        /* \"#utility.yul\":13983:14125   */\n    tag_120:\n        /* \"#utility.yul\":14033:14042   */\n      0x00\n        /* \"#utility.yul\":14066:14119   */\n      tag_262\n        /* \"#utility.yul\":14084:14118   */\n      tag_263\n        /* \"#utility.yul\":14093:14117   */\n      tag_264\n        /* \"#utility.yul\":14111:14116   */\n      dup5\n        /* \"#utility.yul\":14093:14117   */\n      tag_83\n      jump\t// in\n    tag_264:\n        /* \"#utility.yul\":14084:14118   */\n      tag_119\n      jump\t// in\n    tag_263:\n        /* \"#utility.yul\":14066:14119   */\n      tag_83\n      jump\t// in\n    tag_262:\n        /* \"#utility.yul\":14053:14119   */\n      swap1\n      pop\n        /* \"#utility.yul\":13983:14125   */\n      swap2\n      swap1\n      pop\n      jump\t// out\n        /* \"#utility.yul\":14131:14206   */\n    tag_121:\n        /* \"#utility.yul\":14174:14177   */\n      0x00\n        /* \"#utility.yul\":14195:14200   */\n      dup2\n        /* \"#utility.yul\":14188:14200   */\n      swap1\n      pop\n        /* \"#utility.yul\":14131:14206   */\n      swap2\n      swap1\n      pop\n      jump\t// out\n        /* \"#utility.yul\":14212:14481   */\n    tag_122:\n        /* \"#utility.yul\":14322:14361   */\n      tag_267\n        /* \"#utility.yul\":14353:14360   */\n      dup4\n        /* \"#utility.yul\":14322:14361   */\n      tag_120\n      jump\t// in\n    tag_267:\n        /* \"#utility.yul\":14383:14474   */\n      tag_268\n        /* \"#utility.yul\":14432:14473   */\n      tag_269\n        /* \"#utility.yul\":14456:14472   */\n      dup3\n        /* \"#utility.yul\":14432:14473   */\n      tag_121\n      jump\t// in\n    tag_269:\n        /* \"#utility.yul\":14424:14430   */\n      dup5\n        /* \"#utility.yul\":14417:14421   */\n      dup5\n        /* \"#utility.yul\":14411:14422   */\n      sload\n        /* \"#utility.yul\":14383:14474   */\n      tag_118\n      jump\t// in\n    tag_268:\n        /* \"#utility.yul\":14377:14381   */\n      dup3\n        /* \"#utility.yul\":14370:14475   */\n      sstore\n        /* \"#utility.yul\":14288:14481   */\n      pop\n        /* \"#utility.yul\":14212:14481   */\n      pop\n      pop\n      pop\n      jump\t// out\n        /* \"#utility.yul\":14487:14560   */\n    tag_123:\n        /* \"#utility.yul\":14532:14535   */\n      0x00\n        /* \"#utility.yul\":14487:14560   */\n      swap1\n      jump\t// out\n        /* \"#utility.yul\":14566:14755   */\n    tag_124:\n        /* \"#utility.yul\":14643:14675   */\n      tag_272\n      tag_123\n      jump\t// in\n    tag_272:\n        /* \"#utility.yul\":14684:14749   */\n      tag_273\n        /* \"#utility.yul\":14742:14748   */\n      dup2\n        /* \"#utility.yul\":14734:14740   */\n      dup5\n        /* \"#utility.yul\":14728:14732   */\n      dup5\n        /* \"#utility.yul\":14684:14749   */\n      tag_122\n      jump\t// in\n    tag_273:\n        /* \"#utility.yul\":14619:14755   */\n      pop\n        /* \"#utility.yul\":14566:14755   */\n      pop\n      pop\n      jump\t// out\n        /* \"#utility.yul\":14761:14947   */\n    tag_125:\n        /* \"#utility.yul\":14821:14941   */\n    tag_275:\n        /* \"#utility.yul\":14838:14841   */\n      dup2\n        /* \"#utility.yul\":14831:14836   */\n      dup2\n        /* \"#utility.yul\":14828:14842   */\n      lt\n        /* \"#utility.yul\":14821:14941   */\n      iszero\n      tag_277\n      jumpi\n        /* \"#utility.yul\":14892:14931   */\n      tag_278\n        /* \"#utility.yul\":14929:14930   */\n      0x00\n        /* \"#utility.yul\":14922:14927   */\n      dup3\n        /* \"#utility.yul\":14892:14931   */\n      tag_124\n      jump\t// in\n    tag_278:\n        /* \"#utility.yul\":14865:14866   */\n      0x01\n        /* \"#utility.yul\":14858:14863   */\n      dup2\n        /* \"#utility.yul\":14854:14867   */\n      add\n        /* \"#utility.yul\":14845:14867   */\n      swap1\n      pop\n        /* \"#utility.yul\":14821:14941   */\n      jump(tag_275)\n    tag_277:\n        /* \"#utility.yul\":14761:14947   */\n      pop\n      pop\n      jump\t// out\n        /* \"#utility.yul\":14953:15496   */\n    tag_126:\n        /* \"#utility.yul\":15054:15056   */\n      0x1f\n        /* \"#utility.yul\":15049:15052   */\n      dup3\n        /* \"#utility.yul\":15046:15057   */\n      gt\n        /* \"#utility.yul\":15043:15489   */\n      iszero\n      tag_280\n      jumpi\n        /* \"#utility.yul\":15088:15126   */\n      tag_281\n        /* \"#utility.yul\":15120:15125   */\n      dup2\n        /* \"#utility.yul\":15088:15126   */\n      tag_115\n      jump\t// in\n    tag_281:\n        /* \"#utility.yul\":15172:15201   */\n      tag_282\n        /* \"#utility.yul\":15190:15200   */\n      dup5\n        /* \"#utility.yul\":15172:15201   */\n      tag_116\n      jump\t// in\n    tag_282:\n        /* \"#utility.yul\":15162:15170   */\n      dup2\n        /* \"#utility.yul\":15158:15202   */\n      add\n        /* \"#utility.yul\":15355:15357   */\n      0x20\n        /* \"#utility.yul\":15343:15353   */\n      dup6\n        /* \"#utility.yul\":15340:15358   */\n      lt\n        /* \"#utility.yul\":15337:15386   */\n      iszero\n      tag_283\n      jumpi\n        /* \"#utility.yul\":15376:15384   */\n      dup2\n        /* \"#utility.yul\":15361:15384   */\n      swap1\n      pop\n        /* \"#utility.yul\":15337:15386   */\n    tag_283:\n        /* \"#utility.yul\":15399:15479   */\n      tag_284\n        /* \"#utility.yul\":15455:15477   */\n      tag_285\n        /* \"#utility.yul\":15473:15476   */\n      dup6\n        /* \"#utility.yul\":15455:15477   */\n      tag_116\n      jump\t// in\n    tag_285:\n        /* \"#utility.yul\":15445:15453   */\n      dup4\n        /* \"#utility.yul\":15441:15478   */\n      add\n        /* \"#utility.yul\":15428:15439   */\n      dup3\n        /* \"#utility.yul\":15399:15479   */\n      tag_125\n      jump\t// in\n    tag_284:\n        /* \"#utility.yul\":15058:15489   */\n      pop\n      pop\n        /* \"#utility.yul\":15043:15489   */\n    tag_280:\n        /* \"#utility.yul\":14953:15496   */\n      pop\n      pop\n      pop\n      jump\t// out\n        /* \"#utility.yul\":15502:15619   */\n    tag_127:\n        /* \"#utility.yul\":15556:15564   */\n      0x00\n        /* \"#utility.yul\":15606:15611   */\n      dup3\n        /* \"#utility.yul\":15600:15604   */\n      dup3\n        /* \"#utility.yul\":15596:15612   */\n      shr\n        /* \"#utility.yul\":15575:15612   */\n      swap1\n      pop\n        /* \"#utility.yul\":15502:15619   */\n      swap3\n      swap2\n      pop\n      pop\n      jump\t// out\n        /* \"#utility.yul\":15625:15794   */\n    tag_128:\n        /* \"#utility.yul\":15669:15675   */\n      0x00\n        /* \"#utility.yul\":15702:15753   */\n      tag_288\n        /* \"#utility.yul\":15750:15751   */\n      0x00\n        /* \"#utility.yul\":15746:15752   */\n      not\n        /* \"#utility.yul\":15738:15743   */\n      dup5\n        /* \"#utility.yul\":15735:15736   */\n      0x08\n        /* \"#utility.yul\":15731:15744   */\n      mul\n        /* \"#utility.yul\":15702:15753   */\n      tag_127\n      jump\t// in\n    tag_288:\n        /* \"#utility.yul\":15698:15754   */\n      not\n        /* \"#utility.yul\":15783:15787   */\n      dup1\n        /* \"#utility.yul\":15777:15781   */\n      dup4\n        /* \"#utility.yul\":15773:15788   */\n      and\n        /* \"#utility.yul\":15763:15788   */\n      swap2\n      pop\n        /* \"#utility.yul\":15676:15794   */\n      pop\n        /* \"#utility.yul\":15625:15794   */\n      swap3\n      swap2\n      pop\n      pop\n      jump\t// out\n        /* \"#utility.yul\":15799:16094   */\n    tag_129:\n        /* \"#utility.yul\":15875:15879   */\n      0x00\n        /* \"#utility.yul\":16021:16050   */\n      tag_290\n        /* \"#utility.yul\":16046:16049   */\n      dup4\n        /* \"#utility.yul\":16040:16044   */\n      dup4\n        /* \"#utility.yul\":16021:16050   */\n      tag_128\n      jump\t// in\n    tag_290:\n        /* \"#utility.yul\":16013:16050   */\n      swap2\n      pop\n        /* \"#utility.yul\":16083:16086   */\n      dup3\n        /* \"#utility.yul\":16080:16081   */\n      0x02\n        /* \"#utility.yul\":16076:16087   */\n      mul\n        /* \"#utility.yul\":16070:16074   */\n      dup3\n        /* \"#utility.yul\":16067:16088   */\n      or\n        /* \"#utility.yul\":16059:16088   */\n      swap1\n      pop\n        /* \"#utility.yul\":15799:16094   */\n      swap3\n      swap2\n      pop\n      pop\n      jump\t// out\n        /* \"#utility.yul\":16099:17494   */\n    tag_57:\n        /* \"#utility.yul\":16216:16253   */\n      tag_292\n        /* \"#utility.yul\":16249:16252   */\n      dup3\n        /* \"#utility.yul\":16216:16253   */\n      tag_87\n      jump\t// in\n    tag_292:\n        /* \"#utility.yul\":16318:16336   */\n      0xffffffffffffffff\n        /* \"#utility.yul\":16310:16316   */\n      dup2\n        /* \"#utility.yul\":16307:16337   */\n      gt\n        /* \"#utility.yul\":16304:16360   */\n      iszero\n      tag_293\n      jumpi\n        /* \"#utility.yul\":16340:16358   */\n      tag_294\n      tag_100\n      jump\t// in\n    tag_294:\n        /* \"#utility.yul\":16304:16360   */\n    tag_293:\n        /* \"#utility.yul\":16384:16422   */\n      tag_295\n        /* \"#utility.yul\":16416:16420   */\n      dup3\n        /* \"#utility.yul\":16410:16421   */\n      sload\n        /* \"#utility.yul\":16384:16422   */\n      tag_37\n      jump\t// in\n    tag_295:\n        /* \"#utility.yul\":16469:16536   */\n      tag_296\n        /* \"#utility.yul\":16529:16535   */\n      dup3\n        /* \"#utility.yul\":16521:16527   */\n      dup3\n        /* \"#utility.yul\":16515:16519   */\n      dup6\n        /* \"#utility.yul\":16469:16536   */\n      tag_126\n      jump\t// in\n    tag_296:\n        /* \"#utility.yul\":16563:16564   */\n      0x00\n        /* \"#utility.yul\":16587:16591   */\n      0x20\n        /* \"#utility.yul\":16574:16591   */\n      swap1\n      pop\n        /* \"#utility.yul\":16619:16621   */\n      0x1f\n        /* \"#utility.yul\":16611:16617   */\n      dup4\n        /* \"#utility.yul\":16608:16622   */\n      gt\n        /* \"#utility.yul\":16636:16637   */\n      0x01\n        /* \"#utility.yul\":16631:17249   */\n      dup2\n      eq\n      tag_298\n      jumpi\n        /* \"#utility.yul\":17293:17294   */\n      0x00\n        /* \"#utility.yul\":17310:17316   */\n      dup5\n        /* \"#utility.yul\":17307:17384   */\n      iszero\n      tag_299\n      jumpi\n        /* \"#utility.yul\":17359:17368   */\n      dup3\n        /* \"#utility.yul\":17354:17357   */\n      dup8\n        /* \"#utility.yul\":17350:17369   */\n      add\n        /* \"#utility.yul\":17344:17370   */\n      mload\n        /* \"#utility.yul\":17335:17370   */\n      swap1\n      pop\n        /* \"#utility.yul\":17307:17384   */\n    tag_299:\n        /* \"#utility.yul\":17410:17477   */\n      tag_300\n        /* \"#utility.yul\":17470:17476   */\n      dup6\n        /* \"#utility.yul\":17463:17468   */\n      dup3\n        /* \"#utility.yul\":17410:17477   */\n      tag_129\n      jump\t// in\n    tag_300:\n        /* \"#utility.yul\":17404:17408   */\n      dup7\n        /* \"#utility.yul\":17397:17478   */\n      sstore\n        /* \"#utility.yul\":17266:17488   */\n      pop\n        /* \"#utility.yul\":16601:17488   */\n      jump(tag_297)\n        /* \"#utility.yul\":16631:17249   */\n    tag_298:\n        /* \"#utility.yul\":16683:16687   */\n      0x1f\n        /* \"#utility.yul\":16679:16688   */\n      not\n        /* \"#utility.yul\":16671:16677   */\n      dup5\n        /* \"#utility.yul\":16667:16689   */\n      and\n        /* \"#utility.yul\":16717:16754   */\n      tag_301\n        /* \"#utility.yul\":16749:16753   */\n      dup7\n        /* \"#utility.yul\":16717:16754   */\n      tag_115\n      jump\t// in\n    tag_301:\n        /* \"#utility.yul\":16776:16777   */\n      0x00\n        /* \"#utility.yul\":16790:16998   */\n    tag_302:\n        /* \"#utility.yul\":16804:16811   */\n      dup3\n        /* \"#utility.yul\":16801:16802   */\n      dup2\n        /* \"#utility.yul\":16798:16812   */\n      lt\n        /* \"#utility.yul\":16790:16998   */\n      iszero\n      tag_304\n      jumpi\n        /* \"#utility.yul\":16883:16892   */\n      dup5\n        /* \"#utility.yul\":16878:16881   */\n      dup10\n        /* \"#utility.yul\":16874:16893   */\n      add\n        /* \"#utility.yul\":16868:16894   */\n      mload\n        /* \"#utility.yul\":16860:16866   */\n      dup3\n        /* \"#utility.yul\":16853:16895   */\n      sstore\n        /* \"#utility.yul\":16934:16935   */\n      0x01\n        /* \"#utility.yul\":16926:16932   */\n      dup3\n        /* \"#utility.yul\":16922:16936   */\n      add\n        /* \"#utility.yul\":16912:16936   */\n      swap2\n      pop\n        /* \"#utility.yul\":16981:16983   */\n      0x20\n        /* \"#utility.yul\":16970:16979   */\n      dup6\n        /* \"#utility.yul\":16966:16984   */\n      add\n        /* \"#utility.yul\":16953:16984   */\n      swap5\n      pop\n        /* \"#utility.yul\":16827:16831   */\n      0x20\n        /* \"#utility.yul\":16824:16825   */\n      dup2\n        /* \"#utility.yul\":16820:16832   */\n      add\n        /* \"#utility.yul\":16815:16832   */\n      swap1\n      pop\n        /* \"#utility.yul\":16790:16998   */\n      jump(tag_302)\n    tag_304:\n        /* \"#utility.yul\":17026:17032   */\n      dup7\n        /* \"#utility.yul\":17017:17024   */\n      dup4\n        /* \"#utility.yul\":17014:17033   */\n      lt\n        /* \"#utility.yul\":17011:17190   */\n      iszero\n      tag_305\n      jumpi\n        /* \"#utility.yul\":17084:17093   */\n      dup5\n        /* \"#utility.yul\":17079:17082   */\n      dup10\n        /* \"#utility.yul\":17075:17094   */\n      add\n        /* \"#utility.yul\":17069:17095   */\n      mload\n        /* \"#utility.yul\":17127:17175   */\n      tag_306\n        /* \"#utility.yul\":17169:17173   */\n      0x1f\n        /* \"#utility.yul\":17161:17167   */\n      dup10\n        /* \"#utility.yul\":17157:17174   */\n      and\n        /* \"#utility.yul\":17146:17155   */\n      dup3\n        /* \"#utility.yul\":17127:17175   */\n      tag_128\n      jump\t// in\n    tag_306:\n        /* \"#utility.yul\":17119:17125   */\n      dup4\n        /* \"#utility.yul\":17112:17176   */\n      sstore\n        /* \"#utility.yul\":17034:17190   */\n      pop\n        /* \"#utility.yul\":17011:17190   */\n    tag_305:\n        /* \"#utility.yul\":17236:17237   */\n      0x01\n        /* \"#utility.yul\":17232:17233   */\n      0x02\n        /* \"#utility.yul\":17224:17230   */\n      dup9\n        /* \"#utility.yul\":17220:17234   */\n      mul\n        /* \"#utility.yul\":17216:17238   */\n      add\n        /* \"#utility.yul\":17210:17214   */\n      dup9\n        /* \"#utility.yul\":17203:17239   */\n      sstore\n        /* \"#utility.yul\":16638:17249   */\n      pop\n      pop\n      pop\n        /* \"#utility.yul\":16601:17488   */\n    tag_297:\n      pop\n        /* \"#utility.yul\":16191:17494   */\n      pop\n      pop\n      pop\n        /* \"#utility.yul\":16099:17494   */\n      pop\n      pop\n      jump\t// out\n\n    auxdata: 0xa2646970667358221220c688f494ce2e033805c562989621942e8e097248e2bf8cc701b6fbe84280f60b64736f6c634300081a0033\n}\n",
				"bytecode": {
					"linkReferences": {},
					"object": "6080604052348015600e575f80fd5b506110d18061001c5f395ff3fe608060405234801561000f575f80fd5b5060043610610055575f3560e01c8063398f8a5d1461005957806356df63391461008c57806389883310146100bc578063959052a7146100d85780639e92b09314610108575b5f80fd5b610073600480360381019061006e91906108a4565b610138565b6040516100839493929190610970565b60405180910390f35b6100a660048036038101906100a191906108a4565b610222565b6040516100b39190610a80565b60405180910390f35b6100d660048036038101906100d19190610bcc565b61038f565b005b6100f260048036038101906100ed9190610c26565b6104a1565b6040516100ff9190610c51565b60405180910390f35b610122600480360381019061011d9190610c26565b61063b565b60405161012f9190610d85565b60405180910390f35b5f602052815f5260405f208181548110610150575f80fd5b905f5260205f2090600402015f9150915050805f01549080600101805461017690610dd2565b80601f01602080910402602001604051908101604052809291908181526020018280546101a290610dd2565b80156101ed5780601f106101c4576101008083540402835291602001916101ed565b820191905f5260205f20905b8154815290600101906020018083116101d057829003601f168201915b505050505090806002015f9054906101000a900473ffffffffffffffffffffffffffffffffffffffff16908060030154905084565b61022a6107cb565b5f808473ffffffffffffffffffffffffffffffffffffffff1673ffffffffffffffffffffffffffffffffffffffff1681526020019081526020015f20828154811061027857610277610e02565b5b905f5260205f2090600402016040518060800160405290815f82015481526020016001820180546102a890610dd2565b80601f01602080910402602001604051908101604052809291908181526020018280546102d490610dd2565b801561031f5780601f106102f65761010080835404028352916020019161031f565b820191905f5260205f20905b81548152906001019060200180831161030257829003601f168201915b50505050508152602001600282015f9054906101000a900473ffffffffffffffffffffffffffffffffffffffff1673ffffffffffffffffffffffffffffffffffffffff1673ffffffffffffffffffffffffffffffffffffffff168152602001600382015481525050905092915050565b5f60405180608001604052808481526020018381526020013373ffffffffffffffffffffffffffffffffffffffff1681526020014281525090505f803373ffffffffffffffffffffffffffffffffffffffff1673ffffffffffffffffffffffffffffffffffffffff1681526020019081526020015f2081908060018154018082558091505060019003905f5260205f2090600402015f909190919091505f820151815f015560208201518160010190816104499190610fcc565b506040820151816002015f6101000a81548173ffffffffffffffffffffffffffffffffffffffff021916908373ffffffffffffffffffffffffffffffffffffffff160217905550606082015181600301555050505050565b5f805f808473ffffffffffffffffffffffffffffffffffffffff1673ffffffffffffffffffffffffffffffffffffffff1681526020019081526020015f20805480602002602001604051908101604052809291908181526020015f905b82821015610626578382905f5260205f2090600402016040518060800160405290815f820154815260200160018201805461053890610dd2565b80601f016020809104026020016040519081016040528092919081815260200182805461056490610dd2565b80156105af5780601f10610586576101008083540402835291602001916105af565b820191905f5260205f20905b81548152906001019060200180831161059257829003601f168201915b50505050508152602001600282015f9054906101000a900473ffffffffffffffffffffffffffffffffffffffff1673ffffffffffffffffffffffffffffffffffffffff1673ffffffffffffffffffffffffffffffffffffffff168152602001600382015481525050815260200190600101906104fe565b5050505090505f815190508092505050919050565b60605f808373ffffffffffffffffffffffffffffffffffffffff1673ffffffffffffffffffffffffffffffffffffffff1681526020019081526020015f20805480602002602001604051908101604052809291908181526020015f905b828210156107c0578382905f5260205f2090600402016040518060800160405290815f82015481526020016001820180546106d290610dd2565b80601f01602080910402602001604051908101604052809291908181526020018280546106fe90610dd2565b80156107495780601f1061072057610100808354040283529160200191610749565b820191905f5260205f20905b81548152906001019060200180831161072c57829003601f168201915b50505050508152602001600282015f9054906101000a900473ffffffffffffffffffffffffffffffffffffffff1673ffffffffffffffffffffffffffffffffffffffff1673ffffffffffffffffffffffffffffffffffffffff16815260200160038201548152505081526020019060010190610698565b505050509050919050565b60405180608001604052805f8152602001606081526020015f73ffffffffffffffffffffffffffffffffffffffff1681526020015f81525090565b5f604051905090565b5f80fd5b5f80fd5b5f73ffffffffffffffffffffffffffffffffffffffff82169050919050565b5f61084082610817565b9050919050565b61085081610836565b811461085a575f80fd5b50565b5f8135905061086b81610847565b92915050565b5f819050919050565b61088381610871565b811461088d575f80fd5b50565b5f8135905061089e8161087a565b92915050565b5f80604083850312156108ba576108b961080f565b5b5f6108c78582860161085d565b92505060206108d885828601610890565b9150509250929050565b6108eb81610871565b82525050565b5f81519050919050565b5f82825260208201905092915050565b8281835e5f83830152505050565b5f601f19601f8301169050919050565b5f610933826108f1565b61093d81856108fb565b935061094d81856020860161090b565b61095681610919565b840191505092915050565b61096a81610836565b82525050565b5f6080820190506109835f8301876108e2565b81810360208301526109958186610929565b90506109a46040830185610961565b6109b160608301846108e2565b95945050505050565b6109c381610871565b82525050565b5f82825260208201905092915050565b5f6109e3826108f1565b6109ed81856109c9565b93506109fd81856020860161090b565b610a0681610919565b840191505092915050565b610a1a81610836565b82525050565b5f608083015f830151610a355f8601826109ba565b5060208301518482036020860152610a4d82826109d9565b9150506040830151610a626040860182610a11565b506060830151610a7560608601826109ba565b508091505092915050565b5f6020820190508181035f830152610a988184610a20565b905092915050565b5f80fd5b5f80fd5b7f4e487b71000000000000000000000000000000000000000000000000000000005f52604160045260245ffd5b610ade82610919565b810181811067ffffffffffffffff82111715610afd57610afc610aa8565b5b80604052505050565b5f610b0f610806565b9050610b1b8282610ad5565b919050565b5f67ffffffffffffffff821115610b3a57610b39610aa8565b5b610b4382610919565b9050602081019050919050565b828183375f83830152505050565b5f610b70610b6b84610b20565b610b06565b905082815260208101848484011115610b8c57610b8b610aa4565b5b610b97848285610b50565b509392505050565b5f82601f830112610bb357610bb2610aa0565b5b8135610bc3848260208601610b5e565b91505092915050565b5f8060408385031215610be257610be161080f565b5b5f610bef85828601610890565b925050602083013567ffffffffffffffff811115610c1057610c0f610813565b5b610c1c85828601610b9f565b9150509250929050565b5f60208284031215610c3b57610c3a61080f565b5b5f610c488482850161085d565b91505092915050565b5f602082019050610c645f8301846108e2565b92915050565b5f81519050919050565b5f82825260208201905092915050565b5f819050602082019050919050565b5f608083015f830151610ca85f8601826109ba565b5060208301518482036020860152610cc082826109d9565b9150506040830151610cd56040860182610a11565b506060830151610ce860608601826109ba565b508091505092915050565b5f610cfe8383610c93565b905092915050565b5f602082019050919050565b5f610d1c82610c6a565b610d268185610c74565b935083602082028501610d3885610c84565b805f5b85811015610d735784840389528151610d548582610cf3565b9450610d5f83610d06565b925060208a01995050600181019050610d3b565b50829750879550505050505092915050565b5f6020820190508181035f830152610d9d8184610d12565b905092915050565b7f4e487b71000000000000000000000000000000000000000000000000000000005f52602260045260245ffd5b5f6002820490506001821680610de957607f821691505b602082108103610dfc57610dfb610da5565b5b50919050565b7f4e487b71000000000000000000000000000000000000000000000000000000005f52603260045260245ffd5b5f819050815f5260205f209050919050565b5f6020601f8301049050919050565b5f82821b905092915050565b5f60088302610e8b7fffffffffffffffffffffffffffffffffffffffffffffffffffffffffffffffff82610e50565b610e958683610e50565b95508019841693508086168417925050509392505050565b5f819050919050565b5f610ed0610ecb610ec684610871565b610ead565b610871565b9050919050565b5f819050919050565b610ee983610eb6565b610efd610ef582610ed7565b848454610e5c565b825550505050565b5f90565b610f11610f05565b610f1c818484610ee0565b505050565b5b81811015610f3f57610f345f82610f09565b600181019050610f22565b5050565b601f821115610f8457610f5581610e2f565b610f5e84610e41565b81016020851015610f6d578190505b610f81610f7985610e41565b830182610f21565b50505b505050565b5f82821c905092915050565b5f610fa45f1984600802610f89565b1980831691505092915050565b5f610fbc8383610f95565b9150826002028217905092915050565b610fd5826108f1565b67ffffffffffffffff811115610fee57610fed610aa8565b5b610ff88254610dd2565b611003828285610f43565b5f60209050601f831160018114611034575f8415611022578287015190505b61102c8582610fb1565b865550611093565b601f19841661104286610e2f565b5f5b8281101561106957848901518255600182019150602085019450602081019050611044565b868310156110865784890151611082601f891682610f95565b8355505b6001600288020188555050505b50505050505056fea2646970667358221220c688f494ce2e033805c562989621942e8e097248e2bf8cc701b6fbe84280f60b64736f6c634300081a0033",
					"opcodes": "PUSH1 0x80 PUSH1 0x40 MSTORE CALLVALUE DUP1 ISZERO PUSH1 0xE JUMPI PUSH0 DUP1 REVERT JUMPDEST POP PUSH2 0x10D1 DUP1 PUSH2 0x1C PUSH0 CODECOPY PUSH0 RETURN INVALID PUSH1 0x80 PUSH1 0x40 MSTORE CALLVALUE DUP1 ISZERO PUSH2 0xF JUMPI PUSH0 DUP1 REVERT JUMPDEST POP PUSH1 0x4 CALLDATASIZE LT PUSH2 0x55 JUMPI PUSH0 CALLDATALOAD PUSH1 0xE0 SHR DUP1 PUSH4 0x398F8A5D EQ PUSH2 0x59 JUMPI DUP1 PUSH4 0x56DF6339 EQ PUSH2 0x8C JUMPI DUP1 PUSH4 0x89883310 EQ PUSH2 0xBC JUMPI DUP1 PUSH4 0x959052A7 EQ PUSH2 0xD8 JUMPI DUP1 PUSH4 0x9E92B093 EQ PUSH2 0x108 JUMPI JUMPDEST PUSH0 DUP1 REVERT JUMPDEST PUSH2 0x73 PUSH1 0x4 DUP1 CALLDATASIZE SUB DUP2 ADD SWAP1 PUSH2 0x6E SWAP2 SWAP1 PUSH2 0x8A4 JUMP JUMPDEST PUSH2 0x138 JUMP JUMPDEST PUSH1 0x40 MLOAD PUSH2 0x83 SWAP5 SWAP4 SWAP3 SWAP2 SWAP1 PUSH2 0x970 JUMP JUMPDEST PUSH1 0x40 MLOAD DUP1 SWAP2 SUB SWAP1 RETURN JUMPDEST PUSH2 0xA6 PUSH1 0x4 DUP1 CALLDATASIZE SUB DUP2 ADD SWAP1 PUSH2 0xA1 SWAP2 SWAP1 PUSH2 0x8A4 JUMP JUMPDEST PUSH2 0x222 JUMP JUMPDEST PUSH1 0x40 MLOAD PUSH2 0xB3 SWAP2 SWAP1 PUSH2 0xA80 JUMP JUMPDEST PUSH1 0x40 MLOAD DUP1 SWAP2 SUB SWAP1 RETURN JUMPDEST PUSH2 0xD6 PUSH1 0x4 DUP1 CALLDATASIZE SUB DUP2 ADD SWAP1 PUSH2 0xD1 SWAP2 SWAP1 PUSH2 0xBCC JUMP JUMPDEST PUSH2 0x38F JUMP JUMPDEST STOP JUMPDEST PUSH2 0xF2 PUSH1 0x4 DUP1 CALLDATASIZE SUB DUP2 ADD SWAP1 PUSH2 0xED SWAP2 SWAP1 PUSH2 0xC26 JUMP JUMPDEST PUSH2 0x4A1 JUMP JUMPDEST PUSH1 0x40 MLOAD PUSH2 0xFF SWAP2 SWAP1 PUSH2 0xC51 JUMP JUMPDEST PUSH1 0x40 MLOAD DUP1 SWAP2 SUB SWAP1 RETURN JUMPDEST PUSH2 0x122 PUSH1 0x4 DUP1 CALLDATASIZE SUB DUP2 ADD SWAP1 PUSH2 0x11D SWAP2 SWAP1 PUSH2 0xC26 JUMP JUMPDEST PUSH2 0x63B JUMP JUMPDEST PUSH1 0x40 MLOAD PUSH2 0x12F SWAP2 SWAP1 PUSH2 0xD85 JUMP JUMPDEST PUSH1 0x40 MLOAD DUP1 SWAP2 SUB SWAP1 RETURN JUMPDEST PUSH0 PUSH1 0x20 MSTORE DUP2 PUSH0 MSTORE PUSH1 0x40 PUSH0 KECCAK256 DUP2 DUP2 SLOAD DUP2 LT PUSH2 0x150 JUMPI PUSH0 DUP1 REVERT JUMPDEST SWAP1 PUSH0 MSTORE PUSH1 0x20 PUSH0 KECCAK256 SWAP1 PUSH1 0x4 MUL ADD PUSH0 SWAP2 POP SWAP2 POP POP DUP1 PUSH0 ADD SLOAD SWAP1 DUP1 PUSH1 0x1 ADD DUP1 SLOAD PUSH2 0x176 SWAP1 PUSH2 0xDD2 JUMP JUMPDEST DUP1 PUSH1 0x1F ADD PUSH1 0x20 DUP1 SWAP2 DIV MUL PUSH1 0x20 ADD PUSH1 0x40 MLOAD SWAP1 DUP2 ADD PUSH1 0x40 MSTORE DUP1 SWAP3 SWAP2 SWAP1 DUP2 DUP2 MSTORE PUSH1 0x20 ADD DUP3 DUP1 SLOAD PUSH2 0x1A2 SWAP1 PUSH2 0xDD2 JUMP JUMPDEST DUP1 ISZERO PUSH2 0x1ED JUMPI DUP1 PUSH1 0x1F LT PUSH2 0x1C4 JUMPI PUSH2 0x100 DUP1 DUP4 SLOAD DIV MUL DUP4 MSTORE SWAP2 PUSH1 0x20 ADD SWAP2 PUSH2 0x1ED JUMP JUMPDEST DUP3 ADD SWAP2 SWAP1 PUSH0 MSTORE PUSH1 0x20 PUSH0 KECCAK256 SWAP1 JUMPDEST DUP2 SLOAD DUP2 MSTORE SWAP1 PUSH1 0x1 ADD SWAP1 PUSH1 0x20 ADD DUP1 DUP4 GT PUSH2 0x1D0 JUMPI DUP3 SWAP1 SUB PUSH1 0x1F AND DUP3 ADD SWAP2 JUMPDEST POP POP POP POP POP SWAP1 DUP1 PUSH1 0x2 ADD PUSH0 SWAP1 SLOAD SWAP1 PUSH2 0x100 EXP SWAP1 DIV PUSH20 0xFFFFFFFFFFFFFFFFFFFFFFFFFFFFFFFFFFFFFFFF AND SWAP1 DUP1 PUSH1 0x3 ADD SLOAD SWAP1 POP DUP5 JUMP JUMPDEST PUSH2 0x22A PUSH2 0x7CB JUMP JUMPDEST PUSH0 DUP1 DUP5 PUSH20 0xFFFFFFFFFFFFFFFFFFFFFFFFFFFFFFFFFFFFFFFF AND PUSH20 0xFFFFFFFFFFFFFFFFFFFFFFFFFFFFFFFFFFFFFFFF AND DUP2 MSTORE PUSH1 0x20 ADD SWAP1 DUP2 MSTORE PUSH1 0x20 ADD PUSH0 KECCAK256 DUP3 DUP2 SLOAD DUP2 LT PUSH2 0x278 JUMPI PUSH2 0x277 PUSH2 0xE02 JUMP JUMPDEST JUMPDEST SWAP1 PUSH0 MSTORE PUSH1 0x20 PUSH0 KECCAK256 SWAP1 PUSH1 0x4 MUL ADD PUSH1 0x40 MLOAD DUP1 PUSH1 0x80 ADD PUSH1 0x40 MSTORE SWAP1 DUP2 PUSH0 DUP3 ADD SLOAD DUP2 MSTORE PUSH1 0x20 ADD PUSH1 0x1 DUP3 ADD DUP1 SLOAD PUSH2 0x2A8 SWAP1 PUSH2 0xDD2 JUMP JUMPDEST DUP1 PUSH1 0x1F ADD PUSH1 0x20 DUP1 SWAP2 DIV MUL PUSH1 0x20 ADD PUSH1 0x40 MLOAD SWAP1 DUP2 ADD PUSH1 0x40 MSTORE DUP1 SWAP3 SWAP2 SWAP1 DUP2 DUP2 MSTORE PUSH1 0x20 ADD DUP3 DUP1 SLOAD PUSH2 0x2D4 SWAP1 PUSH2 0xDD2 JUMP JUMPDEST DUP1 ISZERO PUSH2 0x31F JUMPI DUP1 PUSH1 0x1F LT PUSH2 0x2F6 JUMPI PUSH2 0x100 DUP1 DUP4 SLOAD DIV MUL DUP4 MSTORE SWAP2 PUSH1 0x20 ADD SWAP2 PUSH2 0x31F JUMP JUMPDEST DUP3 ADD SWAP2 SWAP1 PUSH0 MSTORE PUSH1 0x20 PUSH0 KECCAK256 SWAP1 JUMPDEST DUP2 SLOAD DUP2 MSTORE SWAP1 PUSH1 0x1 ADD SWAP1 PUSH1 0x20 ADD DUP1 DUP4 GT PUSH2 0x302 JUMPI DUP3 SWAP1 SUB PUSH1 0x1F AND DUP3 ADD SWAP2 JUMPDEST POP POP POP POP POP DUP2 MSTORE PUSH1 0x20 ADD PUSH1 0x2 DUP3 ADD PUSH0 SWAP1 SLOAD SWAP1 PUSH2 0x100 EXP SWAP1 DIV PUSH20 0xFFFFFFFFFFFFFFFFFFFFFFFFFFFFFFFFFFFFFFFF AND PUSH20 0xFFFFFFFFFFFFFFFFFFFFFFFFFFFFFFFFFFFFFFFF AND PUSH20 0xFFFFFFFFFFFFFFFFFFFFFFFFFFFFFFFFFFFFFFFF AND DUP2 MSTORE PUSH1 0x20 ADD PUSH1 0x3 DUP3 ADD SLOAD DUP2 MSTORE POP POP SWAP1 POP SWAP3 SWAP2 POP POP JUMP JUMPDEST PUSH0 PUSH1 0x40 MLOAD DUP1 PUSH1 0x80 ADD PUSH1 0x40 MSTORE DUP1 DUP5 DUP2 MSTORE PUSH1 0x20 ADD DUP4 DUP2 MSTORE PUSH1 0x20 ADD CALLER PUSH20 0xFFFFFFFFFFFFFFFFFFFFFFFFFFFFFFFFFFFFFFFF AND DUP2 MSTORE PUSH1 0x20 ADD TIMESTAMP DUP2 MSTORE POP SWAP1 POP PUSH0 DUP1 CALLER PUSH20 0xFFFFFFFFFFFFFFFFFFFFFFFFFFFFFFFFFFFFFFFF AND PUSH20 0xFFFFFFFFFFFFFFFFFFFFFFFFFFFFFFFFFFFFFFFF AND DUP2 MSTORE PUSH1 0x20 ADD SWAP1 DUP2 MSTORE PUSH1 0x20 ADD PUSH0 KECCAK256 DUP2 SWAP1 DUP1 PUSH1 0x1 DUP2 SLOAD ADD DUP1 DUP3 SSTORE DUP1 SWAP2 POP POP PUSH1 0x1 SWAP1 SUB SWAP1 PUSH0 MSTORE PUSH1 0x20 PUSH0 KECCAK256 SWAP1 PUSH1 0x4 MUL ADD PUSH0 SWAP1 SWAP2 SWAP1 SWAP2 SWAP1 SWAP2 POP PUSH0 DUP3 ADD MLOAD DUP2 PUSH0 ADD SSTORE PUSH1 0x20 DUP3 ADD MLOAD DUP2 PUSH1 0x1 ADD SWAP1 DUP2 PUSH2 0x449 SWAP2 SWAP1 PUSH2 0xFCC JUMP JUMPDEST POP PUSH1 0x40 DUP3 ADD MLOAD DUP2 PUSH1 0x2 ADD PUSH0 PUSH2 0x100 EXP DUP2 SLOAD DUP2 PUSH20 0xFFFFFFFFFFFFFFFFFFFFFFFFFFFFFFFFFFFFFFFF MUL NOT AND SWAP1 DUP4 PUSH20 0xFFFFFFFFFFFFFFFFFFFFFFFFFFFFFFFFFFFFFFFF AND MUL OR SWAP1 SSTORE POP PUSH1 0x60 DUP3 ADD MLOAD DUP2 PUSH1 0x3 ADD SSTORE POP POP POP POP POP JUMP JUMPDEST PUSH0 DUP1 PUSH0 DUP1 DUP5 PUSH20 0xFFFFFFFFFFFFFFFFFFFFFFFFFFFFFFFFFFFFFFFF AND PUSH20 0xFFFFFFFFFFFFFFFFFFFFFFFFFFFFFFFFFFFFFFFF AND DUP2 MSTORE PUSH1 0x20 ADD SWAP1 DUP2 MSTORE PUSH1 0x20 ADD PUSH0 KECCAK256 DUP1 SLOAD DUP1 PUSH1 0x20 MUL PUSH1 0x20 ADD PUSH1 0x40 MLOAD SWAP1 DUP2 ADD PUSH1 0x40 MSTORE DUP1 SWAP3 SWAP2 SWAP1 DUP2 DUP2 MSTORE PUSH1 0x20 ADD PUSH0 SWAP1 JUMPDEST DUP3 DUP3 LT ISZERO PUSH2 0x626 JUMPI DUP4 DUP3 SWAP1 PUSH0 MSTORE PUSH1 0x20 PUSH0 KECCAK256 SWAP1 PUSH1 0x4 MUL ADD PUSH1 0x40 MLOAD DUP1 PUSH1 0x80 ADD PUSH1 0x40 MSTORE SWAP1 DUP2 PUSH0 DUP3 ADD SLOAD DUP2 MSTORE PUSH1 0x20 ADD PUSH1 0x1 DUP3 ADD DUP1 SLOAD PUSH2 0x538 SWAP1 PUSH2 0xDD2 JUMP JUMPDEST DUP1 PUSH1 0x1F ADD PUSH1 0x20 DUP1 SWAP2 DIV MUL PUSH1 0x20 ADD PUSH1 0x40 MLOAD SWAP1 DUP2 ADD PUSH1 0x40 MSTORE DUP1 SWAP3 SWAP2 SWAP1 DUP2 DUP2 MSTORE PUSH1 0x20 ADD DUP3 DUP1 SLOAD PUSH2 0x564 SWAP1 PUSH2 0xDD2 JUMP JUMPDEST DUP1 ISZERO PUSH2 0x5AF JUMPI DUP1 PUSH1 0x1F LT PUSH2 0x586 JUMPI PUSH2 0x100 DUP1 DUP4 SLOAD DIV MUL DUP4 MSTORE SWAP2 PUSH1 0x20 ADD SWAP2 PUSH2 0x5AF JUMP JUMPDEST DUP3 ADD SWAP2 SWAP1 PUSH0 MSTORE PUSH1 0x20 PUSH0 KECCAK256 SWAP1 JUMPDEST DUP2 SLOAD DUP2 MSTORE SWAP1 PUSH1 0x1 ADD SWAP1 PUSH1 0x20 ADD DUP1 DUP4 GT PUSH2 0x592 JUMPI DUP3 SWAP1 SUB PUSH1 0x1F AND DUP3 ADD SWAP2 JUMPDEST POP POP POP POP POP DUP2 MSTORE PUSH1 0x20 ADD PUSH1 0x2 DUP3 ADD PUSH0 SWAP1 SLOAD SWAP1 PUSH2 0x100 EXP SWAP1 DIV PUSH20 0xFFFFFFFFFFFFFFFFFFFFFFFFFFFFFFFFFFFFFFFF AND PUSH20 0xFFFFFFFFFFFFFFFFFFFFFFFFFFFFFFFFFFFFFFFF AND PUSH20 0xFFFFFFFFFFFFFFFFFFFFFFFFFFFFFFFFFFFFFFFF AND DUP2 MSTORE PUSH1 0x20 ADD PUSH1 0x3 DUP3 ADD SLOAD DUP2 MSTORE POP POP DUP2 MSTORE PUSH1 0x20 ADD SWAP1 PUSH1 0x1 ADD SWAP1 PUSH2 0x4FE JUMP JUMPDEST POP POP POP POP SWAP1 POP PUSH0 DUP2 MLOAD SWAP1 POP DUP1 SWAP3 POP POP POP SWAP2 SWAP1 POP JUMP JUMPDEST PUSH1 0x60 PUSH0 DUP1 DUP4 PUSH20 0xFFFFFFFFFFFFFFFFFFFFFFFFFFFFFFFFFFFFFFFF AND PUSH20 0xFFFFFFFFFFFFFFFFFFFFFFFFFFFFFFFFFFFFFFFF AND DUP2 MSTORE PUSH1 0x20 ADD SWAP1 DUP2 MSTORE PUSH1 0x20 ADD PUSH0 KECCAK256 DUP1 SLOAD DUP1 PUSH1 0x20 MUL PUSH1 0x20 ADD PUSH1 0x40 MLOAD SWAP1 DUP2 ADD PUSH1 0x40 MSTORE DUP1 SWAP3 SWAP2 SWAP1 DUP2 DUP2 MSTORE PUSH1 0x20 ADD PUSH0 SWAP1 JUMPDEST DUP3 DUP3 LT ISZERO PUSH2 0x7C0 JUMPI DUP4 DUP3 SWAP1 PUSH0 MSTORE PUSH1 0x20 PUSH0 KECCAK256 SWAP1 PUSH1 0x4 MUL ADD PUSH1 0x40 MLOAD DUP1 PUSH1 0x80 ADD PUSH1 0x40 MSTORE SWAP1 DUP2 PUSH0 DUP3 ADD SLOAD DUP2 MSTORE PUSH1 0x20 ADD PUSH1 0x1 DUP3 ADD DUP1 SLOAD PUSH2 0x6D2 SWAP1 PUSH2 0xDD2 JUMP JUMPDEST DUP1 PUSH1 0x1F ADD PUSH1 0x20 DUP1 SWAP2 DIV MUL PUSH1 0x20 ADD PUSH1 0x40 MLOAD SWAP1 DUP2 ADD PUSH1 0x40 MSTORE DUP1 SWAP3 SWAP2 SWAP1 DUP2 DUP2 MSTORE PUSH1 0x20 ADD DUP3 DUP1 SLOAD PUSH2 0x6FE SWAP1 PUSH2 0xDD2 JUMP JUMPDEST DUP1 ISZERO PUSH2 0x749 JUMPI DUP1 PUSH1 0x1F LT PUSH2 0x720 JUMPI PUSH2 0x100 DUP1 DUP4 SLOAD DIV MUL DUP4 MSTORE SWAP2 PUSH1 0x20 ADD SWAP2 PUSH2 0x749 JUMP JUMPDEST DUP3 ADD SWAP2 SWAP1 PUSH0 MSTORE PUSH1 0x20 PUSH0 KECCAK256 SWAP1 JUMPDEST DUP2 SLOAD DUP2 MSTORE SWAP1 PUSH1 0x1 ADD SWAP1 PUSH1 0x20 ADD DUP1 DUP4 GT PUSH2 0x72C JUMPI DUP3 SWAP1 SUB PUSH1 0x1F AND DUP3 ADD SWAP2 JUMPDEST POP POP POP POP POP DUP2 MSTORE PUSH1 0x20 ADD PUSH1 0x2 DUP3 ADD PUSH0 SWAP1 SLOAD SWAP1 PUSH2 0x100 EXP SWAP1 DIV PUSH20 0xFFFFFFFFFFFFFFFFFFFFFFFFFFFFFFFFFFFFFFFF AND PUSH20 0xFFFFFFFFFFFFFFFFFFFFFFFFFFFFFFFFFFFFFFFF AND PUSH20 0xFFFFFFFFFFFFFFFFFFFFFFFFFFFFFFFFFFFFFFFF AND DUP2 MSTORE PUSH1 0x20 ADD PUSH1 0x3 DUP3 ADD SLOAD DUP2 MSTORE POP POP DUP2 MSTORE PUSH1 0x20 ADD SWAP1 PUSH1 0x1 ADD SWAP1 PUSH2 0x698 JUMP JUMPDEST POP POP POP POP SWAP1 POP SWAP2 SWAP1 POP JUMP JUMPDEST PUSH1 0x40 MLOAD DUP1 PUSH1 0x80 ADD PUSH1 0x40 MSTORE DUP1 PUSH0 DUP2 MSTORE PUSH1 0x20 ADD PUSH1 0x60 DUP2 MSTORE PUSH1 0x20 ADD PUSH0 PUSH20 0xFFFFFFFFFFFFFFFFFFFFFFFFFFFFFFFFFFFFFFFF AND DUP2 MSTORE PUSH1 0x20 ADD PUSH0 DUP2 MSTORE POP SWAP1 JUMP JUMPDEST PUSH0 PUSH1 0x40 MLOAD SWAP1 POP SWAP1 JUMP JUMPDEST PUSH0 DUP1 REVERT JUMPDEST PUSH0 DUP1 REVERT JUMPDEST PUSH0 PUSH20 0xFFFFFFFFFFFFFFFFFFFFFFFFFFFFFFFFFFFFFFFF DUP3 AND SWAP1 POP SWAP2 SWAP1 POP JUMP JUMPDEST PUSH0 PUSH2 0x840 DUP3 PUSH2 0x817 JUMP JUMPDEST SWAP1 POP SWAP2 SWAP1 POP JUMP JUMPDEST PUSH2 0x850 DUP2 PUSH2 0x836 JUMP JUMPDEST DUP2 EQ PUSH2 0x85A JUMPI PUSH0 DUP1 REVERT JUMPDEST POP JUMP JUMPDEST PUSH0 DUP2 CALLDATALOAD SWAP1 POP PUSH2 0x86B DUP2 PUSH2 0x847 JUMP JUMPDEST SWAP3 SWAP2 POP POP JUMP JUMPDEST PUSH0 DUP2 SWAP1 POP SWAP2 SWAP1 POP JUMP JUMPDEST PUSH2 0x883 DUP2 PUSH2 0x871 JUMP JUMPDEST DUP2 EQ PUSH2 0x88D JUMPI PUSH0 DUP1 REVERT JUMPDEST POP JUMP JUMPDEST PUSH0 DUP2 CALLDATALOAD SWAP1 POP PUSH2 0x89E DUP2 PUSH2 0x87A JUMP JUMPDEST SWAP3 SWAP2 POP POP JUMP JUMPDEST PUSH0 DUP1 PUSH1 0x40 DUP4 DUP6 SUB SLT ISZERO PUSH2 0x8BA JUMPI PUSH2 0x8B9 PUSH2 0x80F JUMP JUMPDEST JUMPDEST PUSH0 PUSH2 0x8C7 DUP6 DUP3 DUP7 ADD PUSH2 0x85D JUMP JUMPDEST SWAP3 POP POP PUSH1 0x20 PUSH2 0x8D8 DUP6 DUP3 DUP7 ADD PUSH2 0x890 JUMP JUMPDEST SWAP2 POP POP SWAP3 POP SWAP3 SWAP1 POP JUMP JUMPDEST PUSH2 0x8EB DUP2 PUSH2 0x871 JUMP JUMPDEST DUP3 MSTORE POP POP JUMP JUMPDEST PUSH0 DUP2 MLOAD SWAP1 POP SWAP2 SWAP1 POP JUMP JUMPDEST PUSH0 DUP3 DUP3 MSTORE PUSH1 0x20 DUP3 ADD SWAP1 POP SWAP3 SWAP2 POP POP JUMP JUMPDEST DUP3 DUP2 DUP4 MCOPY PUSH0 DUP4 DUP4 ADD MSTORE POP POP POP JUMP JUMPDEST PUSH0 PUSH1 0x1F NOT PUSH1 0x1F DUP4 ADD AND SWAP1 POP SWAP2 SWAP1 POP JUMP JUMPDEST PUSH0 PUSH2 0x933 DUP3 PUSH2 0x8F1 JUMP JUMPDEST PUSH2 0x93D DUP2 DUP6 PUSH2 0x8FB JUMP JUMPDEST SWAP4 POP PUSH2 0x94D DUP2 DUP6 PUSH1 0x20 DUP7 ADD PUSH2 0x90B JUMP JUMPDEST PUSH2 0x956 DUP2 PUSH2 0x919 JUMP JUMPDEST DUP5 ADD SWAP2 POP POP SWAP3 SWAP2 POP POP JUMP JUMPDEST PUSH2 0x96A DUP2 PUSH2 0x836 JUMP JUMPDEST DUP3 MSTORE POP POP JUMP JUMPDEST PUSH0 PUSH1 0x80 DUP3 ADD SWAP1 POP PUSH2 0x983 PUSH0 DUP4 ADD DUP8 PUSH2 0x8E2 JUMP JUMPDEST DUP2 DUP2 SUB PUSH1 0x20 DUP4 ADD MSTORE PUSH2 0x995 DUP2 DUP7 PUSH2 0x929 JUMP JUMPDEST SWAP1 POP PUSH2 0x9A4 PUSH1 0x40 DUP4 ADD DUP6 PUSH2 0x961 JUMP JUMPDEST PUSH2 0x9B1 PUSH1 0x60 DUP4 ADD DUP5 PUSH2 0x8E2 JUMP JUMPDEST SWAP6 SWAP5 POP POP POP POP POP JUMP JUMPDEST PUSH2 0x9C3 DUP2 PUSH2 0x871 JUMP JUMPDEST DUP3 MSTORE POP POP JUMP JUMPDEST PUSH0 DUP3 DUP3 MSTORE PUSH1 0x20 DUP3 ADD SWAP1 POP SWAP3 SWAP2 POP POP JUMP JUMPDEST PUSH0 PUSH2 0x9E3 DUP3 PUSH2 0x8F1 JUMP JUMPDEST PUSH2 0x9ED DUP2 DUP6 PUSH2 0x9C9 JUMP JUMPDEST SWAP4 POP PUSH2 0x9FD DUP2 DUP6 PUSH1 0x20 DUP7 ADD PUSH2 0x90B JUMP JUMPDEST PUSH2 0xA06 DUP2 PUSH2 0x919 JUMP JUMPDEST DUP5 ADD SWAP2 POP POP SWAP3 SWAP2 POP POP JUMP JUMPDEST PUSH2 0xA1A DUP2 PUSH2 0x836 JUMP JUMPDEST DUP3 MSTORE POP POP JUMP JUMPDEST PUSH0 PUSH1 0x80 DUP4 ADD PUSH0 DUP4 ADD MLOAD PUSH2 0xA35 PUSH0 DUP7 ADD DUP3 PUSH2 0x9BA JUMP JUMPDEST POP PUSH1 0x20 DUP4 ADD MLOAD DUP5 DUP3 SUB PUSH1 0x20 DUP7 ADD MSTORE PUSH2 0xA4D DUP3 DUP3 PUSH2 0x9D9 JUMP JUMPDEST SWAP2 POP POP PUSH1 0x40 DUP4 ADD MLOAD PUSH2 0xA62 PUSH1 0x40 DUP7 ADD DUP3 PUSH2 0xA11 JUMP JUMPDEST POP PUSH1 0x60 DUP4 ADD MLOAD PUSH2 0xA75 PUSH1 0x60 DUP7 ADD DUP3 PUSH2 0x9BA JUMP JUMPDEST POP DUP1 SWAP2 POP POP SWAP3 SWAP2 POP POP JUMP JUMPDEST PUSH0 PUSH1 0x20 DUP3 ADD SWAP1 POP DUP2 DUP2 SUB PUSH0 DUP4 ADD MSTORE PUSH2 0xA98 DUP2 DUP5 PUSH2 0xA20 JUMP JUMPDEST SWAP1 POP SWAP3 SWAP2 POP POP JUMP JUMPDEST PUSH0 DUP1 REVERT JUMPDEST PUSH0 DUP1 REVERT JUMPDEST PUSH32 0x4E487B7100000000000000000000000000000000000000000000000000000000 PUSH0 MSTORE PUSH1 0x41 PUSH1 0x4 MSTORE PUSH1 0x24 PUSH0 REVERT JUMPDEST PUSH2 0xADE DUP3 PUSH2 0x919 JUMP JUMPDEST DUP2 ADD DUP2 DUP2 LT PUSH8 0xFFFFFFFFFFFFFFFF DUP3 GT OR ISZERO PUSH2 0xAFD JUMPI PUSH2 0xAFC PUSH2 0xAA8 JUMP JUMPDEST JUMPDEST DUP1 PUSH1 0x40 MSTORE POP POP POP JUMP JUMPDEST PUSH0 PUSH2 0xB0F PUSH2 0x806 JUMP JUMPDEST SWAP1 POP PUSH2 0xB1B DUP3 DUP3 PUSH2 0xAD5 JUMP JUMPDEST SWAP2 SWAP1 POP JUMP JUMPDEST PUSH0 PUSH8 0xFFFFFFFFFFFFFFFF DUP3 GT ISZERO PUSH2 0xB3A JUMPI PUSH2 0xB39 PUSH2 0xAA8 JUMP JUMPDEST JUMPDEST PUSH2 0xB43 DUP3 PUSH2 0x919 JUMP JUMPDEST SWAP1 POP PUSH1 0x20 DUP2 ADD SWAP1 POP SWAP2 SWAP1 POP JUMP JUMPDEST DUP3 DUP2 DUP4 CALLDATACOPY PUSH0 DUP4 DUP4 ADD MSTORE POP POP POP JUMP JUMPDEST PUSH0 PUSH2 0xB70 PUSH2 0xB6B DUP5 PUSH2 0xB20 JUMP JUMPDEST PUSH2 0xB06 JUMP JUMPDEST SWAP1 POP DUP3 DUP2 MSTORE PUSH1 0x20 DUP2 ADD DUP5 DUP5 DUP5 ADD GT ISZERO PUSH2 0xB8C JUMPI PUSH2 0xB8B PUSH2 0xAA4 JUMP JUMPDEST JUMPDEST PUSH2 0xB97 DUP5 DUP3 DUP6 PUSH2 0xB50 JUMP JUMPDEST POP SWAP4 SWAP3 POP POP POP JUMP JUMPDEST PUSH0 DUP3 PUSH1 0x1F DUP4 ADD SLT PUSH2 0xBB3 JUMPI PUSH2 0xBB2 PUSH2 0xAA0 JUMP JUMPDEST JUMPDEST DUP2 CALLDATALOAD PUSH2 0xBC3 DUP5 DUP3 PUSH1 0x20 DUP7 ADD PUSH2 0xB5E JUMP JUMPDEST SWAP2 POP POP SWAP3 SWAP2 POP POP JUMP JUMPDEST PUSH0 DUP1 PUSH1 0x40 DUP4 DUP6 SUB SLT ISZERO PUSH2 0xBE2 JUMPI PUSH2 0xBE1 PUSH2 0x80F JUMP JUMPDEST JUMPDEST PUSH0 PUSH2 0xBEF DUP6 DUP3 DUP7 ADD PUSH2 0x890 JUMP JUMPDEST SWAP3 POP POP PUSH1 0x20 DUP4 ADD CALLDATALOAD PUSH8 0xFFFFFFFFFFFFFFFF DUP2 GT ISZERO PUSH2 0xC10 JUMPI PUSH2 0xC0F PUSH2 0x813 JUMP JUMPDEST JUMPDEST PUSH2 0xC1C DUP6 DUP3 DUP7 ADD PUSH2 0xB9F JUMP JUMPDEST SWAP2 POP POP SWAP3 POP SWAP3 SWAP1 POP JUMP JUMPDEST PUSH0 PUSH1 0x20 DUP3 DUP5 SUB SLT ISZERO PUSH2 0xC3B JUMPI PUSH2 0xC3A PUSH2 0x80F JUMP JUMPDEST JUMPDEST PUSH0 PUSH2 0xC48 DUP5 DUP3 DUP6 ADD PUSH2 0x85D JUMP JUMPDEST SWAP2 POP POP SWAP3 SWAP2 POP POP JUMP JUMPDEST PUSH0 PUSH1 0x20 DUP3 ADD SWAP1 POP PUSH2 0xC64 PUSH0 DUP4 ADD DUP5 PUSH2 0x8E2 JUMP JUMPDEST SWAP3 SWAP2 POP POP JUMP JUMPDEST PUSH0 DUP2 MLOAD SWAP1 POP SWAP2 SWAP1 POP JUMP JUMPDEST PUSH0 DUP3 DUP3 MSTORE PUSH1 0x20 DUP3 ADD SWAP1 POP SWAP3 SWAP2 POP POP JUMP JUMPDEST PUSH0 DUP2 SWAP1 POP PUSH1 0x20 DUP3 ADD SWAP1 POP SWAP2 SWAP1 POP JUMP JUMPDEST PUSH0 PUSH1 0x80 DUP4 ADD PUSH0 DUP4 ADD MLOAD PUSH2 0xCA8 PUSH0 DUP7 ADD DUP3 PUSH2 0x9BA JUMP JUMPDEST POP PUSH1 0x20 DUP4 ADD MLOAD DUP5 DUP3 SUB PUSH1 0x20 DUP7 ADD MSTORE PUSH2 0xCC0 DUP3 DUP3 PUSH2 0x9D9 JUMP JUMPDEST SWAP2 POP POP PUSH1 0x40 DUP4 ADD MLOAD PUSH2 0xCD5 PUSH1 0x40 DUP7 ADD DUP3 PUSH2 0xA11 JUMP JUMPDEST POP PUSH1 0x60 DUP4 ADD MLOAD PUSH2 0xCE8 PUSH1 0x60 DUP7 ADD DUP3 PUSH2 0x9BA JUMP JUMPDEST POP DUP1 SWAP2 POP POP SWAP3 SWAP2 POP POP JUMP JUMPDEST PUSH0 PUSH2 0xCFE DUP4 DUP4 PUSH2 0xC93 JUMP JUMPDEST SWAP1 POP SWAP3 SWAP2 POP POP JUMP JUMPDEST PUSH0 PUSH1 0x20 DUP3 ADD SWAP1 POP SWAP2 SWAP1 POP JUMP JUMPDEST PUSH0 PUSH2 0xD1C DUP3 PUSH2 0xC6A JUMP JUMPDEST PUSH2 0xD26 DUP2 DUP6 PUSH2 0xC74 JUMP JUMPDEST SWAP4 POP DUP4 PUSH1 0x20 DUP3 MUL DUP6 ADD PUSH2 0xD38 DUP6 PUSH2 0xC84 JUMP JUMPDEST DUP1 PUSH0 JUMPDEST DUP6 DUP2 LT ISZERO PUSH2 0xD73 JUMPI DUP5 DUP5 SUB DUP10 MSTORE DUP2 MLOAD PUSH2 0xD54 DUP6 DUP3 PUSH2 0xCF3 JUMP JUMPDEST SWAP5 POP PUSH2 0xD5F DUP4 PUSH2 0xD06 JUMP JUMPDEST SWAP3 POP PUSH1 0x20 DUP11 ADD SWAP10 POP POP PUSH1 0x1 DUP2 ADD SWAP1 POP PUSH2 0xD3B JUMP JUMPDEST POP DUP3 SWAP8 POP DUP8 SWAP6 POP POP POP POP POP POP SWAP3 SWAP2 POP POP JUMP JUMPDEST PUSH0 PUSH1 0x20 DUP3 ADD SWAP1 POP DUP2 DUP2 SUB PUSH0 DUP4 ADD MSTORE PUSH2 0xD9D DUP2 DUP5 PUSH2 0xD12 JUMP JUMPDEST SWAP1 POP SWAP3 SWAP2 POP POP JUMP JUMPDEST PUSH32 0x4E487B7100000000000000000000000000000000000000000000000000000000 PUSH0 MSTORE PUSH1 0x22 PUSH1 0x4 MSTORE PUSH1 0x24 PUSH0 REVERT JUMPDEST PUSH0 PUSH1 0x2 DUP3 DIV SWAP1 POP PUSH1 0x1 DUP3 AND DUP1 PUSH2 0xDE9 JUMPI PUSH1 0x7F DUP3 AND SWAP2 POP JUMPDEST PUSH1 0x20 DUP3 LT DUP2 SUB PUSH2 0xDFC JUMPI PUSH2 0xDFB PUSH2 0xDA5 JUMP JUMPDEST JUMPDEST POP SWAP2 SWAP1 POP JUMP JUMPDEST PUSH32 0x4E487B7100000000000000000000000000000000000000000000000000000000 PUSH0 MSTORE PUSH1 0x32 PUSH1 0x4 MSTORE PUSH1 0x24 PUSH0 REVERT JUMPDEST PUSH0 DUP2 SWAP1 POP DUP2 PUSH0 MSTORE PUSH1 0x20 PUSH0 KECCAK256 SWAP1 POP SWAP2 SWAP1 POP JUMP JUMPDEST PUSH0 PUSH1 0x20 PUSH1 0x1F DUP4 ADD DIV SWAP1 POP SWAP2 SWAP1 POP JUMP JUMPDEST PUSH0 DUP3 DUP3 SHL SWAP1 POP SWAP3 SWAP2 POP POP JUMP JUMPDEST PUSH0 PUSH1 0x8 DUP4 MUL PUSH2 0xE8B PUSH32 0xFFFFFFFFFFFFFFFFFFFFFFFFFFFFFFFFFFFFFFFFFFFFFFFFFFFFFFFFFFFFFFFF DUP3 PUSH2 0xE50 JUMP JUMPDEST PUSH2 0xE95 DUP7 DUP4 PUSH2 0xE50 JUMP JUMPDEST SWAP6 POP DUP1 NOT DUP5 AND SWAP4 POP DUP1 DUP7 AND DUP5 OR SWAP3 POP POP POP SWAP4 SWAP3 POP POP POP JUMP JUMPDEST PUSH0 DUP2 SWAP1 POP SWAP2 SWAP1 POP JUMP JUMPDEST PUSH0 PUSH2 0xED0 PUSH2 0xECB PUSH2 0xEC6 DUP5 PUSH2 0x871 JUMP JUMPDEST PUSH2 0xEAD JUMP JUMPDEST PUSH2 0x871 JUMP JUMPDEST SWAP1 POP SWAP2 SWAP1 POP JUMP JUMPDEST PUSH0 DUP2 SWAP1 POP SWAP2 SWAP1 POP JUMP JUMPDEST PUSH2 0xEE9 DUP4 PUSH2 0xEB6 JUMP JUMPDEST PUSH2 0xEFD PUSH2 0xEF5 DUP3 PUSH2 0xED7 JUMP JUMPDEST DUP5 DUP5 SLOAD PUSH2 0xE5C JUMP JUMPDEST DUP3 SSTORE POP POP POP POP JUMP JUMPDEST PUSH0 SWAP1 JUMP JUMPDEST PUSH2 0xF11 PUSH2 0xF05 JUMP JUMPDEST PUSH2 0xF1C DUP2 DUP5 DUP5 PUSH2 0xEE0 JUMP JUMPDEST POP POP POP JUMP JUMPDEST JUMPDEST DUP2 DUP2 LT ISZERO PUSH2 0xF3F JUMPI PUSH2 0xF34 PUSH0 DUP3 PUSH2 0xF09 JUMP JUMPDEST PUSH1 0x1 DUP2 ADD SWAP1 POP PUSH2 0xF22 JUMP JUMPDEST POP POP JUMP JUMPDEST PUSH1 0x1F DUP3 GT ISZERO PUSH2 0xF84 JUMPI PUSH2 0xF55 DUP2 PUSH2 0xE2F JUMP JUMPDEST PUSH2 0xF5E DUP5 PUSH2 0xE41 JUMP JUMPDEST DUP2 ADD PUSH1 0x20 DUP6 LT ISZERO PUSH2 0xF6D JUMPI DUP2 SWAP1 POP JUMPDEST PUSH2 0xF81 PUSH2 0xF79 DUP6 PUSH2 0xE41 JUMP JUMPDEST DUP4 ADD DUP3 PUSH2 0xF21 JUMP JUMPDEST POP POP JUMPDEST POP POP POP JUMP JUMPDEST PUSH0 DUP3 DUP3 SHR SWAP1 POP SWAP3 SWAP2 POP POP JUMP JUMPDEST PUSH0 PUSH2 0xFA4 PUSH0 NOT DUP5 PUSH1 0x8 MUL PUSH2 0xF89 JUMP JUMPDEST NOT DUP1 DUP4 AND SWAP2 POP POP SWAP3 SWAP2 POP POP JUMP JUMPDEST PUSH0 PUSH2 0xFBC DUP4 DUP4 PUSH2 0xF95 JUMP JUMPDEST SWAP2 POP DUP3 PUSH1 0x2 MUL DUP3 OR SWAP1 POP SWAP3 SWAP2 POP POP JUMP JUMPDEST PUSH2 0xFD5 DUP3 PUSH2 0x8F1 JUMP JUMPDEST PUSH8 0xFFFFFFFFFFFFFFFF DUP2 GT ISZERO PUSH2 0xFEE JUMPI PUSH2 0xFED PUSH2 0xAA8 JUMP JUMPDEST JUMPDEST PUSH2 0xFF8 DUP3 SLOAD PUSH2 0xDD2 JUMP JUMPDEST PUSH2 0x1003 DUP3 DUP3 DUP6 PUSH2 0xF43 JUMP JUMPDEST PUSH0 PUSH1 0x20 SWAP1 POP PUSH1 0x1F DUP4 GT PUSH1 0x1 DUP2 EQ PUSH2 0x1034 JUMPI PUSH0 DUP5 ISZERO PUSH2 0x1022 JUMPI DUP3 DUP8 ADD MLOAD SWAP1 POP JUMPDEST PUSH2 0x102C DUP6 DUP3 PUSH2 0xFB1 JUMP JUMPDEST DUP7 SSTORE POP PUSH2 0x1093 JUMP JUMPDEST PUSH1 0x1F NOT DUP5 AND PUSH2 0x1042 DUP7 PUSH2 0xE2F JUMP JUMPDEST PUSH0 JUMPDEST DUP3 DUP2 LT ISZERO PUSH2 0x1069 JUMPI DUP5 DUP10 ADD MLOAD DUP3 SSTORE PUSH1 0x1 DUP3 ADD SWAP2 POP PUSH1 0x20 DUP6 ADD SWAP5 POP PUSH1 0x20 DUP2 ADD SWAP1 POP PUSH2 0x1044 JUMP JUMPDEST DUP7 DUP4 LT ISZERO PUSH2 0x1086 JUMPI DUP5 DUP10 ADD MLOAD PUSH2 0x1082 PUSH1 0x1F DUP10 AND DUP3 PUSH2 0xF95 JUMP JUMPDEST DUP4 SSTORE POP JUMPDEST PUSH1 0x1 PUSH1 0x2 DUP9 MUL ADD DUP9 SSTORE POP POP POP JUMPDEST POP POP POP POP POP POP JUMP INVALID LOG2 PUSH5 0x6970667358 0x22 SLT KECCAK256 0xC6 DUP9 DELEGATECALL SWAP5 0xCE 0x2E SUB CODESIZE SDIV 0xC5 PUSH3 0x989621 SWAP5 0x2E DUP15 MULMOD PUSH19 0x48E2BF8CC701B6FBE84280F60B64736F6C6343 STOP ADDMOD BYTE STOP CALLER "
				},
				"gasEstimates": {
					"creation": {
						"codeDepositCost": "861000",
						"executionCost": "894",
						"totalCost": "861894"
					},
					"external": {
						"getSingleTweet(address,uint256)": "infinite",
						"getTweetLength(address)": "infinite",
						"getTweets(address)": "infinite",
						"postTweet(uint256,string)": "infinite",
						"tweetsByUser(address,uint256)": "infinite"
					}
				},
				"methodIdentifiers": {
					"getSingleTweet(address,uint256)": "56df6339",
					"getTweetLength(address)": "959052a7",
					"getTweets(address)": "9e92b093",
					"postTweet(uint256,string)": "89883310",
					"tweetsByUser(address,uint256)": "398f8a5d"
				}
			},
			"storageLayout": {
				"storage": [
					{
						"astId": 16,
						"contract": "contracts/Struct-Twitter.sol:Twitter",
						"label": "tweetsByUser",
						"offset": 0,
						"slot": "0",
						"type": "t_mapping(t_address,t_array(t_struct(Tweet)10_storage)dyn_storage)"
					}
				],
				"types": {
					"t_address": {
						"encoding": "inplace",
						"label": "address",
						"numberOfBytes": "20"
					},
					"t_array(t_struct(Tweet)10_storage)dyn_storage": {
						"base": "t_struct(Tweet)10_storage",
						"encoding": "dynamic_array",
						"label": "struct Twitter.Tweet[]",
						"numberOfBytes": "32"
					},
					"t_mapping(t_address,t_array(t_struct(Tweet)10_storage)dyn_storage)": {
						"encoding": "mapping",
						"key": "t_address",
						"label": "mapping(address => struct Twitter.Tweet[])",
						"numberOfBytes": "32",
						"value": "t_array(t_struct(Tweet)10_storage)dyn_storage"
					},
					"t_string_storage": {
						"encoding": "bytes",
						"label": "string",
						"numberOfBytes": "32"
					},
					"t_struct(Tweet)10_storage": {
						"encoding": "inplace",
						"label": "struct Twitter.Tweet",
						"members": [
							{
								"astId": 3,
								"contract": "contracts/Struct-Twitter.sol:Twitter",
								"label": "id",
								"offset": 0,
								"slot": "0",
								"type": "t_uint256"
							},
							{
								"astId": 5,
								"contract": "contracts/Struct-Twitter.sol:Twitter",
								"label": "content",
								"offset": 0,
								"slot": "1",
								"type": "t_string_storage"
							},
							{
								"astId": 7,
								"contract": "contracts/Struct-Twitter.sol:Twitter",
								"label": "author",
								"offset": 0,
								"slot": "2",
								"type": "t_address"
							},
							{
								"astId": 9,
								"contract": "contracts/Struct-Twitter.sol:Twitter",
								"label": "timestamp",
								"offset": 0,
								"slot": "3",
								"type": "t_uint256"
							}
						],
						"numberOfBytes": "128"
					},
					"t_uint256": {
						"encoding": "inplace",
						"label": "uint256",
						"numberOfBytes": "32"
					}
				}
			},
			"userdoc": {
				"kind": "user",
				"methods": {},
				"version": 1
			}
		}
	}
}